:0200000280007C
:10000000F03007202D6B0800256B0800256B0800D9
:10001000256B0800256B0800256B08000000000018
:10002000000000000000000000000000256B080038
:10003000256B080000000000256B0800A15D08008A
:10004000256B0800256B0800256B0800256B080050
:10005000256B0800256B0800256B0800256B080040
:10006000256B0800256B080000000000256B0800C8
:10007000256B0800256B0800256B080000000000B8
:1000800000000000256B0800256B0800256B0800A8
:10009000256B0800256B0800256B0800256B080000
:1000A000256B080000000000256B0800256B080088
:1000B000256B0800256B0800256B0800256B0800E0
:1000C000256B0800256B0800256B0800256B0800D0
:1000D000256B0800256B0800256B0800B54C08004F
:1000E000256B0800256B0800256B0800256B0800B0
:1000F000256B080010B5054C237833B9044B13B1B8
:100100000448AFF300800123237010BD600B07206B
:1001100000000000B4C508000C4B43B10C4810B5FA
:100120000C49AFF300800C48036823B910BD0A489E
:10013000036833B97047094B002BF7D0BDE8104076
:100140001847064B002BF5D0184700BF00000000F1
:10015000B4C50800640B0720B4C508000000000007
:1001600080B487B000AFF860084611461A460346CF
:100170007B810B463B811346FB717A893B89D31AFD
:100180000733002B00DA0733DB10013BFA68134416
:100190001B781A463B8903F0070342FA03F37B619D
:1001A0003B8903F00702FB791344082B16DD7A899B
:1001B0003B89D31A0733002B00DA0733DB10023BED
:1001C000FA6813441B781A463B8903F00703C3F10E
:1001D000080302FA03F37A6913437B613B8903F056
:1001E0000702FB791344102B16DD7A893B89D31A59
:1001F0000733002B00DA0733DB10033BFA681344A4
:100200001B781A463B8903F00703C3F1100302FA77
:1002100003F37A6913437B613B8903F00702FB799F
:100220001344102B16DD7A893B89D31A0733002B30
:1002300000DA0733DB10033BFA6813441B781A46D5
:100240003B8903F00703C3F1100302FA03F37A6951
:1002500013437B61FB79012202FA03F3013B7A69C4
:1002600013407B617B6918461C37BD4680BC7047D4
:1002700080B582B000AF41F268037B60174944F259
:100280000150174B9847034683F00103DBB2002B64
:1002900001D000231EE0134B984738603B68002BC9
:1002A0000FDA3B6803F0C043B3F1804F10D10E4B1F
:1002B0001B680D4A1268D27A42F00802D2B2DA7292
:1002C00006E07B685A1E7A60002BD7D1002301E03C
:1002D00000BF012318460837BD4680BD00801F407F
:1002E000E11B0800251C0800A00B072080B586B084
:1002F00000AF0346FB7140F634033B61002141F23D
:100300003710214B9847034683F00103DBB2002BE3
:1003100001D0002334E04FF4FC137B61FB79002B08
:1003200003D07B6943F080437B61796944F22950B3
:10033000154B9847034683F00103DBB2002B01D035
:1003400000231DE0114B9847F860FB68002B0EDA84
:10035000FB6803F08043002B10D00D4B1B680C4A48
:100360001268D27A42F00802D2B2DA7206E03B6931
:100370005A1E3A61002BC1D1002301E000BF0123C6
:1003800018461837BD4680BDE11B0800251C080033
:10039000A00B072080B582B000AF002144F20550C9
:1003A000234B9847034683F00103DBB2002B01D0B7
:1003B000012339E01F4B984778607B6803F0E043E6
:1003C000002B01D101232FE041F288333B607B6891
:1003D00003F4FC13194644F20550154B98470346A5
:1003E00083F00103DBB2002B01D000231CE0114B92
:1003F000984778607B68002B06DB3B685A1E3A60A2
:10040000002BE4D100230FE000BF7B6803F0006302
:10041000002B04D0084B1B680522DA7203E0064B60
:100420001B680422DA72012318460837BD4680BDD6
:10043000E11B0800251C0800A00B072090B58BB01D
:1004400002AF0923BB610023BB750FE0BB7D3A46B9
:10045000134400930023BA6900210020464CA047B2
:10046000BB690133BB61BB7D0133BB75BB7D032B16
:10047000ECD93B781A467B781B021A44BB781B04E4
:100480001A44FB781B061344BB61BB69FB61002364
:10049000BB750FE0BB7D3A1D134400930023FA693E
:1004A00000210020344CA047FB690133FB61BB7D78
:1004B0000133BB75BB7D022BECD93B79FF2B01D1FE
:1004C000002355E03B79222B02D1BB79002B12D0BF
:1004D0007B79002B01D100234AE07B791A46FB6926
:1004E0001344013BFB61BB6903F58072FB699A42CF
:1004F000CDD200233CE000BFFB69033BFB6100233E
:10050000BB750FE0BB7D3A1D134400930023FA69CD
:1005100000210020184CA047FB690133FB61BB7D23
:100520000133BB75BB7D052BECD97B7AFB75FB7D5D
:10053000322B01D93223FB75FB7D03F007030F4AF1
:1005400052F823303B61FB7DDB08DBB203F00F0385
:100550000B4A52F82330FB600A4B1B683A69F96872
:1005600001FB02F24FF47A7101FB02F21A600123DF
:1005700018462437BD4690BD0D0C080080BB08000E
:100580009CBB0800A00B072090B585B002AFFB1DF7
:1005900000930023082200210020154CA0470346A9
:1005A00083F00103DBB2002B01D000231CE0FB79B8
:1005B0005BB2002B01DB012316E00223FB71FB1D64
:1005C00000930123072200210120094CA047034684
:1005D00083F00103DBB2002B01D0002304E0054BC4
:1005E0001B6804225A73012318460C37BD4690BD80
:1005F0000D0C0800A00B072090B585B002AFFB1DC5
:1006000000930023132200210020194CA047034629
:1006100083F00103DBB2002B01D0002324E0FB793F
:1006200003F00103002B01D101231DE00223FB7124
:10063000FB1D009301231322002101200C4CA04735
:10064000034683F00103DBB2002B01D000230BE053
:10065000084B1B6801229A77064B1B68054A1268F3
:10066000126852001A60012318460C37BD4690BD2F
:100670000D0C0800A00B072090B593B002AF3B46CD
:100680004022002118462F4B984701230093012355
:1006900040222D492D482E4CA047034683F00103EC
:1006A000DBB2002B01D0002347E03B460121184676
:1006B000284B9847034683F00103DBB2002B01D09F
:1006C00000233AE0244B9847034683F00103DBB252
:1006D000002B01D0002330E0204B9847034603F065
:1006E0008003002B01D0002327E0384604234FF479
:1006F000BC724FF400711A4CA04703460F2B01D176
:1007000001231AE0384610234FF488724FF4007129
:10071000134CA0470346002B01D000230DE0114BE2
:100720009847114B1B6801229A770F4B1B680E4AA2
:100730001268126852001A60012318464437BD46F9
:1007400090BD00BF3173080001FFFF800611080053
:10075000A11C08006D1E0800551F0800251C08007C
:1007600061010800A11B0800A00B072080B584B020
:1007700000AF0346FB71FB79042B04D0082B05D195
:10078000134BFB6005E0134BFB6002E0124BFB6078
:1007900000BFF96843F20610104B9847034683F0F8
:1007A0000103DBB2002B01D000230DE00C4B984776
:1007B000034603F08003002B01D0002304E0094B23
:1007C0001B68FA795A73012318461037BD4680BD5D
:1007D0000002B7010001B7010000B701E11B0800EA
:1007E000251C0800A00B072080B500AF104943F27C
:1007F0000610104B9847034683F00103DBB2002B31
:1008000001D0002311E00C4B9847034603F080030E
:10081000002B01D0002308E0084B1B6801229A77C7
:10082000064B1B68064A1A600123184680BD00BFAC
:100830000001B903E11B0800251C0800A00B0720DC
:100840000075190380B584B000AF78607B68002222
:100850001A704FF4D57145F20850114B9847034672
:1008600083F00103DBB2002B01D0012314E00D4B18
:100870009847F860FB68B3F1FF3F01D101230BE01B
:10088000FB68C3F30B03B3F5D57F01D0002303E06E
:100890007B6801221A70012318461037BD4680BDBF
:1008A000E11B0800251C080090B589B002AF7860F4
:1008B0000023009301234FF4007200213348344C8D
:1008C000A047034683F00103DBB2002B01D00023D5
:1008D00058E00023FB820FE007F1100318462D4B70
:1008E0009847034683F00103DBB2002B01D00023BD
:1008F00048E0FB8A0133FB82FB8A312BECD93B6950
:10090000DBB203F00203DAB27B681A70224B1B6879
:1009100003F10E000C233E228021204CA04702460A
:1009200040F6FF739A4229D10FE007F10C031846F5
:10093000184B9847034683F00103DBB2002B01D02C
:1009400000231FE0FB8A0133FB82FB8A352BECD9A5
:10095000114B1B68FA6852085A600FE007F10C034C
:1009600018460C4B9847034683F00103DBB2002B7B
:1009700001D0002306E0FB8A0133FB82FB8A7F2B38
:10098000ECD9012318461C37BD4690BD081108005C
:10099000A11C0800D11D0800A00B07206101080060
:1009A00080B500AF0C4B1B681B891B04194641F630
:1009B00009300A4B9847034683F00103DBB2002B52
:1009C00001D0002306E0044B1B680E331846044B8D
:1009D00098470123184680BDA00B0720E11B0800A3
:1009E000371C0800B0B584B000AF484B1B6803F15A
:1009F0000E0004237A228021454CA0470346013B88
:100A0000032B0BD801A252F823F000BF270A0800DD
:100A1000310A08003B0A0800450A08003B4B1B68E6
:100A200012221A7313E0394B1B6814221A730EE05A
:100A3000364B1B6822221A7309E0344B1B683022A4
:100A40001A7304E0314B1B6840221A7300BF2F4B0E
:100A50001B6803F10E000823602280212C4CA04764
:100A6000F860FB6803F007032A4A52F82330BB60A2
:100A7000FB68DB0803F00F03274A52F823307B6042
:100A8000224B1B68BA68796801FB02F24FF47A7155
:100A900001FB02F21A601D4B1B6803F10E000C23D0
:100AA0003E2280211A4CA047024640F6FF739A422C
:100AB00028D0164B1B6803F10E000C233E22802128
:100AC000134CA04703465C1C104B1B6803F10E003F
:100AD00003232F2280210E4DA8470346023304FA38
:100AE00003F33B60094B1C68084B1B6803F10E00C5
:100AF000042350228021064DA84702463B689340BC
:100B00009B0A636000BF1037BD46B0BDA00B072035
:100B10006101080080BB0800DCBB0800B0B584B0F0
:100B200000AF364B1B6803F10E00082360228021C2
:100B3000334CA047F860FB6803F00703314A52F8D2
:100B40002330BB60FB68DB0803F00F032E4A52F82A
:100B500023307B60294B1B68BA68796801FB02F27D
:100B60004FF47A7101FB02F21A60244B1B6803F107
:100B70000E0002237E228021214CA0470346002B39
:100B80000FD01E4B1C681D4B1B6803F10E00162373
:100B9000302280211A4DA847034601335B0263606F
:100BA00028E0164B1B6803F10E000C233E22802127
:100BB000134CA04703465C1C104B1B6803F10E004E
:100BC00003232F2280210E4DA8470346023304FA47
:100BD00003F33B60094B1C68084B1B6803F10E00D4
:100BE000042350228021064DA84702463B689340CB
:100BF0009B0A636000BF1037BD46B0BDA00B072045
:100C00006101080080BB08009CBB080080B582B071
:100C100000AF3A601A460346FB710B46BB711346A0
:100C20007B713B691B781A46FB79DB071A43BB795A
:100C30001B071A437B79DB061A433B685B021343AD
:100C4000194641F234300A4B9847034683F00103BA
:100C5000DBB2002B01D0002306E0064B9847034689
:100C6000DAB23B691A70012318460837BD4680BDC9
:100C7000E11B0800251C080080B500AF124B1B6863
:100C80001B891B04194641F23710104B9847034645
:100C900083F00103DBB2002B01D0002311E002211D
:100CA00041F20610094B9847034683F00103DBB27B
:100CB000002B01D0002304E0034B1B6804225A736D
:100CC0000123184680BD00BFA00B0720E11B0800D0
:100CD00090B585B002AF364B1B681B891B041946C3
:100CE00041F23710334B9847034683F00103DBB2E0
:100CF000002B01D0002357E0012300930123082299
:100D000000212D482D4CA047034683F00103DBB2A0
:100D1000002B01D0002347E03B4601211846284B19
:100D20009847034683F00103DBB2002B01D0002378
:100D30003AE0244B9847034683F00103DBB2002BD3
:100D400001D0002330E038460423382240211E4CD5
:100D5000A0470346012B09D0012B02D3022B0AD056
:100D60001CE0134B1B6810221A731CE0104B1B680D
:100D70001A221A7317E0384601232F224021124C01
:100D8000A0470346012B04D1094B1B6830221A737C
:100D900009E0074B1B6820221A7304E0044B1B6810
:100DA00010221A7300BF012318460C37BD4690BDB0
:100DB000A00B0720E11B080033110800A11C08004C
:100DC0006D1E0800551F08006101080080B582B043
:100DD00000AF0346FB71FB79002B01D0042340E0F8
:100DE000FB79224A5B0113440A331B78042B07D09A
:100DF000FB791E4A5B0113440A331B78032B1AD17B
:100E0000FB791A4A5B0113440A3302221A70FB79F8
:100E1000164A5B011344164A1A60FB79134A5B01B8
:100E200013440D3301221A70FB79104A5B011344FD
:100E30001E3300221A700F4AFB791370FB795B0195
:100E40000A4A13440C4A13600C4B9847FB79074A33
:100E50005B0113440A331B78022B0CBF01230023D0
:100E6000DBB218460837BD4680BD00BF7C0B0720AB
:100E7000801A06009C0B0720A00B0720810E08009B
:100E800098B500AF094B1878094B1B681968084BD7
:100E90001B685A7B064B1B689B7F002B14BF0123EA
:100EA0000023DBB2034CA04700BF98BD9C0B07207A
:100EB000A00B0720ED1A080080B500AF054B1B788A
:100EC000002B04D1034B1B781846034B984700BFF7
:100ED00080BD00BF9C0B07208D1B080090B585B01E
:100EE00002AF0023FB710823BB719A4B1B680122E0
:100EF000DA72984B1B6800221A73964B1B6800220B
:100F00001A81954B9847BB1D0093002306220021B0
:100F10000120924CA04700214FF48040904B98470D
:100F2000034683F00103DBB2002B01D000230DE167
:100F3000FB1D18468B4B9847034683F00103DBB239
:100F4000002B01D0002301E1874B9847034683F033
:100F50000103DBB2002B01D00023F7E07D4B1B68BF
:100F6000DB7A03F00103002B11D0FB7918467F4B8D
:100F70009847034683F00103DBB2002B07D0754B83
:100F80001B680222DA727A4B98470346DEE0714B07
:100F90001B68DB7A03F00103002B0CD0002145F61F
:100FA00002306F4B9847034683F00103DBB2002BFE
:100FB00001D00023CAE0002145F20310684B984796
:100FC000034683F00103DBB2002B01D00023BDE018
:100FD000604B1C68674B984703461B0C9BB22381F0
:100FE0005C4B1B68DB7A03F00103002B0BD0624BD8
:100FF0009847034683F00103DBB2002B01D00023A6
:10100000A4E05E4B9847534B1B681B891B04194691
:1010100043F20710524B9847034683F00103DBB2BB
:10102000002B01D0002391E04A4B1B68DB7A03F0D0
:101030000103002B09D0524B9847034683F001036C
:10104000DBB2002B01D0002380E0424B1B68DB7A2F
:1010500003F00403002B09D04A4B9847034683F062
:101060000103DBB2002B01D000236FE0464B1B785D
:101070001846464B98470346032B23D9354B1B682C
:10108000DB7A03F00403002B09D0414B9847034659
:1010900083F00103DBB2002B01D0002356E02D4B7F
:1010A0001B68DB7A03F00103002B09D0394B98470A
:1010B000034683F00103DBB2002B01D0002345E09F
:1010C000354B9847354B98470346002B28D0214B8A
:1010D0001B68DB7A03F00403002B09D0304B9847E0
:1010E000034683F00103DBB2002B01D000232DE087
:1010F000184B1B68DB7A03F00103002B0ED0154B55
:101100001B681B7B102B09D9264B9847034683F09D
:101110000103DBB2002B01D0002317E01E4B9847E0
:101120000C4B1B68DB7A03F00103002B0DD04FF44E
:10113000007141F210100A4B9847034683F00103F7
:10114000DBB2002B01D0002300E0012318460C374E
:10115000BD4690BDA00B0720A11B08000D0C080088
:10116000E11B08004508080095030800ED0208008F
:10117000A9110800251C0800A10908001D0B080082
:10118000D10C08003D0408009C0B0720BD1A080084
:1011900089050800790C0800810E0800DD1A080096
:1011A000F90508007906080080B582B000AF00217B
:1011B0004FF48040564B9847034683F00103DBB25F
:1011C000002B01D000239FE0524B9847034683F049
:1011D0000103DBB2002B01D0002395E0002145F68E
:1011E00002304B4B9847034683F00103DBB2002BE0
:1011F00001D0002388E0484B1B6801221A81464B2E
:101200001B681B891B04194641F20310404B984789
:10121000034683F00103DBB2002B01D0002373E00F
:101220003E4B9847034683F00103DBB2002B01D00D
:10123000002369E03A4B9847374B1B681B891B0416
:10124000194643F20710324B9847034683F00103D7
:10125000DBB2002B01D0002356E02F4B1B681B7B19
:101260003F2B3BD9BB1D18462E4B9847034683F0B6
:101270000103DBB2002B01D0002345E02A4B1B7891
:1012800018462A4B98470346032B12D9264B1B7846
:101290001846264B984703461846254B9847034661
:1012A00083F00103DBB2002B01D000232CE0214BA3
:1012B0009847214B98470346002B11D0BB79002B50
:1012C0000ED01E4B9847034683F00103DBB2002B80
:1012D00001D0002318E0174B984701E0154B9847C1
:1012E0000A23FB710AE04FF4007141F21010084B21
:1012F00098470346002B01D0012305E0FB795A1ED5
:10130000FA71002BEFD1002318460837BD4680BD87
:10131000E11B080071020800A00B0720A1090800CA
:10132000E5090800A90808009C0B0720BD1A080061
:101330006D070800810E0800DD1A0800E9070800A3
:1013400080B582B000AF0023FB7109E0FB790A4A47
:101350005B0113440A3304221A70FB790133FB71D9
:10136000FB79002BF2D0054BFF221A70044B9847F3
:1013700000BF0837BD4680BD7C0B07209C0B0720B3
:10138000791A080080B584B000AF0346FB71FB7981
:101390001846114B98470346FB73FB7B012B03D088
:1013A0000E4B9847FB7B13E00D4B98470346002BF1
:1013B00007D00C4B1B6800229A72084B98470123F8
:1013C00006E0084B1B6803229A72044B98470323DC
:1013D00018461037BD4680BDCD0D0800B90E080077
:1013E000DD0E0800A00B072080B582B000AF0346D9
:1013F000FB71FB791846084B98470346002B01D038
:10140000002304E0054B9847054B1B68DB7A184620
:101410000837BD4680BD00BFCD0D0800B90E0800DD
:10142000A00B072080B582B000AF0346FB71FB79AB
:101430001846084B98470346002B01D0002304E0D0
:10144000054B9847054B1B685B6818460837BD4637
:1014500080BD00BFCD0D0800B90E0800A00B07200D
:1014600080B483B000AF0346FB71002318460C37ED
:10147000BD4680BC7047000080B582B000AF034617
:10148000FB71FB791846154B98470346012B17D083
:10149000022B17D0002B1BD1FB79114AD35C002BF8
:1014A00001D0022315E0FB7918460E4B98470346FE
:1014B00003F00303002B01D000230AE0022308E01D
:1014C000032306E0FB79064A0021D154022300E001
:1014D000012318460837BD4680BD00BF85130800AC
:1014E000A40B0720E913080080B500AF0020024BD1
:1014F00098470346184680BD7914080080B500AFB0
:101500000120024B98470346184680BD7914080015
:1015100080B582B000AF03463960FB71FB79184695
:10152000074B984703465B005A1E3B681A60FB79DD
:101530001846044B9847034618460837BD4680BDF9
:10154000251408007914080080B582B000AF7860D7
:1015500079680020034B9847034618460837BD4674
:1015600080BD00BF1115080080B582B000AF786063
:1015700079680120034B9847034618460837BD4653
:1015800080BD00BF1115080080B483B000AF0346D2
:101590000A46FB711346BB71FB790449BA79CA54F8
:1015A000012318460C37BD4680BC7047A40B0720AA
:1015B00080B582B000AF0346FB71FB79194600206D
:1015C000034B9847034618460837BD4680BD00BF09
:1015D0008915080080B582B000AF0346FB71FB7926
:1015E00019460120034B9847034618460837BD4665
:1015F00080BD00BF8915080080B582B000AF0346EA
:10160000FB71FB791846034B984703461846083789
:10161000BD4680BD6114080080B500AF0020024BBC
:1016200098470346184680BDF915080080B500AFFD
:101630000120024B98470346184680BDF915080063
:1016400080B483B000AF0346FB71012318460C370A
:10165000BD4680BC7047000080B500AF0020024B43
:1016600098470346184680BD4116080080B500AF74
:101670000120024B98470346184680BD41160800DA
:1016800080B582B000AF78607868044B984778687E
:10169000034B984700BF0837BD4680BD5123080063
:1016A0009923080080B582B000AF78607868044B59
:1016B00098477868034B984700BF0837BD4680BD00
:1016C00069230800B123080080B584B000AF034649
:1016D000FB71FB79012B0AD8FA79084913465B00A4
:1016E0001344DB000B441B689847034600E00123CA
:1016F000FB73FB7B18461037BD4680BD4CBC080011
:1017000080B584B000AF03463960FB71FB79012BD3
:101710000CD8FA79094913465B001344DB000B44EB
:1017200004331B6838689847034600E00123FB73C5
:10173000FB7B18461037BD4680BD00BF4CBC08007F
:1017400080B485B000AF0346FB71FB79012B94BFD9
:1017500001230023DBB2FB73FB7B18461437BD4625
:1017600080BC704780B584B000AF0346FB71FB7945
:10177000012B0CD8FA790A4913465B001344DB00AD
:101780000B440C331B6898470346002B01D0012300
:1017900000E00023FB73FB7B18461037BD4680BD7D
:1017A0004CBC080080B483B000AF78607B68072B26
:1017B00025D801A252F823F0D9170800DF17080036
:1017C000E5170800EB170800EF170800F3170800EB
:1017D000F7170800FB1708004FF4FA4310E04FF426
:1017E00000430DE04FF400430AE0084B08E0084BCB
:1017F00006E0084B04E0074B02E0064B00E0002344
:1018000018460C37BD4680BC704700BF00093D003C
:1018100000127A00001BB70080B500AF0620044B11
:10182000984702461346DB009B1A5B00184680BDB2
:10183000A517080080B500AF024B984703465B0828
:10184000184680BD1918080080B487B000AF4FF06B
:1018500080435B687B614FF080439B683B614FF046
:101860008043DB68FB604FF08043DB69BB604FF077
:1018700080435B6D7B604FF0804380221A604FF0A5
:1018800080427B6953604FF080423B6993604FF028
:101890008042FB68D3604FF08042BB68D3614FF059
:1018A00080427B6853654FF0804300221A654FF0F9
:1018B000804305221A6000BF1C37BD4680BC7047BC
:1018C00080B485B000AF786039600023FB600023EE
:1018D000BB607B685A003B689A421BD27B685B0006
:1018E0003A68B2FBF3F3FB607B685A003B68B3FBDA
:1018F000F2F102FB01F29B1ABB60BB68002B02D025
:10190000FB680133FB60FB68002B05D0FB68013BE3
:10191000FB6001E00023FB604FF080424FF080430A
:101920005B6823F0FF0353604FF080414FF080432A
:101930005A68FB68DBB213434B6000BF1437BD46E7
:1019400080BC704780B582B000AF4FF0FF337B6042
:101950004FF080431B6C3B607B685A1E7A60002B03
:1019600003D1094B984700230AE03B6803F02003AA
:10197000002BEDD03B6803F01003002BE8D10123CE
:1019800018460837BD4680BD4918080080B586B0A6
:1019900000AFF860B9607A60BB6803F03F03FA6893
:1019A0001343FB60BB6803F48073002B1BD0FB6800
:1019B00043F48053FB60BB6803F40063002B04D046
:1019C000FB6843F08003FB600DE0BB6803F4005349
:1019D000002B04D0FB6843F0C003FB6003E0FB680E
:1019E00043F04003FB60BB6803F48043002B03D04B
:1019F000FB6843F40063FB604FF080427B68136137
:101A00004FF08042FB6853614FF080431B6C7B6159
:101A1000BB6803F48053002B08D07B6903F41F03D9
:101A2000002B0CD0124B984700231DE07B6903F478
:101A30001B03002B03D00E4B9847002314E07B6957
:101A400003F00103002BDFD0BB6803F40053002B2D
:101A500009D0084B9847034683F00103DBB2002B03
:101A600001D0002300E0012318461837BD4680BD91
:101A7000491808004519080080B500AF15200E4B25
:101A8000984727200C4B98474FF0804372229A606A
:101A90004FF080437222DA614FF0804311225A6581
:101AA0004FF080434FF4E0625A604FF080430522CC
:101AB0001A6000BF80BD00BFD166080080B483B04B
:101AC00000AF0346FB71FB79002B01D1042300E03A
:101AD000002318460C37BD4680BC704780B400AF69
:101AE00001231846BD4680BC7047000080B584B015
:101AF00000AF396011461A460346FB710B46BB71B5
:101B000013467B710023FB600023BB607B79002BB5
:101B100008D04FF080424FF080435B6D43F48073F8
:101B2000536507E04FF080424FF080435B6D23F434
:101B300080735365134B9847034619463868124B18
:101B40009847FB79002B02D10023FB6000BFBB79D3
:101B5000042B06D0082B07D0012B08D10023BB6033
:101B600005E08023BB6002E0C023BB6000BF4FF0F4
:101B70008041FA68BB681343CB6000BF1037BD4695
:101B800080BD00BF35180800C118080080B483B0BC
:101B900000AF0346FB7100BF0C37BD4680BC7047E9
:101BA00080B400AF4FF080424FF080435B6823F475
:101BB000605353604FF0804300221A614FF080431E
:101BC0004FF410625A6100BF4FF080431B6C03F06A
:101BD0000103002BF8D000BFBD4680BC7047000059
:101BE00080B582B000AF786039604FF080424FF02E
:101BF00080435B6823F4605353604FF080430022BE
:101C00001A654FF0804300229A613A687968002093
:101C1000034B9847034618460837BD4680BD00BFB2
:101C20008D19080080B400AF4FF080431B6A18463E
:101C3000BD4680BC704780B485B000AF786000239B
:101C4000FB7325E04FF080431B6ABB60BB681B0E33
:101C5000DAB27B681A707B6801337B60BB681B0C4F
:101C6000DAB27B681A707B6801337B60BB681B0A41
:101C7000DAB27B681A707B6801337B60BB68DAB2CA
:101C80007B681A707B6801337B60FB7B0133FB73DD
:101C9000FB7B032BD6D900BF1437BD4680BC7047F1
:101CA00080B586B000AFF860B96011461A460B46A1
:101CB000FB801346BB8097F82030002B05D04FF0F7
:101CC00080434FF480721A6503E04FF08043002296
:101CD0001A654FF080424FF080435B6843F4C05375
:101CE0005360FB8803F00303002B08D04FF08042C1
:101CF0004FF080435B6843F40053536007E04FF0BC
:101D000080424FF080435B6823F400535360FB68CC
:101D100003F40043002B03D04FF480337B6102E0D7
:101D20004FF4A0237B61FB6803F48033002B0AD0BF
:101D30007B6943F400137B614FF08042FB88C3F35F
:101D40000803936128E04FF08041FB881A04BB88A8
:101D500013438B61FB6803F40033002B04D07B69D1
:101D600043F420137B6117E0FB6803F48023002B0E
:101D700004D07B6943F480137B610DE0FB6803F4BE
:101D80000023002B08D1FB6803F48013002B03D041
:101D90007B6943F400237B61094B00221A60094AE6
:101DA000FB881380084ABB881380BA68F968786991
:101DB000064B9847034618461837BD4680BD00BFFE
:101DC000A80B0720AC0B0720AE0B07208D190800CD
:101DD00080B584B000AF78604FF080431B6CFB602F
:101DE000FA681D4B1340002B03D01C4B984700236F
:101DF0002EE0FB6803F00203002BEDD04FF0804390
:101E00001A6B7B681A60164B1B680433144A136004
:101E1000144B1B881A46144B1B8803FB02F2104B11
:101E20001B689A4201D9012312E04FF080431B6CDA
:101E3000FB60FA68084B1340002B03D0074B984710
:101E4000002305E0FB6803F00063002BEDD00123C5
:101E500018461037BD4680BD000060C04918080014
:101E6000A80B0720AC0B0720AE0B072080B58AB06B
:101E700000AF78600B467B807B882B4A128802FB80
:101E800003F37B624FF080435B6803F40053002B45
:101E900004D17B6803F00303002B01D0012300E091
:101EA000002387F8233097F8233003F0010387F8E5
:101EB00023301E481E4B984700211C481D4B984755
:101EC0001D4BFB61FA69002118481C4B98471C4BBD
:101ED000BB607B68FB6097F82330002B03D07B6AE4
:101EE0009BB23B6105E07B6A9B089BB243F00853C1
:101EF0003B61144B7B610023BB6107F108031A4669
:101F000000210A48104B9847002108480F4B98477A
:101F10000F4B1A687B6A13440D4A1360012318465D
:101F20002837BD4680BD00BFAC0B072000400C40E9
:101F30008F620800136308000002010103640800B7
:101F400030000040000051422D640800F562080096
:101F5000A80B072080B582B000AF4FF080431B6C08
:101F60007B607A68134B1340002B07D0124B9847C5
:101F700000211248124B9847002317E0114B1B8891
:101F80001A46114B1B8803FB02F2104B1B689A4246
:101F900006D97B6803F00073002B01D0012305E014
:101FA0007B6803F00063002BD7D001231846083765
:101FB000BD4680BD000060C04918080000400C40CC
:101FC00013630800AC0B0720AE0B0720A80B0720FB
:101FD00080B483B000AF786039603B68002B06D0D6
:101FE0007B685B6843F001027B685A6005E07B68B0
:101FF0005B6823F001027B685A6000BF0C37BD4666
:1020000080BC704780B487B000AFF860B9607A6078
:102010003B60FB689B687B6102E0FB689B687B61BF
:10202000FB689A687B699A42F7D1BB68002B1CD089
:102030007B691B0C03F03F033B613B691A091346A4
:102040009B0013445B001A463B6903F00F031A44DC
:10205000BB681A607B6903F48003002B05D0BB6862
:102060001B6803F10C02BB681A607B68002B11D05F
:102070007B691B0A03F07F033B613B691A09134626
:102080009B0013445B001A463B6903F00F031A449C
:102090007B681A603B68002B10D07B6903F07F03DC
:1020A0003B613B691A0913469B0013445B001A46C7
:1020B0003B6903F00F031A443B681A6000BF1C37EA
:1020C000BD4680BC704780B489B000AFF860B9608D
:1020D0007A603B60FB68DB68FB6102E0FB68DB6801
:1020E000FB61FB68DA68FB699A42F7D1BB68002B99
:1020F00024D0FB6903F07F03BB61BB691A09134657
:102100009B0013445B001A46BB6903F00F031344A2
:102110007B61FB691B0ADBB2BB617B69642202FB4A
:1021200003F1BB691A0913469B0013445B00CA18EC
:10213000BB6903F00F031A44BB681A607B68002B6D
:1021400011D0FB691B0C03F01F03BB61BB691A09AB
:1021500013469B0013445B001A46BB6903F00F0350
:102160001A447B681A603B68002B11D0FB691B0E78
:1021700003F03F03BB61BB691A0913469B0013447C
:102180005B001A46BB6903F00F031A443B681A60F0
:10219000BB6A002B05D0FB695B0D03F00702BB6A2D
:1021A0001A6000BF2437BD4680BC704780B487B03A
:1021B00000AFF860B9607A60BB685A087B681A445F
:1021C000BB68B2FBF3F37B617B69032B03D97B69AB
:1021D000B3F5803F01D3012303E0FB687A691A62FB
:1021E000002318461C37BD4680BC704780B582B0BE
:1021F00000AF786078680D4B98477B6800225A6082
:102200007B6800225A627B6800229A627868084BD9
:1022100098477868074B98477868074B98477868DD
:10222000064B984700BF0837BD4680BD49240800CB
:1022300081230800C9230800E1230800FB230800CC
:1022400080B584B000AFF860B9607A60F8683D4B43
:1022500098473D4B00221A60BB68002B0DD0BB682D
:102260009B68032B09D8BB681B687A681946F86815
:10227000364B98470346002B01D001235DE0BB6835
:102280005A68314B1B6813432F4A1360BB68DA68E6
:102290002D4B1B68134343F4802343F00E032A4A5B
:1022A0001360BB689B68032B3ED801A252F823F051
:1022B000C1220800DB220800F52208000F230800D5
:1022C000214B1B6843F480731F4A13601E4B1B682D
:1022D00023F480331C4A136027E01B4B1B6823F454
:1022E0008073194A1360184B1B6823F48033164A15
:1022F00013601AE0144B1B6843F48073124A136096
:10230000114B1B6843F480330F4A13600DE00E4BF2
:102310001B6823F480730C4A13600B4B1B6843F457
:102320008033094A136000E000BFFB685A68064B1F
:102330001B681A43FB685A60002318461037BD46D5
:1023400080BD00BFED210800B00B0720AD210800C3
:1023500080B483B000AF78607B6840221A6000BF11
:102360000C37BD4680BC704780B483B000AF786046
:102370007B6880221A6000BF0C37BD4680BC704766
:1023800080B483B000AF78607B6888221A6000BF99
:102390000C37BD4680BC704780B483B000AF786016
:1023A0007B6810221A6000BF0C37BD4680BC7047A6
:1023B00080B483B000AF78607B6820221A6000BFD1
:1023C0000C37BD4680BC704780B483B000AF7860E6
:1023D0007B6824221A6000BF0C37BD4680BC704762
:1023E00080B483B000AF78607B684FF480721A606D
:1023F00000BF0C37BD4680BC704780B483B000AFCF
:1024000078607B684FF400221A6000BF0C37BD462D
:1024100080BC704780B483B000AF78607B684FF4B5
:1024200080221A6000BF0C37BD4680BC704780B464
:1024300083B000AF78607B684FF400221A6000BF61
:102440000C37BD4680BC704780B483B000AF786065
:102450007B68044AC3F8E42000BF0C37BD4680BC4B
:10246000704700BF0041535580B584B000AF0346AC
:10247000FB7100211748184B9847FB79022B01D9B3
:10248000012322E00023FB600BE0FB791846134B8D
:1024900098470346FB72FB7A032B06D1FB68013396
:1024A000FB60FB68012BF0DD00E000BFFB7A002B36
:1024B00001D0012309E0FB791846094B98470346F0
:1024C000002B01D0042300E0002318461037BD463E
:1024D00080BD00BF601A0E40D11F0800C916080059
:1024E0006517080080B582B000AF0346FB71FB7929
:1024F0001846084B98470346002B02D0022B02D007
:1025000003E0002302E0032300E00123184608371C
:10251000BD4680BDC916080080B485B000AFB96063
:102520007A601A460346FB731346BB7301231846B1
:102530001437BD4680BC704780B485B000AFB96029
:102540007A601A460346FB731346BB730123184691
:102550001437BD4680BC704780B584B000AF0346D9
:102560003A60FB710B46BB710423FB73BB79032BF1
:1025700045D801A252F823F0E5250800952508006A
:10258000B1250800892508003B6801221A60002354
:10259000FB7336E007F10802FB79114618461B4B26
:1025A0009847BB685A1C3B681A600023FB7328E0FD
:1025B000FB791846164B98470346BB73BB7B012B30
:1025C0000AD0BB7B022B07D0BB7B042B04D0BB7B88
:1025D000082B01D0012315E03B6800221A7000236C
:1025E000FB730EE0FB7918460A4B98470346002B15
:1025F00002D10023FB7304E00323FB7301E00423F7
:10260000FB73FB7B18461037BD4680BD01170800E1
:1026100041170800C916080090B58BB002AF07F14A
:10262000100307F1140207F118011348134CA047D7
:10263000381D07F1080207F10C013B4600930346E1
:102640000D480F4CA047FB68A3F2BC735A06BB6849
:102650005B051A437B681B041A43BB69DB021A4300
:102660007B695B011A433B695B081343FB61FB69B0
:1026700018462437BD4690BD601A0E40052008005C
:10268000C720080080B487B000AFF860B9607A60F6
:10269000FB687B61BB683B6107E07B695A1C7A6120
:1026A0003A69511C396112781A707B685A1E7A6037
:1026B000002BF2D100BF1C37BD4680BC704780B4F0
:1026C00087B000AFF860B9607A60FB687B6105E0B5
:1026D0007B695A1C7A61BA68D2B21A707B685A1E3A
:1026E0007A60002BF4D100BF1C37BD4680BC704718
:1026F00080B489B000AFF860B9607A60FB68FB61B4
:10270000BB68BB6100237B6100BF7B685A1E7A6097
:10271000002B0DD0FB695A1CFA611B781946BB6966
:102720005A1CBA611B78CB1A7B617B69002BECD0F9
:102730007B6918462437BD4680BC704780B483B09F
:1027400000AF7860396002E07B6801337B607B68B2
:102750001B78002B05D07B681B781A463B689A4291
:10276000F2D17B681B7818460C37BD4680BC704799
:1027700090B585B000AF786039607B68DB6AFB603C
:10278000FA683B689A4248D07B681B79002B30D0AE
:102790007B6858787B6803F130010123FA68214C8B
:1027A000A0470346002B01D0012337E07B680022BD
:1027B0001A717B681A6A7B68DB691A44FB689A4263
:1027C00017D97B68DB78FB7210E07B68DB69FA68FD
:1027D0001344FB607B6858787B6803F13001012368
:1027E000FA68104CA047FB7A013BFB72FB7A012B85
:1027F000EBD83B68002B10D07B6858787B6803F1DE
:10280000300101233A68084CA0470346002B01D051
:10281000012303E07B683A68DA6200231846143724
:10282000BD4690BD392508001925080090B585B032
:1028300000AF7860002178684D4B98470346FB73E2
:10284000FB7B002B40F08E807B681B78032B7DD1B7
:102850007B685B79002B79D07B680022DA627B6829
:1028600030334FF4007200211846424B98477B6882
:10287000552283F82E227B68AA2283F82F227B68B8
:10288000522283F830207B68522283F831207B6803
:10289000612283F832207B68412283F833207B68F1
:1028A000722283F814227B68722283F815227B68D7
:1028B000412283F816227B68612283F817227B6805
:1028C0001B69DAB27B6883F818227B681B699BB2AC
:1028D0001B0A9BB2DAB27B6883F819227B681B69FA
:1028E0001B0CDAB27B6883F81A227B681B691B0E0B
:1028F000DAB27B6883F81B227B68DB68DAB27B681C
:1029000083F81C227B68DB689BB21B0A9BB2DAB29D
:102910007B6883F81D227B68DB681B0CDAB27B685E
:1029200083F81E227B68DB681B0EDAB27B6883F8B3
:102930001F227B6858787B6803F130017B685A69F5
:1029400001230D4CA0477B6800225A717B685B789D
:10295000002200211846094B98470346002B01D05E
:102960000123FB73FB7B18461437BD4690BD00BFA7
:1029700071270800BF2608003925080059250800DE
:1029800080B483B000AF786039603B68023B3B6045
:102990007B689B699A1E3B689A4201D8002308E035
:1029A0007B689B781A463B6803FB02F27B689B6A54
:1029B000134418460C37BD4680BC704780B586B0BE
:1029C00000AF786039603B68012B04D97B689A6955
:1029D0003B689A4201D801239BE07B681B78022B5D
:1029E00046D0032B64D0012B40F091803B687B6183
:1029F0007B695B087A6913447B617B681A6A7B692F
:102A00005B0A134419467868444B98470346002BE9
:102A100076D17B69C3F308037A68134493F83030A6
:102A20003B617B6901337B617B681A6A7B695B0A66
:102A3000134419467868394B98470346002B61D1F7
:102A40007B69C3F308037A68134493F830301B02A0
:102A50001A463B6913433B613B6803F00103002BBB
:102A600002D03B691B0954E03B69C3F30B0350E000
:102A70007B681A6A3B681B0A134419467868274B1F
:102A800098470346002B3FD13B685B0003F4FF737C
:102A900030337A681344FB60FB6801331B781B02F8
:102AA0001AB2FB681B781BB213431BB29BB230E017
:102AB0007B681A6A3B68DB09134419467868174B30
:102AC00098470346002B21D13B689B0003F4FE731B
:102AD00030337A681344FB60FB6803331B781A06B3
:102AE000FB6802331B781B041343FA680132127827
:102AF00012021343FA681278134323F0704308E07C
:102B000000BF04E000BF02E000BF00E000BF4FF0E4
:102B1000FF3318461837BD4680BD00BF7127080037
:102B200080B588B000AFF860B9607A60BB68012BEF
:102B300004D9FB689A69BB689A4202D80223FB77E2
:102B4000E9E0FB681B78022B70D0032B00F091802A
:102B5000012B40F0D380BB68BB61BB695B08BA69DD
:102B60001344BB61FB681A6ABB695B0A13441946CC
:102B7000F8686B4B98470346FB77FB7F002B40F0D0
:102B8000C080BB69C3F308033033FA6813447B6128
:102B9000BB6803F00103002B0DD07B691B785BB28F
:102BA00003F00F035AB27B68DBB21B015BB2134325
:102BB0005BB2DBB201E07B68DBB27A691370BB69A0
:102BC0000133BB61FB6801221A71FB681A6ABB6999
:102BD0005B0A13441946F868514B98470346FB7744
:102BE000FB7F002B40F08F80BB69C3F308033033B9
:102BF000FA6813447B61BB6803F00103002B03D028
:102C00007B681B09DBB20EE07B691B785BB223F0AB
:102C10000F035AB27B681B0A5BB203F00F035BB26F
:102C200013435BB2DBB27A69137071E0FB681A6A16
:102C3000BB681B0A13441946F868394B984703468A
:102C4000FB77FB7F002B60D1BB685B0003F4FF7355
:102C50003033FA6813447B617B68DAB27B691A709F
:102C60007B6901337A6892B2120A92B2D2B21A70B8
:102C70004EE0FB681A6ABB68DB0913441946F86822
:102C8000274B98470346FB77FB7F002B3FD1BB6860
:102C90009B0003F4FE733033FA6813447B617B6955
:102CA00003331B781A067B6902331B781B0413431A
:102CB0007A6901321278120213437A691278134347
:102CC00003F070437A6813437B607B68DAB27B69F8
:102CD0001A707B6901337A6892B2120A92B2D2B248
:102CE0001A707B6902337A68120CD2B21A707B694F
:102CF00003337A68120ED2B21A7009E00223FB770E
:102D000006E000BF04E000BF02E000BF00E000BF3B
:102D1000FB6801221A71FB7F18462037BD4680BD33
:102D20007127080080B584B000AF786039603B68D7
:102D3000012B04D97B689A693B689A4202D8022326
:102D4000FB7339E00023FB732DE0396878681D4B75
:102D50009847B860BB68002B2BD0BB68012B02D111
:102D60000223FB7328E0BB68B3F1FF3F02D10123CC
:102D7000FB7321E0002239687868134B98470346BB
:102D8000FB73FB7B002B16D17B681B69B3F1FF3F04
:102D900007D07B681B695A1C7B681A617B6801221B
:102DA0005A71BB683B607B689A693B689A42CCD891
:102DB00002E000BF00E000BFFB7B18461037BD46B5
:102DC00080BD00BFBD290800212B080080B586B05A
:102DD00000AF786039603B68002B0DD17B68DB6801
:102DE0003B613B69002B04D07B689A693B699A423E
:102DF00015D801233B6112E039687868384B984751
:102E0000B860BB68012B01D8012364E07B689A6934
:102E1000BB689A4201D9BB685DE03B683B613B6996
:102E20007B617B6901337B617B689A697B699A422C
:102E300007D802237B617A693B699A4201D9002352
:102E400049E079697868264B9847B860BB68002BE1
:102E50000ED0BB68B3F1FF3F02D0BB68012B01D19C
:102E6000BB6838E07A693B699A42DAD1002332E0E4
:102E700000BF6FF07042796978681A4B9847034633
:102E8000FB73FB7B002B09D13B68002B06D07A69D2
:102E900039687868134B98470346FB73FB7B002B1C
:102EA00010D17B687A69DA607B681B69B3F1FF3FF8
:102EB00010D07B681B695A1E7B681A617B680122EF
:102EC0005A7107E0FB7B012B02D14FF0FF3300E08A
:102ED00001237B617B6918461837BD4680BD00BF62
:102EE000BD290800212B080080B584B000AF7860B0
:102EF0000B467B807B687A88DA807B689B68FB6006
:102F0000FB68012B05D07B681B689A69FB689A42B5
:102F100001D8022366E0FB68002B08D17B681B68A0
:102F20001B78032B03D17B681B685B6AFB60FB6823
:102F3000002B14D17B68FA68DA607B681B681B89F8
:102F40007A889A4201D302234CE07B681B685B6A53
:102F50007A88120992B21A447B681A6136E07B685B
:102F60001B689B789BB21B017B811BE07B681B6805
:102F7000F96818461D4B9847F860FB68B3F1FF3FAE
:102F800001D101232EE0FB68012B05D97B681B686A
:102F90009A69FB689A4201D8022323E07A887B89E8
:102FA000D31A7B807A887B899A42DFD27B68FA6861
:102FB000DA607B681B68F96818460D4B9847024633
:102FC0007B881B099BB21A447B681A617B681B686B
:102FD00003F130027B8803F00F035B011A447B6826
:102FE0005A61002318461037BD4680BDBD29080030
:102FF0008129080090B585B000AF786039607B68A2
:10300000DB8801333B813B89002B03D07B681B6944
:10301000002B01D10423BDE03B8903F00F039BB2D9
:10302000002B40F0A8807B681B695A1C7B681A61E2
:103030007B68DB68002B08D17B681B681B893A8999
:103040009A42C0F098800423A4E03B891B099BB2FC
:103050001A467B681B689B78013B1340002B40F0AD
:103060008A807B681A687B68DB68194610464B4B80
:103070009847F860FB68012B01D802238AE0FB68BF
:10308000B3F1FF3F01D1012384E07B681B689A699B
:10309000FB689A4263D83B68002B01D1042379E096
:1030A0007B681A687B68DB68194610463C4B98477A
:1030B000F860FB68002B01D107236BE0FB68012B54
:1030C00001D1022366E0FB68B3F1FF3F01D1012388
:1030D00060E07B681B6800211846324B9847034626
:1030E000002B01D0012355E07B681B6830334FF47F
:1030F0000072002118462C4B98477B681C687B683F
:103100001B68F9681846294B98470346E362002379
:10311000FB7216E07B681B6801221A717B681B68D2
:10312000002118461F4B98470346002B01D001236E
:1031300030E07B681B68DA6A0132DA62FB7A0133BD
:10314000FB727B681B689B78FA7A9A42E2D37B68B1
:103150001B687A681268D16AFA7A8A1ADA627B681E
:10316000FA68DA607B681B68F96818460F4B984765
:1031700002467B681A617B683A89DA807B681B6843
:1031800003F130023B8903F00F035B011A447B68B3
:103190005A61002318461437BD4690BDBD2908006A
:1031A000CD2D080071270800BF26080081290800DE
:1031B00080B586B000AF786039603B681B7823F03B
:1031C00040035A1E13465B0013449B0013447B616B
:1031D00000233B610123FB812B4A3B6913441B788D
:1031E00001333A6813441B781B021AB226493B6923
:1031F0000B441B7819463B680B441B781BB21343E6
:103200001BB2BB81FB89002B19D0BB8918461F4B11
:1032100098470346FB817B69FE2B0ED87B695A1CBD
:103220007A615B007A6813441B881846174B9847ED
:1032300003461A46FB89934208D000231FE0BB894E
:103240004FF6FF72934201D0002318E03B6901332F
:103250003B613B690C2BBFD93B681B7803F04003F3
:10326000002B0BD0FB89002B08D07B695B007A68B0
:1032700013441B88002B01D0002300E001231846D3
:103280001837BD4680BD00BF7CBC0800CD49080092
:1032900080B489B000AFF860B96011461A460B4699
:1032A000FB711346BB71BB680D33BA791A70BB68EA
:1032B0000B330F221A70BB680C3300221A70BB68E4
:1032C0001A3300221A70BB681B3300221A70FB7974
:1032D0005A1E13465B0013449B001344FB610023FA
:1032E000FB820023BB61FB8A4FF6FF72934207D03B
:1032F000FB695A1CFA615B00FA6813441B88FB8265
:103300001C4ABB6913441B781A46BB681344FA8AEB
:10331000D2B21A70174ABB6913441B780133BA68DA
:103320001344FA8A120A92B2D2B21A70FB8A002BA4
:1033300002D14FF6FF73FB82BB690133BB61BB69EE
:103340000C2BD0D9FB8A4FF6FF72934206D0FB6953
:103350005B00FA6813441B88002B03D1FB7943F010
:103360004003FB71BB68FA791A7000BF2437BD4671
:1033700080BC70477CBC080080B58AB000AFF860A4
:10338000B9607A607B800B22B968F868334B984744
:103390007B88052B0FD97B889AB25208DB03134335
:1033A0009AB27B68991C79601B8813447B807B6888
:1033B0001B88002BEFD107233B627B88DBB203F035
:1033C0000F03DBB2303387F8273097F82730392BDB
:1033D00004D997F82730073387F827303B6A5A1EFD
:1033E0003A6207F12802134497F8272003F8142CB7
:1033F0007B881B097B807B88002BDED107F11402C0
:103400003B6A13447E221A700023FB6102E0FB69D1
:103410000133FB61FA693B6A9A4205D2FA68FB699B
:1034200013441B78202BF2D1FB695A1CFA61FA680D
:103430001A443B6A072B08D83B6A591C396207F1CA
:1034400028010B4413F8143C00E020231370FB699F
:10345000072BE9D900BF2837BD4680BD8526080067
:1034600080B485B000AF78600023FB730B23BB6092
:10347000FB7BDAB25208DB011343DAB27B68591CDA
:1034800079601B781344FB73BB68013BBB60BB686E
:10349000002BEDD1FB7B18461437BD4680BC70472E
:1034A00080B586B000AF786000217868524B9847AD
:1034B0000346FB75FB7D002B01D0FB7D98E0FF23CD
:1034C0003B753B7D7B757B681A687B681B69194679
:1034D00010464A4B98470346FB75FB7D002B40F096
:1034E00081807B685B693B613B691B78BB75BB7DF9
:1034F000002B02D10423FB7579E03B690B331B7869
:1035000003F03F03FB73BB7DE52B07D0FB7B03F090
:103510000803002B05D0FB7B0F2B02D0FF237B750C
:1035200055E0FB7B0F2B2FD17B68DB69002B4ED046
:10353000BB7D03F04003002B0CD03B695B7B3B75EC
:10354000BB7D23F04003BB75BB7D7B757B68DA8850
:103550007B681A84BA7D7B7D9A4212D13B690D3318
:103560001B783A7D9A420CD17B68DB693969184631
:10357000234B98470346002B03D07B7D013BDBB2F6
:1035800000E0FF237B7522E07B7D002B07D13869AB
:103590001C4B984703461A463B7D934224D0FF2399
:1035A0007B757B684FF6FF721A847B689B690B33CF
:1035B0001B7803F00103002B09D17B689B690B2268
:1035C00019463869104B98470346002B0ED000214E
:1035D00078680E4B98470346FB75FB7D002B3FF444
:1035E00072AF04E000BF02E000BF00E000BFFB7D5F
:1035F00018461837BD4680BDE92E0800712708001F
:10360000B131080061340800F1260800F52F0800E8
:1036100090B58DB000AF78607B689B697B627B68FA
:10362000DB693B6207F10C030C22796A1846924B66
:103630009847FB7D03F00103002B35D07B6A0B33E9
:1036400000221A707B680022DA610123BB8513E037
:10365000BB8D07F10C013A6A786A884CA0477868FC
:10366000874B9847034687F82F3097F82F30002B69
:1036700006D1BB8D0133BB85BB8D632BE8D900E040
:1036800000BFBB8D642B01D10723F1E097F82F30E9
:10369000042B02D097F82F30EAE07B6A0B33FA7DD7
:1036A0001A707B683A6ADA61FB7D03F00203002B33
:1036B00016D000237B8502E07B8D01337B857B8DDB
:1036C0005B003A6A13441B88002BF5D17B8D1933BC
:1036D0006C4A82FB03129210DB17D31A7B8501E040
:1036E00001237B8500217868674B9847034687F85C
:1036F0002F3097F82F30002B02D097F82F30B7E0FB
:1037000000233B853B8DBB857B681A687B681B6902
:10371000194610465D4B9847034687F82F3097F8B7
:103720002F30002B25D17B685B691B78FB77FB7FF3
:10373000E52B02D0FB7F002B0DD1BB8D002B02D1DE
:103740007B68DB883B85BB8D0133BB85BA8D7B8D68
:103750009A4202D10EE00023BB85012178684C4BD0
:103760009847034687F82F3097F82F30002BCBD09F
:1037700000E000BF97F82F30002B47D17B8D012B45
:1037800044D93B8D194678683F4B9847034687F8E4
:103790002F3097F82F30002B38D17B689B69184663
:1037A0003C4B98470346BB777B8D013B7B857B6811
:1037B0001A687B681B6919461046344B98470346C4
:1037C00087F82F3097F82F30002B1ED17B68D869EF
:1037D0007B6859697B8DDAB2BB7F2F4CA0477B6831
:1037E0001B6801221A7100217868294B984703460B
:1037F00087F82F3097F82F30002B07D17B8D013BB6
:103800007B857B8D002BD2D100E000BF97F82F3055
:10381000002B2BD17B681A687B681B691946104600
:103820001A4B9847034687F82F3097F82F30002B14
:103830001CD17B685B69BB6120220021B869174BF2
:1038400098477B689B690B221946B8690A4B9847D1
:10385000BB690C337A6892690B32127802F0180255
:10386000D2B21A707B681B6801221A7197F82F3048
:1038700018463437BD4690BD8526080079330800C8
:10388000A13408004FECC44EE92E0800712708004F
:10389000F52F08006134080091320800BF260800A7
:1038A00080B58AB000AF786039603B681B683B61C7
:1038B00002E03B6901333B613B691B782F2BF8D059
:1038C0003B691B785C2BF4D07B68DB69FB600023D1
:1038D0007B617B69BB61BB695A1CBA613A6913445D
:1038E0001B78BB84BB8C1F2B2FD9BB8C2F2B2CD0D0
:1038F000BB8C5C2B29D07B69FE2B01D9062382E18E
:10390000BB8CDBB2BB84BB8C01211846934B984720
:103910000346BB84BB8C002B01D1062373E1BB8C17
:103920007F2B09D8BB8C19468D488E4B9847034690
:10393000002B01D0062366E17B695A1C7A615B008B
:10394000FA681344BA8C1A80C5E73A69BB691A440D
:103950003B681A60BB8C1F2B01D8042300E00023B6
:1039600087F8263011E07B6903F10043013B5B00DF
:10397000FA6813441B88BB84BB8C202B02D0BB8C01
:103980002E2B06D17B69013B7B617B69002BEAD141
:1039900000E000BF7B69002B01D1062333E17B6986
:1039A0005B00FA68134400221A807B689B690B2233
:1039B000202118466C4B98470023BB6102E0BB698D
:1039C0000133BB61BB695B00FA6813441B88202B81
:1039D000F5D0BB695B00FA6813441B882E2BEED030
:1039E000BB69002B09D097F8263043F0030387F812
:1039F000263002E07B69013B7B617B69002B09D0AB
:103A00007B6903F10043013B5B00FA6813441B88A8
:103A10002E2BEFD100233B62002387F827300823A9
:103A2000FB61BB695A1CBA615B00FA6813441B88CE
:103A3000BB84BB8C002B00F08F80BB8C202B06D06E
:103A4000BB8C2E2B0AD1BA697B699A4206D097F8B3
:103A5000263043F0030387F826307CE03A6AFB699E
:103A60009A4203D2BA697B699A4223D1FB690B2B34
:103A700006D197F8263043F0030387F826307AE022
:103A8000BA697B699A4205D097F8263043F0030360
:103A900087F82630BA697B699A426BD87B69BB612B
:103AA00008233B620B23FB6197F827309B0087F8C4
:103AB000273050E0BB8C7F2B14D9BB8C00211846DB
:103AC000264B98470346BB84BB8C002B04D0BB8C91
:103AD000803B264AD35CBB8497F8263043F0020330
:103AE00087F82630BB8C002B07D0BB8C19462048AA
:103AF0001C4B98470346002B08D05F23BB8497F8E4
:103B0000263043F0030387F826301BE0BB8C402BA4
:103B100009D9BB8C5A2B06D897F8273043F00203FB
:103B200087F827300EE0BB8C602B0BD9BB8C7A2B2F
:103B300008D897F8273043F0010387F82730BB8C6B
:103B4000203BBB847B689A693B6A591C39621344E9
:103B5000BA8CD2B21A7064E700BF0CE05949080071
:103B60008CBC08003D270800BF260800A0BC080048
:103B700098BC080000BF7B689B691B78E52B03D1CC
:103B80007B689B6905221A70FB69082B04D197F8A2
:103B900027309B0087F8273097F8273003F00C0375
:103BA0000C2B05D097F8273003F00303032B05D126
:103BB00097F8263043F0020387F8263097F826302E
:103BC00003F00203002B17D197F8273003F003030B
:103BD000012B05D197F8263043F0100387F82630E3
:103BE00097F8273003F00C03042B05D197F8263003
:103BF00043F0080387F826307B689B690B3397F8FE
:103C000026201A70002318462837BD4680BD00BF05
:103C100080B584B000AF786039603B681B782F2B8B
:103C200003D03B681B785C2B02D13B6801333B60BF
:103C30007B6800229A603B681B781F2B09D8002103
:103C40007868324B98470346FB737B6800225A61C1
:103C500056E03B46194678682D4B98470346FB7360
:103C6000FB7B002B45D178682A4B98470346FB73B2
:103C70007B689B69DB7ABB73FB7B002B0AD0FB7BE9
:103C8000042B38D1BB7B03F00403002B35D1052373
:103C9000FB7332E0BB7B03F00403002B2FD17B6866
:103CA0005B69BB60BB680B331B7803F01003002B10
:103CB00002D10523FB7323E0BB6815331B781B027D
:103CC0001AB2BB6814331B781BB213431BB29BB2EE
:103CD0001B04BA681B321278120211B2BA681A3287
:103CE000127812B20A4312B292B21A437B689A60F7
:103CF000AFE700BF04E000BF02E000BF00E000BF8C
:103D0000FB7B18461037BD4680BD00BFE92E08007A
:103D1000A1380800A134080090B583B000AF7860E6
:103D200039607B6858787B6803F1300101233A6879
:103D30002A4CA0470346002B01D003234AE07B68AE
:103D400003F22E2301331B781B021AB27B6893F80F
:103D50002E321BB213431BB2214A934201D00223DD
:103D600038E07B68663303331B781A067B6866335A
:103D700002331B781B0413437A68663201321278CF
:103D8000120213437A6892F86620134323F07F43AC
:103D9000144A934201D100231CE07B688233033331
:103DA0001B781A067B68823302331B781B0413438B
:103DB0007A68823201321278120213437A6892F8DA
:103DC0008220134323F07F43064A934201D100230C
:103DD00000E0012318460C37BD4690BD19250800A8
:103DE00055AAFFFF4641540090B593B000AFF8606C
:103DF000B9601346FB71FB681B68FB62FB6A1B78AA
:103E0000303B3B643B6C092B0BD8FB6A01331B78BE
:103E10003A2B06D1FB6A0233FB62FB68FA6A1A602E
:103E200001E000233B643B6C002B01D00B2376E2C6
:103E3000A84A3B6C52F82330BB62BB68BA6A1A606E
:103E4000BB6A002B01D10C2369E2BB6A1B78002BF3
:103E50001AD0BB6A5B7818469F4B9847034687F891
:103E6000273097F8273003F00103002B0CD1FB79A2
:103E7000002B07D097F8273003F00403002B01D064
:103E80000A234CE200234AE2BB6A00221A703B6C10
:103E9000DAB2BB6A5A70BB6A5B7818468F4B984798
:103EA000034687F8273097F8273003F00103002BEB
:103EB00001D0032333E2FB79002B07D097F827309A
:103EC00003F00403002B01D00A2328E20023FB6344
:103ED000F96BB86A824B9847034687F8473097F8E2
:103EE0004730012B33D1002387F8463097F846300E
:103EF000002B04D097F84630013B87F8463097F8FE
:103F000046301B0103F5DF733033BA6A13443B625A
:103F10003B6A04331B78002B19D03B6A0B331B78A8
:103F20001A063B6A0A331B781B0413433A6A0932A8
:103F30001278120213433A6A083212781343FB6371
:103F4000F96BB86A664B9847034687F8473097F88D
:103F50004730032B01D10123E1E197F84730002BD3
:103F600001D00D23DBE1BB6A93F83C301B021AB28F
:103F7000BB6A93F83B301BB213431BB2B3F5007F0F
:103F800001D00D23CBE1BB6A93F847301B021AB274
:103F9000BB6A93F846301BB213431BB29BB2BB63A0
:103FA000BB6B002B12D1BB6A93F857301A06BB6A61
:103FB00093F856301B041343BA6A92F85520120244
:103FC0001343BA6A92F854201343BB63BB6ABA6BBB
:103FD000DA61BB6A93F84030FB77BB6AFA7FDA702C
:103FE000FB7F012B04D0FB7F022B01D00D2396E138
:103FF000FA7FBB6B02FB03F3BB63BB6A93F83D30F4
:10400000FB77BB6AFA7F9A70FB7F002B05D0FA7FA3
:10401000FB7F013B1340002B01D00D237FE1BB6AE6
:1040200093F842301B021AB2BB6A93F841301BB2BC
:1040300013431BB29AB2BB6A1A81BB6A1B8903F095
:104040000F039BB2002B01D00D2368E1BB6A93F8EC
:1040500044301B021AB2BB6A93F843301BB21343BD
:104060001BB29BB27B637B6B002B12D1BB6A93F8B4
:1040700053301A06BB6A93F852301B041343BA6AD2
:1040800092F8512012021343BA6A92F85020134357
:104090007B63BB6A93F83F301B021AB2BB6A93F88A
:1040A0003E301BB213431BB2BB83BB8B002B01D131
:1040B0000D2334E1BA8BBB6B1344BA6A128912091F
:1040C00092B21344BB617A6BBB699A420AD20D2348
:1040D00025E100BFB40B0720E5240800692408008F
:1040E000193D08007A6BBB69D31ABA6A9278B3FBA0
:1040F000F2F37B617B69002B01D10D230FE10123DA
:1041000087F847307B6940F6F572934202D9022363
:1041100087F847307B694FF6F572934202D9032343
:1041200087F847307B699A1CBB6A9A61FA6BBB6956
:104130001A44BB6A9A62BA8BFB6B1A44BB6A1A6256
:1041400097F84730032B1ED1BB6A1B89002B01D087
:104150000D23E4E0BB6A93F85F301A06BB6A93F85C
:104160005E301B041343BA6A92F85D2012021343B7
:10417000BA6A92F85C201A43BB6A5A62BB6A9B69AE
:104180009B003B631FE0BB6A1B89002B01D10D2301
:10419000C5E0BB6A1A6ABB6B1A44BB6A5A6297F8DD
:1041A0004730022B03D1BB6A9B695B000AE0BB6A04
:1041B0009A6913465B0013445A08BB6A9B6903F073
:1041C000010313443B63BB6ADA693B6B03F2FF13E1
:1041D0005B0A9A4201D20D23A1E0BB6A4FF0FF3285
:1041E0001A61BB6A0022DA6097F84730032B40F06F
:1041F0008180BB6A00225A71BB6A93F861301B024E
:104200001AB2BB6A93F860301BB213431BB29BB265
:104210001A46FB6B1A44BB6A5A61BB6A5878BB6A80
:1042200003F13001BB6A5A6901233F4CA0470346A2
:10423000002B5FD1BB6A93F82F321B021AB2BB6A04
:1042400093F82E321BB213431BB2384A934251D11A
:10425000BB6A93F833301A06BB6A93F832301B04FA
:104260001343BA6A92F8312012021343BA6A92F8E1
:10427000302013432E4A93423CD1BB6A93F8173245
:104280001A06BB6A93F816321B041343BA6A92F8F3
:10429000152212021343BA6A92F814221343254AD4
:1042A000934227D1BB6A93F81F321A06BB6A93F870
:1042B0001E321B041343BA6A92F81D2212021343E2
:1042C000BA6A92F81C221A43BB6ADA60BB6A93F896
:1042D0001B321A06BB6A93F81A321B041343BA6ADC
:1042E00092F8192212021343BA6A92F818221A435A
:1042F000BB6A1A61BB6A97F847201A700E4B1B887D
:1043000001339AB20C4B1A800B4B1A88BB6ADA80C5
:10431000BB6A0022DA62BB6A00221A7100231846C7
:104320004C37BD4690BD00BF1925080055AAFFFFB8
:104330005252614172724161B80B072080B582B060
:1043400000AF78600B467B807B68002B08D07B68D1
:104350001B78002B04D07B68DB887A889A4201D0D6
:1043600009230CE07B685B781846074B98470346A7
:1043700003F00103002B01D0032300E000231846C3
:104380000837BD4680BD00BFE524080080B485B075
:1043900000AF03463960FB71FB79002B01D00B2382
:1043A00016E0FB790D4A52F82330FB60FB68002BC6
:1043B00002D0FB6800221A703B68002B02D03B68D9
:1043C00000221A70FB7905493A6841F8232000233E
:1043D00018461437BD4680BC704700BFB40B072099
:1043E00080B5ADF5147D00AF07F10C03186007F13F
:1043F00008031960FB1D1A7007F10C031B680022EB
:104400001A60FB1DFA1D127802F01F021A70FB1DC4
:104410001B7823F00103DAB207F5077107F10803EF
:1044200018468E4B9847034687F84F3207F50473BA
:10443000C7F8343207F11003C7F8383297F84F3213
:10444000002B0BD107F108031A6807F50773114613
:104450001846834B9847034687F84F32D7F83032D7
:10446000C7F8483297F84F32002B06D1D7F84832B8
:10447000002B02D1062387F84F32FB1D1B7803F077
:104480001C03002B00F0DA8097F84F32002B16D077
:1044900097F84F32042B07D107F507731846714B75
:1044A0009847034687F84F32FB1DFA1D127842F0F9
:1044B00008021A70D7F83032C7F8483214E0D7F83B
:1044C00048320B331B7803F01103002B03D0072372
:1044D00087F84F3208E0FB1D1B7803F00403002B24
:1044E00002D0082387F84F3297F84F32002B40F064
:1044F000D280FB1D1B7803F00803002B00F0CB805B
:10450000594B9847C7F84402D7F848320E33D7F8CA
:104510004422D2B21A70D7F848320F33D7F8442267
:1045200092B2120A92B2D2B21A70D7F8483210334D
:10453000D7F84422120CD2B21A70D7F8483211338D
:10454000D7F84422120ED2B21A70D7F848320B3381
:1045500000221A70D7F848321C3300221A70D7F89C
:1045600048321D3300221A70D7F848321E33002219
:104570001A70D7F848321F3300221A70D7F8483221
:1045800015331B781B021AB2D7F8483214331B7844
:104590001BB213431BB29BB21B04D7F848221B3239
:1045A0001278120211B2D7F848221A32127812B2D7
:1045B0000A4312B292B21343C7F84032D7F84832D6
:1045C0001A3300221A70D7F848321B3300221A70AF
:1045D000D7F84832143300221A70D7F8483215330E
:1045E00000221A70D7F81C3201221A71D7F8403213
:1045F000002B50D0D7F81C32DB6AC7F84432D7F80A
:104600001C32D7F840121846184B9847034687F8D3
:104610004F3297F84F32002B3DD1D7F81C32D7F8E4
:104620004022013ADA60D7F81C32D7F84412184613
:104630000F4B9847034687F84F322CE097F84F32DC
:10464000002B28D1D7F848320B331B7803F0100326
:10465000002B0FD0042387F84F321CE0E93D0800FF
:10466000113C08001136080019260800252D080005
:1046700071270800FB1D1B7803F00203002B0AD0F2
:10468000D7F848320B331B7803F00103002B02D01C
:10469000072387F84F3297F84F32002B18D1FB1DB4
:1046A0001B7803F00803002B05D0FB1DFA1D1278C0
:1046B00042F020021A70D7F81C32DA6A07F10C03B4
:1046C0001B68DA6107F10C031B68D7F848221A62ED
:1046D00097F84F32002B58D107F10C031B68FA1DD5
:1046E00012789A71D7F8483215331B781B021AB228
:1046F000D7F8483214331B781BB213431BB29BB25A
:104700001B04D7F848221B321278120211B2D7F8D4
:1047100048221A32127812B20A4312B292B21A43E3
:1047200007F10C031B681A61D7F848321F331B7856
:104730001A06D7F848321E331B781B041343D7F8E8
:1047400048221D32127812021343D7F848221C3235
:1047500012781A4307F10C031B68DA6007F10C03A7
:104760001B6800229A6007F10C031B6800229A6103
:10477000D7F81C2207F10C031B681A60D7F81C320B
:10478000DA8807F10C031B689A8097F84F321846B5
:1047900007F51477BD4680BD90B587B000AF78604F
:1047A0007B681A687B689B88194610465A4B984765
:1047B0000346FB75FB7D002B40F0A8807B689B794E
:1047C00003F02003002B00F0A1807B689B7903F0AD
:1047D0004003002B16D07B681B6858787B6803F178
:1047E00024017B689A6901234C4CA0470346002BA7
:1047F00001D001238BE07B689B7923F04003DAB280
:104800007B689A717B681A687B68DB691946104679
:10481000434B98470346FB75FB7D002B76D17B68A5
:104820001B6A3B613B690B333A690B32127842F0E9
:104830002002D2B21A703B691C337A68D268D2B2B5
:104840001A703B691D337A68D26892B2120A92B22A
:10485000D2B21A703B691E337A68D268120CD2B297
:104860001A703B691F337A68D268120ED2B21A707E
:104870003B691A337A681269D2B21A703B691B33EA
:104880007A68126992B2120A92B2D2B21A703B6975
:1048900014337A681269120CD2B21A703B6915335C
:1048A0007A681269120C92B2120A92B2D2B21A70DB
:1048B0001C4B9847F8603B691633FA68D2B21A70FD
:1048C0003B691733FA6892B2120A92B2D2B21A70E6
:1048D0003B691833FA68120CD2B21A703B6919336B
:1048E000FA68120ED2B21A707B689B7923F020030B
:1048F000DAB27B689A717B681B6801221A717B6847
:104900001B681846084B98470346FB75FB7D184605
:104910001C37BD4690BD00BF3D4308003925080047
:1049200071270800192608002D28080080B584B0DA
:1049300000AF78607868074B98470346FB73FB7BB2
:10494000002B02D17B6800221A60FB7B18461037CF
:10495000BD4680BD9947080080B485B000AF0346CE
:104960003960FB80FB887F2B02D8FB88FB8125E028
:104970003B68002B0BD0FB88FF2B05D8FB88803BC6
:10498000114A32F8133000E00023FB8116E00023C7
:10499000FB8109E0FB890C4A32F81330FA889A420D
:1049A00006D0FB890133FB81FB897F2BF2D900E024
:1049B00000BFFB8980339BB2DBB2FB81FB891846C9
:1049C0001437BD4680BC704720BD080080B485B058
:1049D00000AF0346FB800023FB6002E0FB6801336D
:1049E000FB600F4AFB6832F81330002B06D00C4AEC
:1049F000FB6832F81330FA889A42EFD1084AFB6814
:104A000032F81330002B04D0064AFB6832F813301A
:104A100000E0FB8818461437BD4680BC704700BFD5
:104A200020BE080000C0080080B483B000AF034679
:104A3000FB71084997F907305B09FA7902F01F0208
:104A4000012000FA02F241F8232000BF0C37BD46D6
:104A500080BC704700E100E080B483B000AF7860B4
:104A60007B68072B25D801A252F823F08D4A080055
:104A7000934A0800994A08009F4A0800A34A080080
:104A8000A74A0800AB4A0800AF4A08004FF4FA43AF
:104A900010E04FF400430DE04FF400430AE0084BF0
:104AA00008E0084B06E0084B04E0074B02E0064B29
:104AB00000E0002318460C37BD4680BC704700BF9D
:104AC00000093D0000127A00001BB70080B500AF5E
:104AD0000620044B984702461346DB009B1A5B00F6
:104AE000184680BD594A080080B500AF024B984770
:104AF00003465B08184680BDCD4A080080B500AF6C
:104B0000024B9847024B984700BF80BD294C0800D4
:104B1000154B080090B585B000AF01211048114B2E
:104B2000984700210E480F4B984712200E4B98478C
:104B30000E480F4B98470F4B3C460FCB84E80F00B5
:104B40000D4B984702463B46194608480B4B984781
:104B500006480B4B984700BF1437BD4690BD00BFB9
:104B600000400C4013630800D166080000C00940F3
:104B7000A5160800E0C10800E94A08004122080023
:104B80008116080080B588B000AF786039601C4895
:104B90001C4B984701211C481C4B98477B68FB60C5
:104BA0001B4B3B613B687B611A4BBB610023FB6184
:104BB00007F10C031A4601211348174B98470121AE
:104BC0001148164B984700210F48104B9847144B3B
:104BD000FB607B683B613B687B61124BBB610023E0
:104BE000FB6107F10C031A46002107480A4B98475E
:104BF00000210548094B984700BF2037BD4680BDBE
:104C000000C009401524080000400C401363080050
:104C10001CC00940000031202D640800F562080026
:104C200018C009400000510280B582B000AF2720B3
:104C3000184B98471848194B984710211648184B9D
:104C400098471548174B984700237B607B6843F4CF
:104C5000813343F00E037B607A6800210E48124BCB
:104C6000984700237B607B6843F4903343F0D00384
:104C70007B607A68012108480B4B984727200B4B33
:104C80009847012104480A4B984700BF0837BD46A2
:104C900080BD00BFD166080000400C404D62080096
:104CA000696208008F62080003640800294A08004E
:104CB000C562080080B500AF0A480B4B9847024612
:104CC0000A4B1A60094B1B6803F00103002B06D046
:104CD0000748084B9847084B1A78084B1A7000BFD2
:104CE00080BD00BF00400C40DF620800BC0B072005
:104CF00000C009402F2408001C0C0720240C0720AA
:104D000080B483B000AF78607B6808221A607B684B
:104D100020221A607B6804221A6000BF0C37BD464F
:104D200080BC704780B584B000AF786039600023E4
:104D3000FB607B684FF0FF329A627B681B6A786881
:104D40000E4B984778680E4B98473B6859683B680C
:104D50001B681A4678680B4B98470346012B01D114
:104D60000123FB603B685B7A012B02D17B68402208
:104D70001A60FB6818461037BD4680BDB54F080065
:104D8000014D0800894D080080B489B000AFF8607B
:104D9000B9607A600023FB61BB68344A934201D951
:104DA00001235DE0BB68324A934237D97B68314AC0
:104DB000A2FB03239B0B043B7B61BA682E4B13447D
:104DC0009B007A68B2FBF3F3043B3B6105E0FB69AF
:104DD0000133FB617B695B087B617B69FF2B09D930
:104DE000FB69062BF3D905E0FB690133FB613B69E5
:104DF0005B083B613B69FF2B02D9FB69062BF3D9AA
:104E00007B69DAB23B691B029BB21A43FB691B0444
:104E100003F4E0231A43FB681A6120E0BB685B00DF
:104E20007A68B2FBF3F3043BBB6105E0FB69013335
:104E3000FB61BB695B08BB61BB69FF2B02D9FB69E6
:104E4000062BF3D9BB69DAB2BB691B029BB21A43CA
:104E5000FB691B0403F4E0231A43FB681A61002377
:104E600018462437BD4680BC704700BF801A060034
:104E700000DC0500F11976050012FD3F80B485B015
:104E800000AF786039603B68002B01D100231DE042
:104E90007B681B78FB603B68012B09DDFB681B020C
:104EA000FB607B6801331B781A46FB681343FB6089
:104EB0003B68022B09DDFB681B02FB607B68023349
:104EC0001B781A46FB681343FB60FB6818461437CF
:104ED000BD4680BC7047000080B586B000AF7860EA
:104EE00039603B68DB687B613B689B683B617B6941
:104EF000002B01D1012356E07B6800225A603B68F9
:104F00001B7C1B0403F4FE023B685B681B0203F47A
:104F100040731A437B685A607B680022DA603A6803
:104F20003B685B6819461046214B984702467B68F0
:104F3000DA6019E07B681B6AFB60FB6803F480732E
:104F4000002B01D005232EE0FB6803F00403002BA7
:104F500000D109E03B695A1C3A611B781A467B680C
:104F60005A637B69013B7B617B69002BE2D17B68E3
:104F70001B6AFB60FB6803F48073002B01D00523E0
:104F800011E0FB6803F00403002B00D1EFE700BF42
:104F90007B6802221A6000BF7B681B6A03F0010372
:104FA000002BF9D0002318461837BD4680BD00BF3E
:104FB0007D4E080080B483B000AF78607B688022AB
:104FC0001A607B681B6B00BF0C37BD4680BC704706
:104FD00080B483B000AF78607B68072B25D801A22E
:104FE00052F823F0055008000B500800115008003B
:104FF000175008001B5008001F50080023500800DD
:10500000275008004FF4FA4310E04FF400430DE03E
:105010004FF400430AE0084B08E0084B06E0084B59
:1050200004E0074B02E0064B00E0002318460C3773
:10503000BD4680BC704700BF00093D0000127A00E9
:10504000001BB70080B500AF0620044B984702460E
:105050001346DB009B1A5B00184680BDD14F080049
:1050600080B500AF024B984703465B08184680BDE9
:105070004550080080B582B000AF78607868034B77
:10508000984700BF0837BD4680BD00BFD166080005
:1050900080B582B000AF78603960104B9847024607
:1050A0003B681A603B6800225A727B680C4A934244
:1050B00003D116200B4B984706E07B680A4A9342BF
:1050C00002D11720074B984739687868074B9847F3
:1050D000034618460837BD4680BD00BF6150080032
:1050E00000C008407550080000000940254D080028
:1050F00080B500AF1A4B00221A7003210020194B13
:1051000098470520184B984703210020154B9847D6
:105110000520154B984703210020124B9847052086
:10512000114B9847022100200E4B98472821002060
:105130000E4B9847082100200C4B98470121002076
:105140000A4B98470A20084B984706210020074B36
:1051500098470C210020054B984700BF80BD00BF39
:10516000C00B072071520800D15D080005530800EC
:1051700080B582B000AF0346FB71074AFB7913701C
:1051800001210020054B98470A20054B984700BF96
:105190000837BD4680BD00BFC00B0720055308007F
:1051A000D15D080080B500AF01210020034B984776
:1051B0000A20034B984700BF80BD00BF055308007D
:1051C000D15D080080B586B000AF03463A60FB7140
:1051D0000B46BB713868244B98470346FB60FB794C
:1051E000042B3CD8FB79002B39D0FB79013B032BF6
:1051F00016D801A252F823F0095208000F520800F5
:10520000155208001B5208008023FB750BE0C023D9
:10521000FB7508E09423FB7505E0D423FB7502E0E1
:105220008023FB7500BFFA7DBB791344FB75FB7DC2
:10523000194600200D4B984700233B610AE03B696B
:105240003A6813441B7819460120084B98473B697C
:1052500001333B613A69FB689A42F0DB00E000BF32
:105260001837BD4680BD00BF1974080005530800FB
:1052700080B584B000AF03460A46FB711346BB718C
:1052800097F9073003F00F035AB21A4B1B785BB241
:1052900013435BB2FB71BB791B01DAB2FB79134399
:1052A000DBB243F00403DBB23B73BB791B015AB2A0
:1052B00097F9073013435BB2DBB27B730E4B2722A7
:1052C0001A740D4B00221A700B4B00225A600A4AC6
:1052D00007F10C039360084B0222DA6000BF064915
:1052E0000648074B98470346002BF8D100BF1037FC
:1052F000BD4680BDC00B0720C40B072000C008407E
:10530000D94E080080B584B000AF03460A46FB7151
:105310001346BB7197F9073003F00F035AB2254BC0
:105320001B785BB213435BB2FB71BB7923F00F03B5
:10533000DAB2FB791343DBB243F00403DBB23B7315
:1053400097F9063023F00F035AB297F90730134349
:105350005BB2DBB27B73BB791B01DAB2FB7913431F
:10536000DBB243F00403DBB2BB73BB791B015AB25F
:1053700097F9073013435BB2DBB2FB730E4B272266
:105380001A740D4B00221A700B4B00225A600A4A05
:1053900007F10C039360084B0422DA6000BF064952
:1053A0000648074B98470346002BF8D100BF10373B
:1053B000BD4680BDC00B0720C40B072000C00840BD
:1053C000D94E080080B584B000AF3B1D00221A60A2
:1053D0005A609A60054BBB603B1D19460448054B5B
:1053E000984700BF1037BD4680BD00BFA0860100B2
:1053F00000C008409150080080B489B000AF7860C8
:105400007B68FB61FB69BB61BB697B617B695B0995
:105410003B613B6903F5001303F207735B02DA6B30
:10542000FB69FB60FB6803F01F03012101FA03F332
:105430001340002B14BF01230023DBB2184624378E
:10544000BD4680BC7047000080B582B000AF034607
:10545000FB71FB79012B02D00D2B26D04EE0324B95
:105460001A78324B1B789A4245D92F4B1B78013B57
:10547000DAB22D4B1A702E4B1B78012B0CD12D4B11
:105480001B78002B37D12C4B1B78013BDAB22A4B0F
:105490001A702A4B98472EE0254B1B78013BDAB255
:1054A000234B1A70264B984725E01F4B1A78254B43
:1054B0001B789A4221D21C4B1B780133DAB21A4B6B
:1054C0001A701B4B1B78042B0CD11A4B1B78002B2A
:1054D00013D1194B1B780133DAB2174B1A70174BE3
:1054E00098470AE0124B1B780133DAB2104B1A705E
:1054F000134B984701E000BF00E000BF0D4B1B7845
:10550000002B02D0012B05D009E0FB7918460E4B89
:10551000984704E0FB7918460C4B984700BF00BF42
:105520000837BD4680BD00BF9001072092010720CB
:105530008E010720D80B0720D90B07209D560800A5
:105540003559080093010720515508008956080075
:1055500080B582B000AF0346FB71FB79072B04D006
:105560000A2B66D0042B52D078E0434B1B78012BDA
:105570001CD0022B32D0002B00D06FE03F4B1B78A9
:10558000023B062B10D801A252F823F0A9550800BF
:10559000A9550800A9550800A9550800A9550800F3
:1055A000A9550800A955080000BF2FE0334B1B7810
:1055B000023B062B10D801A252F823F0D95508005F
:1055C000D9550800D9550800D9550800D955080003
:1055D000D9550800D955080000BF17E0274B1B78A4
:1055E000023B062B10D801A252F823F009560800FE
:1055F000095608000956080009560800095608000F
:10560000095608000956080000BF00BF26E01B4BE2
:105610001B78012B1FD1184B1B78002B05D0164B84
:105620001B78013BDAB2144B1A70154B01221A7029
:1056300011E0124B1B78012B0FD10F4B1B78012B64
:1056400005D80D4B1B780133DAB20B4B1A700C4B9B
:1056500001221A7001E000BF00E000BF084B1B7878
:10566000002B04D0064B00221A70064B984700BF4F
:105670000837BD4680BD00BF940107209001072078
:105680008C0107209D56080080B483B000AF03460C
:10569000FB7100BF0C37BD4680BC704780B500AFC2
:1056A0008A4B98478A4B1B78012B68D0022B00F05D
:1056B000B780002B40F00581864B1B78C3F10103B6
:1056C000DBB2854A03211846844B9847844B93F9F3
:1056D00000301A4683498448844B98477D4B1B7899
:1056E000C3F10203DBB2804A012118467B4B984785
:1056F0000F227F497C487D4B9847764B1B78C3F13E
:105700000303DBB2784A01211846744B9847012203
:1057100078497548754B98476E4B1B78C3F1040365
:10572000DBB2714A012118466C4B9847694B1B78D4
:10573000C3F10503DBB2704A01211846674B984755
:10574000644B1B78C3F10603DBB26C4A0121184697
:10575000624B98475F4B1B78C3F10703DBB2684A83
:10576000012118465D4B98475A4B1B78C3F108033B
:10577000DBB2634A01211846584B9847A1E0554BCC
:105780001B78C3F10103DBB25E4A03211846534B79
:105790009847504B1B78C3F10203DBB25A4A0121F0
:1057A00018464E4B98474B4B1B78C3F10303DBB2B3
:1057B000564A01211846494B9847464B1B78C3F17E
:1057C0000403DBB2524A01211846444B9847414B2F
:1057D0001B78C3F10503DBB2494A012118463F4B50
:1057E00098473C4B1B78C3F10603DBB2444A0121C6
:1057F00018463A4B9847374B1B78C3F10703DBB287
:105800003F4A01211846354B9847324B1B78C3F16C
:105810000803DBB23A4A01211846304B984750E062
:105820002C4B1B78C3F10103DBB23A4A0321184623
:105830002A4B9847274B1B78C3F10203DBB2364A49
:1058400001211846254B9847224B1B78C3F10303CF
:10585000DBB2324A01211846204B98471D4B1B787A
:10586000C3F10403DBB22E4A012118461B4B9847B3
:10587000184B1B78C3F10503DBB22A4A01211846F5
:10588000164B9847134B1B78C3F10603DBB2264A2D
:1058900001211846114B98470E4B1B78C3F10703A3
:1058A000DBB2224A012118460C4B9847094B1B7862
:1058B000C3F10803DBB2124A01211846074B98478F
:1058C00000BF1B4B984700BF80BD00BFA55108001B
:1058D00094010720D90B0720F0C10800C55108002A
:1058E0008D010720FCC10800440C0720CD7308007F
:1058F0000CC2080018C2080024C2080030C2080008
:1059000044C2080048C2080054C2080060C208002F
:1059100070C2080080C2080088C2080098C208004F
:10592000A8C20800B8C20800BCC20800CCC2080067
:105930003559080080B500AF394B1B78002B33D1A7
:10594000384B1B78012B2FD1374B1B78012B0FD0F5
:10595000022B1DD0002B00D025E0344A0C21012061
:10596000334B9847334A00210220314B98471AE0C5
:10597000314A032101202E4B98472C4A0B2101204C
:105980002B4B98472B4A00210220294B98470AE0CD
:10599000294A03210120264B9847264A002102204C
:1059A000234B984700BF31E0244B1B78012B1FD1BC
:1059B0001D4B1B78012B0AD0022B13D0002B00D0DB
:1059C00016E01C4A0C210120194B984710E0194A97
:1059D00003210120164B9847164A0B210120144B36
:1059E000984705E0134A03210120114B984700BF57
:1059F000134B1B780F4A002118460D4B9847114B4B
:105A00001B780A4A00211846094B9847054B1A781B
:105A10000A4B1A700B4B1A78094B1A7000BF80BDE5
:105A2000D80B07209001072094010720DCC2080052
:105A3000C5510800E0C20800E4C208009101072037
:105A40008F0107208E01072080B582B000AF0023B0
:105A5000FB71884B98470246874B1B681E339A425E
:105A6000C0F04A81834B98470246834B1A606020FE
:105A7000824B984703461A46814B1A7061207F4B30
:105A8000984703461A467F4B1A7062207B4B984713
:105A900003461A467C4B1A706320784B984703469E
:105AA0001A467A4B1A706420744B984703461A467C
:105AB000774B1A706520714B984703461A46754B11
:105AC0001A706F4B1A78744B1B789A4206D06C4B45
:105AD0001B78002B02D10123FB7118E0684B1A7868
