:0200000280007C
:10000000282C072005130800FD120800FD12080027
:10001000FD120800FD120800FD120800000000009B
:10002000000000000000000000000000FD120800B9
:10003000FD12080000000000FD120800C5080800BD
:10004000FD120800FD120800FD120800FD12080054
:10005000FD120800FD120800FD120800FD12080044
:10006000FD120800FD12080000000000FD1208004B
:10007000FD120800FD120800FD120800000000003B
:1000800000000000FD120800FD120800FD1208002B
:10009000FD120800FD120800FD120800FD12080004
:1000A000FD12080000000000FD120800FD1208000B
:1000B000FD120800FD120800FD120800FD120800E4
:1000C000FD120800FD120800FD120800FD120800D4
:1000D000FD120800FD120800FD120800FD120800C4
:1000E000FD120800FD120800FD120800FD120800B4
:1000F000FD12080010B5054C237833B9044B13B139
:100100000448AFF300800123237010BD480B072083
:1001100000000000FC6E08000C4B43B10C4810B509
:100120000C49AFF300800C48036823B910BD0A489E
:10013000036833B97047094B002BF7D0BDE8104076
:100140001847064B002BF5D0184700BF00000000F1
:10015000FC6E08004C0B0720FC6E0800000000003D
:1001600080B483B000AF78607B6808221A607B6837
:1001700020221A607B6804221A6000BF0C37BD463B
:1001800080BC704780B584B000AF786039600023D0
:10019000FB607B684FF0FF329A627B681B6A78686D
:1001A0000E4B984778680E4B98473B6859683B68F8
:1001B0001B681A4678680B4B98470346012B01D100
:1001C0000123FB603B685B7A012B02D17B684022F4
:1001D0001A60FB6818461037BD4680BD150408003C
:1001E00061010800E901080080B489B000AFF8603F
:1001F000B9607A600023FB61BB68344A934201D93D
:1002000001235DE0BB68324A934237D97B68314AAB
:10021000A2FB03239B0B043B7B61BA682E4B134468
:100220009B007A68B2FBF3F3043B3B6105E0FB699A
:100230000133FB617B695B087B617B69FF2B09D91B
:10024000FB69062BF3D905E0FB690133FB613B69D0
:100250005B083B613B69FF2B02D9FB69062BF3D995
:100260007B69DAB23B691B029BB21A43FB691B0430
:1002700003F4E0231A43FB681A6120E0BB685B00CB
:100280007A68B2FBF3F3043BBB6105E0FB69013321
:10029000FB61BB695B08BB61BB69FF2B02D9FB69D2
:1002A000062BF3D9BB69DAB2BB691B029BB21A43B6
:1002B000FB691B0403F4E0231A43FB681A61002363
:1002C00018462437BD4680BC704700BF801A060020
:1002D00000DC0500F11976050012FD3F80B485B001
:1002E00000AF786039603B68002B01D100231DE02E
:1002F0007B681B78FB603B68012B09DDFB681B02F8
:10030000FB607B6801331B781A46FB681343FB6074
:100310003B68022B09DDFB681B02FB607B68023334
:100320001B781A46FB681343FB60FB6818461437BA
:10033000BD4680BC7047000080B586B000AF7860D5
:1003400039603B68DB687B613B689B683B617B692C
:10035000002B01D1012356E07B6800225A603B68E4
:100360001B7C1B0403F4FE023B685B681B0203F466
:1003700040731A437B685A607B680022DA603A68EF
:100380003B685B6819461046214B984702467B68DC
:10039000DA6019E07B681B6AFB60FB6803F480731A
:1003A000002B01D005232EE0FB6803F00403002B93
:1003B00000D109E03B695A1C3A611B781A467B68F8
:1003C0005A637B69013B7B617B69002BE2D17B68CF
:1003D0001B6AFB60FB6803F48073002B01D00523CC
:1003E00011E0FB6803F00403002B00D1EFE700BF2E
:1003F0007B6802221A6000BF7B681B6A03F001035E
:10040000002BF9D0002318461837BD4680BD00BF29
:10041000DD02080080B483B000AF78607B68802282
:100420001A607B681B6B00BF0C37BD4680BC7047F1
:1004300080B483B000AF78607B68072B25D801A219
:1004400052F823F0650408006B04080071040800EA
:10045000770408007B0408007F0408008304080078
:10046000870408004FF4FA4310E04FF400430DE016
:100470004FF400430AE0084B08E0084B06E0084B45
:1004800004E0074B02E0064B00E0002318460C375F
:10049000BD4680BC704700BF00093D0000127A00D5
:1004A000001BB70080B500AF0620044B98470246FA
:1004B0001346DB009B1A5B00184680BD3104080020
:1004C00080B500AF024B984703465B08184680BDD5
:1004D000A504080080B582B000AF78607868034B4F
:1004E000984700BF0837BD4680BD00BF350F0800E4
:1004F00080B582B000AF78603960104B98470246F3
:100500003B681A603B6800225A727B680C4A93422F
:1005100003D116200B4B984706E07B680A4A9342AA
:1005200002D11720074B984739687868074B9847DE
:10053000034618460837BD4680BD00BFC104080009
:1005400000C00840D50408000000094085010800EB
:1005500080B500AF1A4B00221A7003210020194BFE
:1005600098470520184B984703210020154B9847C2
:100570000520154B984703210020124B9847052072
:10058000114B9847022100200E4B9847282100204C
:100590000E4B9847082100200C4B98470121002062
:1005A0000A4B98470A20084B984706210020074B22
:1005B00098470C210020054B984700BF80BD00BF25
:1005C000640B0720D1060800F5080800650708003D
:1005D00080B582B000AF0346FB71074AFB79137008
:1005E00001210020054B98470A20054B984700BF82
:1005F0000837BD4680BD00BF640B072065070800B3
:10060000F508080080B500AF01210020034B984792
:100610000A20034B984700BF80BD00BF6507080054
:10062000F508080080B586B000AF03463A60FB715C
:100630000B46BB713868244B98470346FB60FB7937
:10064000042B3CD8FB79002B39D0FB79013B032BE1
:1006500016D801A252F823F0690608006F060800B8
:10066000750608007B0608008023FB750BE0C0239D
:10067000FB7508E09423FB7505E0D423FB7502E0CD
:100680008023FB7500BFFA7DBB791344FB75FB7DAE
:10069000194600200D4B984700233B610AE03B6957
:1006A0003A6813441B7819460120084B98473B6968
:1006B00001333B613A69FB689A42F0DB00E000BF1E
:1006C0001837BD4680BD00BFD1230800650708006C
:1006D00080B584B000AF03460A46FB711346BB7178
:1006E00097F9073003F00F035AB21A4B1B785BB22D
:1006F00013435BB2FB71BB791B01DAB2FB79134385
:10070000DBB243F00403DBB23B73BB791B015AB28B
:1007100097F9073013435BB2DBB27B730E4B272292
:100720001A740D4B00221A700B4B00225A600A4AB1
:1007300007F10C039360084B0222DA6000BF064900
:100740000648074B98470346002BF8D100BF1037E7
:10075000BD4680BD640B0720680B072000C0084021
:100760003903080080B584B000AF03460A46FB7128
:100770001346BB7197F9073003F00F035AB2254BAC
:100780001B785BB213435BB2FB71BB7923F00F03A1
:10079000DAB2FB791343DBB243F00403DBB23B7301
:1007A00097F9063023F00F035AB297F90730134335
:1007B0005BB2DBB27B73BB791B01DAB2FB7913430B
:1007C000DBB243F00403DBB2BB73BB791B015AB24B
:1007D00097F9073013435BB2DBB2FB730E4B272252
:1007E0001A740D4B00221A700B4B00225A600A4AF1
:1007F00007F10C039360084B0422DA6000BF06493E
:100800000648074B98470346002BF8D100BF103726
:10081000BD4680BD640B0720680B072000C0084060
:100820003903080080B584B000AF3B1D00221A6078
:100830005A609A60054BBB603B1D19460448054B46
:10084000984700BF1037BD4680BD00BFA08601009D
:1008500000C00840F104080080B48BB000AF78609D
:100860000B46FB707B687B62FB7887F823307B6AE2
:10087000FB61FB69BB61BB695B097B617B6903F55C
:10088000001303F207735B023B6197F82330002BE0
:1008900009D07B6AFB60FB6803F01F0301229A40CA
:1008A0003B691A6308E07B6ABB60BB6803F01F0307
:1008B00001229A403B695A6300BF2C37BD4680BC79
:1008C0007047000080B400AF044B1B680133034A3B
:1008D000136000BFBD4680BC704700BF7C0B072083
:1008E00080B400AF024B1B681846BD4680BC704701
:1008F0007C0B072080B485B000AF7860074B1B6885
:10090000FB6000BF054B1A68FB68D21A7B689A42ED
:10091000F8D300BF1437BD4680BC70477C0B07205E
:1009200080B500AF174B1B78002B14D0164B98479F
:100930000246164B1B6864339A4221D3124B9847E8
:100940000246124B1A6000216A20114B98470D4B4A
:1009500000221A7014E00C4B984702460B4B1B68A0
:1009600003F561739A420BD3074B98470246074B36
:100970001A6001216A20064B9847024B01221A7027
:1009800000BF80BDC00B0720E1080800CC0B07208A
:100990005908080080B582B000AF78607B68072BEB
:1009A00031D801A252F823F0050A0800C90908004D
:1009B000D1090800D9090800E1090800E90908007F
:1009C000F1090800FB0908000020114B98471AE0C4
:1009D00001200F4B984716E000200E4B984712E07D
:1009E00010200C4B98470EE020200A4B98470AE055
:1009F0003E210020084B984705E03E210120064B90
:100A0000984700E000BF00BF0837BD4680BD00BF6B
:100A1000810D0800ED0D08005D0E080080B582B064
:100A200000AF78607B68072B26D801A252F823F02C
:100A3000510A0800550A0800550A0800670A08000C
:100A4000670A0800670A0800670A0800670A0800C2
:100A5000012312E00B4B98470346002B14BF0123E0
:100A60000023DBB209E0084B98470346002B14BF74
:100A700001230023DBB200E0002318460837BD46FF
:100A800080BD00BFB90D0800D50E080080B483B04A
:100A900000AF78607B68072B25D801A252F823F0BD
:100AA000C10A0800C70A0800CD0A0800D30A0800D6
:100AB000D70A0800DB0A0800DF0A0800E30A08007A
:100AC0004FF4FA4310E04FF400430DE04FF40043BD
:100AD0000AE0084B08E0084B06E0084B04E0074B2F
:100AE00002E0064B00E0002318460C37BD4680BCF0
:100AF000704700BF00093D0000127A00001BB700DC
:100B000080B582B000AF0346FB7100BFFB79184689
:100B1000054B9847034683F00103DBB2002BF5D168
:100B200000BF0837BD4680BD1D0A080080B586B0ED
:100B300000AFF8607A603B600B46FB727B68002B6D
:100B400007D13B68002B04D1FB684FF470021A6098
:100B500019E0FB7A18460E4B984702467B68B2FBB9
:100B6000F3F37B617B693A6802FB03F37B613B68CB
:100B7000013B1A04074B13407A68D2B2134343F483
:100B80007C52FB681A6000BF1837BD4680BD00BFAD
:100B90008D0A08000000FF0780B582B000AF7860C2
:100BA00039603B68002B08D1094B9847094A7B689C
:100BB0001B6843F00053936205E0064A7B681B689C
:100BC00043F48033D36100BF0837BD4680BD00BF0A
:100BD000ED0E080000060E4080B582B000AF7860D0
:100BE0007B68002B03D1054B9847034602E0044B7A
:100BF0009847034618460837BD4680BD050F0800D4
:100C00001D0F080080B582B000AF0346FB71FB7971
:100C1000033B042B08D8FB791846064B9847FB7911
:100C20001846054B984700E000BF00BF0837BD4697
:100C300080BD00BF95090800010B080080B582B097
:100C400000AF786000BF7868044B98470346002BDC
:100C5000F9D0002318460837BD4680BDD90B0800DF
:100C600080B500AF0620044B984702461346DB00D0
:100C70009B1A5B00184680BD8D0A080080B500AF46
:100C8000024B984703465B08184680BD610C08007C
:100C900090B583B000AF1148114B98470620114B17
:100CA0009847381D0E23012206210F4CA0473B1DFB
:100CB000002118460D4B984700200D4B98471020F7
:100CC0000C4B98470C4B98470C4B984703461846DB
:100CD000034B984700BF0C37BD4690BD00BD0105D2
:100CE000D1000720050C08002D0B0800990B080007
:100CF0003D0C0800010D0800AD1308007D0C080034
:100D000080B485B000AF78601C491C4B1B6B23F08E
:100D100070027B6813430B634FF40063FB6007E0D2
:100D2000FB68002B01D1012323E0FB68013BFB6042
:100D3000124B9B6E03F00803002BF1D00F4A0F4BB0
:100D40001B6B23F0030343F0020313634FF40063B0
:100D5000FB6007E0FB68002B01D1012309E0FB6881
:100D6000013BFB60054B9B6E03F00803002BF1D0A9
:100D7000002318461437BD4680BC704700060E405D
:100D800080B483B000AF78607B68012B07D1084A3C
:100D9000074B9B6843F0254343F480139360044B57
:100DA000044A1A6000BF0C37BD4680BC704700BFC4
:100DB000101A0E40080000A580B400AF094B5B6913
:100DC00003F08003002B07D0074B9B6E03F08003DA
:100DD000002B01D0012300E000231846BD4680BC53
:100DE000704700BF101A0E4000060E4080B483B05A
:100DF00000AF7860184A184B1B6A43F45C1343F049
:100E00000803136200BF144B9B6E03F40033002BE6
:100E1000F9D01149104B1B6A23F45C1323F07003C3
:100E20007A68134343F45C130B6200BF0A4B9B6E5A
:100E300003F40033002BF9D0074A074B1B6A23F059
:100E40009B7323F4803343F45C13136200BF0C37AD
:100E5000BD4680BC704700BF00060E4080B483B022
:100E600000AF786039607B68002B08D01649164BBC
:100E70001B6A164A1A40164B13430B621EE01249B6
:100E8000114B1B6A23F45C1323F003033A6812022C
:100E900092B2134343F45C1343F001030B6200BFAF
:100EA000094B9B6E03F00103002BF9D0064A064B59
:100EB0001B6A43F09B7343F48033136200BF0C370B
:100EC000BD4680BC704700BF00060E40FCFFC8FE58
:100ED0000200370180B400AF034B9B6E03F48033F4
:100EE0001846BD4680BC704700060E4080B400AF77
:100EF000034B4FF000529A6200BFBD4680BC704762
:100F000000060E4080B400AF034B9B6E03F002035B
:100F10001846BD4680BC704700060E4080B400AF46
:100F2000034B9B6E03F040031846BD4680BC7047E0
:100F300000060E4080B483B000AF78607B682C2B35
:100F400001D901232FE07B681F2B13D8184B9A6916
:100F500001217B6801FA03F31A4001217B6801FA41
:100F600003F39A421ED0124A01217B6801FA03F36F
:100F7000136117E07B68203B7B600D4BD3F80821A1
:100F800001217B6801FA03F31A4001217B6801FA11
:100F900003F39A4206D0064A01217B6801FA03F363
:100FA000C2F80031002318460C37BD4680BC70479C
:100FB00000060E4080B582B000AF78607868034BC1
:100FC000984700BF0837BD4680BD00BF350F0800F9
:100FD00080B500AF0B20064B98470C20044B984778
:100FE0000D20034B98470E20014B984700BF80BD52
:100FF000B50F080080B489B000AF78607B68FB61F2
:10100000FB69BB61BB695A09FB697B617B6903F0C2
:101010001F03012101FA03F33A61FB603B69BB60E6
:10102000BB6803F5001303F207735B021A46FB6803
:10103000536000BF2437BD4680BC704780B48DB07C
:1010400000AF786039607B68FB623B68BB62FB6A1B
:101050007B627B6A5A09FB6A3B623B6A03F01F03AF
:10106000012101FA03F3FA61BB61BB6A7B61FB6991
:101070003B613B6903F5001303F207735B02FB60FE
:101080007B6903F00803002B03D0FB68BA695A663A
:1010900002E0FB68BA691A667B6903F02003002B43
:1010A00003D0FB68BA691A6502E0FB68BA695A6541
:1010B0007B6903F0C003002B03D0FB68BA691A6296
:1010C00002E0FB68BA695A627B6903F08003002B77
:1010D00004D0FB68BA69C3F8842003E0FB68BA69EE
:1010E000C3F880207B6903F00103002B06D0FB6866
:1010F0001A6FBB691A43FB681A6706E0FB681A6F30
:10110000BB69DB431A40FB681A6700BF3437BD4632
:1011100080BC704780B48DB000AF78600B46FB7028
:101120007B68FB62FB7887F82B30FB6A7B627B6A0B
:101130003B623B6A5B09FB61FB6903F5001303F249
:1011400007735B02BB6197F82B30012B09D1FB6A57
:101150007B617B6903F01F0301229A40BB691A611E
:101160000CE097F82B30002B08D1FB6A3B613B6900
:1011700003F01F0301229A40BB695A61FB6AFB60BE
:10118000FB6803F01F0301229A40BB69C3F8A0204B
:1011900000BF3437BD4680BC704780B48BB000AF11
:1011A00078600B46FB707B687B62FB7887F82330A6
:1011B0007B6AFB61FB69BB61BB695B097B617B6926
:1011C00003F5001303F207735B023B6197F82330CA
:1011D000002B09D07B6AFB60FB6803F01F03012230
:1011E0009A403B691A6308E07B6ABB60BB6803F006
:1011F0001F0301229A403B695A6300BF2C37BD464A
:1012000080BC704780B500AF364B4FF400425A6047
:10121000354B984701216A20344B984700216A20BA
:10122000334B984701216720304B984700216720B6
:101230002F4B9847012168202C4B984700216820AC
:101240002B4B984701216920284B984700216920A2
:10125000274B984701216620244B984700216620A0
:10126000234B984700216020204B9847882160201D
:10127000204B9847002161201C4B98478821612012
:101280001C4B984700216220184B98478821622008
:10129000184B984700216320144B984788216320FE
:1012A000144B984700216420104B984788216420F4
:1012B000104B9847002165200C4B984788216520EA
:1012C0000C4B9847002111200A4B984711200A4BDC
:1012D000984700211220074B98471220064B984749
:1012E00000BF80BD501A0E40D10F08001511080034
:1012F0009B1108003D100800F50F080080B400AFF6
:10130000FEE7000080B582B000AF1E4B7B601E4B35
:101310003B607A683B689A420CD007E03B681A1D34
:101320003A607A68111D796012681A603B68174A42
:101330009342F3D3164B3B6004E03B681A1D3A60BE
:1013400000221A603B68134A9342F6D3124B7B602B
:10135000124A7B6823F0604323F07F0393607B682D
:10136000B3F1005F09D37B680D4A934205D80B4A5D
:101370000A4B9B6843F0005393600A4B98470A4B13
:101380009847FEE7FC6E080000000720480B072086
:10139000480B0720240C07200000080000ED00E0A7
:1013A000FFFF0F20992208007D17080080B400AFCE
:1013B000574B1B6B03F00303032B00F28A8001A23F
:1013C00052F823F0D5130800F5130800451408005F
:1013D000451408004F4B5B6903F08003002B04D0D9
:1013E0004D4B4FF400421A6073E04B4B4FF4FA42FE
:1013F0001A606EE0464B1B6A03F08073002B03D02B
:10140000454B464A1A6064E0434B454A1A60404BDC
:101410001B6A03F07003102B04D0202B08D0002B84
:101420000ED00EE03C4B1B685B003B4A136008E0AB
:10143000394B1A6813465B001344374A136000E0C7
:1014400000BF46E0324B1B6A03F08073002B03D0D1
:10145000314B324A1A601CE02F4B314A1A602C4B38
:101460001B6A03F07003102B04D0202B08D0002B34
:101470000ED00EE0284B1B685B00274A136008E083
:10148000254B1A6813465B001344234A136000E09F
:1014900000BF1F4B1B6B03F00303022B15D11C4B2A
:1014A0009B6A1B0CC3F30A0301331B4A126802FB3D
:1014B00003F3194A1360164B9B6ADBB2164A126893
:1014C000B2FBF3F3144A136002E0134B154A1A609F
:1014D00000BF0F4B1B6B03F07003702B08D10E4B3A
:1014E0001B68114AA2FB03235B080B4A13600AE046
:1014F000074B1B6B1B0903F00703074A126822FA0C
:1015000003F3054A136000BFBD4680BC704700BFAF
:1015100000060E40101A0E408C010720001BB70079
:1015200000093D00001C4E0EABAAAAAA80B485B0EB
:1015300000AF7860104BFB60104B1B68002B02D192
:101540000E4B0F4A1A600D4B1B68BB60BA687B6874
:101550001A44FB689A4202DD4FF0FF3306E0074B66
:101560001A687B681344054A1360BB681846143731
:10157000BD4680BC704700BFFC7F0820800B072061
:10158000282C072080B483B000AF03463960FB717C
:1015900097F90730002B0BDA0D49FB7903F00F03A5
:1015A000043B3A68D2B21201D2B20B441A7609E077
:1015B000084997F907303A68D2B21201D2B20B4407
:1015C00083F8002300BF0C37BD4680BC704700BFC6
:1015D00000ED00E000E100E080B582B000AF78608F
:1015E0007B68013BB3F1807F01D301230FE00A4AFE
:1015F0007B68013B53600F214FF0FF30074B98474A
:10160000054B00229A60044B07221A6000231846FB
:101610000837BD4680BD00BF10E000E0851508001A
:1016200080B483B000AF78607B68072B25D801A217
:1016300052F823F0551608005B16080061160800E2
:10164000671608006B1608006F160800731608006E
:10165000771608004FF4FA4310E04FF400430DE012
:101660004FF400430AE0084B08E0084B06E0084B43
:1016700004E0074B02E0064B00E0002318460C375D
:10168000BD4680BC704700BF00093D0000127A00D3
:10169000001BB70080B500AF0620044B98470246F8
:1016A0001346DB009B1A5B00184680BD211608001C
:1016B00080B500AF024B984703465B08184680BDD3
:1016C0009516080080B48BB000AF78600B46FB70B5
:1016D0007B687B62FB7887F823307B6AFB61FB6960
:1016E000BB61BB695B097B617B6903F5001303F296
:1016F00007735B023B6197F82330002B09D07B6AAC
:10170000FB60FB6803F01F0301229A403B691A63E8
:1017100008E07B6ABB60BB6803F01F0301229A40AC
:101720003B695A6300BF2C37BD4680BC704780B40C
:1017300089B000AF78607B68FB61FB69BB61BB6906
:101740007B617B695B093B613B6903F5001303F235
:1017500007735B02DA6BFB69FB60FB6803F01F0336
:10176000012101FA03F31340002B14BF01230023CE
:10177000DBB218462437BD4680BC704780B582B0C6
:1017800000AF144B9847144B9847144B98470246A8
:10179000134BA3FB02239B091846124B9847124B8D
:1017A0009847124B9847124B08221A70104B1B781F
:1017B0001846104B9847104B9847104B9847104BC2
:1017C0009847104B98470346FB71FB7918460E4B20
:1017D0009847F4E7910C080005120800B1160800BC
:1017E000D34D6210D91508002508080051050800DE
:1017F000840B0720D10508000D1808000506080015
:1018000021090800AD1F0800AD19080080B582B09D
:1018100000AF72E0594B98470246594B1B6803F5DD
:1018200048739A421AD3554B98470246544B1A6054
:10183000544B1B78002B03D0524B00221A7002E04D
:10184000504B01221A704F4B1B78002B14BF012301
:101850000023DBB2194666204B4B9847474B98470D
:1018600002464A4B1B6803F5FA739A4215D3434B61
:1018700098470246454B1A60454B1B78022B06D809
:10188000434B1B780133DAB2414B1A7002E0404BF4
:1018900000221A703F4B01221A703E4B1B78002B1E
:1018A0002BD03C4B00221A70394B1B78032B23D8CA
:1018B00001A252F823F000BFC9180800D51808008B
:1018C000E1180800ED180800334A02210220334BCA
:1018D000984712E0324A0E210220304B98470CE024
:1018E0002F4A0F2102202D4B984706E02C4A102149
:1018F00002202A4B984700E000BF6220294B9847FE
:101900000346002B86D100237B6030E001216A2052
:101910001D4B9847012166201B4B984701216720EA
:10192000194B984701216820174B984701216920DE
:10193000154B984764201C4B984700216A20124B96
:10194000984700216620104B9847002167200E4BD6
:101950009847002168200C4B9847002169200A4BCA
:1019600098476420104B98477B6801337B607B6805
:10197000022BCBDD00BF0837BD4680BDE108080063
:10198000DC0B0720D60B0720C5160800F80B072034
:10199000850B072091010720386B080025060800F9
:1019A000486B08002F170800F508080080B582B0C2
:1019B00000AF0346FB71FB79012B02D00D2B26D023
:1019C0004EE0324B1A78324B1B789A4245D92F4B56
:1019D0001B78013BDAB22D4B1A702E4B1B78012B72
:1019E0000CD12D4B1B78002B37D12C4B1B78013B96
:1019F000DAB22A4B1A702A4B98472EE0254B1B78F7
:101A0000013BDAB2234B1A70264B984725E01F4B57
:101A10001A78254B1B789A4221D21C4B1B78013334
:101A2000DAB21A4B1A701B4B1B78042B0CD11A4BD1
:101A30001B78002B13D1194B1B780133DAB2174BEB
:101A40001A70174B98470AE0124B1B780133DAB231
:101A5000104B1A70134B984701E000BF00E000BF25
:101A60000D4B1B78002B02D0012B05D009E0FB7930
:101A700018460E4B984704E0FB7918460C4B9847E4
:101A800000BF00BF0837BD4680BD00BF94010720DE
:101A90009601072092010720870B0720860B07205D
:101AA000011C0800991E080097010720B51A0800BC
:101AB000ED1B080080B582B000AF0346FB71FB79D7
:101AC000072B04D00A2B66D0042B52D078E0434B6E
:101AD0001B78012B1CD0022B32D0002B00D06FE0E2
:101AE0003F4B1B78023B062B10D801A252F823F083
:101AF0000D1B08000D1B08000D1B08000D1B080026
:101B00000D1B08000D1B08000D1B080000BF2FE077
:101B1000334B1B78023B062B10D801A252F823F05E
:101B20003D1B08003D1B08003D1B08003D1B080035
:101B30003D1B08003D1B08003D1B080000BF17E0CF
:101B4000274B1B78023B062B10D801A252F823F03A
:101B50006D1B08006D1B08006D1B08006D1B080045
:101B60006D1B08006D1B08006D1B080000BF00BF47
:101B700026E01B4B1B78012B1FD1184B1B78002B29
:101B800005D0164B1B78013BDAB2144B1A70154B7B
:101B900001221A7011E0124B1B78012B0FD10F4B51
:101BA0001B78012B05D80D4B1B780133DAB20B4B98
:101BB0001A700C4B01221A7001E000BF00E000BF58
:101BC000084B1B78002B04D0064B00221A70064BE2
:101BD000984700BF0837BD4680BD00BF9801072069
:101BE0009401072099010720011C080080B483B0EC
:101BF00000AF0346FB7100BF0C37BD4680BC704789
:101C000080B500AF8A4B98478A4B1B78012B68D070
:101C1000022B00F0B780002B40F00581864B1B782B
:101C2000C3F10103DBB2854A03211846844B984770
:101C3000844B93F900301A4683498448844B984773
:101C40007D4B1B78C3F10203DBB2804A01211846A9
:101C50007B4B98470F227F497C487D4B9847764BBA
:101C60001B78C3F10303DBB2784A01211846744B99
:101C70009847012278497548754B98476E4B1B78F9
:101C8000C3F10403DBB2714A012118466C4B98473B
:101C9000694B1B78C3F10503DBB2704A012118467A
:101CA000674B9847644B1B78C3F10603DBB26C4A61
:101CB00001211846624B98475F4B1B78C3F107031D
:101CC000DBB2684A012118465D4B98475A4B1B7896
:101CD000C3F10803DBB2634A01211846584B984709
:101CE000A1E0554B1B78C3F10103DBB25E4A03212F
:101CF0001846534B9847504B1B78C3F10203DBB295
:101D00005A4A012118464E4B98474B4B1B78C3F15A
:101D10000303DBB2564A01211846494B9847464B0C
:101D20001B78C3F10403DBB2524A01211846444B2D
:101D30009847414B1B78C3F10503DBB2494A0121A7
:101D400018463F4B98473C4B1B78C3F10603DBB268
:101D5000444A012118463A4B9847374B1B78C3F148
:101D60000703DBB23F4A01211846354B9847324BF7
:101D70001B78C3F10803DBB23A4A01211846304B05
:101D8000984750E02C4B1B78C3F10103DBB23A4A71
:101D9000032118462A4B9847274B1B78C3F10203AF
:101DA000DBB2364A01211846254B9847224B1B7857
:101DB000C3F10303DBB2324A01211846204B984796
:101DC0001D4B1B78C3F10403DBB22E4A01211846D8
:101DD0001B4B9847184B1B78C3F10503DBB22A4A0B
:101DE00001211846164B9847134B1B78C3F1060385
:101DF000DBB2264A01211846114B98470E4B1B783F
:101E0000C3F10703DBB2224A012118460C4B984765
:101E1000094B1B78C3F10803DBB2124A01211846B3
:101E2000074B984700BF1B4B984700BF80BD00BFC2
:101E30000506080098010720860B07204C6B080058
:101E40002506080090010720586B0800E00B0720CA
:101E500085230800686B0800746B0800806B08001D
:101E60008C6B0800A06B0800A46B0800B06B080026
:101E7000BC6B0800CC6B0800DC6B0800E46B08004E
:101E8000F46B0800046C0800146C0800186C08005F
:101E9000286C0800991E080080B500AF394B1B78EC
:101EA000002B33D1384B1B78012B2FD1374B1B78AC
:101EB000012B0FD0022B1DD0002B00D025E0344A7F
:101EC0000C210120334B9847334A00210220314B2B
:101ED00098471AE0314A032101202E4B98472C4A9B
:101EE0000B2101202B4B98472B4A00210220294B24
:101EF00098470AE0294A03210120264B9847264AA1
:101F000000210220234B984700BF31E0244B1B786F
:101F1000012B1FD11D4B1B78012B0AD0022B13D094
:101F2000002B00D016E01C4A0C210120194B9847C9
:101F300010E0194A03210120164B9847164A0B213D
:101F40000120144B984705E0134A03210120114B4F
:101F5000984700BF134B1B780F4A002118460D4BC2
:101F60009847114B1B780A4A00211846094B98479D
:101F7000054B1A780A4B1A700B4B1A78094B1A70DA
:101F800000BF80BD870B0720940107209801072020
:101F9000386C0800250608003C6C0800406C0800FE
:101FA00095010720930107209201072080B582B098
:101FB00000AF0023FB71884B98470246874B1B6894
:101FC0001E339A42C0F04A81834B98470246834BA6
:101FD0001A606020824B984703461A46814B1A705C
:101FE00061207F4B984703461A467F4B1A70622048
:101FF0007B4B984703461A467C4B1A706320784BFC
:10200000984703461A467A4B1A706420744B9847D7
:1020100003461A46774B1A706520714B9847034662
:102020001A46754B1A706F4B1A78744B1B789A428C
:1020300006D06C4B1B78002B02D10123FB7118E0FA
:10204000684B1A786D4B1B789A4206D0654B1B780B
:10205000012B02D10323FB710BE0624B1A78674B13
:102060001B789A4205D15F4B1B78002B01D10223CC
:10207000FB715D4B1A78624B1B789A4206D05A4B23
:102080001B78002B02D10423FB7118E0564B1A7801
:102090005B4B1B789A4206D0534B1B78012B02D125
:1020A0000623FB710BE0504B1A78554B1B789A4274
:1020B00005D14D4B1B78002B01D10523FB714B4BF8
:1020C0001A78504B1B789A4206D0484B1B78002B4D
:1020D00002D10723FB7118E0444B1A78494B1B7857
:1020E0009A4206D0414B1B78012B02D10923FB7188
:1020F0000BE03E4B1A78434B1B789A4205D13B4B81
:102100001B78002B01D10823FB71394B1A783E4B09
:102110001B789A4206D0364B1B78002B02D10A233B
:10212000FB7118E0324B1A78374B1B789A4206D075
:102130002F4B1B78012B02D10C23FB710BE02C4B96
:102140001A78314B1B789A4205D1294B1B78002B0A
:1021500001D10B23FB71274B1A782C4B1B789A4229
:1021600006D0244B1B78002B02D10D23FB7118E005
:10217000204B1A78254B1B789A4206D01D4B1B78B2
:10218000012B02D10F23FB710BE01A4B1A781F4B66
:102190001B789A4205D1174B1B78002B01D10E23D7
:1021A000FB71154B1A781A4B1B789A4206D0124BCA
:1021B0001B78002B02D11023FB7137E00E4B1A78ED
:1021C000134B1B789A4225D00B4B1B78012B21D146
:1021D0001223FB712AE000BFE1080800C80B0720AA
:1021E0002F170800F50B0720D90B0720F40B072049
:1021F000F60B0720D40B0720D00B0720D50B0720A8
:10220000D30B0720D10B0720D70B0720D20B0720B9
:10221000D80B0720144B1A78144B1B789A4205D11F
:10222000114B1B78002B01D11123FB71104B1A7835
:102230000E4B1A700F4B1A780F4B1A700F4B1A78FF
:102240000F4B1A700F4B1A780F4B1A700F4B1A78EE
:102250000F4B1A70044B1A780E4B1A70FB79184604
:102260000837BD4680BD00BFD00B0720D50B072027
:10227000F50B0720D90B0720D30B0720F40B072001
:10228000D10B0720F60B0720D70B0720D40B072014
:10229000D20B0720D80B072070B50F4E0F4D761BC1
:1022A000B61018BF002405D0013455F8043B9847F8
:1022B000A642F9D10A4E0B4D04F00AFE761BB61069
:1022C00018BF002406D0013455F8043B9847A642B5
:1022D000F9D170BD70BD00BFDC6E0800DC6E080077
:1022E000E46E0800DC6E080070B4860746D0541E09
:1022F000002A41D0CAB2034602E014F1FF343BD3B6
:1023000003F8012B9D07F8D1032C2ED9CDB245EA55
:1023100005250F2C45EA054519D9264603F110027B
:10232000103E0F2E42F8105C42F80C5C42F8085C3C
:1023300042F8045C02F11002F2D8A4F1100222F07B
:102340000F0204F00F041032032C13440DD91E4663
:102350002246043A032A46F8045BFAD8221F22F0E8
:1023600003020432134404F003042CB1C9B21C4428
:1023700003F8011B9C42FBD170BC70471446034616
:10238000C2E700BF0EB40146F0B56FF000454FF450
:1023900002774FF6FF769CB021AC54F8042B0B4B20
:1023A00002910691186802A923460194ADF81470B1
:1023B00004950795ADF8166000F038F80022029BEE
:1023C0001A701CB0BDE8F04003B070479C010720B4
:1023D00020F0030110F00300C0F1000051F8043BAD
:1023E00000F1040C4FEACC0C6FF000021CBF22FA83
:1023F0000CF213434FF0010C4CEA0C2C4CEA0C4C41
:10240000A3EB0C0222EA030212EACC1204BF51F839
:10241000043B0430F4D0C2F1000102EA0102B2FA36
:1024200082F2C2F11F0200EBD20070472DE9F04F9B
:10243000C3B00C460B9192460F930C9002F058FAE1
:10244000036818461A93FFF7C3FFA389199019066A
:1024500003D52369002B01F0358000230DF1C80955
:10246000C84615931393149318931B9309931693CB
:10247000179327932693CDF894909AF800305446FA
:10248000EBB1252B02D11AE0252B03D014F8013F24
:10249000002BF9D1A4EB0A058DB1269B279A0133B5
:1024A0002A44072BC8F800A0C8F8045027922693A6
:1024B00000F38A8008F10808099B2B4409932378CC
:1024C000002B00F0898000234FF0FF301A468DF872
:1024D000773019460D939B46637804F1010A0A9000
:1024E0000AF1010AA3F12000582800F2B783DFE8BF
:1024F00010F04C03B503B5035403B503B503B5039E
:10250000B503B503B50359005903B50366001402BA
:10251000B5032F02A503A503A503A503A503A503E2
:10252000A503A503A503B503B503B503B503B5031B
:10253000B503B503B503B503B5038B02D302B503E9
:10254000D302B503B503B503B5031B03B503B50348
:102550002003B503B503B503B503B5033402B503D2
:10256000B5034B02B503B503B503B503B503B50316
:10257000B503B503B503B50376029E03D302D302B8
:10258000D30263039E03B503B5036803B503750364
:10259000DD018C035E03B503F201B5038700B503CB
:1025A000B50332030F9C236818460D932346002879
:1025B00003F104030F9304DA0D9B5B420D934BF080
:1025C000040B9AF800308BE725AA0B990C9803F0BE
:1025D00019F840B9C8466FE7279B23B10C9825AA84
:1025E0000B9903F00FF80B9B9B8913F0400F099B8D
:1025F00018BF4FF0FF330993099843B0BDE8F08F3F
:102600001BF0200F119340F0AF810F9A1BF0100FB9
:10261000134640F09A851BF0400F00F09685002588
:102620000123148804320F92002217468DF8772078
:102630000A994A1C00F010822BF08002079254EA9B
:10264000050240F00F82002940F03184002B40F059
:1026500039851BF001030E9300F06286302342AEF1
:1026600006F8413D0A9B0E9A9342B8BF1346089361
:102670000023129317B1089B01330893079B13F0B3
:102680000203109302D0089B02330893079B13F0B8
:10269000840540F010830D9B089AA3EB020BBBF15D
:1026A000000F40F30883BBF1100F40F3B287279C63
:1026B00043462146A8461027269A0C9C0B9D06E00F
:1026C000ABF1100BBBF1100F03F1080318DD013261
:1026D000AB481031072A2791269283E88100EFDD6D
:1026E00025AA2946204602F08DFF00287FF47BAF03
:1026F000ABF1100BBBF1100F4B462799269AE6DC85
:1027000045460C46984601329D4B5C44072A279467
:10271000269288E8080800F3C3829DF8777008F1D4
:10272000080887B10121269B0C440B440DF1770268
:10273000072B27942693C8F80410C8F8002000F34C
:10274000CD8308F10808109B7BB10221269B0C4425
:1027500001331EAA072B27942693C8F80410C8F843
:10276000002000F3118408F10808802D00F0048394
:102770000A9B0E9A9F1A002F37DD102F40F379869F
:10278000804D42462146B0464FF0100B2E46269B08
:102790000C9C0B9D04E0103F102F02F1080215DD88
:1027A00001331031072B2791269382E84008F2DD90
:1027B00025AA2946204602F025FF00287FF413AF02
:1027C000103F102F4A462799269BE9DC35460C46D8
:1027D0004646904601333C44072B2794269388E8CD
:1027E000A00000F3708308F10808079BDF0500F1E3
:1027F0006482269B0E9901330C44072B2794C8F85A
:102800000060C8F80410269300F3B38308F10808A9
:10281000079B5B073BD50D9B089A9D1A002D36DD63
:10282000102D40F321871026269B0C9FDDF82CB03D
:1028300004E0103D102D08F1080816DD0133504A60
:102840001034072B2794269388E84400F1DD25AA4D
:102850005946384602F0D6FE00287FF4C4AE103D3B
:10286000102DC846279C269BE8DC0133444A2C44A3
:10287000072B2794269388E8240008DD25AA0B99C6
:102880000C9802F0BFFE00287FF4ADAE279C099B98
:102890000D9A08998A42ACBF9B185B180993002CCB
:1028A00040F0FB820023C8462693E6E511931BF017
:1028B000200340F045811BF0100240F066841BF0BD
:1028C000400300F062840F9913460A4604320C88D4
:1028D00000250F92A8E600250F9A119316688DF82F
:1028E0007750141D002E00F0CD860A9A531C00F07C
:1028F0001B862946304602F0AFFA002800F00D870B
:10290000831B0A950E930F94CDF81CB023EAE37352
:10291000089312959DF87770ACE69AF800300AF1AA
:1029200001042A2B00F0C287A3F130000928A24637
:1029300000F2188700231C461AF8013B04EB8404BC
:1029400000EB4404A3F130000928F5D90A94C9E545
:102950004BF0800B9AF80030C2E54BF0100B1BF0E7
:10296000200F11933FF451AE0F9C073424F007035E
:1029700003F10802D3E900450F92012354E600BF9A
:102980008C6C08009C6C08001193002A40F0AD8705
:10299000BE4B1BF0200F189340F0E7800F9A1BF0FE
:1029A000100F134640F0D8831BF0400F00F0D48383
:1029B0000025043314880F931BF0010F00F0E3800F
:1029C00054EA050300F0DF8030239DF844208DF8A1
:1029D00078308DF879204BF0020B022324E6012297
:1029E0001193002311460F98089202681F468DF834
:1029F00077300A931293031DCDF81CB00E918DF819
:102A0000A0200F9328AE39E61193002A40F0848766
:102A10004BF0100B1BF0200F40F075840F9A1BF049
:102A2000100F134640F09D831BF0400F00F0998378
:102A3000B2F900400433E5170F9322462B46002AD3
:102A400073F10003C0F298830A999DF877704A1CCD
:102A50004FF001037FF4F0AD54EA050200F0298243
:102A6000CDF81CB0012B00F00E83022B40F09C82AD
:102A70004E461898230943EA0573290904F00F020A
:102A80000D461C46835C06F8013D54EA0503F1D16E
:102A9000A9EB06030E93E5E51193002A40F0388771
:102AA0000F9C1BF0080F04F1070400F0CF8424F002
:102AB000070303F108020F921A685B6815921493DA
:102AC000149B159D23F00044284621464FF0FF3209
:102AD0006F4B03F06BFE002840F0348428462146FB
:102AE0004FF0FF326A4B03F043FE002840F02A8487
:102AF00015A80DC8149903F031FE002840F0D485C4
:102B00009DF8777003231A4608930023614E1946F7
:102B10000A93614B0E92119A2BF08000079012914C
:102B2000472AD8BF1E46A5E54BF0080B9AF800309F
:102B3000D6E44BF0100B11931BF020033FF4BBAE17
:102B40000F9C073424F0070303F10802D3E9004582
:102B50000F92002368E51193002A40F0C2864F4B84
:102B60001BF0200F18933FF419AF0F9C1BF0010FBF
:102B700004F1070424F0070303F108020F92D3E9DC
:102B800000457FF41DAF02234EE59AF8003000297E
:102B90007FF4A6AC01222021A2E44BF0010B9AF8AD
:102BA00000309DE49AF8003001222B2198E44BF08C
:102BB000200B9AF8003093E44BF0400B9AF8003069
:102BC0008EE49AF800306C2B03BF9AF801304BF07A
:102BD000200B0AF1010A4BF0100B81E4002A40F0AF
:102BE0007C861BF0200F40F052841BF0100F40F049
:102BF00038841BF0400F00F034840F9A13680432BD
:102C00000F92BDF824201A8037E4782330220F98E1
:102C10008DF879301193031D0F93204B046818939E
:102C20004BF0020B8DF8782000250223FCE4119371
:102C3000002A3FF4EFAE8DF87710EBE60020044653
:102C4000A3F130001AF8013B04EB840400EB4404C8
:102C5000A3F130000928F5D90D9443E41193002A1B
:102C600040F04A86119A002A3FF4B6AC00230121B5
:102C70001F4608918DF8A020CDF81CB08DF8773054
:102C80000A9312930E9128AEF8E400BF586C080026
:102C9000FFFFEF7F4C6C0800486C08006C6C08006C
:102CA00025AA0B990C9802F0ADFC00287FF49BAC90
:102CB000C8469DF87770279C33E5119B652B40F340
:102CC0009A8015A80DC8149903F03EFD002800F065
:102CD00093810121269BB54A0B440C44072B279472
:102CE0002693C8F80410C8F8002000F3C68308F142
:102CF00008081F9B139A279C934203DB079BDD0761
:102D00007FF586AD269B199901331A9A0C44072B3F
:102D1000C8F80020C8F804102794269300F3C48351
:102D200008F10808139B5E1E002E7FF771AD102E70
:102D300040F3758522461027269B9D4DDDF830B067
:102D40000B9C05E008F10808103E102E40F3258288
:102D500001331032072B2792269388E8A000F1DD7B
:102D600025AA2146584602F04DFC00287FF43BACD2
:102D7000C846279A269BE7E70D9B089A9F1A002FC3
:102D80007FF7F6AC102F40F3A884894D42462146C8
:102D9000B0464FF0100B2E46269B0C9C0B9D04E07A
:102DA000103F102F02F1080215DD01331031072BFF
:102DB0002791269382E84008F2DD25AA294620467D
:102DC00002F020FC00287FF40EAC103F102F4A4682
:102DD0002799269BE9DC35460C464646904601334A
:102DE0003C44072B2794269388E8A00000F39E829A
:102DF00008F10808BCE4139B012B40F34F82012328
:102E0000269F1C441F44072F2794C8F8006026976C
:102E1000C8F8043000F35F8208F10808199A0137F6
:102E20001A9B1444072F27942697C8F80030C8F837
:102E3000042000F35C8208F1080815A80DC8149955
:102E400003F082FC139B002840F04181013B0137D5
:102E500001361C44072FC8F8006026972794C8F84D
:102E6000043000F3668108F108081B9A0137144406
:102E700021AB072F27942697C8F80420C8F8003004
:102E80007FF7C4AC25AA0B990C9802F0BBFB002875
:102E90007FF4A9ABC846279CBAE425AA0B990C98E5
:102EA00002F0B0FB00283FF4FDACFFF79CBBDDF85F
:102EB0001CB0012B00F07E81022B71D1CDF81CB02B
:102EC00000240025D4E525AA0B990C9802F09AFB62
:102ED00000287FF488ABC846279C86E425AA0B9976
:102EE0000C9802F08FFB00287FF47DABC846279C2E
:102EF00029E40120269B2D4A03440444072B2794F0
:102F00002693C8F80400C8F8002040F3D88225AA08
:102F10000B990C9802F076FB00287FF464ABC8464E
:102F20001F99279C29B9139B1BB9079BD8077FF5CD
:102F30006FAC1998269B0246013322441A9C072B3A
:102F40002792C8F80040C8F80400269300F33184A3
:102F500008F108080029C0F20984139901338C187C
:102F6000072B27942693C8F80060C8F804107FF751
:102F70004DAC25AA0B990C9802F044FB00287FF475
:102F800032AB279CC84643E425AA0B990C9802F063
:102F900039FB00287FF427ABC846279CFFF7E5BB29
:102FA00000240025CDF81CB0494604E0886C0800D8
:102FB0009C6C08003146E20842EA4572E80804F0D9
:102FC000070305461446303354EA050201F8013C74
:102FD00001F1FF36EED1079AD2077FF559AD302BBC
:102FE0003FF456AD3023023906F8013CA9EB01034A
:102FF0000E930E46FFF736BB1F9900297FF779AF76
:10300000129B139A9342A8BF1346002B1F460BDD59
:10301000269B3C440133072B279488E8C000269365
:1030200000F3FB8208F10808129B002FA8BFDB1BEE
:10303000002B1F4640F3D780102B40F33484BA4D49
:1030400042462146B0464FF0100B2E46269B0C9C64
:103050000B9D04E00832103F102F40F3B580013380
:103060001031072B2791269382E84008F2DD25AA2C
:103070002946204602F0C6FA00287FF4B4AA4A4640
:103080002799269BE7E7002D08BF0A2CC0F0908007
:103090004E46204629460A22002303F0C5FB303263
:1030A00006F8012D2046294600230A2203F0BCFB26
:1030B00004460D4654EA0503EBD1A9EB06030E9333
:1030C000FFF7D0BA0A9B4E460E93FFF7CBBA5E1EAF
:1030D000002E7FF7CAAE102E40F3E38322464FF056
:1030E000100B914D0C9C04E0103E102E08F10808C6
:1030F00015DD01371032072F2792269788E8200820
:10310000F2DD25AA0B99204602F07CFA00287FF414
:103110006AAA103E102EC846279A269FE9DC14465C
:1031200001373444072F2794269788E860007FF7FB
:103130009AAE25AA0B990C9802F064FA00287FF445
:1031400052AA279C269FC8468FE604321C68002599
:1031500001230F92FFF768BA1C6804330F93002510
:103160002AE41C680433E51722460F932B46002AF5
:1031700073F10003BFF668AC2D27644265EB45058B
:103180008DF877700123FFF753BA0F9900250A468F
:1031900004320C680F92FFF747BA144601333444E7
:1031A000072B2794269388E860007FF72FABE0E693
:1031B000DDF81CB0012342AE3034CDF81CB006F867
:1031C000414D0E93FFF74EBA35460C4646469046A3
:1031D00001333C44072B2794269388E8A00000F392
:1031E000468208F108081F9A139B9A4245DB079B09
:1031F000D90742D4139B12989A1A1D1A9542A8BF58
:103200001546002D0EDD2699064401312C44072970
:10321000C8F800602794C8F80450269100F316827D
:1032200008F10808002DB4BF1646561B002E7FF784
:10323000EFAA102E40F3F38222461027269B3A4D28
:10324000DDF830B00B9C04E008F10808103E102EA9
:10325000A3DD01331032072B2792269388E8A000C4
:10326000F2DD25AA2146584602F0CCF900287FF469
:10327000BAA9C846279A269BE8E7269B19980133E6
:103280001A990444072B2794C8F80010C8F80400C2
:10329000269300F3CF8108F10808ABE7079BDA0714
:1032A0003FF5ADAD0123269F1C441F44072F2794F3
:1032B000C8F800602697C8F804307FF7D4AD25AA77
:1032C0000B990C9802F09EF900287FF48CA9C8464F
:1032D000279C269FC9E525AA0B990C9802F092F924
:1032E00000287FF480A9C846279C269F96E525AA3A
:1032F0000B990C9802F086F900287FF474A9C8464F
:10330000279C269F99E50F9C073424F0070404F1BD
:103310000801D4E900230F9114461D46FFF78FBB27
:103320004E46FFF79FB900BF9C6C080025AA0B9979
:103330000C9802F067F900287FF455A9C846279C2D
:10334000FFF716BA159C22462046149C23462146B8
:1033500003F02CFA002840F073820A9B0133119B82
:1033600023F020030E9300F09C81472B00F0D680C1
:103370004BF480730793149B1F1E159B0893B7BFD4
:103380003B46002303F100472D231093119B662B2E
:1033900000F09081462B00F0A48002200E9B23A910
:1033A000452B0ABF0A9B0A9D5D1C8DE821000491F4
:1033B00020A81FA93B460390089A02910C9800F0A0
:1033C0005BFB119B0646672B40F0BA811BF0010F97
:1033D00000F023827419169A0898179B394603F057
:1033E000B3F9002840F02481239BA34206D2302168
:1033F0005A1C23921970239B9C42F9D89B1B139350
:103400000E9B472B00F0A280119B652B40F3A781F8
:10341000119B662B1F9B129300F07181139B129AD4
:103420001946914200F35D811BF0010F40F0F081DD
:1034300022EAE273089367230E921193109B002BEC
:103440007DD10A939DF87770FFF714B924F0070433
:10345000236815936368149304F108030F93FFF72F
:103460002FBB0F9A136804320F92099A1A60FFF764
:1034700004B8269BAF4DFFF7ADB925AA0B990C9860
:1034800002F0C0F800287FF4AEA8C84631E40F9AD5
:10349000134604330F93099B1168DD171A462B4618
:1034A000C1E90023FEF7E9BF25AA0B990C9802F0A9
:1034B000A9F800287FF497A8C846279C32E408F1B1
:1034C00008082FE540210C9801F024FA0B9A1060AF
:1034D0001061002800F0148240230B9A5361FEF71C
:1034E000BCBF03200A9C23A98DE81100049120A8E9
:1034F0001FA90390089A3B4602910C9800F0BCFA71
:1035000025460646119B7419462B7FF464AF337829
:10351000302B00F087811F9D2C445CE70A9B002B19
:1035200008BF01230A9323E730460A95FEF750FFB0
:103530000F940E90CDF81CB00346FFF7E7B92D2786
:1035400000238DF877700A93FFF795B81F9B1A46F2
:103550001293033304DB0A9B19469142BFF65EAF18
:10356000119B023B1193129B9DF84420013B002BC1
:103570008DF88420B4BF2D222B221F93B8BF129B3D
:103580008DF88520B8BFC3F10103092B40F31F81DB
:103590000DF193000146684C00E0114684FB035294
:1035A000DD17C5EBA20505EB8502A3EB4202303225
:1035B000092D01F8012C2B4601F1FF32EDDC3033EF
:1035C0000239DCB2884202F8014C40F292810DF1DE
:1035D0008601134601E013F8014B834201F8014BC9
:1035E000F9D101339B1A0DF18602134421AA9B1ACB
:1035F000139A1B93012A13440E9340F348810E9BA8
:10360000199A13440E9323EAE37308930023129349
:1036100014E7279C269AFFF776B825AA0B990C98F1
:1036200001F0F0FF00287EF4DEAFC846279CFBE4E3
:103630002346E3E625AA0B990C9801F0E3FF002846
:103640007EF4D1AFC8461F9A279CD3E525AA0B99D3
:103650000C9801F0D7FF00287EF4C5AF1F9A139B8A
:10366000C846279C9A1ADDE5269BFFF7FEB825AAD7
:103670000B990C9801F0C6FF00287EF4B4AFC84641
:10368000279CB0E50A9B3746062B28BF06230A96DF
:10369000129608930F94CDF81CB00E93274EFEF7A8
:1036A000E9BF06230A9363E62D231F468DF8773082
:1036B000FFF728BA03200A9C23A98DE81100049182
:1036C00020A81FA90390089A3B4602910C9800F08D
:1036D000D3F925460646041919E7269B154DFFF731
:1036E0007EBB199A139B1344129A0E93002A40F33F
:1036F000C78023EAE3730893672311939EE6002BA8
:1037000040F3E1800A9A002A40F0B0801BF0010FDC
:1037100040F0AC8008930E9390E60A9B0F940893B8
:103720000E930A90CDF81CB012909DF87770FEF7BA
:10373000A1BF00BF9C6C080067666666806C0800CD
:10374000119B472B7FF446AE1BF0010F7FF4DAAEDE
:10375000239B9B1B13930E9B472B3FF4F7AE1F9BA2
:10376000129300E700200A90FEF7BCBE4F421031D2
:1037700035DA10246A4DDDF830B004E008F10808AD
:10378000103F102F2CDD01331032072B2792269388
:10379000C8F80050C8F80440F0DD25AA0B99584637
:1037A00001F030FF00287EF41EAFC846279A269B02
:1037B000E6E725AA0B990C9801F024FF00287EF477
:1037C00012AFC8461F99279A269BFFF7C3BB30222A
:1037D00013448DF887308DF8862022AB06E7504DD4
:1037E00001333A44072B88E8A0002792269308F17A
:1037F00008087FF7B2AB25AA0B990C9801F002FFDD
:1038000000287EF4F0AEC846279A269BFFF7A5BB9A
:10381000129B199A13440E936BE7239BEEE5269BAC
:103820003F4DBBE4169A0898179B394602F08CFF6F
:1038300000287FF470AEC5F101051F952C44CAE540
:10384000149B384E002BBEBF2D231F468DF87730BA
:103850004FF003031A4608934FF00003A8BF9DF8EA
:10386000777019460A93304BFFF754B9129B199A97
:1038700013440A9A1A4422EAE2730E920893DDE591
:10388000129B0E9AC3F101031A441346C3E71BF0BF
:10389000010312937FF4B3AE0E9B23EAE373089304
:1038A000CCE51F4D3CE4269B1D4D91E40F9D9AF8FD
:1038B00001302868A24640EAE0700A9028460430A9
:1038C0000F90FEF70DBE0A9B13B91BF0010F02D03B
:1038D000199B0133CDE701231CE78DF87710FFF723
:1038E00080B98DF87710FFF73AB98DF87710FFF7A8
:1038F0004FB80DF1860379E68DF87710FFF7B2B96E
:103900004FF0FF320C2309920C9A1360FEF774BE3D
:103910008DF87710FFF7C4B88DF87710FFF778B8F7
:103920009C6C0800546C0800506C0800024B13B1EA
:10393000024800F005B8704700000000BD480800CC
:10394000002301461A46184601F0DABE2DE9F04F71
:1039500003690F6983B09F4200F38880013F01F142
:10396000140600F1140A56F827305AF827200133BC
:10397000B2FBF3F8BB00009306EB03095344019339
:10398000B8F1000F3BD00023B4461C46D6465CF885
:10399000042BDEF800501FFA82FB08FB0B33120CDD
:1039A0004FEA134B08FB02BB9AB2A21AABB21FFA42
:1039B0008BF41A44C4EB154404EB224492B242EA5D
:1039C0000442E1454EF8042B4FEA24444FEA1B43DE
:1039D000DDD2009B5AF803308BB9019C231F9A4516
:1039E0000CD254F8043C4BB9A4F1080302E01A6865
:1039F000043B1AB99A4507F1FF37F8D3076104462B
:103A000001F0F0FC00282DDB5546002308F10108E9
:103A100056F8041B28688AB29A1A0B0C81B20A4421
:103A2000C3EB104303EB224392B242EA0342B14597
:103A300045F8042B4FEA2343EAD25AF827200AEB31
:103A400087037AB91A1F92450BD253F8042C42B956
:103A5000083B02E01A68043B1AB99A4507F1FF37A0
:103A6000F8D32761404603B0BDE8F08F002003B0D3
:103A7000BDE8F08F000000002DE9F04F056C9BB011
:103A8000044692469B46279E4DB10123426C29462F
:103A90009340AB606A6001F0CDFA00232364BBF170
:103AA000000F5D4635DB002333609D4BAB4315D0E3
:103AB000002200235046594602F046FE8046002868
:103AC0002DD00123269A1360289B002B00F0BD8087
:103AD0009448186001381BB0BDE8F08F42F20F73B4
:103AE000269A1360BAF1000F0DD1C5F3130555B92D
:103AF000289B8D48002BEED000F10803289A136014
:103B00001BB0BDE8F08F289B8848002BE3D0C31C76
:103B1000F4E701232BF000453360AB46C5E718AA54
:103B200019AB0192009352465B46204601F004FD1A
:103B30002B0D814671D05046CBF3130242F07F51DA
:103B4000189FA3F2FF36CDF8508041F440110022B7
:103B5000774B02F0DDF96CA3D3E9002302F08CFB74
:103B60006BA3D3E9002302F0D5F9CDE90201304679
:103B700002F01CFB68A3D3E9002302F07DFB0246A0
:103B80000B46DDE9020102F0C5F9CDE9040102F0BE
:103B900023FE002202900023DDE9040102F0DEFD95
:103BA000002840F06D81029D162D00F25781614979
:103BB000524601EBC5015B46D1E9000102F0ECFD84
:103BC000002800F0BE816B1E029300230E93BF1BE2
:103BD0007B1E089300F14E8100230A93029B002B69
:103BE000C0F23F81089A0D931146194400230891B1
:103BF0000C93249B092B2AD8052B40F358860025CB
:103C0000043B2493249B023B032B00F23F86DFE816
:103C100013F0CE03C302D9035B04189F199E3E44E0
:103C200006F23243202B40F38781C3F1400306F2B2
:103C300012409D402AFA00F0284302F0A7FA01231F
:103C4000013E1493A1F1F87181E73B4843E700215D
:103C500020466164259101F0C7F94FF0FF330793C7
:103C60000F930123259A0490206424920B93199BAF
:103C7000002BC0F2D380029A0E2A00F3CF802D4B86
:103C800003EBC203D3E90023CDE90823259B002BD6
:103C9000C0F2B483DDE9085650462A4633465946F9
:103CA00002F014FC02F098FD804602F07FFA2A46EA
:103CB000334602F0E1FA02460B465046594602F0FE
:103CC00027F9079E049F08F13005012E3D7002463A
:103CD0000B4607F1010564D00022184B02F0CCFA24
:103CE0000022002306460F4602F02EFD002840F079
:103CF0008280CDF828904FF0000ADDE908894FF066
:103D0000000B0B9429E000BF61436F63A787D23F8C
:103D1000B3C8608B288AC63FFB799F501344D33FBA
:103D20000000F07F896C0800AC6C0800B86C0800DB
:103D30000000F83FE86C0800886C08000000244090
:103D40000022814B02F098FA52465B4606460F4627
:103D500002F0FAFC002840F0BA8342464B46304657
:103D6000394602F0B3FB02F037FD044602F01EFABA
:103D700042464B4602F080FA02460B463046394630
:103D800002F0C6F804F1300605F8016B049E079FA7
:103D9000AE1BBE4202460B46D2D1A046DDF82890AB
:103DA0000B9C1046194602F0B5F806460F4602462F
:103DB0000B46DDE9080102F0D1FC48B9DDE9080154
:103DC00032463B4602F0C0FCA8B118F0010F12D0F9
:103DD00015F8018C6B1E049A04E09A4200F00284EC
:103DE00013F8018DB8F1390F03F10105F5D008F191
:103DF000010883F800804946204601F01BF90022A3
:103E0000029B2A70269A01331360289B002B00F036
:103E10009F8304981D601BB0BDE8F08F0B9A002AA9
:103E20003ED0249A012A40F31183079B0C9A5F1E0F
:103E3000BA42C0F29083D71B079B002BC0F28C8440
:103E40000A9D079B0A9A01211A440A92089A204661
:103E50001A44089201F08AF9064623E001230E93E2
:103E6000B5E600230A9A0D93029BD21A5B420A928E
:103E70000C93BEE6C7F101030A9300230893ADE655
:103E8000029D284602F092F902460B46DDE9040144
:103E900002F05AFC00287FF486AE6B1E029382E685
:103EA0000AADE0CD002D0CDD089900290B4608DD98
:103EB000A942A8BF2B460A9AED1AD21ACB1A0A9227
:103EC00008930C9BD3B10B9B002B00F0B882002F02
:103ED00010DD31463A46204601F0E4F94A460146F3
:103EE0000646204601F04CF90346494620469946CD
:103EF00001F0A0F80C9BDA1B40F0A28201212046C1
:103F000001F034F90D9B8046002B1FDD01461A4657
:103F1000204601F0C7F9249B8046012B40F35582CF
:103F200000230C93D8F8103008EB8303186901F0D4
:103F3000CDF8C0F1200013E0C3F120050AFA05F026
:103F40007BE60E9043E600BF00002440249B012B3B
:103F500040F3858200230C930D9B0120002BE1D1BF
:103F6000089A104410F01F0000F0A180C0F1200357
:103F7000042B40F386840A9BC0F11C0003440A937F
:103F800013460344054408930A9B002B05DD49466C
:103F90001A46204601F0D6F98146089B002B05DD24
:103FA00041461A46204601F0CDF980460E9B002B73
:103FB00040F08680079B002B40F364820B9B002B14
:103FC00000F09880002D05DD31462A46204601F09C
:103FD000B9F906460C9B002B40F036830896079BE8
:103FE000049A013BD3180B9317460AF00103C2460B
:103FF000DDF820B00C9351464846FFF7A7FC314648
:104000000546484601F0EEF95A46079051462046CB
:1040100001F004FAC268804605F13003002A40F03E
:104020002982014648460A9301F0DCF9414608908E
:10403000204600F0FFFF089A0A9B32B9249921B963
:104040000C9A002A00F0EE83249A07990029C0F206
:104050009F8205D1249919B90C99002900F0988202
:10406000002A00F305830B9A07F1010897423B7081
:10407000454600F00B83494600230A22204600F003
:10408000E3FF5E45814631464FF000034FF00A02E0
:10409000204600F0E98100F0D7FF5946064600238C
:1040A0000A22204600F0D0FF47468346A3E71C20A3
:1040B0000A9B054403440A93089B0344089363E75F
:1040C0004146484601F08EF90028BFF673AF029FC3
:1040D000494600230A222046013F029700F0B4FF20
:1040E0000B9B8146002B40F0B5830F9B002B40F3C8
:1040F000BE830793DDF810A0079F554606E04946AA
:1041000000230A22204600F09FFF81464146484690
:10411000FFF71CFC303005F8010BA5EB0A03BB428E
:10412000EDDB049B079A8246012AACBF9B18013342
:104130004FF0000B1D4649460122204601F002F9CE
:104140004146814601F04EF9002840F33F8215F8C0
:10415000012C6B1E049904E08B4200F0AE8113F831
:10416000012D392A03F10105F6D001321A704146BA
:10417000204600F05FFF002E3FF43DAEBBF1000F84
:1041800005D0B34503D05946204600F053FF3146D1
:10419000204600F04FFF2EE600230B93029B259A4A
:1041A00013440F930133012B1F461E46B8BF01274E
:1041B00007930021172F61640AD9012204235B00B1
:1041C00003F114008742114602F10102F7D2616443
:1041D000204600F009FF0E2E049020643FF647AD04
:1041E000002D3FF444AD0299CDE910AB002940F316
:1041F0000382B94B01F00F020D1103EBC203E90674
:10420000D3E9006740F1AF81B44B5046D3E90823AE
:10421000594602F05BF94FF0030ACDE9120105F0AF
:104220000F058DB1DFF8B482EA0709D5D8E900237C
:104230003046394602F020F806460F460AF1010AD8
:104240006D1008F10808EFD13B46DDE91201324656
:1042500002F03CF9074688460E9B43B10022A04B72
:104260003846414602F07AFA002840F087825046EC
:1042700001F09CFF3A46434601F0FEFF994B0022B5
:1042800001F048FE079B0546A1F15076002B00F097
:104290003F81029B1593079B12930B9B002B00F011
:1042A000FB81129A8C4B002003EBC20353E90223DB
:1042B0008D4902F00BF92A46334601F029FE824669
:1042C0008B463846414602F087FA054601F06EFFFC
:1042D00002460B463846414601F01AFE30355FFA79
:1042E00085F8049D06460F4685F8008002460B4679
:1042F00050465946013502F04FFA002854D1324653
:104300003B460020764901F003FE02460B4650462C
:10431000594602F041FA002840F07082129A012AB0
:1043200000F01281129B049ACDF8489013449946EC
:104330000FE032463B460020694901F0E9FD524654
:104340005B4602F00BFA002840F056824D4500F023
:10435000F980504659460022644B01F08DFF00223F
:10436000624B82468B463046394601F085FF0F4648
:10437000064602F031FA804601F018FF02460B466D
:104380003046394601F0C4FD08F130085FFA88F87C
:1043900005F8018B52465B4606460F4602F0DEF9F1
:1043A0000028C6D0DDF84890159B029323E5002332
:1043B0000B93259B002B40F3DD801F461E460F9379
:1043C0000793F6E601230B93F3E7BAF1000F7FF4AE
:1043D000A7ADCBF31303002B7FF4BCAD2BF000474C
:1043E0003F0D3F05002F00F00D820A9B01330A9319
:1043F000089B0133089301230C93ADE5079B002B29
:104400003FF748AC40F02282DDE908010022384B3A
:1044100001F032FF52465B4602F0B4F9DDF81C8031
:104420004646002841D0259B049DDB43029341462C
:10443000204600F0FFFD002E3FF4DDACA7E60C9A0D
:104440004946204600F02EFF814657E5149A002A7F
:1044500000F0888103F233430C9F0A9DF2E4BAF125
:10446000000F7FF477ADB4E700F0EEFD4746064657
:104470008346C0E501462046089300F0DBFD01229B
:10448000089BE2E5249B022B7FF798AD079B002B4E
:10449000C9D141460522204600F0D6FD014680469E
:1044A000484600F09FFF0028BDDD3123029A0499A1
:1044B000013202920B704D1CB9E73123029A01328E
:1044C0000292049A137052E601230B9366E6DDF81C
:1044D00028900B9C8FE400BFE86C0800C06C0800BB
:1044E0000000F03F00001C400000E03F00002440BE
:1044F00000001440504601F059FE3A46434601F090
:10450000BBFE0022C14B01F005FD0546A1F150762E
:1045100041460022BE4B384601F0FAFC2A4633469B
:1045200082468B4602F038F98046002840F0108120
:104530002A4606F100435046594602F00FF918B1D9
:10454000464670E7DDF84890DDE910ABFFF78FBB1A
:104550000498FFF7C0BA0C9B0D9AFB1A1A440C97EB
:104560000D92002768E4DDE910234FF0020ACDE93F
:10457000122356E60021012320466164259300F0B2
:1045800033FD259B04900793259B20640F9327E61A
:10459000002AD046CDF820B09A4611DD49460122C6
:1045A000204600F0CFFE4146814600F01BFF002868
:1045B00040F34581BAF1390F00F0058105F1310A68
:1045C000B34687F800A07D1C089ED0E504D11AF000
:1045D000010F01D0BBE5154615F8013C6A1E302BD2
:1045E000F9D0C4E5302204990A70029A15F8018CBA
:1045F00001320292FFF7FBBB00F0BB80DDE9100146
:10460000029B4FF0020A5D42824B05F00F0203EB62
:10461000C203D3E9002301F02FFE2D11074688467F
:104620003FF41AAE7C4EEB0709D5D6E90023384695
:10463000414601F021FE074688460AF1010A6D1045
:1046400006F10806EFD107E67168204600F0CCFCC1
:104650000546336906F10C0102339A000C3000F074
:1046600041FC29460122204600F06CFE0890B6E489
:10467000392BCDF820B0D04600F0A58003F1010A17
:10468000B34687F800A07D1C089E70E55A46D046C8
:10469000B3469A4616464EE512985E492A4601EB05
:1046A000C001334651E9020101F0E6FDCDE91601F2
:1046B0003846414602F090F8054601F077FD024683
:1046C0000B463846414601F023FC06461298049AF0
:1046D0003035012815700F4602F1010526D0129BD6
:1046E000049ACDF8489013444FF0000A9946DFF839
:1046F00030B152465B463046394601F0BDFD0F46AB
:10470000064602F069F8804601F050FD02460B466D
:104710003046394601F0FCFB08F1300805F8018B02
:104720004D4506460F46E4D1DDF848900022DDE90C
:1047300016013A4B01F0EEFB32463B4602F00EF812
:10474000002846D0159B029315F8018CFFF742BB59
:104750004FF000084646A8E60A9B079A9D1A0023D8
:10476000FFF770BB189B0C9FC3F136030A9DFFF740
:1047700069BBDDE910784FF0020A6DE5079B002B5D
:104780003FF4B8AE0F9B002B7FF7DEAE0022244B28
:104790003846414601F070FD074688460AF101009F
:1047A00001F004FD3A46434601F066FD0022174B36
:1047B00001F0B0FB029A0F9B013A05461592A1F158
:1047C0005076129369E53922B3463A70089E7D1CF3
:1047D000BFE4DDE916230020104901F099FB3246C1
:1047E0003B4601F0D9FF08B9AEE6154615F8013C85
:1047F0006A1E302BF9D0D7E5DDF84890159B02935F
:10480000FFF7E8BA0C97FFF7A7BB00BF00001C40FA
:1048100000001440E86C0800C06C08000000E03F95
:1048200000002440392BCDF820B0D046DDF81CB074
:104830009A46C8D0BBF1000F3FF7C0AEC0E67FF488
:10484000BFAE1AF0010F3FF4BBAEB3E64FF0000865
:104850004646E8E5314600230A22204600F0F4FBF4
:104860000F9B0646002B07DD0793FFF7ABBB249B8E
:10487000022B1FDC0F9B3CE4249B022B1ADC0F9BBA
:10488000F2E73FF481ABC0F13C0011E40025204683
:104890006564294600F0A8FB4FF0FF3307930F93A0
:1048A00001230490259520640B93FFF7E0B90125BF
:1048B000FFF7A8B90F9B0793E8E500BF38B50A4C8E
:1048C0000A4D641BA4100AD004F18043013B05EBA0
:1048D0008305013C55F804399847002CF9D1BDE80F
:1048E000384002F0FFBA00BFF46E0800F06E080016
:1048F000044A054B1268506B002808BF1846F03078
:10490000704700BF9C010720DC090720704700BFEB
:10491000704700BF2DE9F04F01F10B06162E83B052
:10492000054640F29E8036F0070600F1BD80B14298
:1049300000F2BA8000F04CFBB6F5FC7FC0F0858237
:10494000730A00F0B880042B00F26C81B30903F104
:10495000390003F1380EC100B84F39444C680839AA
:10496000A14206D10CE0002A80F2AB80E468A142AB
:1049700006D0636823F003039A1B0F2AF3DD704609
:104980003C69DFF8CCE2744500F09E81636823F057
:1049900003039A1B0F2A00F38381002AC7F814E04F
:1049A000C7F810E080F29180B3F5007F80F0548169
:1049B0000122DB0879684FEAA30C134457F83380CF
:1049C00002FA0CF207EBC30C0A43ACF10801E160F8
:1049D000C4F808807A6047F83340C8F80C400124D6
:1049E00083109C4094427DD8144206D120F00300ED
:1049F0006400144200F10400FAD007EBC009CC4671
:104A00008046DCF80C309C4507D15FE1002A80F23B
:104A10006D81DB689C4500F05981596821F00301E4
:104A20008A1B0F2AF2DDDC68D3F808C046F00108C3
:104A300028461E4442F00105C3F80480CCF80C401F
:104A4000C4F808C07E613E61C6F80CE0C6F808E014
:104A500075605A50009300F0C1FA009B03F10804FE
:104A60001EE0102920D800F0B3FA102618230220E7
:104A7000724F3B445C68A3F10802944200F02F811E
:104A80006368E16823F0030323445A68A66842F090
:104A90000102F16028468E605A6000F09FFA0834E7
:104AA000204603B0BDE8F08F00240C2320462B6085
:104AB00003B0BDE8F08F40204FF400714FF03F0E7F
:104AC0004AE723445A68E168E0E723445A682846E5
:104AD00042F001025A60083400F080FA204603B028
:104AE000BDE8F08FBC68636823F00308B04504D3C9
:104AF000A8EB06030F2B00F38580DFF85891504B8D
:104B0000D9F800201B680132334404EB080A00F096
:104B1000548103F580530F3323F47F6B2BF00F0B7D
:104B20005946284600F05CFD411C024600F0FB801F
:104B3000824500F2F680434B19685944196000F031
:104B40004C81D9F8000001301BBFA2EB0A0A514486
:104B5000C9F80020196012F0070100F01481C1F1BA
:104B60000800C1F580510244083102EB0B09C9F37A
:104B70000B09A1EB0909494628460193009200F070
:104B80002FFD431C9DE80C0000F04281801A484430
:104B900040F001001968BC424944BA601960506095
:104BA00017D0B8F10F0F40F2FA804FF0050C626891
:104BB000A8F10C0020F0070002F0010204EB000E47
:104BC00002430F286260CEF804C0CEF808C000F29D
:104BD00016811D4BBC681A68914288BF19601B4B37
:104BE0001A689142626888BF196022F003029642F7
:104BF000A2EB060301D80F2B04DC284600F0EEF9E7
:104C000000244DE746F0010243F0010326446260B0
:104C10002846BE600834736000F0E0F9204603B017
:104C2000BDE8F08F142B70D9542B00F2A280330B07
:104C300003F16F0003F16E0EC1008DE6CC05072075
:104C4000B80B0720880B0720B00B0720B40B0720F8
:104C5000D4050720D40907205A0A042A5BD9142A4C
:104C600000F2AE8002F15C01C9005B3207EB010C7F
:104C70007958ACF1080C8C4500F088804A6822F025
:104C80000302934273D289688C45F7D1DCF80C306B
:104C90007A68E360C4F808C09C60CCF80C409EE6DB
:104CA00046F0010C42F001012644C4F804C0284635
:104CB0007E613E61C6F80CE0C6F808E07160E25023
:104CC00000F08CF90834EBE67A6888E608F1010810
:104CD00018F0030F0CF1080C7FF493AE2DE0DC68A4
:104CE000A34208BF02303FF44BAEC9E61C4619444C
:104CF0004A68DB6854F8086F42F001024A602846AF
:104D0000F3609E6000F06AF9CAE603F15C0003F10B
:104D10005B0EC10020E69A0902F13901C900383260
:104D2000A4E7BC4254D0BC68626822F003025EE78C
:104D300059F80839994540F0868010F0030F00F1CA
:104D4000FF30F5D17B6823EA04037B6064009C425A
:104D50003FF6C8AE002C3FF4C5AE1C4240467FF47F
:104D60004CAE64001C4200F10400FAD045E68C46CB
:104D70008CE7B3F5AA7F15D8F30B03F1780003F1A4
:104D8000770EC100E8E54FF48051EEE601217B6823
:104D9000921001FA02F21A437A60634679E701231E
:104DA00053602AE740F25452934222D8B30C03F1E5
:104DB0007D0003F17C0EC100CEE503F1100BAFE6E0
:104DC000542A29D81A0B02F16F01C9006E324DE73F
:104DD000204B196859441960B3E6CAF30B00002848
:104DE0007FF4AFAE08EB0B03BA6843F001035360E6
:104DF000EFE67F204FF47E714FF07E0EACE504F1BC
:104E000008012846009300F05DFD009B1968E0E66C
:104E100001204FF00009BDE6B2F5AA7F05D8DA0BF4
:104E200002F17801C900773220E740F254518A42FA
:104E300005D89A0C02F17D01C9007C3216E74FF4C7
:104E40007E717E2212E77B6880E7F00806F1080396
:104E50000EE600BF880B0720830770B4CDB23DD0AB
:104E6000541E0AB30378AB421FD0431C05E014F173
:104E7000FF3419D30278AA4217D013F0030F184653
:104E800003F10103F3D1032C11D84CB30378AB42E7
:104E90000BD00444431C02E00278AA4205D09C4295
:104EA000184603F10103F7D1002070BC70470902D6
:104EB00089B2294341EA0141036806464B40A3F108
:104EC000013222EA030313F0803F00F1040003D112
:104ED000043C032CF0D8D8E73046D7E71446D2E795
:104EE0002046E2E7844641EA000313F0030349D178
:104EF000403A23D30B6803604B6843608B68836040
:104F0000CB68C3600B6903614B6943618B69836143
:104F1000CB69C3610B6A03624B6A43628B6A83622B
:104F2000CB6AC3620B6B03634B6B43638B6B836313
:104F3000CB6BC36340304031403ADBD230320BD3CD
:104F40000B6803604B6843608B688360CB68C36009
:104F500010301031103AF3D20C3205D351F8043B23
:104F600040F8043B043AF9D2043208D0D2071CBFFF
:104F700011F8013B00F8013B01D30B880380604628
:104F8000704700BF082A13D38B07B1D010F003037A
:104F9000AED0C3F10403D21ADB071CBF11F8013BEA
:104FA00000F8013BA4D331F8023B20F8023B9FE715
:104FB000043AD9D3013A11F8013B00F8013BF9D288
:104FC0000B7803704B7843708B7883706046704722
:104FD0000148FFF79BBC00BF0C0C07200148FFF7FE
:104FE00097BC00BF0C0C0720C36C70B505460C467F
:104FF0004BB153F8240080B1026843F82420002309
:105000000361C36070BD2122042100F0DBFBE86472
:1050100003460028EDD1002070BD012101FA04F6FD
:10502000721D2846920000F0CDFB0028F3D04460AA
:105030008660E4E731B1C36C4A6853F82200086027
:1050400043F82210704700BFF0B50C4605464FF0FC
:10505000000E0E6983B001F1140738680EF1010EDD
:1050600081B202FB0133010C180C02FB01019BB25F
:1050700003EB0143764547F8043B4FEA1143ECDC70
:105080003BB1A268964207DA04EB8602013653610F
:105090002661204603B0F0BD6168284601310193C6
:1050A000FFF7A2FF0746226904F10C0102329200C9
:1050B0000C30FFF717FFEA6C6168019B52F8210082
:1050C000206042F821403C46DEE700BF020C12049B
:1050D0000346B2B90304102013F07F4F04BF1B0234
:1050E000083013F0704F04BF1B01043013F0404F21
:1050F00004BF9B000230002B02DB5B0003D42020A6
:1051000070470020E8E70130704700BF03680146A0
:1051100013F0070207D0DA0721D4980721D49B089F
:105120000B600220704798B298B1104613F0FF0F41
:1051300004BF1B0A08301A0704BF1B0904309A0772
:1051400004BF9B080230DA0707D45B0804D1202093
:1051500070471B0C1020E9E701300B6070470020FE
:1051600070475B080B600120704700BF10B50C460C
:105170000121FFF739FF01224461026110BD00BF28
:105180002DE9F04F0C69156983B0AC428B46164689
:1051900004DA2246B3462C460E461546DBF80830A4
:1051A00004EB0508DBF804109845C8BF0131FFF790
:1051B0001BFF00F1140909EB880AD145009005D2C4
:1051C0004B46002143F8041B9A45FBD806F1140C0A
:1051D0000CEB85030BF1140B9C450BEB840E4BD2AF
:1051E000CDF804A09A46DCF80050AFB2E7B14D46C6
:1051F0005E46002156F8042B286893B284B2120C44
:1052000007FB0343000C07FB02020B4402EB1341B4
:105210009BB243EA0143B64545F8043B4FEA1141CE
:10522000E8D82960DCF800502D0C1DD0D9F80030EA
:1052300048461C46594600220E88240C05FB0644AD
:105240009BB2224443EA024340F8043B51F8043B3A
:1052500004681B0CA6B205FB03638E4503EB1243E7
:105260004FEA1342E8D803600CF1040CE24509F15F
:105270000409B8D8DDF804A0B8F1000F0BDD5AF826
:10528000043CAAF1040A1BB105E05AF8043D13B925
:10529000B8F10108F9D10098C0F8108003B0BDE85A
:1052A000F08F00BF12F003032DE9F04114460746CA
:1052B0002ED10D46A4101CD0BE6C96B3E3074FF060
:1052C000000806D4641014D03068A8B10646E3077D
:1052D000F8D5324629463846FFF752FFB5B16A681D
:1052E000FB6C641053F82210296043F822500546E5
:1052F000EAD12846BDE8F081324631463846FFF70C
:105300003FFF3060C0F800800646E0E70546D9E779
:105310000B4A013B52F823200023FFF795FE054678
:10532000C8E701213846FFF75FFE40F271210122F4
:105330000023416102610646B8640360BEE700BF16
:10534000B06D08002DE9F8430B69541104EB030814
:105350008B6808F101059D420E4691460746496853
:1053600004DD5B009D4201F10101FADC3846FFF7E4
:105370003BFE002C00F1140306DD002103EB840248
:1053800043F8041B9A42FBD1346906F1140119F069
:105390001F0901EB840E1DD00022C9F1200C0C68FE
:1053A00004FA09F4144343F8044B51F8042B8E45D6
:1053B00022FA0CF2F3D81A600AB108F10205FB6C6C
:1053C0007268013D53F822100561316043F8226094
:1053D000BDE8F883043B51F8042B8E4543F8042FB5
:1053E000F9D8ECE730B40B6905460069C01A0FD153
:1053F0009B001435143119442B4401E09D4207D21F
:1054000053F8044D51F8042D9442F7D002D30120F3
:1054100030BC70474FF0FF30FAE700BF2DE9F84F7E
:105420000C69894611699246641A002C17D18900CB
:1054300009F1140702F114067B18314401E09F4280
:1054400065D253F8045D51F8042D9542F7D067D228
:105450004B46BB46D14637469A46012405E061DB00
:10546000002409F114070AF1140BD9F80410FFF70E
:10547000BBFD5D464FF00008D9F810E0DAF81030B7
:105480003E46C4600BEB830C07EB8E0700F114045F
:1054900056F8049B55F8042B1FFA89F343441FFA6E
:1054A00082F8120CA3EB0803C2EB194202EB234271
:1054B0009BB243EA0243AC4544F8043B4FEA22481E
:1054C000E6D8B74217D9A446354655F8043B99B2F9
:1054D00041440A1402EB134289B241EA0243AF424B
:1054E0004CF8043B4FEA2248EFD8F643374427F004
:1054F000030704373C44043C2BB954F8043D0EF137
:10550000FF3E002BF9D0C0F810E0BDE8F88F002175
:10551000FFF76AFD0122002302614361BDE8F88FB5
:10552000B346A2E74B4609F1140B02F1140791466A
:1055300001249A4699E700BFF0B5012183B01C46CB
:10554000C3F30A551646FFF74FFDC4F3130407468D
:105550000DB144F48014019406B302A840F8086D1C
:10556000FFF7D4FD002830D19DE80C007A61002BB4
:105570000CBF01210221BB613961D5B9089A07EB43
:105580008103A0F2324010601869FFF79FFD099B6C
:10559000C0EB41101860384603B0F0BD01A8FFF71A
:1055A000B5FD0122019B114620303A617B61002D3F
:1055B000E4D0A5F23343089A03441360099BC0F179
:1055C00035001860384603B0F0BD019BC0F12002E1
:1055D000009903FA02F20A43C34001937A61C6E7D5
:1055E00038B50023064C054608462360FBF79EFFAE
:1055F000431C00D038BD2368002BFBD02B6038BD86
:10560000200C07202DE9F04F936883B09046002BC3
:1056100070D082460C4617688D68086842E0A389FE
:1056200013F4906F2ED06569216905EB4505A0EB59
:10563000010B05EBD5750BF101006D103044A8424C
:105640002A4684BF05462A465B0538D51146504692
:10565000FFF760F900283CD05A4621690190FFF716
:1056600041FCA289019B22F4906242F08002A28157
:10567000A5EB0B0203EB0B006561B34635462361D6
:105680002060A2605A46494600F018FAD8F808305F
:10569000A2682068551B58449E1BA5602060C8F86E
:1056A00008603EB37E683B460837002EFAD0AE4213
:1056B000D3F80090AB46B2D23546B346E2E7504647
:1056C00000F060FA03460028D2D12169504600F06C
:1056D000F9F80C2300224FF0FF30CAF80030A389FC
:1056E00043F04003A381C8F80820C8F8042003B0A1
:1056F000BDE8F08F0020C8F8040003B0BDE8F08FCB
:105700002DE9F8432C4D0646286898460F469146E9
:10571000FFF7FCF8294B1C68D4F84831002B3ED029
:105720005A681F2A1CDC02F1010E76B1012103EB3D
:105730008204C4F88890D3F8880191400843022E6F
:10574000C3F88801C4F8088123D00232C3F804E00A
:10575000286843F82270FFF7DBF80020BDE8F883E3
:10576000174B0BB34FF4C870AFF300800346D8B1AA
:105770000020D4F848114FF0010E5860196002461D
:10578000C4F84831C3F88801C3F88C01002EDCD07E
:10579000CCE7D3F88C010143C3F88C11D5E704F5AD
:1057A000A673C4F84831BBE72868FFF7B1F84FF09B
:1057B000FF30BDE8F88300BFC8050720446C08002F
:1057C0000000000010B502FB01F1FFF7A3F804464A
:1057D000D8B150F8042C22F00302043A242A18D835
:1057E000132A14D900231B2A0360436016D9242AE4
:1057F0008360C36011BF00F110020361436100F1D7
:1058000018020023136053609360204610BD0246C7
:10581000F7E70021FCF768FD204610BD00F1080203
:10582000EFE700BFF8B50C46234F0646FFF7D0FB65
:10583000BB68C4F57E615D680F3125F0030529441E
:1058400021F47F6121F00F01A1F58054B4F5805F50
:1058500007DB00213046FFF7C3FEBB682B449842AC
:1058600004D03046FFF7BAFB0020F8BD6142304655
:10587000FFF7B6FE01300DD0104BBA6819682D1B2A
:1058800045F001053046091B55601960FFF7A6FB7E
:105890000120F8BD00213046FFF7A2FEBA68831A46
:1058A0000F2BDEDD064C0549246843F00103001B85
:1058B00053600860D5E700BFCC050720880B0720A0
:1058C000D4090720002944D02DE9F0410D46804637
:1058D000FFF77EFB55F8047C6949A5F1080427F021
:1058E0000103E2188E685068B24220F003005ED0D7
:1058F000FE0750600BD455F8087C01F1080EE41B3C
:10590000A5683B4475456DD0E768EF60BD6015182C
:105910006D68ED073ED543F001026260E350B3F5D8
:10592000007F17D20122DB0898104D68134451F80C
:105930003370824001EBC3002A430838E060A7605F
:105940004A6041F83340FC604046BDE8F041FFF753
:1059500045BB70475A0A042A52D89A0902F13907FE
:10596000FF0002F13805C819CA59083890424FD0D3
:10597000516821F003018B4232D292689042F7D1F4
:10598000C368A060E3609C60C4604046BDE8F0412D
:10599000FFF724BB95683B4F0344BD4240D0D0681D
:1059A00043F00102E86085606260E350B7E7FF07FB
:1059B000034407D455F8085C641BE268A0682B44D4
:1059C000C2609060304A43F0010012686060934208
:1059D0008C60B9D32D4B40461968FFF723FFB3E71E
:1059E0001046CDE711184968C90744D491680344AB
:1059F000D26843F00100CA6091606060E350A3E7A1
:105A0000142A16D802F15C07FF0002F15B05AAE731
:105A10000123AA104D6893402B434B600346B0E727
:105A200043F001024C610C61E560A5606260E350E7
:105A30008AE7542A06D81A0B02F16F07FF0002F119
:105A40006E0590E7B2F5AA7F06D8DA0B02F1780767
:105A5000FF0002F1770586E740F25450824206D8F3
:105A60009A0C02F17D07FF0002F17C057BE74FF401
:105A70007E777E2577E743F001016160136063E77D
:105A8000CC050720D4050720D8090720B80B07202C
:105A900082B049B15AB16BB113780B601278101C07
:105AA00018BF012002B0704701A9002AF3D11046A7
:105AB00002B070476FF00100F4E700BF8842F0B514
:105AC0000DD98B1898420AD28418002A51D0224648
:105AD00013F8014D994202F8014DF9D1F0BD0F2A9A
