S01800004D6F746F7220436F6E74726F6C6C65722E73726563B7
S21408000060300720D12C0800C92C0800C92C08002D
S214080010C92C0800C92C0800C92C080000000000DC
S214080020000000000000000000000000C92C0800C6
S214080030C92C080000000000C92C0800ED1E0800A6
S214080040C92C0800C92C0800C92C0800C92C0800AF
S214080050C92C0800C92C0800C92C0800C92C08009F
S214080060C92C0800C92C080000000000C92C08008C
S214080070C92C0800C92C0800C92C0800000000007C
S21408008000000000C92C0800C92C0800C92C08006C
S214080090C92C0800C92C08001D0B0800C92C08002C
S2140800A0C92C080000000000C92C0800C92C08004C
S2140800B0C92C0800C92C0800C92C0800C92C08003F
S2140800C0C92C0800C92C0800C92C0800C92C08002F
S2140800D0C92C0800C92C0800C92C08007507080098
S2140800E0C92C0800C92C0800C92C0800C92C08000F
S2140800F0C92C080010B5054C237833B9044B13B146
S2140801000448AFF300800123237010BD500B07206E
S21408011000000000C48008000C4B43B10C4810B522
S2140801200C49AFF300800C48036823B910BD0A4891
S214080130036833B97047094B002BF7D0BDE8104069
S2140801401847064B002BF5D0184700BF00000000E4
S214080150C4800800540B0720C48008000000000074
S21408016080B582B000AF78607868044B98477868A6
S214080170034B984700BF0837BD4680BDD10308002B
S2140801801904080080B582B000AF78607868044B20
S21408019098477868034B984700BF0837BD4680BD28
S2140801A0E90308003104080080B485B000AFF860A1
S2140801B0B9607A60BB68002B07D0BB681A68FB6812
S2140801C09A60BB685A68FB68DA607B68002B07D0C1
S2140801D07B681A68FB689A617B685A68FB68DA610C
S2140801E000BF1437BD4680BC704780B483B000AFEC
S2140801F0786039603A6840F2011313407A681362EF
S21408020000BF0C37BD4680BC704780B483B000AFD3
S214080210786039603A6840F2022313407A681362BD
S21408022000BF0C37BD4680BC704780B487B000AFAF
S214080230F860B9607A60BB685A087B681A44BB687D
S214080240B2FBF3F37B617B69032B03D97B69B3F5B8
S214080250803F01D3012303E0FB687A691A62002312
S21408026018461C37BD4680BC7047000080B582B073
S21408027000AF786078680D4B98477B6800225A6014
S2140802807B6800225A627B6800229A627868084B6C
S21408029098477868074B98477868074B9847786870
S2140802A0064B984700BF0837BD4680BDC9040800FE
S2140802B00104080049040800610408007B040800DB
S2140802C080B584B000AFF860B9607A60F8683D4BD6
S2140802D098473D4B00221A60BB68002B0DD0BB68C0
S2140802E09B68032B09D8BB681B687A681946F868A8
S2140802F0364B98470346002B01D001235DE0BB68C8
S2140803005A68314B1B6813432F4A1360BB68DA6878
S2140803102D4B1B68134343F4802343F00E032A4AED
S2140803201360BB689B68032B3ED801A252F823F0E3
S214080330410308005B030800750308008F030800E4
S214080340214B1B6843F480731F4A13601E4B1B68BF
S21408035023F480331C4A136027E01B4B1B6823F4E6
S2140803608073194A1360184B1B6823F48033164AA7
S21408037013601AE0144B1B6843F48073124A136028
S214080380114B1B6843F480330F4A13600DE00E4B85
S2140803901B6823F480730C4A13600B4B1B6843F4EA
S2140803A08033094A136000E000BFFB685A68064BB2
S2140803B01B681A43FB685A60002318461037BD4668
S2140803C080BD00BF6D0208006C0B07202B020800DA
S2140803D080B483B000AF78607B6840221A6000BFA4
S2140803E00C37BD4680BC704780B483B000AF7860D9
S2140803F07B6880221A6000BF0C37BD4680BC7047F9
S21408040080B483B000AF78607B6888221A6000BF2B
S2140804100C37BD4680BC704780B483B000AF7860A8
S2140804207B6810221A6000BF0C37BD4680BC704738
S21408043080B483B000AF78607B6820221A6000BF63
S2140804400C37BD4680BC704780B483B000AF786078
S2140804507B6824221A6000BF0C37BD4680BC7047F4
S21408046080B483B000AF78607B684FF480721A60FF
S21408047000BF0C37BD4680BC704780B483B000AF61
S21408048078607B684FF400221A6000BF0C37BD46C0
S21408049080BC704780B483B000AF78607B684FF448
S2140804A080221A6000BF0C37BD4680BC704780B4F7
S2140804B083B000AF78607B684FF400221A6000BFF4
S2140804C00C37BD4680BC704780B483B000AF7860F8
S2140804D07B68044AC3F8E42000BF0C37BD4680BCDE
S2140804E0704700BF0041535580B483B000AF034641
S2140804F0FB71084997F907305B09FA7902F01F0281
S214080500012000FA02F241F8232000BF0C37BD464E
S21408051080BC704700E100E080B483B000AF78602C
S2140805207B68072B25D801A252F823F04D05080052
S21408053053050800590508005F050800630508000C
S214080540670508006B0508006F0508004FF4FA43B6
S21408055010E04FF400430DE04FF400430AE0084B68
S21408056008E0084B06E0084B04E0074B02E0064BA1
S21408057000E0002318460C37BD4680BC704700BF15
S21408058000093D0000127A00001BB70080B500AFD6
S2140805900620044B984702461346DB009B1A5B006E
S2140805A0184680BD1905080080B500AF024B98476D
S2140805B003465B08184680BD8D05080080B500AF69
S2140805C0024B9847024B984700BF80BDE9060800D3
S2140805D0D505080090B585B000AF01211048114B2D
S2140805E0984700210E480F4B984712200E4B984705
S2140805F00E480F4B98470F4B3C460FCB84E80F002E
S2140806000D4B984702463B46194608480B4B9847F9
S21408061006480B4B984700BF1437BD4690BD00BF31
S21408062000400C40B72408007528080000C00940A0
S21408063085010800747C0800A9050800C1020800A6
S2140806406101080080B588B000AF786039601C4842
S2140806501C4B984701211C481C4B98477B68FB603D
S2140806601B4B3B613B687B611A4BBB610023FB61FC
S21408067007F10C031A4601211348174B9847012126
S2140806801148164B984700210F48104B9847144BB3
S214080690FB607B683B613B687B61124BBB61002358
S2140806A0FB6107F10C031A46002107480A4B9847D6
S2140806B000210548094B984700BF2037BD4680BD36
S2140806C000C009409504080000400C40B724080004
S2140806D01CC0094000003120D125080099240800D4
S2140806E018C009400000510280B582B000AF27202C
S2140806F0184B98471848194B984710211648184B16
S21408070098471548174B984700237B607B6843F447
S214080710813343F00E037B607A6800210E48124B43
S214080720984700237B607B6843F4903343F0D003FC
S2140807307B607A68012108480B4B984727200B4BAB
S2140807409847012104480A4B984700BF0837BD461A
S21408075080BD00BF7528080000400C40F123080043
S2140807600D24080033240800A7250800E90408001B
S2140807706924080080B500AF0A480B4B9847024624
S2140807800A4B1A60094B1B6803F00103002B07D0BD
S2140807900748084B9847084B1B889BB2074A1380A4
S2140807A000BF80BD00400C4083240800700B072063
S2140807B000C00940AF040800E40F0720EC0F07202C
S2140807C080B483B000AF0346FB71084997F9073039
S2140807D05B09FA7902F01F02012000FA02F241F8DA
S2140807E0232000BF0C37BD4680BC704700E100E000
S2140807F080B483B000AF0346FB71094997F9073008
S2140808005B09FA7902F01F02012000FA02F260334F
S21408081041F8232000BF0C37BD4680BC704700BF98
S21408082000E100E080B483B000AF78607B680822FF
S2140808301A607B6820221A607B6804221A6000BF50
S2140808400C37BD4680BC704780B584B000AF786072
S21408085039600023FB607B684FF0FF329A627B6842
S2140808601B6A7868124B98477868124B98473B681B
S21408087059683B681B681A4678680F4B98470346C2
S214080880012B01D10123FB603B685B7A012B02D167
S2140808907B6840221A604FF450717868074B984777
S2140808A0074B00221A70FB6818461037BD4680BDF5
S2140808B0210D080025080800C5080800BD0C08001A
S2140808C07C0F072080B489B000AFF860B9607A6002
S2140808D00023FB61BB68344A934201D901235DE0DB
S2140808E0BB68324A934237D97B68314AA2FB032356
S2140808F09B0B043B7B61BA682E4B13449B007A68BB
S214080900B2FBF3F3043B3B6105E0FB690133FB6193
S2140809107B695B087B617B69FF2B09D9FB69062B22
S214080920F3D905E0FB690133FB613B695B083B6172
S2140809303B69FF2B02D9FB69062BF3D97B69DAB230
S2140809403B691B029BB21A43FB691B0403F4E023B2
S2140809501A43FB681A6120E0BB685B007A68B2FB42
S214080960F3F3043BBB6105E0FB690133FB61BB693C
S2140809705B08BB61BB69FF2B02D9FB69062BF3D961
S214080980BB69DAB2BB691B029BB21A43FB691B043C
S21408099003F4E0231A43FB681A6100231846243739
S2140809A0BD4680BC704700BF801A060000DC050004
S2140809B0F11976050012FD3F80B485B000AF786067
S2140809C039603B68002B01D100231DE07B681B784B
S2140809D0FB603B68012B09DDFB681B02FB607B683C
S2140809E001331B781A46FB681343FB603B68022BEF
S2140809F009DDFB681B02FB607B6802331B781A461E
S214080A00FB681343FB60FB6818461437BD4680BC7A
S214080A107047000080B400AF024B1B781846BD46EE
S214080A2080BC70477C0F072080B400AF024B184686
S214080A30BD4680BC704700BF740B072080B584B0E5
S214080A4000AF786039603B68D3F8FC31002B01D1E1
S214080A50012340E0224B01221A703B680833BB6032
S214080A603B68D3F8FC31013BFB6007F10803002222
S214080A7019461C481C4B98477B6800225A603B68FE
S214080A8093F800321B0403F4FE023B685B681B0203
S214080A9003F440731A437B685A607B680022DA6066
S214080AA03A683B685B6819461046104B98470246FA
S214080AB07B68DA604FF480710A480D4B98474FF40C
S214080AC0005178680B4B984716200B4B9847162012
S214080AD00A4B9847002318461037BD4680BD00BF0E
S214080AE07C0F072000C10840A9010800B9090800C2
S214080AF0EB010800BD0C0800F1070800C107080054
S214080B0080B483B000AF7860034A7B68136000BF88
S214080B100C37BD4680BC7047800F072090B583B061
S214080B2000AF5A485A4B984704465848594B984776
S214080B30034623407B607B6803F40053002B14D0E5
S214080B404FF400715448554B98474FF400514F489E
S214080B50534B984704214D48524B98474B484C4BAB
S214080B60984702467B6813437B607B6803F0040360
S214080B70002B1AD004214548494B9847434B02227C
S214080B801A60424A484BD3F8FC31013B46490B44AD
S214080B901B7A536301213D48424B98473B483C4BE0
S214080BA0984702467B6813437B607B6803F0010323
S214080BB0002B0DD001213548394B98473B4B1B6815
S214080BC0002B02D0394B1B689847394B00221A7005
S214080BD07B6803F48053002B16D002212E482F4B37
S214080BE098474FF4805129482D4B984702212748AB
S214080BF02C4B9847254B02221A602448244B9847CA
S214080C0002467B6813437B607B6803F00203002B75
S214080C1018D002211D48224B9847264BD3F8FC31A2
S214080C20013B1A4A126BD1B2224A13440A461A7278
S214080C30214B1B68002B02D01F4B1B6898471C4B88
S214080C4000221A707B6803F45073002B19D040F208
S214080C5002211148114B98477B6803F48073002BD8
S214080C6002D10A4B02221A604FF4005107480C4B77
S214080C7098474FF480510548094B98470C4B00227B
S214080C801A7000BF0C37BD4690BD00BF00C00840B4
S214080C90F50C08000B0D080000C108400B02080000
S214080CA0D70C0800BD0C0800740B0720800F07201F
S214080CB07C0F0720780D0720840F072080B483B0A8
S214080CC000AF786039607B683A685A6200BF0C37B4
S214080CD0BD4680BC704780B483B000AF786039608A
S214080CE07B683A689A627B681B6A00BF0C37BD4609
S214080CF080BC704780B483B000AF78607B681B6A9E
S214080D0018460C37BD4680BC704780B483B000AF29
S214080D1078607B68DB6A18460C37BD4680BC70472F
S214080D2080B483B000AF78607B6880221A607B68E6
S214080D301B6B00BF0C37BD4680BC704780B483B0C1
S214080D4000AF78607B68072B25D801A252F823F0FD
S214080D50710D0800770D08007D0D0800830D08004A
S214080D60870D08008B0D08008F0D0800930D0800EE
S214080D704FF4FA4310E04FF400430DE04FF40043FD
S214080D800AE0084B08E0084B06E0084B04E0074B6F
S214080D9002E0064B00E0002318460C37BD4680BC30
S214080DA0704700BF00093D0000127A00001BB7001C
S214080DB080B500AF0620044B984702461346DB0072
S214080DC09B1A5B00184680BD3D0D080080B500AF35
S214080DD0024B984703465B08184680BDB10D0800CD
S214080DE080B582B000AF78607868034B984700BF3C
S214080DF00837BD4680BD00BF7528080080B582B09C
S214080E0000AF78603960104B984702463B681A6016
S214080E103B6800225A727B680C4A934203D116201C
S214080E200B4B984706E07B680A4A934202D1172084
S214080E30074B984739687868074B9847034618461B
S214080E400837BD4680BD00BFCD0D080000C008406D
S214080E50E10D0800000009404908080080B582B086
S214080E6000AF294B984778607B68272283F80022D2
S214080E707B6800221A707B6800225A602348244B3D
S214080E8098470C2200212348234B9847214B234A96
S214080E905A6020492248234B9847234B00221A7051
S214080EA003210020214B98470620214B9847032111
S214080EB000201E4B984706201D4B9847032100200C
S214080EC01A4B984706201A4B984702210020174BC2
S214080ED0984728210020174B984708210020154BD3
S214080EE0984701210020134B98470320104B98473A
S214080EF0062100200F4B98470C2100200D4B9847E1
S214080F0000BF0837BD4680BD290A08005D160800E0
S214080F10010B0800940F072011350800A086010071
S214080F2000C00840FD0D0800880F0720351408008B
S214080F301D1F08003115080080B582B000AF0346B3
S214080F40FB71074AFB79137001210020054B98476F
S214080F500320054B984700BF0837BD4680BD00BF35
S214080F60880F0720311508001D1F080080B500AF40
S214080F7001210020034B98470320034B984700BFE6
S214080F8080BD00BF311508001D1F080080B586B05B
S214080F9000AF03463A60FB710B46BB7107F10C03C2
S214080FA03A6808491846084B984707F10C02B97979
S214080FB097F907301846054B984700BF1837BD46BF
S214080FC080BD00BF847C0800AD350800D10F08003E
S214080FD090B587B000AF03463A60FB710B46BB710D
S214080FE0764B9847386119E0754B98470246754B1B
S214080FF01B68D31A642B11D9734B00221A70734BD3
S2140810001B680133714A136040F202217048714B25
S214081010984771497148724B984709E0714B984751
S21408102003461A46684B1B781343DBB2002BDBD10A
S21408103097F90730013B032B00F2BB8001A252F858
S21408104023F000BF551008005B1008006110080068
S214081050671008008023FB7508E0C023FB7505E0D1
S2140810609423FB7502E0D423FB7500BFFA7DBB7999
S2140810701344FB755C4B1B78FB73FB7D23F00F0357
S214081080DAB2FB7B1343DBB243F00403DAB23B6904
S2140810901A7297F9173023F00F035AB297F90F30E0
S2140810A013435BB2DAB23B695A72FB7D1B01DAB2B4
S2140810B0FB7B1343DBB243F00403DAB23B699A7254
S2140810C0FB7D1B015AB297F90F3013435BB2DAB2B5
S2140810D03B69DA72444B1B7843F00103FB73002329
S2140810E0BB754BE0BB7D3A6813441B78BB73BB7D6E
S2140810F001339B00BA7B22F00F02D1B2FA7B0A4377
S214081100D2B242F00402D1B23A6913440A461A72BD
S214081110BB7D01339B00013397F90E2022F00F02A6
S21408112051B297F90F200A4352B2D1B23A69134422
S2140811300A461A72BB7D01339B000233BA7B120142
S214081140D1B2FA7B0A43D2B242F00402D1B23A696B
S21408115013440A461A72BB7D01339B000333BA7BDD
S214081160120151B297F90F200A4352B2D1B23A6926
S21408117013440A461A72BB7D0133BB75BC7D3868BA
S2140811801A4B984703469C42ACD3BB7D01339B0061
S2140811901A463B69C3F8FC210B4B01221A703969C1
S2140811A00E48134B9847064B98470246054B1A605D
S2140811B000E000BF1C37BD4690BD00BF290A0800E6
S2140811C0091F08008C0F0720890F0720900F07209B
S2140811D000C108400B020800940F072000C0084012
S2140811E0FD0D0800150A0800880F0720F9350800C5
S2140811F03D0A080090B587B000AF78607F4B9847E7
S214081200F86000237B8219E07D4B984702467D4BA9
S2140812101B68D31A642B11D97B4B00221A707B4BA0
S2140812201B680133794A136040F202217848794BEB
S2140812309847794979487A4B984709E0794B98470F
S21408124003461A46704B1B781343DBB2002BDBD1E0
S21408125000237B75BAE07B7D022B06D0032B07D0D4
S214081260012B08D1C023FB7508E09423FB7505E025
S214081270D423FB7502E08023FB7500BF6A4B1B78FE
S214081280FB727B8A5A1C7A821946FB7D23F00F0371
S214081290DAB2FB7A1343DBB243F00403DAB2FB6834
S2140812A00B441A727B8A5A1C7A82194697F91730A9
S2140812B023F00F035AB297F90B3013435BB2DAB236
S2140812C0FB680B441A727B8A5A1C7A821946FB7D85
S2140812D01B01DAB2FB7A1343DBB243F00403DAB23B
S2140812E0FB680B441A727B8A5A1C7A821946FB7D65
S2140812F01B015AB297F90B3013435BB2DAB2FB689C
S2140813000B441A72484B1B7843F00103FB72002308
S214081310BB754CE07B7D9B007A6813441A68BB7DDE
S21408132013441B78BB727B8A5A1C7A821946BB7A8E
S21408133023F00F03DAB2FB7A1343DBB243F004035D
S214081340DAB2FB680B441A727B8A5A1C7A821946F0
S21408135097F90A3023F00F035AB297F90B30134364
S2140813605BB2DAB2FB680B441A727B8A5A1C7A8222
S2140813701946BB7A1B01DAB2FB7A1343DBB243F099
S2140813800403DAB2FB680B441A727B8A5A1C7A8208
S2140813901946BB7A1B015AB297F90B3013435BB256
S2140813A0DAB2FB680B441A72BB7D0133BB75BC7D91
S2140813B07B7D9B007A6813441B6818461B4B98472E
S2140813C003469C42A6D37B7D01337B757B7D032B2E
S2140813D07FF641AF7A8AFB68C3F8FC210A4B0122E4
S2140813E01A70F9680D48124B9847054B98470246FD
S2140813F0044B1A6000BF1C37BD4690BD290A08007A
S214081400091F08008C0F0720890F0720900F072058
S21408141000C108400B020800940F072000C00840CF
S214081420FD0D0800150A0800880F0720F935080082
S2140814303D0A080080B584B000AF03460A46FB7133
S2140814401346BB712D4B9847F86019E02C4B98470C
S21408145002462C4B1B68D31A642B11D92A4B002240
S2140814601A702A4B1B680133284A136040F202217F
S2140814702748284B984728492848294B984709E081
S214081480284B984703461A461F4B1B781343DBB274
S214081490002BDBD197F9073003F00F035AB2224B23
S2140814A01B785BB213435BB2FB71BB791B01DAB2E4
S2140814B0FB791343DBB243F00403DAB2FB681A7213
S2140814C0BB791B015AB297F9073013435BB2DAB2FD
S2140814D0FB685A72FB680222C3F8FC210A4B0122F9
S2140814E01A70F9680D48114B9847054B98470246FD
S2140814F0044B1A6000BF1037BD4680BD290A080095
S214081500091F08008C0F0720890F0720900F072057
S21408151000C108400B020800940F072000C00840CE
S214081520FD0D0800150A0800880F07203D0A080068
S21408153080B584B000AF03460A46FB711346BB71FC
S214081540394B9847F86019E0384B98470246384BAD
S2140815501B68D31A642B11D9364B00221A70364BE7
S2140815601B680133344A136040F202213348344B77
S214081570984734493448354B984709E0344B9847E0
S21408158003461A462B4B1B781343DBB2002BDBD1E2
S21408159097F9073003F00F035AB22E4B1B785BB24D
S2140815A013435BB2FB71BB7923F00F03DAB2FB7906
S2140815B01343DBB243F00403DAB2FB681A7297F9F6
S2140815C0063023F00F035AB297F9073013435BB27D
S2140815D0DAB2FB685A72BB791B01DAB2FB7913439D
S2140815E0DBB243F00403DAB2FB689A72BB791B01DC
S2140815F05AB297F9073013435BB2DAB2FB68DA726D
S214081600FB680422C3F8FC210A4B01221A70F96809
S2140816100D48114B9847054B98470246044B1A60ED
S21408162000BF1037BD4680BD290A0800091F0800FC
S2140816308C0F0720890F0720900F072000C108404D
S2140816400B020800940F072000C00840FD0D080094
S214081650150A0800880F07203D0A080080B400AF66
S214081660034B00221A7000BFBD4680BC704700BFFF
S214081670890F072080B489B000AF78607B68FB616B
S214081680FB69BB61BB697B617B695B093B613B6945
S21408169003F5001303F207735B02DA6BFB69FB6062
S2140816A0FB6803F01F03012101FA03F31340002B24
S2140816B014BF01230023DBB218462437BD4680BC7E
S2140816C07047000080B582B000AF0346FB71FB7917
S2140816D0012B02D00D2B26D04EE0324B1A78324B17
S2140816E01B789A4245D92F4B1B78013BDAB22D4B13
S2140816F01A702E4B1B78012B0CD12D4B1B78002B08
S21408170037D12C4B1B78013BDAB22A4B1A702A4B7E
S21408171098472EE0254B1B78013BDAB2234B1A700C
S214081720264B984725E01F4B1A78254B1B789A427C
S21408173021D21C4B1B780133DAB21A4B1A701B4B9A
S2140817401B78042B0CD11A4B1B78002B13D1194B82
S2140817501B780133DAB2174B1A70174B98470AE012
S214081760124B1B780133DAB2104B1A70134B98479A
S21408177001E000BF00E000BF0D4B1B78002B02D035
S214081780012B05D009E0FB7918460E4B984704E074
S214081790FB7918460C4B984700BF00BF0837BD4674
S2140817A080BD00BF90010720920107208E01072008
S2140817B0A00F0720A10F0720191908007D1A080096
S2140817C093010720CD1708000519080080B582B0D8
S2140817D000AF0346FB71FB79072B04D00A2B66D0B3
S2140817E0042B52D078E0434B1B78012B1CD0022BDD
S2140817F032D0002B00D06FE03F4B1B78023B062B05
S21408180010D801A252F823F0251808002518080059
S21408181025180800251808002518080025180800A7
S2140818202518080000BF2FE0334B1B78023B062B19
S21408183010D801A252F823F05518080055180800C9
S21408184055180800551808005518080055180800B7
S2140818505518080000BF17E0274B1B78023B062BDD
S21408186010D801A252F823F0851808008518080039
S21408187085180800851808008518080085180800C7
S2140818808518080000BF00BF26E01B4B1B78012BFD
S2140818901FD1184B1B78002B1BD0164B1B78013B0F
S2140818A0DAB2144B1A70154B01221A7011E0124B5B
S2140818B01B78012B0FD10F4B1B78012B0BD80D4B28
S2140818C01B780133DAB20B4B1A700C4B01221A70D4
S2140818D001E000BF00E000BF084B1B78002B04D0D7
S2140818E0064B00221A70064B984700BF0837BD46BD
S2140818F080BD00BF94010720900107208C010720B7
S2140819001919080080B483B000AF0346FB7100BF06
S2140819100C37BD4680BC704780B59CB000AF494ABE
S21408192007F11003114660221846474B9847474B65
S2140819309847474B1B781946464B1B781A46CB00E8
S21408194013449B0007F17002134453F8603C3B6055
S2140819503F4B1B781A463F4B1B780133D200134483
S2140819609B0007F17002134453F8603C7B60384BC9
S2140819701B781A46374B1B780233D20013449B0059
S21408198007F17002134453F8603CBB60304B1B7879
S2140819901A46304B1B780333D20013449B0007F1DA
S2140819A07002134453F8603CFB603B4618462A4BCB
S2140819B09847274B1B78012B37D0022B37D0002BA4
S2140819C036D1264B93F900301A4625492548264B2A
S2140819D09847204B1B78C3F10203DBB25BB2214A5F
S2140819E00B211846214B98470F2221491D481E4BAC
S2140819F09847184B1B78C3F10303DBB25BB2194A4E
S214081A0008211846194B9847012215491548164BC0
S214081A109847104B1B78C3F10403DBB25BB2114A3C
S214081A2007211846114B984702E000BF00E000BFA8
S214081A30104B98470120104B984700BF7037BD469B
S214081A4080BD00BF8C7D0800253408006D0F080097
S214081A5094010720A10F0720F51108008D01072023
S214081A608C7C080010100720AD350800D10F080040
S214081A70907C08007D1A0800911F080080B500AF0A
S214081A803A4B1B78002B33D1394B1B78012B2FD1BF
S214081A90384B1B78012B0FD0022B1DD0002B00D003
S214081AA025E0354A0C210120344B9847344A00215A
S214081AB00220324B98471AE0324A032101202F4B66
S214081AC098472D4A0B2101202C4B98472C4A002179
S214081AD002202A4B98470AE02A4A03210120274B6E
S214081AE09847274A00210220244B984700BF33E036
S214081AF0254B1B78012B1FD11E4B1B78012B0AD0B8
S214081B00022B13D0002B00D016E01D4A0C21012012
S214081B101A4B984710E01A4A03210120174B98479A
S214081B20174A0B210120154B984705E0144A032154
S214081B300120124B984700BF144B1B785BB2104A23
S214081B40002118460D4B9847114B1B785BB20A4A82
S214081B5000211846094B9847054B1A780A4B1A7005
S214081B600B4B1A78094B1A7000BF80BDA00F0720D0
S214081B709001072094010720EC7D0800D10F08008B
S214081B80F07D0800F47D0800910107208F010720EA
S214081B908E01072080B582B000AF0023FB71884B0A
S214081BA098470246874B1B681E339A42C0F04A8104
S214081BB0834B98470246834B1A606020824B9847AF
S214081BC003461A46814B1A7061207F4B9847034696
S214081BD01A467F4B1A7062207B4B984703461A4674
S214081BE07C4B1A706320784B984703461A467A4B04
S214081BF01A706420744B984703461A46774B1A7037
S214081C006520714B984703461A46754B1A706F4BFA
S214081C101A78744B1B789A4206D06C4B1B78002BAC
S214081C2002D10123FB7118E0684B1A786D4B1B78BC
S214081C309A4206D0654B1B78012B02D10323FB7111
S214081C400BE0624B1A78674B1B789A4205D15F4BBC
S214081C501B78002B01D10223FB715D4B1A78624B6F
S214081C601B789A4206D05A4B1B78002B02D10423C5
S214081C70FB7118E0564B1A785B4B1B789A4206D0D5
S214081C80534B1B78012B02D10623FB710BE0504BFC
S214081C901A78554B1B789A4205D14D4B1B78002B6A
S214081CA001D10523FB714B4B1A78504B1B789A428F
S214081CB006D0484B1B78002B02D10723FB7118E08F
S214081CC0444B1A78494B1B789A4206D0414B1B78EE
S214081CD0012B02D10923FB710BE03E4B1A78434BCC
S214081CE01B789A4205D13B4B1B78002B01D1082361
S214081CF0FB71394B1A783E4B1B789A4206D0364B06
S214081D001B78002B02D10A23FB7118E0324B1A7895
S214081D10374B1B789A4206D02F4B1B78012B02D1E3
S214081D200C23FB710BE02C4B1A78314B1B789A422C
S214081D3005D1294B1B78002B01D10B23FB71274BB0
S214081D401A782C4B1B789A4206D0244B1B78002B0B
S214081D5002D10D23FB7118E0204B1A78254B1B780F
S214081D609A4206D01D4B1B78012B02D10F23FB711C
S214081D700BE01A4B1A781F4B1B789A4205D1174B63
S214081D801B78002B01D10E23FB71154B1A781A4BC2
S214081D901B789A4206D0124B1B78002B02D11023D0
S214081DA0FB7137E00E4B1A78134B1B789A4225D0F6
S214081DB00B4B1B78012B21D11223FB712AE000BFA5
S214081DC0091F0800F80F07207516080025100720B9
S214081DD00C100720241007202610072008100720BC
S214081DE004100720091007200710072005100720F1
S214081DF00A100720061007200B100720144B1A7825
S214081E00144B1B789A4205D1114B1B78002B01D135
S214081E101123FB71104B1A780E4B1A700F4B1A7859
S214081E200F4B1A700F4B1A780F4B1A700F4B1A7805
S214081E300F4B1A700F4B1A780F4B1A70044B1A7800
S214081E400E4B1A70FB7918460837BD4680BD00BF92
S214081E500410072009100720251007200C1007205B
S214081E600710072024100720051007202610072033
S214081E700A10072008100720061007200B10072056
S214081E8080B48BB000AF78600B46FB707B687B62D3
S214081E90FB7887F823307B6AFB61FB69BB61BB690B
S214081EA05B097B617B6903F5001303F207735B022A
S214081EB03B6197F82330002B09D07B6AFB60FB68F0
S214081EC003F01F0301229A403B691A6308E07B6A05
S214081ED0BB60BB6803F01F0301229A403B695A6344
S214081EE000BF2C37BD4680BC7047000080B400AFEA
S214081EF0044B1B680133034A136000BFBD4680BC11
S214081F00704700BFA40F072080B400AF024B1B68C1
S214081F101846BD4680BC7047A40F072080B485B01D
S214081F2000AF7860074B1B68FB6000BF054B1A685C
S214081F30FB68D21A7B689A42F8D300BF1437BD46AE
S214081F4080BC7047A40F072080B500AF0B4B98479E
S214081F5002460B4B1B68D31A052B0DD9074B98471F
S214081F600246074B1A60074B1B889BB2064A13802B
S214081F7002210548054B984700BF80BD091F080089
S214081F80F40F0720E80F0720E40F0720450608008F
S214081F9080B584B000AF0346FB710E4B1B78002B50
S214081FA013D10D4B984702460C4B1B68D31A632B6C
S214081FB00BD9094B98470246084B1A60084B5B78C2
S214081FC01A4609210120074B984700BF1037BD461F
S214081FD080BD00BFA10F0720091F0800FC0F0720BF
S214081FE0EC0F07208D0F080080B500AF204B1B783C
S214081FF0002B1DD01F4B984702461F4B1B686433A7
S2140820009A4233D31B4B984702461B4B1A60002153
S2140820106A201A4B984700216720184B9847184A99
S21408202013786FF300031370114B00221A701DE02B
S214082030104B98470246104B1B6803F561739A428B
S21408204014D30C4B984702460B4B1A6001216A20A2
S2140820500A4B984701216720084B9847084A137887
S21408206043F001031370024B01221A7000BF80BDB3
S214082070F00F0720091F080000100720811E08001F
S214082080E80F072080B582B000AF78607B68072B22
S21408209031D801A252F823F0F5200800B92008002C
S2140820A0C1200800C9200800D1200800D92008004F
S2140820B0E1200800EB2008000020114B98471AE0A2
S2140820C001200F4B984716E000200E4B984712E069
S2140820D010200C4B98470EE020200A4B98470AE041
S2140820E03E210020084B984705E03E210120064B7C
S2140820F0984700E000BF00BF0837BD4680BD00BF58
S214082100C12608002D2708009D27080080B582B044
S21408211000AF78607B68072B26D801A252F823F018
S21408212041210800452108004521080057210800DC
S2140821305721080057210800572108005721080092
S214082140012312E00B4B98470346002B14BF0123CC
S2140821500023DBB209E0084B98470346002B14BF60
S21408216001230023DBB200E0002318460837BD46EB
S21408217080BD00BFF92608001528080080B483B083
S21408218000AF78607B68072B25D801A252F823F0A9
S214082190B1210800B7210800BD210800C3210800A6
S2140821A0C7210800CB210800CF210800D32108004A
S2140821B04FF4FA4310E04FF400430DE04FF40043A9
S2140821C00AE0084B08E0084B06E0084B04E0074B1B
S2140821D002E0064B00E0002318460C37BD4680BCDC
S2140821E0704700BF00093D0000127A00001BB700C8
S2140821F080B582B000AF0346FB7100BFFB79184676
S214082200054B9847034683F00103DBB2002BF5D154
S21408221000BF0837BD4680BD0D21080080B586B0D2
S21408222000AFF8607A603B600B46FB727B68002B59
S21408223007D13B68002B04D1FB684FF470021A6084
S21408224019E0FB7A18460E4B984702467B68B2FBA5
S214082250F3F37B617B693A6802FB03F37B613B68B7
S214082260013B1A04074B13407A68D2B2134343F46F
S2140822707C52FB681A6000BF1837BD4680BD00BF99
S2140822807D2108000000FF0780B582B000AF7860A7
S21408229039603B68002B08D1094B9847094A7B6888
S2140822A01B6843F00053936205E0064A7B681B6888
S2140822B043F48033D36100BF0837BD4680BD00BFF6
S2140822C02D28080000060E4080B582B000AF786062
S2140822D07B68002B03D1054B9847034602E0044B66
S2140822E09847034618460837BD4680BD4528080067
S2140822F05D28080080B582B000AF0346FB71FB7905
S214082300033B042B08D8FB791846064B9847FB79FD
S2140823101846054B984700E000BF00BF0837BD4683
S21408232080BD00BF85200800F121080080B582B076
S21408233000AF786000BF7868044B98470346002BC8
S214082340F9D0002318460837BD4680BDC9220800C4
S21408235080B500AF0620044B984702461346DB00BC
S2140823609B1A5B00184680BD7D21080080B500AF2B
S214082370024B984703465B08184680BD5123080061
S21408238090B583B000AF1148114B98470620114B03
S2140823909847381D0E23012206210F4CA0473B1DE7
S2140823A0002118460D4B984700200D4B98471020E3
S2140823B00C4B98470C4B98470C4B984703461846C7
S2140823C0034B984700BF0C37BD4690BD00BD0105BE
S2140823D0D1000720F52208001D22080089220800DF
S2140823E02D23080041260800792D08006D230800D3
S2140823F080B582B000AF78607868034B984700BF16
S2140824000837BD4680BD00BF4B24080080B483B0A3
S21408241000AF78600B46FB707B681B6823F01002E1
S214082420FB781A437B681A6000BF0C37BD4680BC31
S214082430704780B483B000AF78607B6801225A602A
S21408244000BF0C37BD4680BC704780B483B000AF71
S21408245078607B685B6823F001027B685A6000BF7F
S2140824600C37BD4680BC704780B483B000AF786038
S21408247039607B683A689A6100BF0C37BD4680BCF5
S214082480704780B483B000AF78607B685B6A184694
S2140824900C37BD4680BC704780B483B000AF786008
S2140824A0396001223B689A407B689A6200BF0C3705
S2140824B0BD4680BC704780B483B000AF7860396092
S2140824C001223B689A407B68DA6200BF0C37BD463B
S2140824D080BC704780B485B000AFF860B9607A6099
S2140824E0F968BA6813469B001344DB000B443C3378
S2140824F07A681A6000BF1437BD4680BC704780B43F
S21408250085B000AFF860B9607A60F968BA681346B3
S2140825109B001344DB000B4440337A681A6000BF04
S2140825201437BD4680BC704780B485B000AFF860ED
S214082530B9607A60F968BA6813469B001344DB00F2
S2140825400B4444337A681A6000BF1437BD4680BC13
S214082550704780B485B000AFF860B9607A60F968F3
S214082560BA6813469B001344DB000B4448337A686A
S2140825701A6000BF1437BD4680BC704780B485B06B
S21408258000AFF860B9607A60F968BA6813469B00CD
S2140825901344DB000B444C337A681A6000BF1437C8
S2140825A0BD4680BC704780B485B000AFF860B9609F
S2140825B07A60F968BA6813469B001344DB000B443C
S2140825C050337A681A6000BF1437BD4680BC70471F
S2140825D080B584B000AFF860B9607A60FB685B6A63
S2140825E07B681B681A46B968F868104B98477B687A
S2140825F05B681A46B968F8680D4B98470022B968B0
S214082600F8680C4B98477B689B681A46B968F86860
S214082610094B98477B68DB681A46B968F868074B21
S214082620984700BF1037BD4680BD00BFD5240800B8
S214082630FF24080029250800532508007D250800E2
S21408264080B485B000AF78601C491C4B1B6B23F028
S21408265070027B6813430B634FF40063FB6007E06C
S214082660FB68002B01D1012323E0FB68013BFB60DC
S214082670124B9B6E03F00803002BF1D00F4A0F4B4A
S2140826801B6B23F0030343F0020313634FF400634A
S214082690FB6007E0FB68002B01D1012309E0FB681B
S2140826A0013BFB60054B9B6E03F00803002BF1D043
S2140826B0002318461437BD4680BC704700060E40F7
S2140826C080B483B000AF78607B68012B07D1084AD6
S2140826D0074B9B6843F0254343F480139360044BF1
S2140826E0044A1A6000BF0C37BD4680BC704700BF5E
S2140826F0101A0E40080000A580B400AF094B5B69AD
S21408270003F08003002B07D0074B9B6E03F0800373
S214082710002B01D0012300E000231846BD4680BCEC
S214082720704700BF101A0E4000060E4080B483B0F3
S21408273000AF7860184A184B1B6A43F45C1343F0E2
S2140827400803136200BF144B9B6E03F40033002B80
S214082750F9D01149104B1B6A23F45C1323F070035D
S2140827607A68134343F45C130B6200BF0A4B9B6EF4
S21408277003F40033002BF9D0074A074B1B6A23F0F3
S2140827809B7323F4803343F45C13136200BF0C3747
S214082790BD4680BC704700BF00060E4080B483B0BC
S2140827A000AF786039607B68002B08D01649164B56
S2140827B01B6A164A1A40164B13430B621EE0124950
S2140827C0114B1B6A23F45C1323F003033A681202C6
S2140827D092B2134343F45C1343F001030B6200BF49
S2140827E0094B9B6E03F00103002BF9D0064A064BF3
S2140827F01B6A43F09B7343F48033136200BF0C37A5
S214082800BD4680BC704700BF00060E40FCFFC8FEF1
S2140828100200370180B400AF034B9B6E03F480338D
S2140828201846BD4680BC704700060E4080B400AF10
S214082830034B4FF000529A6200BFBD4680BC7047FB
S21408284000060E4080B400AF034B9B6E03F00203F5
S2140828501846BD4680BC704700060E4080B400AFE0
S214082860034B9B6E03F040031846BD4680BC70477A
S21408287000060E4080B483B000AF78607B682C2BCF
S21408288001D901232FE07B681F2B13D8184B9A69B0
S21408289001217B6801FA03F31A4001217B6801FADB
S2140828A003F39A421ED0124A01217B6801FA03F309
S2140828B0136117E07B68203B7B600D4BD3F808213B
S2140828C001217B6801FA03F31A4001217B6801FAAB
S2140828D003F39A4206D0064A01217B6801FA03F3FD
S2140828E0C2F80031002318460C37BD4680BC704736
S2140828F000060E4080B582B000AF78607868034B5B
S214082900984700BF0837BD4680BD00BF7528080039
S21408291080B500AF0B20064B98470C20044B984711
S2140829200D20034B98470E20014B984700BF80BDEB
S214082930F528080080B489B000AF78607B68FB6132
S214082940FB69BB61BB695A09FB697B617B6903F05C
S2140829501F03012101FA03F33A61FB603B69BB6080
S214082960BB6803F5001303F207735B021A46FB689D
S214082970536000BF2437BD4680BC704780B48DB016
S21408298000AF786039607B68FB623B68BB62FB6AB5
S2140829907B627B6A5A09FB6A3B623B6A03F01F0349
S2140829A0012101FA03F3FA61BB61BB6A7B61FB692B
S2140829B03B613B6903F5001303F207735B02FB6098
S2140829C07B6903F00803002B03D0FB68BA695A66D4
S2140829D002E0FB68BA691A667B6903F02003002BDD
S2140829E003D0FB68BA691A6502E0FB68BA695A65DB
S2140829F07B6903F0C003002B03D0FB68BA691A6230
S214082A0002E0FB68BA695A627B6903F08003002B10
S214082A1004D0FB68BA69C3F8842003E0FB68BA6987
S214082A20C3F880207B6903F00103002B06D0FB68FF
S214082A301A6FBB691A43FB681A6706E0FB681A6FC9
S214082A40BB69DB431A40FB681A6700BF3437BD46CC
S214082A5080BC704780B48DB000AF78600B46FB70C2
S214082A607B68FB62FB7887F82B30FB6A7B627B6AA5
S214082A703B623B6A5B09FB61FB6903F5001303F2E3
S214082A8007735B02BB6197F82B30012B09D1FB6AF1
S214082A907B617B6903F01F0301229A40BB691A61B8
S214082AA00CE097F82B30002B08D1FB6A3B613B699A
S214082AB003F01F0301229A40BB695A61FB6AFB6058
S214082AC0FB6803F01F0301229A40BB69C3F8A020E5
S214082AD000BF3437BD4680BC704780B48BB000AFAB
S214082AE078600B46FB707B687B62FB7887F8233040
S214082AF07B6AFB61FB69BB61BB695B097B617B69C0
S214082B0003F5001303F207735B023B6197F8233063
S214082B10002B09D07B6AFB60FB6803F01F030122C9
S214082B209A403B691A6308E07B6ABB60BB6803F09F
S214082B301F0301229A403B695A6300BF2C37BD46E3
S214082B4080BC704780B500AF594B4FF400425A60BE
S214082B50584B984701216A20574B984700216A200E
S214082B60564B984701216720534B9847002167200A
S214082B70524B9847012168204F4B98470021682000
S214082B804E4B9847012169204B4B984700216920F6
S214082B904A4B984701216620474B984700216620F4
S214082BA0464B984700216020434B98478821602071
S214082BB0434B9847002161203F4B98478821612066
S214082BC03F4B9847002162203B4B9847882162205C
S214082BD03B4B984700216320374B98478821632052
S214082BE0374B984700216420334B98478821642048
S214082BF0334B9847002165202F4B9847882165203E
S214082C002F4B9847002111202D4B984711202D4B0C
S214082C109847002112202A4B98471220294B98479C
S214082C2000210C20264B98470C20264B984700215D
S214082C300D20234B98470D20224B98470021102043
S214082C401F4B984710201F4B984700210E201C4BFF
S214082C5098470E201B4B984700211420184B98477E
S214082C601420184B984700211320154B984713201B
S214082C70144B984700211520114B98471520114BE7
S214082C809847002116200E4B984716200D4B98475C
S214082C90002117200A4B984717200A4B984700210F
S214082CA01820074B98471820064B984700BF80BD4A
S214082CB0501A0E4011290800552A0800DB2A080079
S214082CC07D2908003529080080B400AFFEE700001B
S214082CD080B582B000AF1E4B7B601E4B3B607A68A7
S214082CE03B689A420CD007E03B681A1D3A607A683F
S214082CF0111D796012681A603B68174A9342F3D32D
S214082D00164B3B6004E03B681A1D3A6000221A60C6
S214082D103B68134A9342F6D3124B7B60124A7B6891
S214082D2023F0604323F07F0393607B68B3F1005F72
S214082D3009D37B680D4A934205D80B4A0A4B9B6811
S214082D4043F0005393600A4B98470A4B9847FEE7B0
S214082D50C480080000000720500B0720500B0720EF
S214082D605C1007200000080000ED00E0FFFF0F20C1
S214082D70D53308004931080080B400AF574B1B6BA9
S214082D8003F00303032B00F28A8001A252F823F013
S214082D90A12D0800C12D0800112E0800112E0800CC
S214082DA04F4B5B6903F08003002B04D04D4B4FF468
S214082DB000421A6073E04B4B4FF4FA421A606EE01A
S214082DC0464B1B6A03F08073002B03D0454B464ADC
S214082DD01A6064E0434B454A1A60404B1B6A03F08E
S214082DE07003102B04D0202B08D0002B0ED00EE03A
S214082DF03C4B1B685B003B4A136008E0394B1A687B
S214082E0013465B001344374A136000E000BF46E0F1
S214082E10324B1B6A03F08073002B03D0314B324AC7
S214082E201A601CE02F4B314A1A602C4B1B6A03F0C1
S214082E307003102B04D0202B08D0002B0ED00EE0E9
S214082E40284B1B685B00274A136008E0254B1A6866
S214082E5013465B001344234A136000E000BF1F4B71
S214082E601B6B03F00303022B15D11C4B9B6A1B0C30
S214082E70C3F30A0301331B4A126802FB03F3194A19
S214082E801360164B9B6ADBB2164A1268B2FBF3F362
S214082E90144A136002E0134B154A1A6000BF0F4B22
S214082EA01B6B03F07003702B08D10E4B1B68114A7E
S214082EB0A2FB03235B080B4A13600AE0074B1B6B55
S214082EC01B0903F00703074A126822FA03F3054AA8
S214082ED0136000BFBD4680BC704700BF00060E40AA
S214082EE0101A0E4098010720001BB70000093D0085
S214082EF0001C4E0EABAAAAAA80B485B000AF7860B4
S214082F00104BFB60104B1B68002B02D10E4B0F4A70
S214082F101A600D4B1B68BB60BA687B681A44FB686E
S214082F209A4202DD4FF0FF3306E0074B1A687B68CB
S214082F301344054A1360BB6818461437BD4680BC60
S214082F40704700BFFC7F0820A80F072060300720C6
S214082F5080B483B000AF03463960FB7197F9073039
S214082F60002B0BDA0D49FB7903F00F03043B3A6894
S214082F70D2B21201D2B20B441A7609E0084997F980
S214082F8007303A68D2B21201D2B20B4483F8002353
S214082F9000BF0C37BD4680BC704700BF00ED00E0A0
S214082FA000E100E080B582B000AF78607B68013B46
S214082FB0B3F1807F01D301230FE00A4A7B68013B07
S214082FC053600F214FF0FF30074B9847054B002200
S214082FD09A60044B07221A60002318460837BD4635
S214082FE080BD00BF10E000E0512F080080B483B019
S214082FF000AF78607B68072B25D801A252F823F02B
S21408300021300800273008002D300800333008002B
S214083010373008003B3008003F30080043300800CF
S2140830204FF4FA4310E04FF400430DE04FF400432A
S2140830300AE0084B08E0084B06E0084B04E0074B9C
S21408304002E0064B00E0002318460C37BD4680BC5D
S214083050704700BF00093D0000127A00001BB70049
S21408306080B500AF0620044B984702461346DB009F
S2140830709B1A5B00184680BDED2F080080B500AF90
S214083080024B984703465B08184680BD6130080027
S21408309080B48BB000AF78600B46FB707B687B62B1
S2140830A0FB7887F823307B6AFB61FB69BB61BB69E9
S2140830B05B097B617B6903F5001303F207735B0208
S2140830C03B6197F82330002B09D07B6AFB60FB68CE
S2140830D003F01F0301229A403B691A6308E07B6AE3
S2140830E0BB60BB6803F01F0301229A403B695A6322
S2140830F000BF2C37BD4680BC704780B489B000AF8F
S21408310078607B68FB61FB69BB61BB697B617B6937
S2140831105B093B613B6903F5001303F207735B0227
S214083120DA6BFB69FB60FB6803F01F03012101FAF9
S21408313003F31340002B14BF01230023DBB2184609
S2140831402437BD4680BC704780B582B000AF264B9A
S2140831509847264B9847264B98470246254BA3FB8D
S21408316002239B091846244B9847244B9847244B20
S2140831709847244B08221A70224B1B781846224B75
S2140831809847224B9847224B9847224B9847224B02
S21408319098470020214B9847214B1B7803F00103E2
S2140831A0DBB2002B04D0012168201E4B984703E0B1
S2140831B0002168201B4B98471B4B98470346FB711A
S2140831C0FB791846194B9847FB79082B05D1184AFE
S2140831D0137843F002031370D7E7154A13786FF392
S2140831E041031370D1E700BF81230800452B080070
S2140831F07D300800D34D6210A52F0800BD050800D5
S2140832005D0E0800AC0F0720390F0800353208009D
S2140832106D0F0800491F0800E91F0800911F0800E5
S214083220EC0F072091300800951B0800C51608000B
S214083230E80F072080B582B000AF72E0594B984778
S2140832400246594B1B6803F548739A421AD3554BE6
S21408325098470246544B1A60544B1B78002B03D0F1
S214083260524B00221A7002E0504B01221A704F4B44
S2140832701B78002B14BF01230023DBB219466620F7
S2140832804B4B9847474B984702464A4B1B6803F5F3
S214083290FA739A4215D3434B98470246454B1A6031
S2140832A0454B1B78022B06D8434B1B780133DAB202
S2140832B0414B1A7002E0404B00221A703F4B012225
S2140832C01A703E4B1B78002B2BD03C4B00221A70F2
S2140832D0394B1B78032B23D801A252F823F000BFE2
S2140832E0F1320800FD3208000933080015330800DB
S2140832F0334A02210220334B984712E0324A0E2105
S2140833000220304B98470CE02F4A0F2102202D4B05
S214083310984706E02C4A102102202A4B984700E0DE
S21408332000BF6220294B98470346002B86D100230E
S2140833307B6030E001216A201D4B984701216620FA
S2140833401B4B984701216720194B98470121682095
S214083350174B984701216920154B984764201C4B4A
S214083360984700216A20124B984700216620104B88
S2140833709847002167200E4B9847002168200C4B81
S2140833809847002169200A4B98476420104B9847B5
S2140833907B6801337B607B68022BCBDD00BF083778
S2140833A0BD4680BD091F08002C10072028100720DE
S2140833B09130080030100720AD0F07209C01072029
S2140833C0F87D0800D10F0800087E0800FB300800CA
S2140833D01D1F080070B50F4E0F4D761BB61018BF90
S2140833E0002405D0013455F8043B9847A642F9D185
S2140833F00A4E0B4D04F050FE761BB61018BF00247C
S21408340006D0013455F8043B9847A642F9D170BD5A
S21408341070BD00BFA4800800A4800800AC80080027
S214083420A4800800844641EA000313F0030349D148
S214083430403A23D30B6803604B6843608B6883600D
S214083440CB68C3600B6903614B6943618B69836111
S214083450CB69C3610B6A03624B6A43628B6A8362F9
S214083460CB6AC3620B6B03634B6B43638B6B8363E1
S214083470CB6BC36340304031403ADBD230320BD39B
S2140834800B6803604B6843608B688360CB68C360D7
S21408349010301031103AF3D20C3205D351F8043BF1
S2140834A040F8043B043AF9D2043208D0D2071CBFCD
S2140834B011F8013B00F8013B01D30B8803806046F6
S2140834C0704700BF082A13D38B07B1D010F0030348
S2140834D0AED0C3F10403D21ADB071CBF11F8013BB8
S2140834E000F8013BA4D331F8023B20F8023B9FE7E3
S2140834F0043AD9D3013A11F8013B00F8013BF9D256
S2140835000B7803704B7843708B78837060467047EF
S21408351070B4860746D0541E002A41D0CAB2034665
S21408352002E014F1FF343BD303F8012B9D07F8D1D2
S214083530032C2ED9CDB245EA05250F2C45EA0545BC
S21408354019D9264603F11002103E0F2E42F8105CD9
S21408355042F80C5C42F8085C42F8045C02F110027F
S214083560F2D8A4F1100222F00F0204F00F04103271
S214083570032C13440DD91E462246043A032A46F85D
S214083580045BFAD8221F22F003020432134404F024
S21408359003042CB1C9B21C4403F8011B9C42FBD19E
S2140835A070BC704714460346C2E700BF0EB4014617
S2140835B0F0B56FF000454FF402774FF6FF769CB0F3
S2140835C021AC54F8042B0B4B02910691186802A9FB
S2140835D023460194ADF8147004950795ADF8166067
S2140835E000F038F80022029B1A701CB0BDE8F040C4
S2140835F003B07047A001072020F0030110F0030075
S214083600C0F1000051F8043B00F1040C4FEACC0C62
S2140836106FF000021CBF22FA0CF213434FF0010CA5
S2140836204CEA0C2C4CEA0C4CA3EB0C0222EA0302E4
S21408363012EACC1204BF51F8043B0430F4D0C2F1AD
S214083640000102EA0102B2FA82F2C2F11F0200EB9E
S214083650D20070472DE9F04FC3B00C460B91924646
S2140836600F930C9002F058FA036818461A93FFF75F
S214083670C3FFA3891990190603D52369002B01F007
S214083680358000230DF1C809C84615931393149383
S21408369018931B9309931693179327932693CDF89D
S2140836A094909AF800305446EBB1252B02D11AE0D4
S2140836B0252B03D014F8013F002BF9D1A4EB0A05FB
S2140836C08DB1269B279A01332A44072BC8F800A0F9
S2140836D0C8F804502792269300F38A8008F1080851
S2140836E0099B2B4409932378002B00F0898000233C
S2140836F04FF0FF301A468DF8773019460D939B46E3
S214083700637804F1010A0A900AF1010AA3F120007D
S214083710582800F2B783DFE810F04C03B503B5036A
S2140837205403B503B503B503B503B503B50359008C
S2140837305903B50366001402B5032F02A503A503B3
S214083740A503A503A503A503A503A503A503B5031C
S214083750B503B503B503B503B503B503B503B5039C
S214083760B5038B02D302B503D302B503B503B5037D
S214083770B5031B03B503B5032003B503B503B503AB
S214083780B503B5033402B503B5034B02B503B50359
S214083790B503B503B503B503B503B503B503B5035C
S2140837A076029E03D302D302D30263039E03B503B5
S2140837B0B5036803B5037503DD018C035E03B50323
S2140837C0F201B5038700B503B50332030F9C2368DF
S2140837D018460D932346002803F104030F9304DAD2
S2140837E00D9B5B420D934BF0040B9AF800308BE769
S2140837F025AA0B990C9802F0A3FF40B9C8466FE7B4
S214083800279B23B10C9825AA0B9902F099FF0B9BCE
S2140838109B8913F0400F099B18BF4FF0FF3309939D
S214083820099843B0BDE8F08F1BF0200F119340F0C5
S214083830AF810F9A1BF0100F134640F09A851BF0C5
S214083840400F00F0968500250123148804320F9255
S214083850002217468DF877200A994A1C00F0108235
S2140838602BF08002079254EA050240F00F820029E6
S21408387040F03184002B40F039851BF001030E938D
S21408388000F06286302342AE06F8413D0A9B0E9A47
S2140838909342B8BF134608930023129317B1089BA8
S2140838A001330893079B13F00203109302D0089B7A
S2140838B002330893079B13F0840540F010830D9B92
S2140838C0089AA3EB020BBBF1000F40F30883BBF189
S2140838D0100F40F3B287279C43462146A846102778
S2140838E0269A0C9C0B9D06E0ABF1100BBBF1100F53
S2140838F003F1080318DD0132AB481031072A279177
S214083900269283E88100EFDD25AA2946204602F0A4
S21408391017FF00287FF47BAFABF1100BBBF1100F3D
S2140839204B462799269AE6DC45460C4698460132C9
S2140839309D4B5C44072A2794269288E8080800F3DB
S214083940C3829DF8777008F1080887B10121269B85
S2140839500C440B440DF17702072B27942693C8F8DE
S2140839600410C8F8002000F3CD8308F10808109B5F
S2140839707BB10221269B0C4401331EAA072B2794F1
S2140839802693C8F80410C8F8002000F3118408F13C
S2140839900808802D00F004830A9B0E9A9F1A002FB1
S2140839A037DD102F40F37986804D42462146B046D3
S2140839B04FF0100B2E46269B0C9C0B9D04E0103FE8
S2140839C0102F02F1080215DD01331031072B27915D
S2140839D0269382E84008F2DD25AA2946204602F00A
S2140839E0AFFE00287FF413AF103F102F4A462799E2
S2140839F0269BE9DC35460C464646904601333C4451
S214083A00072B2794269388E8A00000F3708308F114
S214083A100808079BDF0500F16482269B0E99013390
S214083A200C44072B2794C8F80060C8F8041026939F
S214083A3000F3B38308F10808079B5B073BD50D9B8B
S214083A40089A9D1A002D36DD102D40F32187102682
S214083A50269B0C9FDDF82CB004E0103D102D08F1D5
S214083A60080816DD0133504A1034072B279426938E
S214083A7088E84400F1DD25AA5946384602F060FE7B
S214083A8000287FF4C4AE103D102DC846279C269B00
S214083A90E8DC0133444A2C44072B2794269388E80D
S214083AA0240008DD25AA0B990C9802F049FE002888
S214083AB07FF4ADAE279C099B0D9A08998A42ACBF45
S214083AC09B185B180993002C40F0FB820023C8461D
S214083AD02693E6E511931BF0200340F045811BF082
S214083AE0100240F066841BF0400300F062840F99D1
S214083AF013460A4604320C8800250F92A8E60025CD
S214083B000F9A119316688DF87750141D002E00F042
S214083B10CD860A9A531C00F01B862946304602F0CA
S214083B20AFFA002800F00D87831B0A950E930F94B2
S214083B30CDF81CB023EAE373089312959DF87770C6
S214083B40ACE69AF800300AF101042A2B00F0C28786
S214083B50A3F130000928A24600F2188700231C4665
S214083B601AF8013B04EB840400EB4404A3F130008C
S214083B700928F5D90A94C9E54BF0800B9AF8003065
S214083B80C2E54BF0100B1BF0200F11933FF451AE1B
S214083B900F9C073424F0070303F10802D3E9004515
S214083BA00F92012354E600BF547E0800647E080086
S214083BB01193002A40F0AD87BE4B1BF0200F1893D8
S214083BC040F0E7800F9A1BF0100F134640F0D8839A
S214083BD01BF0400F00F0D4830025043314880F939D
S214083BE01BF0010F00F0E38054EA050300F0DF80C5
S214083BF030239DF844208DF878308DF879204BF0E6
S214083C00020B022324E601221193002311460F9883
S214083C10089202681F468DF877300A931293031DA0
S214083C20CDF81CB00E918DF8A0200F9328AE39E67B
S214083C301193002A40F084874BF0100B1BF0200FDE
S214083C4040F075840F9A1BF0100F134640F09D83C2
S214083C501BF0400F00F09983B2F900400433E517D3
S214083C600F9322462B46002A73F10003C0F298836E
S214083C700A999DF877704A1C4FF001037FF4F0AD5F
S214083C8054EA050200F02982CDF81CB0012B00F09A
S214083C900E83022B40F09C824E461898230943EA6E
S214083CA00573290904F00F020D461C46835C06F8C6
S214083CB0013D54EA0503F1D1A9EB06030E93E5E5A9
S214083CC01193002A40F038870F9C1BF0080F04F168
S214083CD0070400F0CF8424F0070303F108020F92CC
S214083CE01A685B6815921493149B159D23F000447C
S214083CF0284621464FF0FF326F4B03F0F5FD0028AB
S214083D0040F03484284621464FF0FF326A4B03F0D1
S214083D10CDFD002840F02A8415A80DC8149903F094
S214083D20BBFD002840F0D4859DF8777003231A461B
S214083D3008930023614E19460A93614B0E92119A16
S214083D402BF0800007901291472AD8BF1E46A5E59B
S214083D504BF0080B9AF80030D6E44BF0100B119392
S214083D601BF020033FF4BBAE0F9C073424F0070378
S214083D7003F10802D3E900450F92002368E5119382
S214083D80002A40F0C2864F4B1BF0200F18933FF4D2
S214083D9019AF0F9C1BF0010F04F1070424F007036A
S214083DA003F108020F92D3E900457FF41DAF022302
S214083DB04EE59AF8003000297FF4A6AC01222021AF
S214083DC0A2E44BF0010B9AF800309DE49AF8003014
S214083DD001222B2198E44BF0200B9AF8003093E44C
S214083DE04BF0400B9AF800308EE49AF800306C2BB3
S214083DF003BF9AF801304BF0200B0AF1010A4BF08A
S214083E00100B81E4002A40F07C861BF0200F40F05F
S214083E1052841BF0100F40F038841BF0400F00F05F
S214083E2034840F9A136804320F92BDF824201A803F
S214083E3037E4782330220F988DF879301193031DD4
S214083E400F93204B046818934BF0020B8DF87820DC
S214083E5000250223FCE41193002A3FF4EFAE8DF808
S214083E607710EBE600200446A3F130001AF8013B71
S214083E7004EB840400EB4404A3F130000928F5D9C8
S214083E800D9443E41193002A40F04A86119A002ABA
S214083E903FF4B6AC002301211F4608918DF8A020F8
S214083EA0CDF81CB08DF877300A9312930E9128AE91
S214083EB0F8E400BF207E0800FFFFEF7F147E0800AE
S214083EC0107E0800347E080025AA0B990C9802F08C
S214083ED037FC00287FF49BACC8469DF87770279C73
S214083EE033E5119B652B40F39A8015A80DC81499E5
S214083EF003F0C8FC002800F093810121269BB54AF0
S214083F000B440C44072B27942693C8F80410C8F8CB
S214083F10002000F3C68308F108081F9B139A279C05
S214083F20934203DB079BDD077FF586AD269B199931
S214083F3001331A9A0C44072BC8F80020C8F8041056
S214083F402794269300F3C48308F10808139B5E1E83
S214083F50002E7FF771AD102E40F375852246102788
S214083F60269B9D4DDDF830B00B9C05E008F108084F
S214083F70103E102E40F3258201331032072B27926D
S214083F80269388E8A000F1DD25AA2146584602F0C7
S214083F90D7FB00287FF43BACC846279A269BE7E762
S214083FA00D9B089A9F1A002F7FF7F6AC102F40F348
S214083FB0A884894D42462146B0464FF0100B2E463F
S214083FC0269B0C9C0B9D04E0103F102F02F1080264
S214083FD015DD01331031072B2791269382E8400818
S214083FE0F2DD25AA2946204602F0AAFB00287FF41F
S214083FF00EAC103F102F4A462799269BE9DC35461B
S2140840000C464646904601333C44072B2794269395
S21408401088E8A00000F39E8208F10808BCE4139B19
S214084020012B40F34F820123269F1C441F44072F71
S2140840302794C8F800602697C8F8043000F35F8213
S21408404008F10808199A01371A9B1444072F279471
S2140840502697C8F80030C8F8042000F35C8208F1F8
S214084060080815A80DC8149903F00CFC139B002823
S21408407040F04181013B013701361C44072FC8F840
S214084080006026972794C8F8043000F3668108F184
S21408409008081B9A0137144421AB072F2794269744
S2140840A0C8F80420C8F800307FF7C4AC25AA0B99D6
S2140840B00C9802F045FB00287FF4A9ABC846279C5D
S2140840C0BAE425AA0B990C9802F03AFB00283FF4AC
S2140840D0FDACFFF79CBBDDF81CB0012B00F07E8121
S2140840E0022B71D1CDF81CB000240025D4E525AAF2
S2140840F00B990C9802F024FB00287FF488ABC8467E
S214084100279C86E425AA0B990C9802F019FB002830
S2140841107FF47DABC846279C29E40120269B2D4AC0
S21408412003440444072B27942693C8F80400C8F8C9
S214084130002040F3D88225AA0B990C9802F000FBC1
S21408414000287FF464ABC8461F99279C29B9139B9F
S2140841501BB9079BD8077FF56FAC1998269B0246B4
S214084160013322441A9C072B2792C8F80040C8F847
S2140841700400269300F3318408F108080029C0F2E9
S2140841800984139901338C18072B27942693C8F8AB
S2140841900060C8F804107FF74DAC25AA0B990C9858
S2140841A002F0CEFA00287FF432AB279CC84643E4D8
S2140841B025AA0B990C9802F0C3FA00287FF427ABBF
S2140841C0C846279CFFF7E5BB00240025CDF81CB0A1
S2140841D0494604E0507E0800647E08003146E2083E
S2140841E042EA4572E80804F00703054614463033E9
S2140841F054EA050201F8013C01F1FF36EED1079AB0
S214084200D2077FF559AD302B3FF456AD302302392F
S21408421006F8013CA9EB01030E930E46FFF736BBE2
S2140842201F9900297FF779AF129B139A9342A8BF6C
S2140842301346002B1F460BDD269B3C440133072BF9
S214084240279488E8C000269300F3FB8208F1080844
S214084250129B002FA8BFDB1B002B1F4640F3D780FE
S214084260102B40F33484BA4D42462146B0464FF0F0
S214084270100B2E46269B0C9C0B9D04E00832103F24
S214084280102F40F3B58001331031072B2791269362
S21408429082E84008F2DD25AA2946204602F050FAB0
S2140842A000287FF4B4AA4A462799269BE7E7002DFC
S2140842B008BF0A2CC0F090804E46204629460A229F
S2140842C0002303F04FFB303206F8012D204629461E
S2140842D000230A2203F046FB04460D4654EA05036B
S2140842E0EBD1A9EB06030E93FFF7D0BA0A9B4E460E
S2140842F00E93FFF7CBBA5E1E002E7FF7CAAE102EBF
S21408430040F3E38322464FF0100B914D0C9C04E0DB
S214084310103E102E08F1080815DD01371032072F59
S2140843202792269788E82008F2DD25AA0B992046CA
S21408433002F006FA00287FF46AAA103E102EC84635
S214084340279A269FE9DC144601373444072F27941A
S214084350269788E860007FF79AAE25AA0B990C98EE
S21408436002F0EEF900287FF452AA279C269FC8463A
S2140843708FE604321C68002501230F92FFF768BAFF
S2140843801C6804330F9300252AE41C680433E517D9
S21408439022460F932B46002A73F10003BFF668AC3B
S2140843A02D27644265EB45058DF877700123FFF7E6
S2140843B053BA0F9900250A4604320C680F92FFF785
S2140843C047BA144601333444072B2794269388E8C3
S2140843D060007FF72FABE0E6DDF81CB0012342AEA5
S2140843E03034CDF81CB006F8414D0E93FFF74EBAA0
S2140843F035460C464646904601333C44072B2794E0
S214084400269388E8A00000F3468208F108081F9A59
S214084410139B9A4245DB079BD90742D4139B1298F5
S2140844209A1A1D1A9542A8BF1546002D0EDD269924
S214084430064401312C440729C8F800602794C8F8B8
S2140844400450269100F3168208F10808002DB4BF20
S2140844501646561B002E7FF7EFAA102E40F3F3825F
S21408446022461027269B3A4DDDF830B00B9C04E018
S21408447008F10808103E102EA3DD01331032072B72
S2140844802792269388E8A000F2DD25AA21465846FA
S21408449002F056F900287FF4BAA9C846279A269B40
S2140844A0E8E7269B199801331A990444072B2794A2
S2140844B0C8F80010C8F80400269300F3CF8108F166
S2140844C00808ABE7079BDA073FF5ADAD0123269F43
S2140844D01C441F44072F2794C8F800602697C8F87E
S2140844E004307FF7D4AD25AA0B990C9802F028F96A
S2140844F000287FF48CA9C846279C269FC9E525AACC
S2140845000B990C9802F01CF900287FF480A9C8467D
S214084510279C269F96E525AA0B990C9802F010F979
S21408452000287FF474A9C846279C269F99E50F9C07
S214084530073424F0070404F10801D4E900230F9196
S21408454014461D46FFF78FBB4E46FFF79FB900BFC0
S214084550647E080025AA0B990C9802F0F1F800284A
S2140845607FF455A9C846279CFFF716BA159C22461D
S2140845702046149C2346214603F0B6F9002840F04E
S21408458073820A9B0133119B23F020030E9300F0DD
S2140845909C81472B00F0D6804BF480730793149BBE
S2140845A01F1E159B0893B7BF3B46002303F1004721
S2140845B02D231093119B662B00F09081462B00F05C
S2140845C0A48002200E9B23A9452B0ABF0A9B0A9D9E
S2140845D05D1C8DE82100049120A81FA93B46039086
S2140845E0089A02910C9800F05BFB119B0646672B15
S2140845F040F0BA811BF0010F00F023827419169A56
S2140846000898179B394603F03DF9002840F02481A6
S214084610239BA34206D230215A1C23921970239B4F
S2140846209C42F9D89B1B13930E9B472B00F0A28045
S214084630119B652B40F3A781119B662B1F9B12933A
S21408464000F07181139B129A1946914200F35D811E
S2140846501BF0010F40F0F08122EAE273089367230B
S2140846600E921193109B002B7DD10A939DF87770BC
S214084670FFF714B924F007042368159363681493A6
S21408468004F108030F93FFF72FBB0F9A1368043241
S2140846900F92099A1A60FFF704B8269BAF4DFFF7EA
S2140846A0ADB925AA0B990C9802F04AF800287FF4B1
S2140846B0AEA8C84631E40F9A134604330F93099BF5
S2140846C01168DD171A462B46C1E90023FEF7E9BF35
S2140846D025AA0B990C9802F033F800287FF497A8BF
S2140846E0C846279C32E408F108082FE540210C98B4
S2140846F001F024FA0B9A10601061002800F014826A
S21408470040230B9A5361FEF7BCBF03200A9C23A9DB
S2140847108DE81100049120A81FA90390089A3B462B
S21408472002910C9800F0BCFA25460646119B7419AF
S214084730462B7FF464AF3378302B00F087811F9DBB
S2140847402C445CE70A9B002B08BF01230A9323E747
S21408475030460A95FEF750FF0F940E90CDF81CB021
S2140847600346FFF7E7B92D2700238DF877700A93DD
S214084770FFF795B81F9B1A461293033304DB0A9B70
S21408478019469142BFF65EAF119B023B1193129BEE
S2140847909DF84420013B002B8DF88420B4BF2D22C1
S2140847A02B221F93B8BF129B8DF88520B8BFC3F184
S2140847B00103092B40F31F810DF193000146684C55
S2140847C000E0114684FB0352DD17C5EBA20505EB96
S2140847D08502A3EB42023032092D01F8012C2B4644
S2140847E001F1FF32EDDC30330239DCB2884202F8E0
S2140847F0014C40F292810DF18601134601E013F850
S214084800014B834201F8014BF9D101339B1A0DF194
S2140848108602134421AA9B1A139A1B93012A13444F
S2140848200E9340F348810E9B199A13440E9323EA7D
S214084830E37308930023129314E7279C269AFFF73E
S21408484076B825AA0B990C9801F07AFF00287EF412
S214084850DEAFC846279CFBE42346E3E625AA0B9969
S2140848600C9801F06DFF00287EF4D1AFC8461F9A59
S214084870279CD3E525AA0B990C9801F061FF002820
S2140848807EF4C5AF1F9A139BC846279C9A1ADDE587
S214084890269BFFF7FEB825AA0B990C9801F050FF47
S2140848A000287EF4B4AFC846279CB0E50A9B374676
S2140848B0062B28BF06230A96129608930F94CDF85F
S2140848C01CB00E93274EFEF7E9BF06230A9363E64D
S2140848D02D231F468DF87730FFF728BA03200A9C49
S2140848E023A98DE81100049120A81FA90390089A0F
S2140848F03B4602910C9800F0D3F925460646041963
S21408490019E7269B154DFFF77EBB199A139B134490
S214084910129A0E93002A40F3C78023EAE37308939B
S214084920672311939EE6002B40F3E1800A9A002A3B
S21408493040F0B0801BF0010F40F0AC8008930E9357
S21408494090E60A9B0F9408930E930A90CDF81CB035
S21408495012909DF87770FEF7A1BF00BF647E08002E
S21408496067666666487E0800119B472B7FF446AE4E
S2140849701BF0010F7FF4DAAE239B9B1B13930E9B51
S214084980472B3FF4F7AE1F9B129300E700200A90D0
S214084990FEF7BCBE4F42103135DA10246A4DDDF8FA
S2140849A030B004E008F10808103F102F2CDD013362
S2140849B01032072B27922693C8F80050C8F80440F0
S2140849C0F0DD25AA0B99584601F0BAFE00287EF4B9
S2140849D01EAFC846279A269BE6E725AA0B990C9889
S2140849E001F0AEFE00287EF412AFC8461F99279A3B
S2140849F0269BFFF7C3BB302213448DF887308DF80B
S214084A00862022AB06E7504D01333A44072B88E848
S214084A10A0002792269308F108087FF7B2AB25AACC
S214084A200B990C9801F08CFE00287EF4F0AEC84670
S214084A30279A269BFFF7A5BB129B199A13440E9339
S214084A406BE7239BEEE5269B3F4DBBE4169A08983A
S214084A50179B394602F016FF00287FF470AEC5F1A2
S214084A6001051F952C44CAE5149B384E002BBEBF83
S214084A702D231F468DF877304FF003031A46089308
S214084A804FF00003A8BF9DF8777019460A93304B7D
S214084A90FFF754B9129B199A13440A9A1A4422EA41
S214084AA0E2730E920893DDE5129B0E9AC3F101039A
S214084AB01A441346C3E71BF0010312937FF4B3AE00
S214084AC00E9B23EAE3730893CCE51F4D3CE4269B34
S214084AD01D4D91E40F9D9AF801302868A24640EAD9
S214084AE0E0700A90284604300F90FEF70DBE0A9B29
S214084AF013B91BF0010F02D0199B0133CDE7012330
S214084B001CE78DF87710FFF780B98DF87710FFF758
S214084B103AB98DF87710FFF74FB80DF1860379E6A6
S214084B208DF87710FFF7B2B94FF0FF320C230992D1
S214084B300C9A1360FEF774BE8DF87710FFF7C4B8AA
S214084B408DF87710FFF778B8647E08001C7E08009A
S214084B50187E0800024B13B1024800F005B87047EB
S214084B6000000000E55A0800002301461A461846C9
S214084B7001F064BE2DE9F04F03690F6983B09F42C8
S214084B8000F38880013F01F1140600F1140A56F874
S214084B9027305AF827200133B2FBF3F8BB000093FE
S214084BA006EB030953440193B8F1000F3BD00023EA
S214084BB0B4461C46D6465CF8042BDEF800501FFAAE
S214084BC082FB08FB0B33120C4FEA134B08FB02BBA5
S214084BD09AB2A21AABB21FFA8BF41A44C4EB154465
S214084BE004EB224492B242EA0442E1454EF8042B12
S214084BF04FEA24444FEA1B43DDD2009B5AF80330A1
S214084C008BB9019C231F9A450CD254F8043C4BB927
S214084C10A4F1080302E01A68043B1AB99A4507F19A
S214084C20FF37F8D30761044601F07AFC00282DDB2D
S214084C305546002308F1010856F8041B28688AB26E
S214084C409A1A0B0C81B20A44C3EB104303EB2243B7
S214084C5092B242EA0342B14545F8042B4FEA234391
S214084C60EAD25AF827200AEB87037AB91A1F924520
S214084C700BD253F8042C42B9083B02E01A68043BEE
S214084C801AB99A4507F1FF37F8D32761404603B0AB
S214084C90BDE8F08F002003B0BDE8F08F00000000EC
S214084CA02DE9F04F056C9BB0044692469B46279E1E
S214084CB04DB10123426C29469340AB606A6001F00F
S214084CC057FA00232364BBF1000F5D4635DB00234B
S214084CD033609D4BAB4315D00022002350465946FF
S214084CE002F0D0FD804600282DD00123269A1360B6
S214084CF0289B002B00F0BD809448186001381BB034
S214084D00BDE8F08F42F20F73269A1360BAF1000FCF
S214084D100DD1C5F3130555B9289B8D48002BEED049
S214084D2000F10803289A13601BB0BDE8F08F289B93
S214084D308848002BE3D0C31CF4E701232BF000457A
S214084D403360AB46C5E718AA19AB019200935246E2
S214084D505B46204601F08EFC2B0D814671D05046EE
S214084D60CBF3130242F07F51189FA3F2FF36CDF81B
S214084D70508041F440110022774B02F067F96CA38B
S214084D80D3E9002302F016FB6BA3D3E9002302F055
S214084D905FF9CDE90201304602F0A6FA68A3D3E926
S214084DA0002302F007FB02460B46DDE9020102F08B
S214084DB04FF9CDE9040102F0ADFD00220290002370
S214084DC0DDE9040102F068FD002840F06D81029DCF
S214084DD0162D00F257816149524601EBC5015B4624
S214084DE0D1E9000102F076FD002800F0BE816B1EB6
S214084DF0029300230E93BF1B7B1E089300F14E817F
S214084E0000230A93029B002BC0F23F81089A0D9359
S214084E1011461944002308910C93249B092B2AD881
S214084E20052B40F358860025043B2493249B023B1D
S214084E30032B00F23F86DFE813F0CE03C302D90344
S214084E405B04189F199E3E4406F23243202B40F31B
S214084E508781C3F1400306F212409D402AFA00F00B
S214084E60284302F031FA0123013E1493A1F1F871A8
S214084E7081E73B4843E7002120466164259101F01D
S214084E8051F94FF0FF3307930F930123259A0490A7
S214084E90206424920B93199B002BC0F2D380029AAD
S214084EA00E2A00F3CF802D4B03EBC203D3E9002371
S214084EB0CDE90823259B002BC0F2B483DDE908560C
S214084EC050462A463346594602F09EFB02F022FD1B
S214084ED0804602F009FA2A46334602F06BFA024682
S214084EE00B465046594602F0B1F8079E049F08F153
S214084EF03005012E3D7002460B4607F1010564D0C9
S214084F000022184B02F056FA0022002306460F46E7
S214084F1002F0B8FC002840F08280CDF828904FF0C8
S214084F20000ADDE908894FF0000B0B9429E000BF62
S214084F3061436F63A787D23FB3C8608B288AC63F92
S214084F40FB799F501344D33F0000F07F517E080042
S214084F50747E0800807E08000000F83FB07E0800D7
S214084F60507E0800000024400022814B02F022FAFE
S214084F7052465B4606460F4602F084FC002840F080
S214084F80BA8342464B463046394602F03DFB02F0AD
S214084F90C1FC044602F0A8F942464B4602F00AFA5B
S214084FA002460B463046394602F050F804F1300601
S214084FB005F8016B049E079FAE1BBE4202460B46D1
S214084FC0D2D1A046DDF828900B9C1046194602F070
S214084FD03FF806460F4602460B46DDE9080102F092
S214084FE05BFC48B9DDE9080132463B4602F04AFC5C
S214084FF0A8B118F0010F12D015F8018C6B1E049A90
S21408500004E09A4200F0028413F8018DB8F1390FD3
S21408501003F10105F5D008F1010883F80080494638
S214085020204601F0A5F80022029B2A70269A013332
S2140850301360289B002B00F09F8304981D601BB00C
S214085040BDE8F08F0B9A002A3ED0249A012A40F336
S2140850501183079B0C9A5F1EBA42C0F29083D71B37
S214085060079B002BC0F28C840A9D079B0A9A012195
S2140850701A440A92089A20461A44089201F014F92B
S214085080064623E001230E93B5E600230A9A0D93FD
S214085090029BD21A5B420A920C93BEE6C7F1010342
S2140850A00A9300230893ADE6029D284602F01CF9F1
S2140850B002460B46DDE9040102F0E4FB00287FF413
S2140850C086AE6B1E029382E60AADE0CD002D0CDD9F
S2140850D0089900290B4608DDA942A8BF2B460A9A5C
S2140850E0ED1AD21ACB1A0A9208930C9BD3B10B9BD3
S2140850F0002B00F0B882002F10DD31463A462046D5
S21408510001F06EF94A4601460646204601F0D6F8F2
S214085110034649462046994601F02AF80C9BDA1BB6
S21408512040F0A2820121204601F0BEF80D9B804681
S214085130002B1FDD01461A46204601F051F9249B34
S2140851408046012B40F3558200230C93D8F8103084
S21408515008EB8303186901F057F8C0F1200013E044
S214085160C3F120050AFA05F07BE60E9043E600BF79
S21408517000002440249B012B40F3858200230C93D7
S2140851800D9B0120002BE1D1089A104410F01F0057
S21408519000F0A180C0F12003042B40F386840A9B0C
S2140851A0C0F11C0003440A931346034405440893BD
S2140851B00A9B002B05DD49461A46204601F060F991
S2140851C08146089B002B05DD41461A46204601F01D
S2140851D057F980460E9B002B40F08680079B002BD5
S2140851E040F364820B9B002B00F09880002D05DDB1
S2140851F031462A46204601F043F906460C9B002B0A
S21408520040F036830896079B049A013BD3180B9305
S21408521017460AF00103C246DDF820B00C93514643
S2140852204846FFF7A7FC31460546484601F078F998
S2140852305A4607905146204601F08EF9C2688046C5
S21408524005F13003002A40F02982014648460A93B1
S21408525001F066F941460890204600F089FF089A52
S2140852600A9B32B9249921B90C9A002A00F0EE83D9
S214085270249A07990029C0F29F8205D1249919B962
S2140852800C99002900F09882002A00F305830B9AEF
S21408529007F1010897423B70454600F00B834946E4
S2140852A000230A22204600F06DFF5E4581463146FF
S2140852B04FF000034FF00A02204600F0E98100F0A4
S2140852C061FF5946064600230A22204600F05AFF88
S2140852D047468346A3E71C200A9B054403440A93D3
S2140852E0089B0344089363E74146484601F018F9CB
S2140852F00028BFF673AF029F494600230A222046BD
S214085300013F029700F03EFF0B9B8146002B40F0C2
S214085310B5830F9B002B40F3BE830793DDF810A0E0
S214085320079F554606E0494600230A22204600F015
S21408533029FF814641464846FFF71CFC303005F8F1
S214085340010BA5EB0A03BB42EDDB049B079A8246DA
S214085350012AACBF9B1801334FF0000B1D46494687
S2140853600122204601F08CF84146814601F0D8F823
S214085370002840F33F8215F8012C6B1E049904E0C0
S2140853808B4200F0AE8113F8012D392A03F101058E
S214085390F6D001321A704146204600F0E9FE002E8B
S2140853A03FF43DAEBBF1000F05D0B34503D05946D8
S2140853B0204600F0DDFE3146204600F0D9FE2EE6F7
S2140853C000230B93029B259A13440F930133012B5A
S2140853D01F461E46B8BF012707930021172F616492
S2140853E00AD9012204235B0003F114008742114600
S2140853F002F10102F7D26164204600F093FE0E2EF9
S214085400049020643FF647AD002D3FF444AD029962
S214085410CDE910AB002940F30382B94B01F00F0227
S2140854200D1103EBC203E906D3E9006740F1AF812B
S214085430B44B5046D3E90823594602F0E5F84FF036
S214085440030ACDE9120105F00F058DB1DFF8B48225
S214085450EA0709D5D8E900233046394601F0AAFFFD
S21408546006460F460AF1010A6D1008F10808EFD142
S2140854703B46DDE91201324602F0C6F80746884682
S2140854800E9B43B10022A04B3846414602F004FA70
S214085490002840F08782504601F026FF3A464346E9
S2140854A001F088FF994B002201F0D2FD079B0546C4
S2140854B0A1F15076002B00F03F81029B1593079BC5
S2140854C012930B9B002B00F0FB81129A8C4B00204A
S2140854D003EBC20353E902238D4902F095F82A46E6
S2140854E0334601F0B3FD82468B463846414602F005
S2140854F011FA054601F0F8FE02460B4638464146C4
S21408550001F0A4FD30355FFA85F8049D06460F467F
S21408551085F8008002460B4650465946013502F08B
S214085520D9F9002854D132463B460020764901F086
S2140855308DFD02460B465046594602F0CBF9002828
S21408554040F07082129A012A00F01281129B049A87
S214085550CDF84890134499460FE032463B46002063
S214085560694901F073FD52465B4602F095F900283A
S21408557040F056824D4500F0F980504659460022C4
S214085580644B01F017FF0022624B82468B4630467A
S214085590394601F00FFF0F46064602F0BBF9804673
S2140855A001F0A2FE02460B463046394601F04EFD93
S2140855B008F130085FFA88F805F8018B52465B4612
S2140855C006460F4602F068F90028C6D0DDF848906F
S2140855D0159B029323E500230B93259B002B40F392
S2140855E0DD801F461E460F930793F6E601230B93AE
S2140855F0F3E7BAF1000F7FF4A7ADCBF31303002B44
S2140856007FF4BCAD2BF000473F0D3F05002F00F0A0
S2140856100D820A9B01330A93089B013308930123E2
S2140856200C93ADE5079B002B3FF748AC40F0228271
S214085630DDE908010022384B01F0BCFE52465B4605
S21408564002F03EF9DDF81C804646002841D0259B2E
S214085650049DDB4302934146204600F089FD002E58
S2140856603FF4DDACA7E60C9A4946204600F0B8FEA3
S214085670814657E5149A002A00F0888103F23343DE
S2140856800C9F0A9DF2E4BAF1000F7FF477ADB4E7F9
S21408569000F078FD474606468346C0E501462046A4
S2140856A0089300F065FD0122089BE2E5249B022B87
S2140856B07FF798AD079B002BC9D1414605222046A7
S2140856C000F060FD01468046484600F029FF0028A5
S2140856D0BDDD3123029A0499013202920B704D1CEB
S2140856E0B9E73123029A01320292049A137052E6FD
S2140856F001230B9366E6DDF828900B9C8FE400BF29
S214085700B07E0800887E08000000F03F00001C40BD
S2140857100000E03F0000244000001440504601F01E
S214085720E3FD3A46434601F045FE0022C14B01F030
S2140857308FFC0546A1F1507641460022BE4B3846FE
S21408574001F084FC2A46334682468B4602F0C2F8AD
S2140857508046002840F010812A4606F1004350464D
S214085760594602F099F818B1464670E7DDF84890B1
S214085770DDE910ABFFF78FBB0498FFF7C0BA0C9BA8
S2140857800D9AFB1A1A440C970D92002768E4DDE977
S21408579010234FF0020ACDE9122356E60021012312
S2140857A020466164259300F0BDFC259B0490079372
S2140857B0259B20640F9327E6002AD046CDF820B014
S2140857C09A4611DD49460122204600F059FE414618
S2140857D0814600F0A5FE002840F34581BAF1390F4E
S2140857E000F0058105F1310AB34687F800A07D1C54
S2140857F0089ED0E504D11AF0010F01D0BBE5154686
S21408580015F8013C6A1E302BF9D0C4E530220499FD
S2140858100A70029A15F8018C01320292FFF7FBBB58
S21408582000F0BB80DDE91001029B4FF0020A5D42E2
S214085830824B05F00F0203EBC203D3E9002301F005
S214085840B9FD2D11074688463FF41AAE7C4EEB0785
S21408585009D5D6E900233846414601F0ABFD074690
S21408586088460AF1010A6D1006F10806EFD107E628
S2140858707168204600F056FC0546336906F10C01AF
S21408588002339A000C30FDF7CDFD2946012220464A
S21408589000F0F6FD0890B6E4392BCDF820B0D046D7
S2140858A000F0A58003F1010AB34687F800A07D1C26
S2140858B0089E70E55A46D046B3469A4616464EE5C2
S2140858C012985E492A4601EBC001334651E90201A7
