S01800004D6F746F7220436F6E74726F6C6C65722E73726563B7
S214080000083007200D450800054508000545080086
S21408001005450800054508000545080000000000DD
S2140800200000000000000000000000000545080071
S214080030054508000000000005450800453408008E
S214080040054508000545080005450800054508005B
S214080050054508000545080005450800054508004B
S214080060054508000545080000000000054508008D
S214080070054508000545080005450800000000007D
S214080080000000000545080005450800054508006D
S2140800900545080005450800B5140800054508008C
S2140800A0054508000000000005450800054508004D
S2140800B035310800054508000545080005450800CF
S2140800C005450800054508000545080005450800DB
S2140800D00545080005450800054508006D0F080099
S2140800E005450800054508000545080005450800BB
S2140800F00545080010B5054C237833B9044B13B1F1
S2140801000448AFF300800123237010BD500B07206E
S214080110000000003C9F08000C4B43B10C4810B58B
S2140801200C49AFF300800C48036823B910BD0A4891
S214080130036833B97047094B002BF7D0BDE8104069
S2140801401847064B002BF5D0184700BF00000000E4
S2140801503C9F0800540B07203C9F08000000000046
S21408016080B582B000AF78607868044B98477868A6
S214080170034B984700BF0837BD4680BDB509080041
S214080180FD09080080B582B000AF78607868044B37
S21408019098477868034B984700BF0837BD4680BD28
S2140801A0CD090800150A080080B485B000AFF860CD
S2140801B0B9607A60BB68002B07D0BB681A68FB6812
S2140801C09A60BB685A68FB68DA607B68002B07D0C1
S2140801D07B681A68FB689A617B685A68FB68DA610C
S2140801E000BF1437BD4680BC704780B485B000AFEA
S2140801F0F860B9607A60BB68002B07D0BB681A68DD
S214080200FB681A60BB685A68FB685A607B68002BF4
S21408021007D07B681A68FB681A617B685A68FB68AF
S2140802205A6100BF1437BD4680BC704780B483B09F
S21408023000AF786039603A6840F2011313407A6874
S214080240136200BF0C37BD4680BC704780B483B0CD
S21408025000AF786039603A6840F2022313407A6843
S214080260136200BF0C37BD4680BC7047B0B491B06F
S21408027000AF786039601B4B07F10C041D460FCDA4
S2140802800FC40FCD0FC495E8070084E807000023C5
S214080290FB63FB6B9B0007F14002134453F8343CA6
S2140802A03A68B2FBF3F27B68B2FBF3F3BB63BB6B53
S2140802B0B3F5807F06D9FB6B0133FB63FB6B0A2B18
S2140802C0E7D900E000BFFB6B0A2B04D8FB6B1A02C9
S2140802D0BB6B134301E04FF6FF7318464437BD4621
S2140802E0B0BC7047CC9A080080B584B000AF786080
S2140802F039600023FB603B681B68002B11D03B6805
S2140803001A683B689B6819461046164B9847B860AB
S214080310BB684FF6FF72934201D1BB681EE0BB680C
S214080320FB603B685B68002B14D03B685A683B68E8
S2140803309B68194610460B4B9847B860BB684FF643
S214080340FF72934201D1BB6808E0BB681B04FA68D9
S2140803501343FB607B68FA681A6000231846103758
S214080360BD4680BD6D02080080B487B000AF7860D7
S214080370396000237B613B681B683B613B685B68B0
S21408038003F00F033A68927A520213433A68928A45
S21408039013433A68927D120413433A68D27D520496
S2140803A013433A68127E920413433A681289134339
S2140803B07B617A683B6910335B0113447A691A607B
S2140803C03B68DA6879683B6910335B010B44043391
S2140803D01A603B681A6979683B695B010B4403F548
S2140803E003731A603B689B7D002B0DD03B689B8B84
S2140803F01B041A463B685B8B1A4379683B695B01AA
S2140804000B4403F506731A607B689A6C4FF001116B
S2140804103B6901FA03F3DB4313407B613B689B7F30
S2140804201A463B699A403B68DB7F19463B6901FAE6
S21408043003F31B0413431A467B6913437B617B68EB
S2140804407A699A647B685A6C4FF001113B6901FA25
S21408045003F3DB4313407B613B6893F820301A466E
S2140804603B699A403B6893F8213019463B6901FA84
S21408047003F31B0413431A467B6913437B617B68AB
S2140804807A695A6401223B6902FA03F3FB603B6807
S21408049093F82230002B06D07B681A6AFB681A434A
S2140804A07B681A6206E07B681A6AFB68DB431A40B8
S2140804B07B681A623B6893F82430012B09D17B6865
S2140804C09B6E01213A6901FA02F21A437B689A6622
S2140804D009E07B689B6E01213A6901FA02F2D24371
S2140804E01A407B689A663B6893F82530012B0AD138
S2140804F07B689B6E01213A6901FA02F212041A43DC
S2140805007B689A660AE07B689B6E01213A6901FA65
S21408051002F21204D2431A407B689A660023BB6034
S2140805203B69032B1DD83B69DB003B617B68DB6EB0
S214080530BB60FF223B6902FA03F3DB431A46BB683B
S2140805401340BB603B6893F823301A463B6902FAAF
S21408055003F31A46BB681343BB607B68BA68DA665F
S2140805601FE03B69043B3B613B69DB003B617B6802
S2140805701B6FBB60FF223B6902FA03F3DB431A4694
S214080580BB681340BB603B6893F823301A463B6948
S21408059002FA03F31A46BB681343BB607B68BA6863
S2140805A01A67002318461C37BD4680BC704780B4BF
S2140805B087B000AFF860B9607A60BB681B687B617B
S2140805C0BB681A697B689A4202D24FF6FF730BE043
S2140805D0BB687A68DA60FA687B695B01134403F5DE
S2140805E002737A681A60002318461C37BD4680BC1A
S2140805F0704780B483B000AF7860396001223B68EA
S21408060002FA03F31A467B685A6000BF0C37BD46E9
S21408061080BC704780B483B000AF78603960012230
S2140806203B6802FA03F31A467B689A6000BF0C37E9
S214080630BD4680BC704780B483B000AF7860396030
S2140806407B685B6823F470227B685A607B685A680C
S2140806503B681B0403F470231A437B685A6000BF88
S2140806600C37BD4680BC704780B485B000AFF860D4
S214080670B9607A607B68002B0CD0FB68BA680C32CD
S21408068053F8223043F00101FB68BA680C3243F88D
S21408069022100BE0FB68BA680C3253F8223023F0BD
S2140806A00101FB68BA680C3243F8221000BF143701
S2140806B0BD4680BC704780B485B000AFF860B960AE
S2140806C07A607B68002B0CD0FB68BA680C3253F84B
S2140806D0223043F00201FB68BA680C3243F8221055
S2140806E00BE0FB68BA680C3253F8223023F002019C
S2140806F0FB68BA680C3243F8221000BF1437BD46B0
S21408070080BC704780B485B000AFF860B9607A6086
S214080710FB68BA680C3253F8223023F0F001FB6805
S214080720BA680C3243F82210FB68BA680C3253F8E1
S21408073022207B6842EA0301FB68BA680C3243F859
S214080740221000BF1437BD4680BC704780B487B0FF
S21408075000AFF860B9607A60FA68BB689B0113441A
S2140807607B617B6902221A607B694FF0FF329A62CE
S2140807707B691B6A7B697A685A6000BF1C37BD466E
S21408078080BC704780B483B000AF786039607A6800
S2140807903B689B01134405221A6000BF0C37BD4610
S2140807A080BC704780B485B000AFF860B9607A60E6
S2140807B0FA68BB689B0113441C337A681A6000BF4A
S2140807C01437BD4680BC704780B487B000AFF86069
S2140807D0B9607A60FA68BB689B0113447B617B69E1
S2140807E07A685A6200BF1C37BD4680BC704780B422
S2140807F085B000AF786039607A683B689B0113441F
S214080800FB60FB681B6A18461437BD4680BC7047F9
S21408081080B487B000AFF860B9607A60BB685A08E1
S2140808207B681A44BB68B2FBF3F37B617B69032BD6
S21408083003D97B69B3F5803F01D3012303E0FB6846
S2140808407A691A62002318461C37BD4680BC704772
S21408085080B582B000AF786078680D4B98477B68A3
S21408086000225A607B6800225A627B6800229A62DD
S2140808707868084B98477868074B98477868074B16
S21408088098477868064B984700BF0837BD4680BD2E
S214080890AD0A0800E50908002D0A0800450A080000
S2140808A05F0A080080B584B000AFF860B9607A6067
S2140808B0F8683D4B98473D4B00221A60BB68002BF2
S2140808C00DD0BB689B68032B09D8BB681B687A6881
S2140808D01946F868364B98470346002B01D0012383
S2140808E05DE0BB685A68314B1B6813432F4A136098
S2140808F0BB68DA682D4B1B68134343F4802343F028
S2140809000E032A4A1360BB689B68032B3ED801A2D5
S21408091052F823F0250908003F090800590908007D
S21408092073090800214B1B6843F480731F4A136041
S2140809301E4B1B6823F480331C4A136027E01B4BAE
S2140809401B6823F48073194A1360184B1B6823F43A
S2140809508033164A13601AE0144B1B6843F48073FE
S214080960124A1360114B1B6843F480330F4A136016
S2140809700DE00E4B1B6823F480730C4A13600B4B78
S2140809801B6843F48033094A136000E000BFFB6825
S2140809905A68064B1B681A43FB685A6000231846B9
S2140809A01037BD4680BD00BF510808006C0B0720F5
S2140809B01108080080B483B000AF78607B684022D6
S2140809C01A6000BF0C37BD4680BC704780B483B041
S2140809D000AF78607B6880221A6000BF0C37BD467F
S2140809E080BC704780B483B000AF78607B6888228C
S2140809F01A6000BF0C37BD4680BC704780B483B011
S214080A0000AF78607B6810221A6000BF0C37BD46BE
S214080A1080BC704780B483B000AF78607B682022C3
S214080A201A6000BF0C37BD4680BC704780B483B0E0
S214080A3000AF78607B6824221A6000BF0C37BD467A
S214080A4080BC704780B483B000AF78607B684FF492
S214080A5080721A6000BF0C37BD4680BC704780B4F1
S214080A6083B000AF78607B684FF400221A6000BF3E
S214080A700C37BD4680BC704780B483B000AF786042
S214080A807B684FF480221A6000BF0C37BD4680BCD6
S214080A90704780B483B000AF78607B684FF400225C
S214080AA01A6000BF0C37BD4680BC704780B483B060
S214080AB000AF78607B68044AC3F8E42000BF0C37B0
S214080AC0BD4680BC704700BF0041535580B483B014
S214080AD000AF0346FB71084997F907305B09FA79B6
S214080AE002F01F02012000FA02F241F8232000BF9C
S214080AF00C37BD4680BC704700E100E080B483B088
S214080B0000AF78607B68072B25D801A252F823F03F
S214080B10310B0800370B08003D0B0800430B080094
S214080B20470B08004B0B08004F0B0800530B080038
S214080B304FF4FA4310E04FF400430DE04FF400433F
S214080B400AE0084B08E0084B06E0084B04E0074BB1
S214080B5002E0064B00E0002318460C37BD4680BC72
S214080B60704700BF00093D0000127A00001BB7005E
S214080B7080B500AF0620044B984702461346DB00B4
S214080B809B1A5B00184680BDFD0A080080B500AFBA
S214080B90024B984703465B08184680BD710B080051
S214080BA080B483B000AF78607B6880221A6000BF8C
S214080BB00C37BD4680BC704780B483B000AF786001
S214080BC07B6801221A6000BF0C37BD4680BC7047A0
S214080BD080B483B000AF78607B6802221A6000BFDA
S214080BE00C37BD4680BC704780B483B000AF7860D1
S214080BF07B685B6823F001027B685A6000BF0C378D
S214080C00BD4680BC704780B483B000AF78607B6810
S214080C105B6843F010027B685A6000BF0C37BD461D
S214080C2080BC704780B500AF034B9847034B984786
S214080C30034B984700BF80BDA50E0800450C08006A
S214080C40B50C080090B585B000AF01211048114BCF
S214080C50984700210E480F4B984712200E4B98478E
S214080C600E480F4B98470F4B3C460FCB84E80F00B7
S214080C700D4B984702463B46194608480B4B984783
S214080C8006480B4B984700BF1437BD4690BD00BFBB
S214080C9000400C40633A0800213E080000C00940A6
S214080CA085010800F89A08008D0B0800A5080800BA
S214080CB06101080080B500AF04211B481B4B98470C
S214080CC002211948194B98471820194B9847194874
S214080CD0194B98471748194B98471648184B984782
S214080CE01448184B98470E211248174B984700226D
S214080CF000211048154B9847012200210D48144B37
S214080D009847002200210B48124B98470948124B77
S214080D109847124B1B88124A138002211048114B21
S214080D20984700BF80BD00BF00400C40633A0800EB
S214080D30213E080000800040D10B0800A10B0800E7
S214080D40E90B0800070C08003706080069060800C3
S214080D50B706080005070800B90B0800140E072098
S214080D60180E07200D0E080080B588B000AF786012
S214080D7039601C481C4B984701211C481C4B984757
S214080D807B68FB601B4B3B613B687B611A4BBB6116
S214080D900023FB6107F10C031A4601211348174B81
S214080DA0984701211148164B984700210F48104BC9
S214080DB09847144BFB607B683B613B687B61124B32
S214080DC0BB610023FB6107F10C031A4600210748A4
S214080DD00A4B984700210548094B984700BF20371B
S214080DE0BD4680BD00C00940790A080000400C4096
S214080DF0633A08001CC00940000031207D3B08000B
S214080E00453A080018C009400000510280B588B06D
S214080E1000AF7860396004211A481B4B98477B68F6
S214080E20FB601A4B3B613B687B61194BBB61002337
S214080E30FB6107F10C031A4604211248154B984724
S214080E4004211048144B984702210E480E4B984729
S214080E50124BFB607B683B613B687B61104BBB6158
S214080E600023FB6107F10C031A4602210548094BCB
S214080E70984702210348084B984700BF2037BD46CD
S214080E8080BD00BF00400C40633A08000C8000405C
S214080E90000031207D3B0800453A080008800040E5
S214080EA00000510280B582B000AF2720274B984734
S214080EB02748284B984710212548274B9847244809
S214080EC0264B984700237B607B6843F4813343F0C6
S214080ED00E037B607A6800211D48214B9847002343
S214080EE07B607B6843F4903343F0D0037B607A687A
S214080EF0012117481A4B984700237B607B6843F408
S214080F00813343F002037B607A6802211048144B51
S214080F10984700237B607B6843F4903343F01003C4
S214080F207B607A6804210A480D4B984727200D4BAA
S214080F309847012106480C4B9847042104480A4B59
S214080F40984700BF0837BD4680BD00BF213E080051
S214080F5000400C409D390800B9390800DF39080000
S214080F60533B0800CD0A0800153A080080B500AFC4
S214080F701248134B98470246124B1A60114B1B68CF
S214080F8003F00103002B08D00F48104B9847104B6E
S214080F90104A1188927819809A700A4B1B6803F0D9
S214080FA00403002B07D00C4B1B889BB20B4A1380FC
S214080FB00B4B01221A7000BF80BD00BF00400C40DA
S214080FC02F3A0800740B072000C00940930A08004F
S214080FD0240E0720100E0720180E07201C0E0720C8
S214080FE0700B072080B500AF0A4B1B78002B0ED07D
S214080FF0084B00221A70084B40F2D2421A80064B61
S2140810001B88064A138002210448054B984700BFF0
S21408101080BD00BF700B0720140E0720180E07208F
S2140810200D0E080080B483B000AF0346FB71084974
S21408103097F907305B09FA7902F01F02012000FAD7
S21408104002F241F8232000BF0C37BD4680BC70472B
S21408105000E100E080B483B000AF0346FB710949A5
S21408106097F907305B09FA7902F01F02012000FAA7
S21408107002F2603341F8232000BF0C37BD4680BC1F
S214081080704700BF00E100E080B483B000AF78602E
S2140810907B6808221A607B6820221A607B68042214
S2140810A01A6000BF0C37BD4680BC704780B584B058
S2140810B000AF786039600023FB607B684FF0FF3232
S2140810C09A627B681B6A4FF0FF317868144B984722
S2140810D07868144B98477868134B98473B68596864
S2140810E03B681B681A467868104B98470346012BDE
S2140810F001D10123FB603B685B7A012B02D17B6838
S21408110040221A604FF450717868094B9847094B8B
S21408111000221A70FB6818461037BD4680BD00BF0F
S2140811207F160800E1160800891008003911080023
S21408113065160800980D072080B489B000AFF860DF
S214081140B9607A600023FB61BB68344A934201D9D0
S21408115001235DE0BB68324A934237D97B68314A3F
S214081160A2FB03239B0B043B7B61BA682E4B1344FC
S2140811709B007A68B2FBF3F3043B3B6105E0FB692E
S2140811800133FB617B695B087B617B69FF2B09D9AF
S214081190FB69062BF3D905E0FB690133FB613B6964
S2140811A05B083B613B69FF2B02D9FB69062BF3D929
S2140811B07B69DAB23B691B029BB21A43FB691B04C4
S2140811C003F4E0231A43FB681A6120E0BB685B005F
S2140811D07A68B2FBF3F3043BBB6105E0FB690133B5
S2140811E0FB61BB695B08BB61BB69FF2B02D9FB6966
S2140811F0062BF3D9BB69DAB2BB691B029BB21A434A
S214081200FB691B0403F4E0231A43FB681A610023F6
S21408121018462437BD4680BC704700BF801A0600B3
S21408122000DC0500F11976050012FD3F80B485B094
S21408123000AF786039603B68002B01D100231DE0C1
S2140812407B681B78FB603B68012B09DDFB681B028B
S214081250FB607B6801331B781A46FB681343FB6008
S2140812603B68022B09DDFB681B02FB607B680233C8
S2140812701B781A46FB681343FB60FB68184614374E
S214081280BD4680BC7047000080B400AF024B1B7898
S2140812901846BD4680BC7047980D072080B400AF3E
S2140812A0024B1846BD4680BC704700BF780B072027
S2140812B080B400AF024B1846BD4680BC704700BFDE
S2140812C0880C072080B584B000AF786039603B682A
S2140812D0D3F80831002B01D1012347E0254B012222
S2140812E01A702548254B98477B6800225A603B6849
S2140812F093F80C311B0403F4FE023B685B681B0280
S21408130003F44073134343F480527B685A607B6847
S2140813100022DA603A683B685B6819461046184B44
S214081320984702467B68DA603B680833BB603B68D0
S214081330D3F80831013BFB6007F108030022194681
S2140813401048114B984701210E48104B98470A4BF6
S21408135001221A604FF4805178680D4B9847162082
S2140813600C4B984716200C4B984700231846103706
S214081370BD4680BD980D072000C00840C916080065
S2140813802D12080000C10840EB0108002D020800D5
S21408139065160800551008002510080080B584B0AA
S2140813A000AF786039603B68D3F80831002B01D16C
S2140813B0012340E0224B01221A703B680833BB60C9
S2140813C03B68D3F80831013BFB6007F108030022AD
S2140813D019461C481C4B98477B6800225A603B6895
S2140813E093F80C311B0403F4FE023B685B681B028F
S2140813F003F440731A437B685A607B680022DA60FD
S2140814003A683B685B6819461046104B9847024690
S2140814107B68DA604FF480710A480D4B98474FF4A2
S214081420005178680B4B984716200B4B98471620A8
S2140814300A4B9847002318461037BD4680BD00BFA4
S214081440980D072000C10840A90108002D120800C1
S2140814502D0208006516080055100800251008001B
S21408146080B483B000AF7860034A7B68136000BF1F
S2140814700C37BD4680BC7047A40D072080B483B0E7
S21408148000AF7860034A7B68136000BF0C37BD4620
S21408149080BC7047A00D072080B483B000AF78608A
S2140814A0034A7B68136000BF0C37BD4680BC704794
S2140814B09C0D072090B583B000AF5D485D4B9847FC
S2140814C004465B485C4B9847034623407B607B6832
S2140814D003F40053002B14D04FF400715748584BB0
S2140814E098474FF400515248564B984704215048A5
S2140814F0554B98474E484F4B984702467B681343D0
S2140815007B607B6803F00403002B1AD0042148484C
S2140815104C4B9847464B02221A60454A4B4BD3F829
S2140815200831013B49490B441B7A53630121404863
S214081530454B98473E483F4B984702467B681343BF
S2140815407B607B6803F00103002B14D00121384828
S2140815503C4B98473E4B1B68002B02D03C4B1B6805
S21408156098473C4B1B68002B02D03A4B1B689847A1
S214081570394B00221A707B6803F48053002B16D070
S21408158002212E482E4B98474FF4805128482D4B61
S2140815909847022126482C4B9847254B02221A606A
S2140815A02348244B984702467B6813437B607B6836
S2140815B003F00203002B18D002211D48214B984740
S2140815C0264BD3F80831013B194A126BD1B2234A8D
S2140815D013440A461A72224B1B68002B02D0204B73
S2140815E01B6898471C4B00221A707B6803F45073DC
S2140815F0002B19D040F202211048114B98477B68FF
S21408160003F48073002B02D1094B02221A604FF4B0
S214081610005107480B4B98474FF480510448094B34
S21408162098470D4B00221A7000BF0C37BD4690BD78
S21408163000C008409D160800B316080000C1084000
S2140816404D0208007F16080065160800780B07206C
S214081650A00D07209C0D0720980D0720880C072052
S214081660A40D072080B483B000AF786039607B682B
S2140816703A685A6200BF0C37BD4680BC704780B4D3
S21408168083B000AF786039607B683A689A627B6896
S2140816901B6A00BF0C37BD4680BC704780B483B059
S2140816A000AF78607B681B6A18460C37BD4680BC5E
S2140816B0704780B483B000AF78607B68DB6A1846F2
S2140816C00C37BD4680BC704780B483B000AF7860E6
S2140816D07B681B6BDBB218460C37BD4680BC704770
S2140816E080B483B000AF78607B6880221A607B681D
S2140816F01B6B00BF0C37BD4680BC704780B582B0F8
S21408170000AF0D4B984778607B68602283F80C2101
S2140817107B6802221A707B6801225A607B68022264
S214081720C3F808210548064B98470448054B9847D0
S21408173000BF0837BD4680BDB1120800051808006E
S2140817407D1408006114080080B582B000AF1A4BFB
S21408175098477860194B98470246194B1B68D31A66
S214081760642B26D9174B98470346002B20D1134BDA
S21408177098470246124B1A60134B01221A70796872
S2140817801248134B98470346002B04D100BF0E4B54
S2140817901B78002BFBD17B681B7A1B021AB27B686E
S2140817A05B7A1BB213431BB29AB20A4B1A8000E04C
S2140817B000BF0837BD4680BDB11208006134080076
S2140817C0D00F07204D1C0800A80D072000C00840B1
S2140817D0C5120800300E072080B400AF034B012264
S2140817E01A7000BFBD4680BC704700BFA80D072012
S2140817F080B400AF024B1B781846BD4680BC7047C5
S214081800A80D072080B400AF034B00221A7000BF53
S214081810BD4680BC704700BFA80D072080B483B0C3
S21408182000AF78607B68072B25D801A252F823F012
S21408183051180800571808005D18080063180800B3
S214081840671808006B1808006F1808007318080057
S2140818504FF4FA4310E04FF400430DE04FF4004312
S2140818600AE0084B08E0084B06E0084B04E0074B84
S21408187002E0064B00E0002318460C37BD4680BC45
S214081880704700BF00093D0000127A00001BB70031
S21408189080B500AF0620044B984702461346DB0087
S2140818A09B1A5B00184680BD1D18080080B500AF5F
S2140818B0024B984703465B08184680BD91180800F7
S2140818C080B582B000AF78607868034B984700BF51
S2140818D00837BD4680BD00BF213E080080B582B0EF
S2140818E000AF78603960104B984702463B681A602C
S2140818F03B6800225A727B680C4A934203D1162032
S2140819000B4B984706E07B680A4A934202D1172099
S214081910074B984739687868074B98470346184630
S2140819200837BD4680BD00BFAD18080000C0084097
S214081930C118080000000940AD10080080B500AFC7
S2140819402148224B98470C2200212148214B9847D2
S2140819501F4B214A5A60214B00221A70032100208F
S2140819601F4B984706201F4B9847032100201C4B07
S214081970984706201B4B984703210020184B98478A
S2140819800620184B984702210020154B9847282117
S2140819900020154B984708210020134B9847012133
S2140819A00020114B984703200E4B9847062100202D
S2140819B00D4B98470C2100200B4B9847074B0822E5
S2140819C01A7000BF80BD00BFB11E08009914080039
S2140819D0B40D0720155A0800A0860100A90D072097
S2140819E0611C080075340800711D080080B483B0B7
S2140819F000AF0346FB71044AFB79137000BF0C372F
S214081A00BD4680BC704700BFA90D072080B500AF53
S214081A1001210020034B98470320034B984700BF3B
S214081A2080BD00BF711D08007534080090B587B0EA
S214081A3000AF03463A60FB710B46BB71754B98477F
S214081A40386119E0744B98470246744B1B68D31AE2
S214081A500A2B11D9724B00221A70724B1B6801337D
S214081A60704A136040F202216F48704B98477049DD
S214081A707048714B984709E0704B984703461A46DA
S214081A80674B1B781343DBB2002BDBD13B6927225D
S214081A9083F80C213B6900221A703B6900225A60C1
S214081AA0FB79032B06D0042B07D0022B08D1C023C2
S214081AB0FB7508E09423FB7505E0D423FB7502E06C
S214081AC08023FB7500BFFA7DBB791344FB755C4B1E
S214081AD01B78FB73FB7D23F00F03DAB2FB7B134303
S214081AE0DBB243F00403DAB23B691A7297F917308F
S214081AF023F00F035AB297F90F3013435BB2DAB2EA
S214081B003B695A72FB7D1B01DAB2FB7B1343DBB2DF
S214081B1043F00403DAB23B699A72FB7D1B015AB2A2
S214081B2097F90F3013435BB2DAB23B69DA72444B6B
S214081B301B7843F00103FB730023BB754BE0BB7DAA
S214081B403A6813441B78BB73BB7D01339B00BA7B92
S214081B5022F00F02D1B2FA7B0A43D2B242F0040254
S214081B60D1B23A6913440A461A72BB7D01339B0008
S214081B70013397F90E2022F00F0251B297F90F2081
S214081B800A4352B2D1B23A6913440A461A72BB7D66
S214081B9001339B000233BA7B1201D1B2FA7B0A43A7
S214081BA0D2B242F00402D1B23A6913440A461A7213
S214081BB0BB7D01339B000333BA7B120151B297F900
S214081BC00F200A4352B2D1B23A6913440A461A722F
S214081BD0BB7D0133BB75BC7D38681A4B98470346F6
S214081BE09C42ACD3BB7D01339B001A463B69C3F8C5
S214081BF008210B4B01221A7039690E48124B984778
S214081C00054B98470246054B1A6000BF1C37BD4671
S214081C1090BD00BF9D12080061340800AC0D072077
S214081C20AA0D0720B00D072000C108404D02080085
S214081C30B40D072000C00840DD1808008912080007
S214081C40A90D0720FD5A08009D13080080B400AFB0
S214081C50024B1B781846BD4680BC7047AA0D072065
S214081C6080B584B000AF03460A46FB711346BB71C5
S214081C70324B9847F86019E0314B98470246314B8B
S214081C801B68D31A0A2B11D92F4B00221A702F4B18
S214081C901B6801332D4A136040F202212C482D4B55
S214081CA098472D492D482E4B984709E02D4B9847C5
S214081CB003461A46244B1B781343DBB2002BDBD1B2
S214081CC0FB68272283F80C21FB6800221A70FB6841
S214081CD000225A6097F9073003F00F035AB2224BD6
S214081CE01B785BB213435BB2FB71BB791B01DAB29C
S214081CF0FB791343DBB243F00403DAB2FB681A72CB
S214081D00BB791B015AB297F9073013435BB2DAB2B4
S214081D10FB685A72FB680222C3F808210A4B0122A4
S214081D201A70F9680D48114B9847054B98470246B4
S214081D30044B1A6000BF1037BD4680BD9D120800D0
S214081D4061340800AC0D0720AA0D0720B00D072047
S214081D5000C108404D020800B40D072000C0084026
S214081D60DD18080089120800A90D07209D13080031
S214081D7080B584B000AF03460A46FB711346BB71B4
S214081D803E4B9847F86019E03D4B984702463D4B56
S214081D901B68D31A0A2B11D93B4B00221A703B4BEF
S214081DA01B680133394A136040F202213848394B20
S214081DB09847394939483A4B984709E0394B984784
S214081DC003461A46304B1B781343DBB2002BDBD195
S214081DD0FB68272283F80C21FB6800221A70FB6830
S214081DE000225A6097F9073003F00F035AB22E4BB9
S214081DF01B785BB213435BB2FB71BB7923F00F030E
S214081E00DAB2FB791343DBB243F00403DAB2FB68B9
S214081E101A7297F9063023F00F035AB297F907306B
S214081E2013435BB2DAB2FB685A72BB791B01DAB2AB
S214081E30FB791343DBB243F00403DAB2FB689A7209
S214081E40BB791B015AB297F9073013435BB2DAB273
S214081E50FB68DA72FB680422C3F808210A4B0122E1
S214081E601A70F9680D48114B9847054B9847024673
S214081E70044B1A6000BF1037BD4680BD9D1208008F
S214081E8061340800AC0D0720AA0D0720B00D072006
S214081E9000C108404D020800B40D072000C00840E5
S214081EA0DD18080089120800A90D07209D130800F0
S214081EB080B400AF034B00221A7000BFBD4680BC3A
S214081EC0704700BFAA0D072080B48BB000AF7860BB
S214081ED00B46FB707B687B62FB7887F823307B6A4F
S214081EE0FB61FB69BB61BB695B097B617B6903F5C9
S214081EF0001303F207735B023B6197F82330002B4D
S214081F0009D07B6AFB60FB6803F01F0301229A4036
S214081F103B691A6308E07B6ABB60BB6803F01F0373
S214081F2001229A403B695A6300BF2C37BD4680BCE5
S214081F30704780B489B000AF78607B68FB61FB6946
S214081F40BB61BB697B617B695B093B613B6903F5E8
S214081F50001303F207735B02DA6BFB69FB60FB682E
S214081F6003F01F03012101FA03F31340002B14BFEB
S214081F7001230023DBB218462437BD4680BC7047D1
S214081F8080B582B000AF0346FB71284B1B78092B3F
S214081F9047D801A252F823F0C11F0800CB1F08003B
S214081FA0D51F0800DF1F0800E91F080007200800E3
S214081FB011200800F31F0800FD1F08001B2008005A
S214081FC0FB7918461A4B98472CE0FB791846194BAC
S214081FD0984727E0FB791846174B984722E0FB7985
S214081FE01846164B98471DE0FB791846144B984739
S214081FF018E0FB791846134B984713E0FB79184608
S214082000114B98470EE0FB791846104B984709E0A5
S214082010FB7918460E4B984704E0FB7918460D4B9B
S214082020984700BF00BF0837BD4680BDC00D0720D3
S2140820305920080081210800B12108001D27080042
S214082040D5220800E9240800BD250800BD2608009A
S214082050ED2608000128080080B582B000AF0346C8
S214082060FB71414B1B78002B04D03F4B00221A70A3
S2140820703E4B984700203E4B9847FB79013B0F2B79
S21408208068D801A252F823F0C92008005521080094
S214082090552108005521080055210800552108003B
S2140820A00921080055210800552108005521080077
S2140820B05521080055210800E92008005521080088
S2140820C055210800472108002A4B1A78294B9B7887
S2140820D09A4241D9274B1B78013BDAB2254B1A7036
S2140820E02448254B984737E0224B1A78214BDB7853
S2140820F09A4233D21F4B1B780133DAB21D4B1A7043
S2140821001C481D4B984729E01A4B1B78032B0BD00D
S214082110042B10D0022B00D014E0184B01221A70A2
S214082120114B01221A700DE0144B02221A700E4B46
S21408213001221A7006E0114B03221A700A4B01227C
S2140821401A7000BF0BE00D4B09221A70064B0122CD
S2140821501A7004E000BF02E000BF00E000BF00BF46
S2140821600837BD4680BD00BF8C010720112908002E
S214082170E934080090010720512A0800C00D0720FE
S21408218080B483B000AF0346FB71FB79102B05D1F2
S214082190054B00221A70054B01221A7000BF0C3737
S2140821A0BD4680BC704700BFC00D07208C010720C5
S2140821B080B582B000AF0346FB71404B1B78002BFE
S2140821C004D03E4B00221A703D4B9847FB79013BE2
S2140821D00F2B69D801A252F823F000BF1D22080071
S2140821E0A9220800A9220800A9220800A922080096
S2140821F0A92208005D220800A9220800A9220800D2
S214082200A9220800A9220800A92208003D220800E1
S214082210A9220800A92208009B220800294B1A793F
S214082220284B9B799A4241D9264B1B79013BDAB257
S214082230244B1A712448254B984737E0214B1A79C6
S214082240204BDB799A4233D21E4B1B790133DAB224
S2140822501C4B1A711C481D4B984729E0194B1B79D3
S214082260022B0BD0032B10D0012B00D014E0184BF8
S21408227004221A70114B01221A700DE0144B072223
S2140822801A700E4B01221A7006E0114B05221A70BE
S2140822900A4B01221A7000BF0BE00D4B00221A7081
S2140822A0064B01221A7004E000BF02E000BF00E0FF
S2140822B000BF00BF0837BD4680BD00BF8C010720A1
S2140822C0812908009001072094010720512A080058
S2140822D0C00D072080B582B000AF0346FB71704B77
S2140822E01B78002B01D06F4B98476F4B1B78C3F3B6
S2140822F00503DBB21A466D4B1B789A420DD16A4B22
S2140823001B78C3F38013DBB21A46694B1B789A42D4
S21408231003D1634B1B78002B39D0634B1B7803F033
S2140823203F03DBB2002B05D1624A00210120624B35
S21408233098471CE05C4B1B7803F04003DBB2002B8D
S21408234010D0594B1B78C3F30503DBB2203B1A4663
S2140823505A495B485B4B9847594A00210120564B1F
S214082360984704E0584A00210120534B98474E4BA3
S2140823701B78C3F30503DBB21A464C4B1A704A4B5C
S2140823801B78C3F38013DBB21A46494B1A70464BC8
S2140823905B78C3F30503DBB21A464C4B1B789A42AC
S2140823A00DD1414B5B78C3F38013DBB21A46484B1A
S2140823B01B789A4203D13A4B1B78002B39D03A4BFC
S2140823C05B7803F03F03DBB2002B05D1394A0021C6
S2140823D00220394B98471CE0334B5B7803F04003E8
S2140823E0DBB2002B10D0304B5B78C3F30503DBB2AF
S2140823F0203B1A4637493248324B9847304A002124
S21408240002202D4B984704E0334A002102202A4B2D
S2140824109847254B5B78C3F30503DBB21A462B4B6C
S2140824201A70214B5B78C3F38013DBB21A46284B2D
S2140824301A701D4B1B78C3F3C013DBB21A46274B22
S2140824401B789A4203D1164B1B78002B16D0164BD6
S2140824501B78C3F3C013DBB21A4621491848194B38
S2140824609847174A00210320134B98470E4B1B78B2
S214082470C3F3C013DBB21A46184B1A70FB79102B3D
S21408248006D1184B02221A70054B01221A7002E078
S214082490034B00221A7000BF0837BD4680BD00BF38
S2140824A08C0107200D1A08001C0E0720C10D0720F6
S2140824B0C20D0720089B08002D1A0800189B080064
S2140824C0600E0720B15A0800289B0800C30D072095
S2140824D0C40D0720389B0800489B0800C50D072038
S2140824E0589B0800C00D072090B583B000AF034680
S2140824F0FB71244B1B78002B04D0224B00221A7049
S214082500214B9847214B9847214B1A88214B1B880B
S2140825109A421ED01E4B1A881E4B1A801C4B1A88CD
S2140825201D4B1046984702461C4B104698471C4CB5
S2140825304FF000021B4BA04703460C461A4623469C
S21408254019491A481A4CA047184A00210220194B64
S2140825509847FB79072B02D0102B07D00DE0164BB7
S21408256008221A70074B01221A7006E0124B022244
S2140825701A70044B01221A7000BF00BF0C37BD4604
S21408258090BD00BF8C0107200D1A080049170800E7
S214082590300E0720C80D07203D550800054F0800D7
S2140825A001520800000024406C9B0800600E0720BB
S2140825B0B15A08002D1A0800C00D072080B584B04F
S2140825C000AF0346FB712E4B1B78002B16D02C4B06
S2140825D000221A702B4B98472B4A012102202B4BBE
S2140825E098472B4B1B7801331A462A492A482B4B07
S2140825F09847294A01210320244B9847FB79072B43
S21408260039D1274B9847F860FB68602283F80C217D
S214082610FB680F221A70FB6801225A60FB68FF22CB
S2140826201A72FB680122C3F808211E4B9847F968FE
S2140826301D481E4B984700BF1D4B98470346002B66
S214082640FAD14FF4FA701B4B9847114B1B7801339D
S214082650DAB20F4B1A700E4B1B78042B08D10C4BB2
S21408266000221A70144B07221A70054B01221A70A2
S214082670034B01221A7000BF1037BD4680BD00BF4D
S2140826808C0107200D1A0800849B08002D1A0800E4
S214082690C60D0720989B0800600E0720B15A080050
S2140826A09D120800D917080000C008409D130800AE
S2140826B0F117080075340800C00D072080B483B0F1
S2140826C000AF0346FB71FB79102B05D1054B0222A0
S2140826D01A70054B01221A7000BF0C37BD4680BC25
S2140826E0704700BFC00D07208C01072080B483B058
S2140826F000AF0346FB71FB79102B05D1054B05226D
S2140827001A70054B01221A7000BF0C37BD4680BCF4
S214082710704700BFC00D07208C01072080B582B027
S21408272000AF0346FB71304B1B78002B04D02E4BB2
S21408273000221A702D4B9847FB79013B0F2B4AD87D
S21408274001A252F823F000BF89270800D7270800FF
S214082750D7270800D7270800D7270800D727080054
S214082760D7270800D7270800D7270800D727080044
S214082770D7270800D7270800A9270800D727080062
S214082780D7270800C9270800194B1A7A184B9B7ACE
S2140827909A4222D9164B1B7A013BDAB2144B1A72AC
S2140827A01448154B984718E0114B1A7A104BDB7AE9
S2140827B09A4214D20E4B1B7A0133DAB20C4B1A72B9
S2140827C00C480D4B98470AE00C4B00221A70064B33
S2140827D001221A7004E000BF02E000BF00E000BF5C
S2140827E000BF0837BD4680BD8C010720E9290800D0
S2140827F09001072098010720512A0800C00D0720DD
S21408280080B582B000AF0346FB71354B1B78002BB2
S21408281043D0344B9847344A02210220334B98471A
S21408282000216A20324B984700216620304B984793
S214082830002167202E4B9847002168202C4B98478C
S214082840002169202A4B98472A4B984700210120E7
S214082850274B984700BF0820274B98470346002B6E
S214082860F9D141F64C50254B98470020244B984701
S2140828701C4B98476420214B98470820204B9847C4
S214082880184B984764201D4B984700201C4B9847C8
S214082890144B9847174B9847FCE71A4B1B78002BA6
S2140828A009D0184B00221A700E4B9847164A012179
S2140828B002200E4B9847FB79072B02D0102B04D02A
S2140828C00AE0074B01221A7006E0104B00221A7025
S2140828D00C4B01221A7000BF00BF0837BD4680BDEA
S2140828E0C70D07200D1A0800AC9B08002D1A080013
S2140828F0C91E0800A1340800331F080075340800F4
S214082900ED1908008C010720C09B0800C00D0720A1
S21408291090B585B000AF144B3C460FCB84E80F004B
S214082920124B98473B681A4600210120104B9847DF
S2140829307B681A46002102200D4B9847BB681A464A
S214082940002103200A4B9847FB681A4600210420FA
S214082950074B98470748084B98470120074B984766
S21408296000BF1437BD4690BD049C08000D1A080029
S2140829702D1A080090010720512A0800E93408009B
S21408298090B585B000AF134B3C460FCB84E80F00DC
S214082990114B98473B681A46002101200F4B984771
S2140829A07B681A46002102200C4B9847BB681A46DB
S2140829B000210320094B9847FB681A46002104208B
S2140829C0064B98470648074B984700BF1437BD463E
S2140829D090BD00BF349C08000D1A08002D1A080088
S2140829E094010720512A080090B585B000AF134B14
S2140829F03C460FCB84E80F00114B98473B681A46B5
S214082A00002101200F4B98477B681A4600210220B8
S214082A100C4B9847BB681A4600210320094B984779
S214082A20FB681A4600210420064B98470648074BC1
S214082A30984700BF1437BD4690BD00BF449C0800A9
S214082A400D1A08002D1A080098010720512A0800B8
S214082A5080B582B000AF78607B685B78094A002151
S214082A601846094B98477B681B78084A0021184681
S214082A70054B98477B681A787B685A7000BF0837FA
S214082A80BD4680BD309C08002D1A0800549C0800DE
S214082A9080B582B000AF0023FB71754B984702469D
S214082AA0744B1B681E339A42C0F0DD80704B984703
S214082AB00246704B1A6060206F4B984703461A46CA
S214082AC06E4B1A7061206C4B984703461A466C4B3F
S214082AD01A706220684B984703461A46694B1A7064
S214082AE06320654B984703461A46674B1A7064205E
S214082AF0614B984703461A46644B1A7065205E4B2E
S214082B00984703461A46624B1A705C4B1A78614B14
S214082B101B789A4206D0594B1B78002B02D101230A
S214082B20FB710BE0554B1A785A4B1B789A4205D026
S214082B30524B1B78012B01D10323FB71504B1A789B
S214082B40554B1B789A4206D04D4B1B78002B02D16A
S214082B500423FB710BE04A4B1A784F4B1B789A42BA
S214082B6005D0474B1B78012B01D10623FB71454B3B
S214082B701A784A4B1B789A4206D0424B1B78002B91
S214082B8002D10723FB710BE03E4B1A78434B1B78A8
S214082B909A4205D03B4B1B78012B01D10923FB71C8
S214082BA0394B1A783E4B1B789A4206D0364B1B7820
S214082BB0002B02D10A23FB710BE0334B1A78384BF3
S214082BC01B789A4205D0304B1B78012B01D10C2379
S214082BD0FB712E4B1A78334B1B789A4206D02B4B38
S214082BE01B78002B02D10D23FB710BE0274B1A78BC
S214082BF02C4B1B789A4205D0244B1B78012B01D10D
S214082C000F23FB71224B1A78274B1B789A4206D063
S214082C101F4B1B78002B02D11023FB710BE01C4BBB
S214082C201A78214B1B789A4205D0194B1B78012B32
S214082C3001D11223FB71114B1A78164B1A70104BE0
S214082C401A78154B1A700F4B1A78144B1A700E4BCD
S214082C501A78134B1A700D4B1A78124B1A700C4BC5
S214082C601A78114B1A70FB7918460837BD4680BD8E
S214082C7061340800340E0720331F08005D0E072055
S214082C80440E07205C0E07205E0E0720400E072025
S214082C903C0E0720410E07203F0E07203D0E07205A
S214082CA0420E07203E0E0720430E072080B483B04E
S214082CB000AF0346FB71084997F907305B09FA79B4
S214082CC002F01F02012000FA02F241F8232000BF9A
S214082CD00C37BD4680BC704700E100E080B483B086
S214082CE000AF0346FB71094997F907305B09FA7983
S214082CF002F01F02012000FA02F2203341F82320D6
S214082D0000BF0C37BD4680BC704700BF00E100E03E
S214082D1080B483B000AF0346FB71094997F90730C2
S214082D205B09FA7902F01F02012000FA02F260330A
S214082D3041F8232000BF0C37BD4680BC704700BF53
S214082D4000E100E080B483B000AF03463960FB7151
S214082D5097F90730002B0BDA0D49FB7903F00F03C0
S214082D60043B3A68D2B21201D2B20B441A7609E092
S214082D70084997F907303A68D2B21201D2B20B4422
S214082D8083F8002300BF0C37BD4680BC704700BFE1
S214082D9000ED00E000E100E080B582B000AF7860AA
S214082DA07868034B984700BF0837BD4680BD00BF0C
S214082DB0213E080080B48BB000AF78600B46FB70ED
S214082DC07B687B62FB7887F823307B6AFB61FB694C
S214082DD0BB61BB695B097B617B6903F5001303F282
S214082DE007735B023B6197F82330002B09D07B6A98
S214082DF0FB60FB6803F01F0301229A403B691A63D5
S214082E0008E07B6ABB60BB6803F01F0301229A4098
S214082E103B695A6300BF2C37BD4680BC704780B4F8
S214082E2087B000AF786039607B687B613B683B6140
S214082E307B69FB60FB6803F5001303F207735B020C
S214082E40DA6B3B69134000BF18461C37BD4680BC8A
S214082E5070470000B0B500AF5E4B00221A815D4B8C
S214082E6000229A725B4B0B225A605A4B4FF47A72C6
S214082E701A61584B4FF4FA72DA60564B00221A6001
S214082E8054495548554B9847554B00221A81544B80
S214082E9000229A72524B0B225A60514B4FF47A72A8
S214082EA01A614F4B4FF4FA72DA604D4B01221A60E2
S214082EB04B494948494B98474A4B00221A81494B87
S214082EC000229A72474B0B225A60464B4FF47A728E
S214082ED01A61444B4FF4FA72DA60424B02221A60C7
S214082EE040493D483D4B984700213B483E4B984754
S214082EF0012139483C4B9847022137483A4B9847B6
S214082F003A4B00221A81394B00229A72374B0B2211
S214082F105A60364B4FF4A5721A61344BA522DA6014
S214082F20324B04221A6031492B482C4B984704210F
S214082F3029482F4B98471C202E4B984744F20302EB
S214082F4001212D482D4B984741F2814201212A48FC
S214082F502B4B98471C202B4B98471C202A4B9847EE
S214082F6000211C20294B98471C20294B98471022E3
S214082F7001212148274B984701211F48264B98478F
S214082F80264B274A1A60254B264A5A60234B4FF091
S214082F907E529A60214B244ADA60204B234A9A6173
S214082FA01E4B234A5A61234A1C4B14461D460FCD16
S214082FB00FC40FCD0FC42B6823601F4A174B144647
S214082FC01D460FCD0FC40FCD0FC42B68236000BF5E
S214082FD0B0BD00BF780E072000400940690308000E
S214082FE0480F0720F00E072015060800A00E072039
S214082FF0F3050800992D0800000008404D07080052
S214083000A5070800DD2C0800112D0800452D08002E
S214083010AD2C0800C907080085070800700F0720B0
S21408302000007041000020410000A0400000FAC3E4
S2140830300000FA43C80E0720180F072080B500AF17
S21408304000210D480D4B984701210B480B4B98471C
S21408305002210948094B984700212020084B984729
S21408306001212020064B9847102201210548064BCF
S214083070984700BF80BD00BF00400940F305080020
S214083080B52D080000000840C907080080B584B0C0
S21408309000AF03460A46FB711346BB80B7F90430F7
S2140830A0B3F5FA7F02DD4FF4FA73BB80B7F9043044
S2140830B013F5FA7F02DA4FF60C63BB80BB8803F57C
S2140830C0FA73FB81FB89092B01D80A23FB81FB894C
S2140830D040F2DE32934202D940F2DE33FB81FB79BE
S2140830E0012B0BD0022B10D0002B00D014E0FB894C
S2140830F01A460B490B480C4B98470DE0FB891A46B5
S2140831000A490848084B984706E0FB891A460849C2
S2140831100448054B984700BF00BF1037BD4680BD22
S214083120780E072000400940AF050800480F072022
S214083130F00E072090B585B000AF01216920504BEE
S214083140984701214F48504B9847034603F0100311
S214083150102B40F08C8004214C484D4B98474FF07C
S214083160FF3102204B4B9847F86000212020444B43
S214083170984701212020424B984704214348464B54
S2140831809847FB681B0E03F07F03BB60BB6803F021
S2140831904003002B02D0BB68803B00E0BB68BB60E6
S2140831A0FB685B0C03F06002FB681B0C03F01F0354
S2140831B013437B607B6803F04003002B02D07B68D8
S2140831C0803B00E07B687B60FB685B0A03F07E025E
S2140831D0FB685B0803F0010313433B603B6803F09E
S2140831E04003002B02D03B68803B00E03B683B6016
S2140831F02A4B1C682A4BB868984703461A46214645
S2140832002848294B98470246284B104698470346B5
S2140832101BB219460020264B9847264B1C68204BA5
S2140832207868984703461A46214623481E4B98470F
S21408323002461E4B1046984703461BB21946012005
S2140832401B4B98471D4B1C68154B38689847034618
S2140832501A4621461A48144B98470246134B1046FE
S214083260984703461BB219460220114B984700217F
S2140832706920034B984700BF1437BD4690BD00BF72
S214083280B52D080000000840EF0708000040094078
S214083290150608001F2E0800F3050800400F072033
S2140832A045550800700F0720C532080079590800F0
S2140832B08D300800EC0E0720C80E0720C80F072020
S2140832C0180F072090B58BB000AFF860B9607A6029
S2140832D03C4B7968B868984703463B62FB681A68AF
S2140832E0394B396A104698470346FB61FB681C69E8
S2140832F0FB685A68344B396A1046984703461A469C
S214083300324B11462046984703461C46FB689A6887
S214083310FB68D9692C4B1046984703461A462B4B30
S21408332011462046984703461A46FB681A61FB680A
S214083330DC68FB681A6A234B1146386A98470346C6
S2140833401A46214B1146204698470346BB61FB6840
S2140833501A691E4BF9691046984703461A461B4BCE
S214083360B9691046984703467B61FB685A69184B4B
S2140833707969104698470346002B03D0FB685B69BB
S2140833807B620EE0FB689A69124B7969104698478B
S2140833900346002B03D0FB689B697B6201E07B69D0
S2140833A07B62084B7969786A984703461A46FB6831
S2140833B0DA61FB683A6A1A627B6A18462C37BD4699
S2140833C090BD00BFD9530800ED550800DD5308002E
S2140833D0295908006559080080B48BB000AF78609A
S2140833E00B46FB707B687B62FB7887F823307B6A2A
S2140833F0FB61FB69BB61BB695B097B617B6903F5A4
S214083400001303F207735B023B6197F82330002B27
S21408341009D07B6AFB60FB6803F01F0301229A4011
S2140834203B691A6308E07B6ABB60BB6803F01F034E
S21408343001229A403B695A6300BF2C37BD4680BCC0
S2140834407047000080B400AF044B1B680133034A82
S214083450136000BFBD4680BC704700BFCC0D072078
S21408346080B400AF024B1B681846BD4680BC704748
S214083470CC0D072080B485B000AF7860074B1B687A
S214083480FB6000BF054B1A68FB68D21A7B689A4235
S214083490F8D300BF1437BD4680BC7047CC0D072054
S2140834A080B500AF0B4B984702460B4B1B68D31AE8
S2140834B0052B0DD9074B98470246074B1A60074B52
S2140834C01B681A46064B1A6003210548054B9847A1
S2140834D000BF80BD613408002C0E0720200E072090
S2140834E0100E0720690D080080B584B000AF0346AB
S2140834F0FB71204B9A78204B1A70FB79002B05D16C
S2140835001E4B1A781C4B1B789A422FD01A4B1B78E6
S214083510632B09D9184B1B781A4607F10803184974
S2140835201846184B984716E0134B1B78092B09D9F1
S214083530114B1B781A4607F1080313491846114B16
S214083540984708E00C4B1B781A4607F108030F4902
S21408355018460C4B984707F108031A461021012015
S2140835600B4B9847044B1A78044B1A7000BF103759
S214083570BD4680BD240E0720CC0F0720D00D07209F
S214083580589C0800B15A0800609C0800689C08000F
S2140835902D1A080080B500AF204B1B78002B1DD0D5
S2140835A01F4B984702461F4B1B6864339A4233D317
S2140835B01B4B984702461B4B1A6000216A201A4B81
S2140835C0984700216720184B9847184A13786FF3D6
S2140835D000031370114B00221A701DE0104B984719
S2140835E00246104B1B6803F561739A4214D30C4BC2
S2140835F0984702460B4B1A6001216A200A4B9847E7
S21408360001216720084B9847084A137843F00103BE
S2140836101370024B01221A7000BF80BD280E0720C7
S21408362061340800380E0720D9330800200E07201A
S21408363080B582B000AF78607B68072B31D801A2CE
S21408364052F823F0A1360800653608006D360800E3
S214083650753608007D360800853608008D36080061
S214083660973608000020114B98471AE001200F4BA8
S214083670984716E000200E4B984712E010200C4B97
S21408368098470EE020200A4B98470AE03E21002083
S214083690084B984705E03E210120064B984700E076
S2140836A000BF00BF0837BD4680BD00BF6D3C0800A0
S2140836B0D93C0800493D080080B582B000AF786064
S2140836C07B68072B26D801A252F823F0ED360800AF
S2140836D0F1360800F13608000337080003370800FB
S2140836E0033708000337080003370800012312E0F1
S2140836F00B4B98470346002B14BF01230023DBB26D
S21408370009E0084B98470346002B14BF0123002303
S214083710DBB200E0002318460837BD4680BD00BF70
S214083720A53C0800C13D080080B483B000AF7860AF
S2140837307B68072B25D801A252F823F05D370800CE
S21408374063370800693708006F37080073370800C2
S214083750773708007B3708007F3708004FF4FA43AE
S21408376010E04FF400430DE04FF400430AE0084B26
S21408377008E0084B06E0084B04E0074B02E0064B5F
S21408378000E0002318460C37BD4680BC704700BFD3
S21408379000093D0000127A00001BB70080B582B011
S2140837A000AF0346FB7100BFFB791846054B9847E8
S2140837B0034683F00103DBB2002BF5D100BF0837C0
S2140837C0BD4680BDB936080080B586B000AFF86043
S2140837D07A603B600B46FB727B68002B07D13B6820
S2140837E0002B04D1FB684FF470021A6019E0FB7ACC
S2140837F018460E4B984702467B68B2FBF3F37B618C
S2140838007B693A6802FB03F37B613B68013B1A0459
S214083810074B13407A68D2B2134343F47C52FB68D2
S2140838201A6000BF1837BD4680BD00BF293708009C
S2140838300000FF0780B582B000AF786039603B684B
S214083840002B08D1094B9847094A7B681B6843F048
S2140838500053936205E0064A7B681B6843F480338E
S214083860D36100BF0837BD4680BD00BFD93D0800FC
S21408387000060E4080B582B000AF78607B68002BEB
S21408388003D1054B9847034602E0044B9847034686
S21408389018460837BD4680BDF13D0800093E0800B9
S2140838A080B582B000AF0346FB71FB79033B042B5F
S2140838B008D8FB791846064B9847FB791846054BF7
S2140838C0984700E000BF00BF0837BD4680BD00BF70
S2140838D0313608009D37080080B582B000AF7860A2
S2140838E000BF7868044B98470346002BF9D000239E
S2140838F018460837BD4680BD7538080080B500AF45
S2140839000620044B984702461346DB009B1A5B00CA
S214083910184680BD2937080080B500AF024B984787
S21408392003465B08184680BDFD38080090B583B08E
S21408393000AF1148114B98470620114B9847381D81
S2140839400E23012206210F4CA0473B1D00211846D6
S2140839500D4B984700200D4B984710200C4B984766
S2140839600C4B98470C4B984703461846034B98470A
S21408397000BF0C37BD4690BD00BD0105D10007202D
S214083980A1380800C937080035380800D9380800B3
S214083990ED3B0800B54508001939080080B582B027
S2140839A000AF78607868034B984700BF0837BD4675
S2140839B080BD00BFF739080080B483B000AF7860D8
S2140839C00B46FB707B681B6823F01002FB781A43D3
S2140839D07B681A6000BF0C37BD4680BC704780B451
S2140839E083B000AF78607B6801225A6000BF0C374E
S2140839F0BD4680BC704780B483B000AF78607B68F3
S214083A005B6823F001027B685A6000BF0C37BD462E
S214083A1080BC704780B483B000AF786039607B683C
S214083A203A689A6100BF0C37BD4680BC704780B4C0
S214083A3083B000AF78607B685B6A18460C37BD4673
S214083A4080BC704780B483B000AF786039600122CC
S214083A503B689A407B689A6200BF0C37BD4680BCBC
S214083A60704780B483B000AF7860396001223B6845
S214083A709A407B68DA6200BF0C37BD4680BC704748
S214083A8080B485B000AFF860B9607A60F968BA6843
S214083A9013469B001344DB000B443C337A681A60D9
S214083AA000BF1437BD4680BC704780B485B000AFF1
S214083AB0F860B9607A60F968BA6813469B001344E0
S214083AC0DB000B4440337A681A6000BF1437BD46E3
S214083AD080BC704780B485B000AFF860B9607A6083
S214083AE0F968BA6813469B001344DB000B4444335A
S214083AF07A681A6000BF1437BD4680BC704780B429
S214083B0085B000AFF860B9607A60F968BA6813469D
S214083B109B001344DB000B4448337A681A6000BFE6
S214083B201437BD4680BC704780B485B000AFF860D7
S214083B30B9607A60F968BA6813469B001344DB00DC
S214083B400B444C337A681A6000BF1437BD4680BCF5
S214083B50704780B485B000AFF860B9607A60F968DD
S214083B60BA6813469B001344DB000B4450337A684C
S214083B701A6000BF1437BD4680BC704780B584B055
S214083B8000AFF860B9607A60FB685B6A7B681B68A0
S214083B901A46B968F868104B98477B685B681A46F7
S214083BA0B968F8680D4B98470022B968F8680C4B56
S214083BB098477B689B681A46B968F868094B98471F
S214083BC07B68DB681A46B968F868074B984700BFF1
S214083BD01037BD4680BD00BF813A0800AB3A0800E2
S214083BE0D53A0800FF3A0800293B080080B485B09B
S214083BF000AF78601C491C4B1B6B23F070027B6877
S214083C0013430B634FF40063FB6007E0FB68002B6D
S214083C1001D1012323E0FB68013BFB60124B9B6E3E
S214083C2003F00803002BF1D00F4A0F4B1B6B23F051
S214083C30030343F0020313634FF40063FB6007E0DB
S214083C40FB68002B01D1012309E0FB68013BFB6000
S214083C50054B9B6E03F00803002BF1D00023184693
S214083C601437BD4680BC704700060E4080B483B04B
S214083C7000AF78607B68012B07D1084A074B9B6822
S214083C8043F0254343F480139360044B044A1A60B8
S214083C9000BF0C37BD4680BC704700BF101A0E40E8
S214083CA0080000A580B400AF094B5B6903F08003E9
S214083CB0002B07D0074B9B6E03F08003002B01D028
S214083CC0012300E000231846BD4680BC704700BFAD
S214083CD0101A0E4000060E4080B483B000AF78601D
S214083CE0184A184B1B6A43F45C1343F00803136224
S214083CF000BF144B9B6E03F40033002BF9D0114918
S214083D00104B1B6A23F45C1323F070037A68134382
S214083D1043F45C130B6200BF0A4B9B6E03F400333C
S214083D20002BF9D0074A074B1B6A23F09B7323F432
S214083D30803343F45C13136200BF0C37BD4680BC67
S214083D40704700BF00060E4080B483B000AF7860AE
S214083D5039607B68002B08D01649164B1B6A164A32
S214083D601A40164B13430B621EE01249114B1B6A8E
S214083D7023F45C1323F003033A68120292B2134347
S214083D8043F45C1343F001030B6200BF094B9B6EC0
S214083D9003F00103002BF9D0064A064B1B6A43F0D2
S214083DA09B7343F48033136200BF0C37BD4680BC58
S214083DB0704700BF00060E40FCFFC8FE0200370131
S214083DC080B400AF034B9B6E03F480331846BD46A1
S214083DD080BC704700060E4080B400AF034B4FF01F
S214083DE000529A6200BFBD4680BC704700060E406F
S214083DF080B400AF034B9B6E03F002031846BD4623
S214083E0080BC704700060E4080B400AF034B9B6E24
S214083E1003F040031846BD4680BC704700060E40B7
S214083E2080B483B000AF78607B682C2B01D901235F
S214083E302FE07B681F2B13D8184B9A6901217B68E3
S214083E4001FA03F31A4001217B6801FA03F39A4248
S214083E501ED0124A01217B6801FA03F3136117E0AA
S214083E607B68203B7B600D4BD3F8082101217B68DB
S214083E7001FA03F31A4001217B6801FA03F39A4218
S214083E8006D0064A01217B6801FA03F3C2F800311E
S214083E90002318460C37BD4680BC704700060E4007
S214083EA080B483B000AF78607B68072B25D801A262
S214083EB052F823F0D53E0800DB3E0800E13E080035
S214083EC0E73E0800EB3E0800EF3E0800F33E080019
S214083ED0F73E08004FF4FA4310E04FF400430DE0B5
S214083EE04FF400430AE0084B08E0084B06E0084B8E
S214083EF004E0074B02E0064B00E0002318460C37A8
S214083F00BD4680BC704700BF00093D0000127A001D
S214083F10001BB70080B500AF0620044B9847024642
S214083F201346DB009B1A5B00184680BDA13E0800BE
S214083F3080B500AF024B984703465B08184680BD1D
S214083F40153F080080B582B000AF78607868034BEC
S214083F50984700BF0837BD4680BD00BF213E080011
S214083F6080B500AF0B20064B98470C20044B9847AB
S214083F700D20034B98470E20014B984700BF80BD85
S214083F80453F080080B489B000AF78607B68FB6165
S214083F90FB69BB61BB695A09FB697B617B6903F0F6
S214083FA01F03012101FA03F33A61FB603B69BB601A
S214083FB0BB6803F5001303F207735B021A46FB6837
S214083FC0536000BF2437BD4680BC704780B48DB0B0
S214083FD000AF786039607B68FB623B68BB62FB6A4F
S214083FE07B627B6A5A09FB6A3B623B6A03F01F03E3
S214083FF0012101FA03F3FA61BB61BB6A7B61FB69C5
S2140840003B613B6903F5001303F207735B02FB6031
S2140840107B6903F00803002B03D0FB68BA695A666D
S21408402002E0FB68BA691A667B6903F02003002B76
S21408403003D0FB68BA691A6502E0FB68BA695A6574
S2140840407B6903F0C003002B03D0FB68BA691A62C9
S21408405002E0FB68BA695A627B6903F08003002BAA
S21408406004D0FB68BA69C3F8842003E0FB68BA6921
S214084070C3F880207B6903F00103002B06D0FB6899
S2140840801A6FBB691A43FB681A6706E0FB681A6F63
S214084090BB69DB431A40FB681A6700BF3437BD4666
S2140840A080BC704780B48DB000AF78600B46FB705C
S2140840B07B68FB62FB7887F82B30FB6A7B627B6A3F
S2140840C03B623B6A5B09FB61FB6903F5001303F27D
S2140840D007735B02BB6197F82B30012B09D1FB6A8B
S2140840E07B617B6903F01F0301229A40BB691A6152
S2140840F00CE097F82B30002B08D1FB6A3B613B6934
S21408410003F01F0301229A40BB695A61FB6AFB60F1
S214084110FB6803F01F0301229A40BB69C3F8A0207E
S21408412000BF3437BD4680BC704780B48BB000AF44
S21408413078600B46FB707B687B62FB7887F82330D9
S2140841407B6AFB61FB69BB61BB695B097B617B6959
S21408415003F5001303F207735B023B6197F82330FD
S214084160002B09D07B6AFB60FB6803F01F03012263
S2140841709A403B691A6308E07B6ABB60BB6803F039
S2140841801F0301229A403B695A6300BF2C37BD467D
S21408419080BC704780B584B000AFA64B4FF4004291
S2140841A05A60A54B984701216A20A44B98470021DE
S2140841B06A20A34B984701216720A04B9847002107
S2140841C067209F4B9847012168209C4B9847002101
S2140841D068209B4B984701216920984B98470021F7
S2140841E06920974B984701216620944B98470021F1
S2140841F06620934B984700216020904B984788216B
S2140842006020904B9847002161208C4B9847882166
S21408421061208C4B984700216220884B984788215C
S2140842206220884B984700216320844B9847882152
S2140842306320844B984700216420804B9847882148
S2140842406420804B9847002165207C4B984788213E
S21408425065207C4B9847012142207A4B984742209C
S214084260794B984701214320764B98474320764B55
S214084270984701214420734B98474420724B98472F
S214084280012145206F4B984745206F4B98470121E1
S21408429046206C4B984746206B4B98470121472091
S2140842A0684B98474720684B984701215520654B2F
S2140842B098475520644B9847012120205F4B984724
S2140842C0012120205E4B9847002158205B4B9847D9
S2140842D000215920594B984700215A20574B984798
S2140842E000215B20554B984700215C20534B98478C
S2140842F000215D20514B984700215E204F4B984780
S214084300002150204D4B9847002151204B4B984791
S21408431000215220494B984700215320474B984785
S21408432000215420454B984700215620434B984778
S21408433000215720414B9847002141203F4B984782
S21408434000214A203D4B984700214B203B4B98477D
S21408435000214C20394B984700214D20374B984771
S21408436000214E20354B984700214F20334B984765
S21408437001210120314B984701210120304B9847F5
S214084380002108202D4B9847002109202B4B9847E1
S21408439000210720294B984700210520274B9847DE
S2140843A000210020254B984700211120254B9847CF
S2140843B01120254B984700211220224B984712209F
S2140843C0214B9847002119201E4B984719201E4B51
S2140843D0984700211A201B4B98471A201A4B9847D3
S2140843E000211B20174B98471B20174B9847002186
S2140843F01C20144B98471C20134B984700210C2070
S214084400104B98470C20104B984700210D200D4B59
S21408441098470D200C4B984700211020094B9847C9
S2140844201020094B984700210E20064B98470E206F
S2140844300CE000BF501A0E40613F0800A540080077
S2140844402B410800CD3F0800853F0800254B9847BC
S21408445000211420244B98471420224B984700210B
S2140844601320214B984713201E4B984700211520F0
S2140844701D4B984715201B4B9847002116201A4BB2
S21408448098471620174B984700211720164B984731
S2140844901720144B984700211820134B98471820CC
S2140844A0104B98472420114B984700211048114B71
S2140844B0984701210E480F4B984702210C480D4B90
S2140844C098470D4B7B600023BB600C4B9847034610
S2140844D0FB603B1D19460648094B984700BF103736
S2140844E0BD4680BD853F0800CD3F0800213E080038
S2140844F00040094015060800002D3101313F08002C
S214084500E902080080B400AFFEE7000080B582B07C
S21408451000AF1E4B7B601E4B3B607A683B689A4236
S2140845200CD007E03B681A1D3A607A68111D79605E
S21408453012681A603B68174A9342F3D3164B3B60DF
S21408454004E03B681A1D3A6000221A603B68134A6A
S2140845509342F6D3124B7B60124A7B6823F0604383
S21408456023F07F0393607B68B3F1005F09D37B6811
S2140845700D4A934205D80B4A0A4B9B6843F00053F2
S21408458093600A4B98470A4B9847FEE73C9F0800FB
S21408459000000720500B0720500B072008100720A4
S2140845A00000080000ED00E0FFFF0F20C5590800D6
S2140845B08549080080B400AF574B1B6B03F0030314
S2140845C0032B00F28A8001A252F823F0DD4508008A
S2140845D0FD4508004D4608004D4608004F4B5B69F0
S2140845E003F08003002B04D04D4B4FF400421A60B2
S2140845F073E04B4B4FF4FA421A606EE0464B1B6A68
S21408460003F08073002B03D0454B464A1A6064E0DB
S214084610434B454A1A60404B1B6A03F07003102B45
S21408462004D0202B08D0002B0ED00EE03C4B1B6885
S2140846305B003B4A136008E0394B1A6813465B0078
S2140846401344374A136000E000BF46E0324B1B6A4B
S21408465003F08073002B03D0314B324A1A601CE0FB
S2140846602F4B314A1A602C4B1B6A03F07003102B31
S21408467004D0202B08D0002B0ED00EE0284B1B6849
S2140846805B00274A136008E0254B1A6813465B0050
S2140846901344234A136000E000BF1F4B1B6B03F054
S2140846A00303022B15D11C4B9B6A1B0CC3F30A038E
S2140846B001331B4A126802FB03F3194A1360164BB0
S2140846C09B6ADBB2164A1268B2FBF3F3144A13600D
S2140846D002E0134B154A1A6000BF0F4B1B6B03F022
S2140846E07003702B08D10E4B1B68114AA2FB0323DC
S2140846F05B080B4A13600AE0074B1B6B1B0903F0A9
S2140847000703074A126822FA03F3054A136000BF34
S214084710BD4680BC704700BF00060E40101A0E400B
S2140847209C010720001BB70000093D00001C4E0E28
S214084730ABAAAAAA80B485B000AF7860104BFB601D
S214084740104B1B68002B02D10E4B0F4A1A600D4BFC
S2140847501B68BB60BA687B681A44FB689A4202DD2D
S2140847604FF0FF3306E0074B1A687B681344054A88
S2140847701360BB6818461437BD4680BC704700BF38
S214084780FC7F0820D40D07200830072080B483B0AB
S21408479000AF03463960FB7197F90730002B0BDA38
S2140847A00D49FB7903F00F03043B3A68D2B21201B5
S2140847B0D2B20B441A7609E0084997F907303A68E6
S2140847C0D2B21201D2B20B4483F8002300BF0C37D2
S2140847D0BD4680BC704700BF00ED00E000E100E089
S2140847E080B582B000AF78607B68013BB3F1807F0C
S2140847F001D301230FE00A4A7B68013B53600F216F
S2140848004FF0FF30074B9847054B00229A60044B41
S21408481007221A60002318460837BD4680BD00BF29
S21408482010E000E08D47080080B483B000AF7860E1
S2140848307B68072B25D801A252F823F05D480800AC
S21408484063480800694808006F480800734808006D
S214084850774808007B4808007F4808004FF4FA436A
S21408486010E04FF400430DE04FF400430AE0084B15
S21408487008E0084B06E0084B04E0074B02E0064B4E
S21408488000E0002318460C37BD4680BC704700BFC2
S21408489000093D0000127A00001BB70080B500AF83
S2140848A00620044B984702461346DB009B1A5B001B
S2140848B0184680BD2948080080B500AF024B9847C7
S2140848C003465B08184680BD9D48080080B48BB038
S2140848D000AF78600B46FB707B687B62FB7887F8D6
S2140848E023307B6AFB61FB69BB61BB695B097B6143
S2140848F07B6903F5001303F207735B023B6197F8C5
S2140849002330002B09D07B6AFB60FB6803F01F038B
S21408491001229A403B691A6308E07B6ABB60BB6861
S21408492003F01F0301229A403B695A6300BF2C37E5
S214084930BD4680BC704780B489B000AF78607B689D
S214084940FB61FB69BB61BB697B617B695B093B619A
S2140849503B6903F5001303F207735B02DA6BFB6926
S214084960FB60FB6803F01F03012101FA03F3134001
S214084970002B14BF01230023DBB218462437BD469C
S21408498080BC704780B582B000AF1C4B98471C4B64
S21408499098471C4B984702461B4BA3FB02239B09D0
S2140849A018461A4B98471A4B98471A4B98471A4B6B
S2140849B098471A4B98471A4B98471A4B98471A4BDA
S2140849C098471A4B98471A4B1B7803F00103DBB23B
S2140849D0002B04D001216820164B984703E00021DD
S2140849E06820144B9847144B9847144B984703462F
S2140849F0FB71FB791846124B9847E0E72D390800FB
S214084A0095410800B9480800D34D6210E1470800F0
S214084A10552E0800250C0800FD1608003D1908004C
S214084A20454A08003D300800A134080095350800BE
S214084A30240E0720F94B0800E50F0800912A080005
S214084A40811F080080B582B000AF72E05E4B9847C1
S214084A5002465E4B1B6803F548739A421AD35A4BB4
S214084A6098470246594B1A60594B1B78002B03D0BF
S214084A70574B00221A7002E0554B01221A70544B0D
S214084A801B78002B14BF01230023DBB219466620CF
S214084A90504B98474C4B984702464F4B1B6803F5BC
S214084AA0FA739A4215D3484B984702464A4B1A60FF
S214084AB04A4B1B78022B06D8484B1B780133DAB2D0
S214084AC0464B1A7002E0454B00221A70444B0122EE
S214084AD01A70434B1B78002B2BD0414B00221A70C0
S214084AE03E4B1B78032B23D801A252F823F000BFB5
S214084AF0014B08000D4B0800194B0800254B080011
S214084B00384A02210220384B984712E0374A0E21CD
S214084B100220354B98470CE0344A0F210220324BCE
S214084B20984706E0314A102102202F4B984700E0AC
S214084B3000BF08202E4B9847034683F00103DBB2DC
S214084B40002B06D062202A4B98470346002B7FF49A
S214084B507DAF00237B6030E001216A201D4B98471B
S214084B60012166201B4B984701216720194B98475F
S214084B7001216820174B984701216920154B984753
S214084B8064201C4B984700216A20124B9847002146
S214084B906620104B9847002167200E4B9847002147
S214084BA068200C4B9847002169200A4B98476420D8
S214084BB0104B98477B6801337B607B68022BCBDD04
S214084BC000BF0837BD4680BD61340800D80F0720EF
S214084BD0D40F0720CD480800DC0F0720D80D072083
S214084BE0A0010720709C08002D1A0800809C080069
S214084BF0374908007534080080B582B000AF786081
S214084C000B46FB700B4B1B78002B0AD0FB78002B4F
S214084C1014BF01230023DBB219467868064B984771
S214084C2003E000217868044B984700BF0837BD4664
S214084C3080BD00BF8D010720CD48080081F00041E7
S214084C4002E000BF83F0004330B54FEA41044FEA64
S214084C50430594EA050F08BF90EA020F1FBF54EAFF
S214084C60000C55EA020C7FEA645C7FEA655C00F09B
S214084C70E2804FEA5454D4EB5555B8BF6D420CDD6C
S214084C802C4480EA020281EA030382EA000083EAEF
S214084C90010180EA020281EA0303362D88BF30BD8F
S214084CA011F0004F4FEA01314FF4801C4CEA1131E5
S214084CB002D0404261EB410113F0004F4FEA033344
S214084CC04CEA133302D0524263EB430394EA050FCF
S214084CD000F0A780A4F10104D5F1200E0DDB02FA3E
S214084CE00EFC22FA05F2801841F1000103FA0EF2D2
S214084CF0801843FA05F359410EE0A5F120050EF198
S214084D00200E012A03FA0EFC28BF4CF0020C43FAC8
S214084D1005F3C01851EBE37101F0004507D54FF0D5
S214084D20000EDCF1000C7EEB00006EEB0101B1F525
S214084D30801F1BD3B1F5001F0CD349085FEA30006B
S214084D404FEA3C0C04F101044FEA445212F5800F76
S214084D5080F09A80BCF1004F08BF5FEA500C50F113
S214084D60000041EB045141EA050130BD5FEA4C0CF6
S214084D70404141EB010111F4801FA4F10104E9D17F
S214084D8091F0000F04BF01460020B1FA81F308BF76
S214084D902033A3F10B03B3F120020CDA0C3208DD42
S214084DA002F1140CC2F10C0201FA0CF021FA02F11D
S214084DB00CE002F11402D8BFC2F1200C01FA02F18D
S214084DC020FA0CFCDCBF41EA0C019040E41AA2BFB2
S214084DD001EB0451294330BD6FEA04041F3C1CDA7A
S214084DE00C340EDC04F11404C4F1200220FA04F09A
S214084DF001FA02F340EA030021FA04F345EA030144
S214084E0030BDC4F10C04C4F1200220FA02F001FA05
S214084E1004F340EA0300294630BD21FA04F0294687
S214084E2030BD94F0000F83F4801306BF81F4801120
S214084E300134013D4EE77FEA645C18BF7FEA655C93
S214084E4029D094EA050F08BF90EA020F05D054EA65
S214084E50000C04BF1946104630BD91EA030F1EBF6A
S214084E600021002030BD5FEA545C05D1400049416E
S214084E7028BF41F0004130BD14F580043CBF01F561
S214084E80801130BD01F0004545F0FE4141F4700147
S214084E904FF0000030BD7FEA645C1ABF1946104622
S214084EA07FEA655C1CBF0B46024650EA013406BF23
S214084EB052EA033591EA030F41F4002130BD00BFE2
S214084EC090F0000F04BF0021704730B54FF480649F
S214084ED004F132044FF000054FF0000150E700BF20
S214084EE090F0000F04BF0021704730B54FF480647F
S214084EF004F1320410F0004548BF40424FF000016C
S214084F003EE700BF42004FEAE2014FEA31014FEAAE
S214084F1002701FBF12F07F4393F07F4F81F06051FD
S214084F20704792F0000F14BF93F07F4F704730B56C
S214084F304FF4607401F0004521F0004120E700BFFF
S214084F4050EA010208BF704730B54FF000050AE086
S214084F5050EA010208BF704730B511F0004502D587
S214084F60404261EB41014FF4806404F132045FEA89
S214084F70915C3FF4DCAE4FF003025FEADC0C18BF2E
S214084F8003325FEADC0C18BF033202EBDC02C2F124
S214084F90200300FA03FC20FA02F001FA03FE40EAB6
S214084FA00E0021FA02F11444C1E600BF70B54FF0B6
S214084FB0FF0C4CF4E06C1CEA11541DBF1CEA135598
S214084FC094EA0C0F95EA0C0F00F0DEF82C4481EA00
S214084FD0030621EA4C5123EA4C5350EA013518BF20
S214084FE052EA033541F4801143F4801338D0A0FB0D
S214084FF002CE4FF00005E1FB02E506F00042E0FBBA
S21408500003E54FF00006E1FB03569CF0000F18BFBF
S2140850104EF0010EA4F1FF04B6F5007F64F5407467
S21408502004D25FEA4E0E6D4146EB060642EAC621FA
S21408503041EA55514FEAC52040EA5E504FEACE2E67
S214085040B4F1FD0C88BFBCF5E06F1ED8BEF1004F6A
S21408505008BF5FEA500E50F1000041EB045170BDE6
S21408506006F0004646EA010140EA020081EA03012A
S214085070B4EB5C04C2BFD4EB0C0541EA045170BD26
S21408508041F480114FF0000E013C00F3AB8014F1A0
S214085090360FDEBF002001F0004170BDC4F10004E9
S2140850A0203C35DA0C341BDC04F11404C4F120056A
S2140850B000FA05F320FA04F001FA05F240EA0200C5
S2140850C001F0004221F0004110EBD37021FA04F6FB
S2140850D042EB06015EEA430E08BF20EAD37070BDB5
S2140850E0C4F10C04C4F1200500FA04F320FA05F014
S2140850F001FA04F240EA020001F0004110EBD37016
S21408510041F100015EEA430E08BF20EAD37070BD85
S214085110C4F1200500FA05F24EEA020E20FA04F35E
S21408512001FA05F243EA020321FA04F001F000410D
S21408513021FA04F220EA020000EBD3705EEA430E7E
S21408514008BF20EAD37070BD94F0000F0FD101F0AD
S2140851500046400041EB010111F4801F08BF013CE6
S214085160F7D041EA060195F0000F18BF704703F024
S2140851700046520043EB030313F4801F08BF013DAB
S214085180F7D043EA0603704794EA0C0F0CEA135567
S21408519018BF95EA0C0F0CD050EA410618BF52EA21
S2140851A04306D1D181EA030101F000414FF0000027
S2140851B070BD50EA410606BF1046194652EA430635
S2140851C019D094EA0C0F02D150EA013613D195EAA9
S2140851D00C0F05D152EA03361CBF104619460AD1F1
S2140851E081EA030101F0004141F0FE4141F47001FB
S2140851F04FF0000070BD41F0FE4141F4780170BDEB
S21408520070B54FF0FF0C4CF4E06C1CEA11541DBF4F
S2140852101CEA135594EA0C0F95EA0C0F00F0A7F851
S214085220A4EB050481EA030E52EA03354FEA01317E
S21408523000F088804FEA03334FF0805545EA131391
S21408524043EA12634FEA022245EA111545EA106559
S2140852504FEA00260EF000419D4208BF964244F1F0
S214085260FD0404F5407402D25B084FEA3202B61A0F
S21408527065EB03055B084FEA32024FF480104FF4E3
S214085280002CB6EB020E75EB030E22BFB61A754657
S21408529040EA0C005B084FEA3202B6EB020E75EBEA
S2140852A0030E22BFB61A754640EA5C005B084FEA52
S2140852B03202B6EB020E75EB030E22BFB61A75461F
S2140852C040EA9C005B084FEA3202B6EB020E75EB2A
S2140852D0030E22BFB61A754640EADC0055EA060EEB
S2140852E018D04FEA051545EA16754FEA06164FEA2E
S2140852F0C30343EA52734FEAC2025FEA1C1CC0D1DA
S21408530011F4801F0BD141EA00014FF000004FF066
S214085310004CB6E711F4801F04BF01430020B4F127
S214085320FD0C88BFBCF5E06F3FF6AFAEB5EB030CDF
S21408533004BFB6EB020C5FEA500C50F1000041EBDC
S214085340045170BD0EF0004E4EEA113114EB5C04A9
S214085350C2BFD4EB0C0541EA045170BD41F480117C
S2140853604FF0000E013C90E645EA060E8DE60CEA84
S214085370135594EA0C0F08BF95EA0C0F3FF43BAFA1
S21408538094EA0C0F0AD150EA01347FF434AF95EA58
S2140853900C0F7FF425AF104619462CE795EA0C0F3C
S2140853A006D152EA03353FF4FDAE1046194622E709
S2140853B050EA410618BF52EA43067FF4C5AE50EAE3
S2140853C041047FF40DAF52EA43057FF4EBAE12E7D3
S2140853D080F0004002E000BF81F0004142001FBF9D
S2140853E05FEA410392EA030F7FEA226C7FEA236CA6
S2140853F06AD04FEA1262D2EB1363C1BFD21841409B
S21408540048404140B8BF5B42192B88BF704710F030
S214085410004F40F4000020F07F4018BF404211F0D3
S214085420004F41F4000121F07F4118BF494292EA3B
S214085430030F3FD0A2F1010241FA03FC10EB0C0067
S214085440C3F1200301FA03F100F0004302D54942F4
S21408545060EB4000B0F5000F13D3B0F1807F06D3A1
S21408546040084FEA310102F10102FE2A51D2B1F199
S214085470004F40EBC25008BF20F0010040EA03008E
S2140854807047490040EB000010F4000FA2F101023B
S214085490EDD1B0FA80FCACF1080CB2EB0C0200FAC5
S2140854A00CF0AABF00EBC25052421843BCBFD04013
S2140854B01843704792F0000F81F4000106BF80F48D
S2140854C000000132013BB5E74FEA41037FEA226C50
S2140854D018BF7FEA236C21D092EA030F04D092F01B
S2140854E0000F08BF0846704790EA010F1CBF00204F
S2140854F0704712F07F4F04D1400028BF40F00040AC
S214085500704712F100723CBF00F50000704700F0CB
S214085510004343F0FE4040F4000070477FEA2262F2
S21408552016BF08467FEA23630146420206BF5FEAC3
S214085530412390EA010F40F4800070474FF00003C3
S21408554004E000BF10F0004348BF40425FEA000C8A
S21408555008BF704743F0964301464FF000001CE032
S21408556050EA010208BF70474FF000030AE000BF88
S21408557050EA010208BF704711F0004302D54042C6
S21408558061EB41015FEA010C02BF84460146002038
S21408559043F0B64308BFA3F18053A3F50003BCFA53
S2140855A08CF2083AA3EBC25310DB01FA02FC634400
S2140855B000FA02FCC2F12002BCF1004F20FA02F207
S2140855C043EB020008BF20F00100704702F12002FA
S2140855D001FA02FCC2F1200250EA4C0021FA02F25B
S2140855E043EB020008BF20EADC7070474FF0FF0C60
S2140855F01CEAD0521EBF1CEAD15392EA0C0F93EA5B
S2140856000C0F6FD01A4480EA010C400218BF5FEAFC
S21408561041211ED04FF0006343EA501043EA51116F
S214085620A0FB01310CF00040B1F5000F3EBF490069
S21408563041EAD3715B0040EA010062F17F02FD2A6D
S2140856401DD8B3F1004F40EBC25008BF20F0010050
S214085650704790F0000F0CF0004C08BF49024CEA67
S214085660502040EA51207F3AC2BFD2F1FF0340EAF9
S214085670C250704740F400004FF00003013A5DDC6A
S21408568012F1190FDCBF00F000407047C2F10002AB
S214085690410021FA02F1C2F1200200FA02FC5FEA98
S2140856A0310040F1000053EA4C0308BF20EADC70E2
S2140856B0704792F0000F00F0004C02BF400010F454
S2140856C0000F013AF9D040EA0C0093F0000F01F001
S2140856D0004C02BF490011F4000F013BF9D041EA23
S2140856E00C018FE70CEAD15392EA0C0F18BF93EA25
S2140856F00C0F0AD030F0004C18BF31F0004CD8D14F
S21408570080EA010000F00040704790F0000F17BFD5
S21408571090F0004F084691F0000F91F0004F14D01B
S21408572092EA0C0F01D142020FD193EA0C0F03D173
S2140857304B0218BF084608D180EA010000F0004076
S21408574040F0FE4040F40000704740F0FE4040F451
S214085750400070474FF0FF0C1CEAD0521EBF1CEAF0
S214085760D15392EA0C0F93EA0C0F69D0A2EB03020E
S21408577080EA010C49024FEA402037D04FF08053A8
S21408578043EA111143EA10130CF000408B4238BF6D
S2140857905B0042F17D024FF4000C8B4224BF5B1A7B
S2140857A040EA0C00B3EB510F24BFA3EB510340EAC9
S2140857B05C00B3EB910F24BFA3EB910340EA9C0077
S2140857C0B3EBD10F24BFA3EBD10340EADC001B01E7
S2140857D018BF5FEA1C1CE0D1FD2A3FF650AF8B428B
S2140857E040EBC25008BF20F0010070470CF0004C98
S2140857F04CEA50207F32C2BFD2F1FF0340EAC250C3
S214085800704740F400004FF00003013A37E792F083
S214085810000F00F0004C02BF400010F4000F013AE1
S214085820F9D040EA0C0093F0000F01F0004C02BFDC
S214085830490011F4000F013BF9D041EA0C0195E745
S2140858400CEAD15392EA0C0F08D142027FF47DAFDE
S21408585093EA0C0F7FF470AF084676E793EA0C0FCE
S21408586004D14B023FF44CAF08466EE730F0004CCC
S21408587018BF31F0004CCAD130F000427FF45CAF5C
S21408588031F000437FF43CAF5FE700BF4FF0FF3CCA
S21408589006E000BF4FF0010C02E000BF4FF0010C1D
S2140858A04DF804CD4FEA40024FEA41037FEA226CE6
S2140858B018BF7FEA236C11D001B052EA530C18BF08
S2140858C090EA010F58BFB2EB030088BFC81738BF6D
