:0200000280007C
:10000000F82F0720293F0800213F0800213F080062
:10001000213F0800213F0800213F080000000000A8
:10002000000000000000000000000000213F080068
:10003000213F080000000000213F0800992E080021
:10004000213F0800213F0800213F0800213F080010
:10005000213F0800213F0800213F0800213F080000
:10006000213F0800213F080000000000213F080058
:10007000213F0800213F0800213F08000000000048
:1000800000000000213F0800213F0800213F080038
:10009000213F0800213F0800ED100800213F080023
:1000A000213F080000000000213F0800213F080018
:1000B000892B0800213F0800213F0800213F08004C
:1000C000213F0800213F0800213F0800213F080090
:1000D000213F0800213F0800213F0800450C08008F
:1000E000213F0800213F0800213F0800213F080070
:1000F000213F080010B5054C237833B9044B13B1E8
:100100000448AFF300800123237010BD500B07207B
:1001100000000000E49808000C4B43B10C4810B5F7
:100120000C49AFF300800C48036823B910BD0A489E
:10013000036833B97047094B002BF7D0BDE8104076
:100140001847064B002BF5D0184700BF00000000F1
:10015000E4980800540B0720E49808000000000011
:1001600080B582B000AF78607868044B98477868B3
:10017000034B984700BF0837BD4680BDA108080063
:10018000E908080080B582B000AF78607868044B59
:1001900098477868034B984700BF0837BD4680BD35
:1001A000B90808000109080080B485B000AFF86004
:1001B000B9607A60BB68002B07D0BB681A68FB681F
:1001C0009A60BB685A68FB68DA607B68002B07D0CE
:1001D0007B681A68FB689A617B685A68FB68DA6119
:1001E00000BF1437BD4680BC704780B485B000AFF7
:1001F000F860B9607A60BB68002B07D0BB681A68EA
:10020000FB681A60BB685A68FB685A607B68002B01
:1002100007D07B681A68FB681A617B685A68FB68BC
:100220005A6100BF1437BD4680BC704780B483B0AC
:1002300000AF786039603A6840F2011313407A6881
:10024000136200BF0C37BD4680BC704780B483B0DA
:1002500000AF786039603A6840F2022313407A6850
:10026000136200BF0C37BD4680BC7047B0B491B07C
:1002700000AF786039601B4B07F10C041D460FCDB1
:100280000FC40FCD0FC495E8070084E807000023D2
:10029000FB63FB6B9B0007F14002134453F8343CB3
:1002A0003A68B2FBF3F27B68B2FBF3F3BB63BB6B60
:1002B000B3F5807F06D9FB6B0133FB63FB6B0A2B25
:1002C000E7D900E000BFFB6B0A2B04D8FB6B1A02D6
:1002D000BB6B134301E04FF6FF7318464437BD462E
:1002E000B0BC7047DC94080080B584B000AF786083
:1002F00039600023FB603B681B68002B11D03B6812
:100300001A683B689B6819461046164B9847B860B8
:10031000BB684FF6FF72934201D1BB681EE0BB6819
:10032000FB603B685B68002B14D03B685A683B68F5
:100330009B68194610460B4B9847B860BB684FF650
:10034000FF72934201D1BB6808E0BB681B04FA68E6
:100350001343FB607B68FA681A6000231846103765
:10036000BD4680BD6D02080080B487B000AF7860E4
:10037000396000237B613B681B683B613B685B68BD
:1003800003F00F033A68927A520213433A68928A52
:1003900013433A68927D120413433A68D27D5204A3
:1003A00013433A68127E920413433A681289134346
:1003B0007B617A683B6910335B0113447A691A6088
:1003C0003B68DA6879683B6910335B010B4404339E
:1003D0001A603B681A6979683B695B010B4403F555
:1003E00003731A603B689B7D002B0DD03B689B8B91
:1003F0001B041A463B685B8B1A4379683B695B01B7
:100400000B4403F506731A607B689A6C4FF0011178
:100410003B6901FA03F3DB4313407B613B689B7F3D
:100420001A463B699A403B68DB7F19463B6901FAF3
:1004300003F31B0413431A467B6913437B617B68F8
:100440007A699A647B685A6C4FF001113B6901FA32
:1004500003F3DB4313407B613B6893F820301A467B
:100460003B699A403B6893F8213019463B6901FA91
:1004700003F31B0413431A467B6913437B617B68B8
:100480007A695A6401223B6902FA03F3FB603B6814
:1004900093F82230002B06D07B681A6AFB681A4357
:1004A0007B681A6206E07B681A6AFB68DB431A40C5
:1004B0007B681A623B6893F82430012B09D17B6872
:1004C0009B6E01213A6901FA02F21A437B689A662F
:1004D00009E07B689B6E01213A6901FA02F2D2437E
:1004E0001A407B689A663B6893F82530012B0AD145
:1004F0007B689B6E01213A6901FA02F212041A43E9
:100500007B689A660AE07B689B6E01213A6901FA72
:1005100002F21204D2431A407B689A660023BB6041
:100520003B69032B1DD83B69DB003B617B68DB6EBD
:10053000BB60FF223B6902FA03F3DB431A46BB6848
:100540001340BB603B6893F823301A463B6902FABC
:1005500003F31A46BB681343BB607B68BA68DA666C
:100560001FE03B69043B3B613B69DB003B617B680F
:100570001B6FBB60FF223B6902FA03F3DB431A46A1
:10058000BB681340BB603B6893F823301A463B6955
:1005900002FA03F31A46BB681343BB607B68BA6870
:1005A0001A67002318461C37BD4680BC704780B4CC
:1005B00087B000AFF860B9607A60BB681B687B6188
:1005C000BB681A697B689A4202D24FF6FF730BE050
:1005D000BB687A68DA60FA687B695B01134403F5EB
:1005E00002737A681A60002318461C37BD4680BC27
:1005F000704780B483B000AF7860396001223B68F7
:1006000002FA03F31A467B685A6000BF0C37BD46F6
:1006100080BC704780B483B000AF7860396001223D
:100620003B6802FA03F31A467B689A6000BF0C37F6
:10063000BD4680BC704780B487B000AFF860B96039
:100640007A60FA68BB689B0113447B617B69022274
:100650001A607B694FF0FF329A627B691B6A7B6983
:100660007A685A6000BF1C37BD4680BC704780B4B2
:1006700083B000AF786039607A683B689B011344AF
:1006800005221A6000BF0C37BD4680BC704780B49D
:1006900085B000AFF860B9607A60FA68BB689B010A
:1006A00013441C337A681A6000BF1437BD4680BCFF
:1006B000704780B487B000AFF860B9607A60FA68BC
:1006C000BB689B0113447B617B697A685A6200BFF7
:1006D0001C37BD4680BC704780B485B000AF7860E1
:1006E00039607A683B689B011344FB60FB681B6AB6
:1006F00018461437BD4680BC704780B487B000AF41
:10070000F860B9607A60BB685A087B681A44BB68B5
:10071000B2FBF3F37B617B69032B03D97B69B3F5F0
:10072000803F01D3012303E0FB687A691A6200234A
:1007300018461C37BD4680BC7047000080B582B0AB
:1007400000AF786078680D4B98477B6800225A604C
:100750007B6800225A627B6800229A627868084BA4
:1007600098477868074B98477868074B98477868A8
:10077000064B984700BF0837BD4680BD9909080061
:10078000D108080019090800310908004B090800C0
:1007900080B584B000AFF860B9607A60F8683D4B0E
:1007A00098473D4B00221A60BB68002B0DD0BB68F8
:1007B0009B68032B09D8BB681B687A681946F868E0
:1007C000364B98470346002B01D001235DE0BB6800
:1007D0005A68314B1B6813432F4A1360BB68DA68B1
:1007E0002D4B1B68134343F4802343F00E032A4A26
:1007F0001360BB689B68032B3ED801A252F823F01C
:10080000110808002B080800450808005F080800C8
:10081000214B1B6843F480731F4A13601E4B1B68F7
:1008200023F480331C4A136027E01B4B1B6823F41E
:100830008073194A1360184B1B6823F48033164ADF
:1008400013601AE0144B1B6843F48073124A136060
:10085000114B1B6843F480330F4A13600DE00E4BBD
:100860001B6823F480730C4A13600B4B1B6843F422
:100870008033094A136000E000BFFB685A68064BEA
:100880001B681A43FB685A60002318461037BD46A0
:1008900080BD00BF3D0708006C0B0720FB06080069
:1008A00080B483B000AF78607B6840221A6000BFDC
:1008B0000C37BD4680BC704780B483B000AF786011
:1008C0007B6880221A6000BF0C37BD4680BC704731
:1008D00080B483B000AF78607B6888221A6000BF64
:1008E0000C37BD4680BC704780B483B000AF7860E1
:1008F0007B6810221A6000BF0C37BD4680BC704771
:1009000080B483B000AF78607B6820221A6000BF9B
:100910000C37BD4680BC704780B483B000AF7860B0
:100920007B6824221A6000BF0C37BD4680BC70472C
:1009300080B483B000AF78607B684FF480721A6037
:1009400000BF0C37BD4680BC704780B483B000AF99
:1009500078607B684FF400221A6000BF0C37BD46F8
:1009600080BC704780B483B000AF78607B684FF480
:1009700080221A6000BF0C37BD4680BC704780B42F
:1009800083B000AF78607B684FF400221A6000BF2C
:100990000C37BD4680BC704780B483B000AF786030
:1009A0007B68044AC3F8E42000BF0C37BD4680BC16
:1009B000704700BF0041535580B483B000AF034679
:1009C000FB71084997F907305B09FA7902F01F02B9
:1009D000012000FA02F241F8232000BF0C37BD4687
:1009E00080BC704700E100E080B483B000AF786065
:1009F0007B68072B25D801A252F823F01D0A0800B6
:100A0000230A0800290A08002F0A0800330A0800F0
:100A1000370A08003B0A08003F0A08004FF4FA436F
:100A200010E04FF400430DE04FF400430AE0084BA0
:100A300008E0084B06E0084B04E0074B02E0064BD9
:100A400000E0002318460C37BD4680BC704700BF4D
:100A500000093D0000127A00001BB70080B500AF0E
:100A60000620044B984702461346DB009B1A5B00A6
:100A7000184680BDE909080080B500AF024B9847D1
:100A800003465B08184680BD5D0A080080B500AFCC
:100A9000024B9847024B984700BF80BDB90B080036
:100AA000A50A080090B585B000AF01211048114B90
:100AB000984700210E480F4B984712200E4B98473D
:100AC0000E480F4B98470F4B3C460FCB84E80F0066
:100AD0000D4B984702463B46194608480B4B984732
:100AE00006480B4B984700BF1437BD4690BD00BF6A
:100AF00000400C40B73408007538080000C00940B9
:100B00008501080008950800790A08009107080087
:100B10006101080080B588B000AF786039601C487A
:100B20001C4B984701211C481C4B98477B68FB6075
:100B30001B4B3B613B687B611A4BBB610023FB6134
:100B400007F10C031A4601211348174B984701215E
:100B50001148164B984700210F48104B9847144BEB
:100B6000FB607B683B613B687B61124BBB61002390
:100B7000FB6107F10C031A46002107480A4B98470E
:100B800000210548094B984700BF2037BD4680BD6E
:100B900000C009406509080000400C40B734080057
:100BA0001CC0094000003120D135080099340800EC
:100BB00018C009400000510280B582B000AF272064
:100BC000184B98471848194B984710211648184B4E
:100BD00098471548174B984700237B607B6843F480
:100BE000813343F00E037B607A6800210E48124B7C
:100BF000984700237B607B6843F4903343F0D00335
:100C00007B607A68012108480B4B984727200B4BE3
:100C10009847012104480A4B984700BF0837BD4652
:100C200080BD00BF7538080000400C40F13308005B
:100C30000D34080033340800A7350800B90908004E
:100C40006934080080B500AF0B480C4B984702464A
:100C50000B4B1A600A4B1B6803F00103002B08D0F2
:100C60000848094B9847094B094A1188927819801E
:100C70009A7000BF80BD00BF00400C408334080064
:100C8000700B072000C009407F090800100E0720E4
:100C9000080E072080B483B000AF0346FB710849FB
:100CA00097F907305B09FA7902F01F02012000FA78
:100CB00002F241F8232000BF0C37BD4680BC7047CC
:100CC00000E100E080B483B000AF0346FB71094946
:100CD00097F907305B09FA7902F01F02012000FA48
:100CE00002F2603341F8232000BF0C37BD4680BCC0
:100CF000704700BF00E100E080B483B000AF7860CF
:100D00007B6808221A607B6820221A607B680422B4
:100D10001A6000BF0C37BD4680BC704780B584B0F8
:100D200000AF786039600023FB607B684FF0FF32D2
:100D30009A627B681B6A4FF0FF317868144B9847C2
:100D40007868144B98477868134B98473B68596804
:100D50003B681B681A467868104B98470346012B7E
:100D600001D10123FB603B685B7A012B02D17B68D8
:100D700040221A604FF450717868094B9847094B2C
:100D800000221A70FB6818461037BD4680BD00BFB0
:100D9000B712080019130800F90C0800A90D080083
:100DA0009D120800940D072080B489B000AFF86050
:100DB000B9607A600023FB61BB68344A934201D971
:100DC00001235DE0BB68324A934237D97B68314AE0
:100DD000A2FB03239B0B043B7B61BA682E4B13449D
:100DE0009B007A68B2FBF3F3043B3B6105E0FB69CF
:100DF0000133FB617B695B087B617B69FF2B09D950
:100E0000FB69062BF3D905E0FB690133FB613B6904
:100E10005B083B613B69FF2B02D9FB69062BF3D9C9
:100E20007B69DAB23B691B029BB21A43FB691B0464
:100E300003F4E0231A43FB681A6120E0BB685B00FF
:100E40007A68B2FBF3F3043BBB6105E0FB69013355
:100E5000FB61BB695B08BB61BB69FF2B02D9FB6906
:100E6000062BF3D9BB69DAB2BB691B029BB21A43EA
:100E7000FB691B0403F4E0231A43FB681A61002397
:100E800018462437BD4680BC704700BF801A060054
:100E900000DC0500F11976050012FD3F80B485B035
:100EA00000AF786039603B68002B01D100231DE062
:100EB0007B681B78FB603B68012B09DDFB681B022C
:100EC000FB607B6801331B781A46FB681343FB60A9
:100ED0003B68022B09DDFB681B02FB607B68023369
:100EE0001B781A46FB681343FB60FB6818461437EF
:100EF000BD4680BC7047000080B400AF024B1B7839
:100F00001846BD4680BC7047940D072080B400AFE2
:100F1000024B1846BD4680BC704700BF740B0720CB
:100F200080B400AF024B1846BD4680BC704700BF7E
:100F3000840C072080B584B000AF786039603B68CE
:100F4000D3F80831002B01D1012347E0254B0122C2
:100F50001A702548254B98477B6800225A603B68E9
:100F600093F80C311B0403F4FE023B685B681B0220
:100F700003F44073134343F480527B685A607B68E8
:100F80000022DA603A683B685B6819461046184BE5
:100F9000984702467B68DA603B680833BB603B6871
:100FA000D3F80831013BFB6007F108030022194622
:100FB0001048114B984701210E48104B98470A4B97
:100FC00001221A604FF4805178680D4B9847162023
:100FD0000C4B984716200C4B9847002318461037A7
:100FE000BD4680BD940D072000C0084001130800D5
:100FF0009D0E080000C10840EB0108002D0208000A
:101000009D120800C50C0800950C080080B584B03E
:1010100000AF786039603B68D3F80831002B01D10C
:10102000012340E0224B01221A703B680833BB6069
:101030003B68D3F80831013BFB6007F1080300224D
:1010400019461C481C4B98477B6800225A603B6835
:1010500093F80C311B0403F4FE023B685B681B022F
:1010600003F440731A437B685A607B680022DA609D
:101070003A683B685B6819461046104B9847024631
:101080007B68DA604FF480710A480D4B98474FF443
:10109000005178680B4B984716200B4B9847162049
:1010A0000A4B9847002318461037BD4680BD00BF45
:1010B000940D072000C10840A90108009D0E0800FA
:1010C0002D0208009D120800C50C0800950C0800B0
:1010D00080B483B000AF7860034A7B68136000BFC0
:1010E0000C37BD4680BC7047980D072090B583B083
:1010F00000AF5D485D4B984704465B485C4B9847A2
:10110000034623407B607B6803F40053002B14D01C
:101110004FF400715748584B98474FF400515248CC
:10112000564B984704215048554B98474E484F4BD3
:10113000984702467B6813437B607B6803F0040397
:10114000002B1AD0042148484C4B9847464B0222AA
:101150001A60454A4B4BD3F80831013B49490B44CF
:101160001B7A536301214048454B98473E483F4B0B
:10117000984702467B6813437B607B6803F001035A
:10118000002B14D0012138483C4B98473E4B1B683C
:10119000002B02D03C4B1B6898473C4B1B68002B34
:1011A00002D03A4B1B689847394B00221A707B6873
:1011B00003F48053002B16D002212E482E4B984763
:1011C0004FF4805128482D4B9847022126482C4B3C
:1011D0009847254B02221A602348244B9847024621
:1011E0007B6813437B607B6803F00203002B18D0FD
:1011F00002211D48214B9847264BD3F80831013B6B
:10120000194A126BD1B2234A13440A461A72224B6E
:101210001B68002B02D0204B1B6898471C4B0022F8
:101220001A707B6803F45073002B19D040F202212E
:101230001048114B98477B6803F48073002B02D150
:10124000094B02221A604FF4005107480B4B984794
:101250004FF480510448094B98470D4B00221A70F7
:1012600000BF0C37BD4690BD00C00840D512080035
:10127000EB12080000C108404D020800B712080038
:101280009D120800740B07209C0D0720980D072065
:10129000940D0720840C0720A00D072080B483B094
:1012A00000AF786039607B683A685A6200BF0C37DB
:1012B000BD4680BC704780B483B000AF78603960B1
:1012C0007B683A689A627B681B6A00BF0C37BD4630
:1012D00080BC704780B483B000AF78607B681B6AC5
:1012E00018460C37BD4680BC704780B483B000AF51
:1012F00078607B68DB6A18460C37BD4680BC704757
:1013000080B483B000AF78607B681B6BDBB218469B
:101310000C37BD4680BC704780B483B000AF7860A6
:101320007B6880221A607B681B6B00BF0C37BD4650
:1013300080BC704780B582B000AF1A4B9847786088
:10134000194B98470246194B1B68D31A212B26D9F3
:10135000174B98470346002B20D1134B9847024662
:10136000124B1A60134B01221A7079681248134B02
:1013700098470346002B04D100BF0E4B1B78002B6F
:10138000FBD17B681B7A1B021AB27B685B7A1BB2AB
:1013900013431BB29AB20A4B1A8000E000BF083711
:1013A000BD4680BD210F0800B52E0800BC0F0720E8
:1013B00021180800A40D072000C00840350F0800C0
:1013C0001C0E072080B400AF034B01221A7000BF2F
:1013D000BD4680BC704700BFA40D072080B400AF9D
:1013E000024B1B781846BD4680BC7047A40D0720F1
:1013F00080B483B000AF78607B68072B25D801A24A
:1014000052F823F0251408002B14080031140800AA
:10141000371408003B1408003F1408004314080068
:10142000471408004FF4FA4310E04FF400430DE076
:101430004FF400430AE0084B08E0084B06E0084B75
:1014400004E0074B02E0064B00E0002318460C378F
:10145000BD4680BC704700BF00093D0000127A0005
:10146000001BB70080B500AF0620044B984702462A
:101470001346DB009B1A5B00184680BDF113080081
:1014800080B500AF024B984703465B08184680BD05
:101490006514080080B582B000AF78607868034BAF
:1014A000984700BF0837BD4680BD00BF75380800AB
:1014B00080B582B000AF78603960104B9847024623
:1014C0003B681A603B6800225A727B680C4A934260
:1014D00003D116200B4B984706E07B680A4A9342DB
:1014E00002D11720074B984739687868074B98470F
:1014F000034618460837BD4680BD00BF811408006A
:1015000000C0084095140800000009401D0D0800A7
:1015100080B500AF2148224B98470C22002121487A
:10152000214B98471F4B214A5A60214B00221A70C9
:10153000032100201F4B984706201F4B984703218B
:1015400000201C4B984706201B4B98470321002086
:10155000184B98470620184B984702210020154B3E
:10156000984728210020154B984708210020134B4D
:10157000984701210020114B984703200E4B9847B4
:10158000062100200D4B98470C2100200B4B98475B
:10159000074B08221A7000BF80BD00BF851A0800E3
:1015A000D1100800B00D072021540800A0860100CA
:1015B000A50D072035180800C92E08004519080098
:1015C00080B483B000AF0346FB71044AFB7913700B
:1015D00000BF0C37BD4680BC704700BFA50D07207B
:1015E00080B500AF01210020034B98470320034B37
:1015F000984700BF80BD00BF45190800C92E0800EC
:1016000090B587B000AF03463A60FB710B46BB71E3
:10161000754B9847386119E0744B98470246744BF4
:101620001B68D31A0A2B11D9724B00221A70724B05
:101630001B680133704A136040F202216F48704BFF
:10164000984770497048714B984709E0704B98472C
:1016500003461A46674B1B781343DBB2002BDBD1E2
:101660003B69272283F80C213B6900221A703B69F1
:1016700000225A60FB79032B06D0042B07D0022BE3
:1016800008D1C023FB7508E09423FB7505E0D42343
:10169000FB7502E08023FB7500BFFA7DBB79134424
:1016A000FB755C4B1B78FB73FB7D23F00F03DAB2F9
:1016B000FB7B1343DBB243F00403DAB23B691A72DB
:1016C00097F9173023F00F035AB297F90F301343ED
:1016D0005BB2DAB23B695A72FB7D1B01DAB2FB7B6B
:1016E0001343DBB243F00403DAB23B699A72FB7D29
:1016F0001B015AB297F90F3013435BB2DAB23B6960
:10170000DA72444B1B7843F00103FB730023BB7573
:101710004BE0BB7D3A6813441B78BB73BB7D013340
:101720009B00BA7B22F00F02D1B2FA7B0A43D2B2FD
:1017300042F00402D1B23A6913440A461A72BB7DE0
:1017400001339B00013397F90E2022F00F0251B2B2
:1017500097F90F200A4352B2D1B23A6913440A46AC
:101760001A72BB7D01339B000233BA7B1201D1B2E6
:10177000FA7B0A43D2B242F00402D1B23A6913446E
:101780000A461A72BB7D01339B000333BA7B1201F8
:1017900051B297F90F200A4352B2D1B23A691344B9
:1017A0000A461A72BB7D0133BB75BC7D38681A4B83
:1017B000984703469C42ACD3BB7D01339B001A463D
:1017C0003B69C3F808210B4B01221A7039690E4896
:1017D000124B9847054B98470246054B1A6000BFCD
:1017E0001C37BD4690BD00BF0D0F0800B52E080088
:1017F000A80D0720A60D0720AC0D072000C108404A
:101800004D020800B00D072000C00840B1140800C8
:10181000F90E0800A50D0720095508000D10080055
:1018200080B400AF024B1B781846BD4680BC7047A1
:10183000A60D072080B584B000AF03460A46FB71B1
:101840001346BB71324B9847F86019E0314B98470B
:101850000246314B1B68D31A0A2B11D92F4B002299
:101860001A702F4B1B6801332D4A136040F202217E
:101870002C482D4B98472D492D482E4B984709E071
:101880002D4B984703461A46244B1B781343DBB273
:10189000002BDBD1FB68272283F80C21FB68002298
:1018A0001A70FB6800225A6097F9073003F00F03A3
:1018B0005AB2224B1B785BB213435BB2FB71BB790C
:1018C0001B01DAB2FB791343DBB243F00403DAB253
:1018D000FB681A72BB791B015AB297F907301343A0
:1018E0005BB2DAB2FB685A72FB680222C3F80821C5
:1018F0000A4B01221A70F9680D48114B9847054BA5
:1019000098470246044B1A6000BF1037BD4680BDA1
:101910000D0F0800B52E0800A80D0720A60D072002
:10192000AC0D072000C108404D020800B00D072093
:1019300000C00840B1140800F90E0800A50D0720EA
:101940000D10080080B584B000AF03460A46FB7155
:101950001346BB713E4B9847F86019E03D4B9847E2
:1019600002463D4B1B68D31A0A2B11D93B4B002270
:101970001A703B4B1B680133394A136040F2022155
:101980003848394B9847394939483A4B984709E024
:10199000394B984703461A46304B1B781343DBB24A
:1019A000002BDBD1FB68272283F80C21FB68002287
:1019B0001A70FB6800225A6097F9073003F00F0392
:1019C0005AB22E4B1B785BB213435BB2FB71BB79EF
:1019D00023F00F03DAB2FB791343DBB243F00403C5
:1019E000DAB2FB681A7297F9063023F00F035AB285
:1019F00097F9073013435BB2DAB2FB685A72BB79CE
:101A00001B01DAB2FB791343DBB243F00403DAB211
:101A1000FB689A72BB791B015AB297F907301343DE
:101A20005BB2DAB2FB68DA72FB680422C3F8082101
:101A30000A4B01221A70F9680D48114B9847054B63
:101A400098470246044B1A6000BF1037BD4680BD60
:101A50000D0F0800B52E0800A80D0720A60D0720C1
:101A6000AC0D072000C108404D020800B00D072052
:101A700000C00840B1140800F90E0800A50D0720A9
:101A80000D10080080B400AF034B00221A7000BF95
:101A9000BD4680BC704700BFA60D072080B48BB048
:101AA00000AF78600B46FB707B687B62FB7887F841
:101AB00023307B6AFB61FB69BB61BB695B097B61AE
:101AC0007B6903F5001303F207735B023B6197F830
:101AD0002330002B09D07B6AFB60FB6803F01F03F7
:101AE00001229A403B691A6308E07B6ABB60BB68CD
:101AF00003F01F0301229A403B695A6300BF2C3751
:101B0000BD4680BC704780B489B000AF78607B6808
:101B1000FB61FB69BB61BB697B617B695B093B6105
:101B20003B6903F5001303F207735B02DA6BFB6991
:101B3000FB60FB6803F01F03012101FA03F313406C
:101B4000002B14BF01230023DBB218462437BD4607
:101B500080BC704780B582B000AF0346FB71284B54
:101B60001B78092B47D801A252F823F0951B0800D7
:101B70009F1B0800A91B0800B31B0800BD1B080021
:101B8000DB1B0800E51B0800C71B0800D11B080071
:101B9000EF1B0800FB7918461A4B98472CE0FB799D
:101BA0001846194B984727E0FB791846174B98477A
:101BB00022E0FB791846164B98471DE0FB79184642
:101BC000144B984718E0FB791846134B984713E0DD
:101BD000FB791846114B98470EE0FB791846104BDD
:101BE000984709E0FB7918460E4B984704E0FB79CB
:101BF00018460D4B984700BF00BF0837BD4680BD53
:101C0000BC0D07202D1C0800551D0800851D08006F
:101C100031210800A91E0800FD1E0800D11F080080
:101C2000D1200800012108005522080080B582B0AB
:101C300000AF0346FB71414B1B78002B04D03F4B98
:101C400000221A703E4B984700203E4B9847FB7984
:101C5000013B0F2B68D801A252F823F09D1C08000D
:101C6000291D0800291D0800291D0800291D08003C
:101C7000291D0800DD1C0800291D0800291D080079
:101C8000291D0800291D0800291D0800BD1C080089
:101C9000291D0800291D08001B1D08002A4B1A7861
:101CA000294B9B789A4241D9274B1B78013BDAB2EA
:101CB000254B1A702448254B984737E0224B1A7859
:101CC000214BDB789A4233D21F4B1B780133DAB2B7
:101CD0001D4B1A701C481D4B984729E01A4B1B7866
:101CE000032B0BD0042B10D0022B00D014E0184B88
:101CF00001221A70114B01221A700DE0144B0222BE
:101D00001A700E4B01221A7006E0114B03221A7052
:101D10000A4B01221A7000BF0BE00D4B09221A700A
:101D2000064B01221A7004E000BF02E000BF00E091
:101D300000BF00BF0837BD4680BD00BF8C01072033
:101D4000652308003D2F080090010720A524080006
:101D5000BC0D072080B483B000AF0346FB71FB7954
:101D6000102B05D1054B00221A70054B01221A7069
:101D700000BF0C37BD4680BC704700BFBC0D0720BC
:101D80008C01072080B582B000AF0346FB71404B49
:101D90001B78002B04D03E4B00221A703D4B984715
:101DA000FB79013B0F2B69D801A252F823F000BF49
:101DB000F11D08007D1E08007D1E08007D1E080024
:101DC0007D1E08007D1E0800311E08007D1E0800D3
:101DD0007D1E08007D1E08007D1E08007D1E080077
:101DE000111E08007D1E08007D1E08006F1E0800E1
:101DF000294B1A79284B9B799A4241D9264B1B795A
:101E0000013BDAB2244B1A712448254B984737E03E
:101E1000214B1A79204BDB799A4233D21E4B1B7926
:101E20000133DAB21C4B1A711C481D4B984729E04C
:101E3000194B1B79022B0BD0032B10D0012B00D098
:101E400014E0184B04221A70114B01221A700DE095
:101E5000144B07221A700E4B01221A7006E0114B28
:101E600005221A700A4B01221A7000BF0BE00D4BBD
:101E700000221A70064B01221A7004E000BF02E033
:101E800000BF00E000BF00BF0837BD4680BD00BFF7
:101E90008C010720D523080090010720940107201A
:101EA000A5240800BC0D072080B582B000AF034612
:101EB000FB710D4B1B78002B04D00B4B00221A70CA
:101EC0000A4B98470A4A002103200A4B9847FB799E
:101ED000102B05D1084B02221A70034B01221A70F5
:101EE00000BF0837BD4680BD8C010720E115080002
:101EF0004C0E072001160800BC0D072090B583B0DA
:101F000000AF0346FB71244B1B78002B04D0224BFF
:101F100000221A70214B9847214B9847214B1A8871
:101F2000214B1B889A421ED01E4B1A881E4B1A80CA
:101F30001C4B1A881D4B1046984702461C4B1046F6
:101F400098471C4C4FF000021B4BA04703460C4621
:101F50001A46234619491A481A4CA047184A002124
:101F60000220194B9847FB79072B02D0102B07D082
:101F70000DE0164B08221A70074B01221A7006E07A
:101F8000124B02221A70044B01221A7000BF00BFCC
:101F90000C37BD4690BD00BF8C010720E11508003D
:101FA000351308001C0E0720C00D0720494F0800FC
:101FB000114908000D4C0800000024401895080045
:101FC0004C0E0720BD54080001160800BC0D072068
:101FD00080B584B000AF0346FB712E4B1B78002BFD
:101FE00016D02C4B00221A702B4B98472B4A0121FC
:101FF00002202B4B98472B4B1B7801331A462A495A
:102000002A482B4B9847294A01210320244B984703
:10201000FB79072B39D1274B9847F860FB68602282
:1020200083F80C21FB680F221A70FB6801225A60AA
:10203000FB68FF221A72FB680122C3F808211E4BBD
:102040009847F9681D481E4B984700BF1D4B98479D
:102050000346002BFAD14FF4FA701B4B9847114BF3
:102060001B780133DAB20F4B1A700E4B1B78042B1E
:1020700008D10C4B00221A70144B07221A70054B22
:1020800001221A70034B01221A7000BF1037BD469F
:1020900080BD00BF8C010720E115080030950800C5
:1020A00001160800BD0D0720449508004C0E0720BE
:1020B000BD5408000D0F0800C513080000C00840FB
:1020C0000D100800DD130800C92E0800BC0D072004
:1020D00080B483B000AF0346FB71FB79102B05D1B0
:1020E000054B02221A70054B01221A7000BF0C37F3
:1020F000BD4680BC704700BFBC0D07208C01072087
:1021000080B483B000AF0346FB71FB79102B05D17F
:10211000054B05221A70054B01221A7000BF0C37BF
:10212000BD4680BC704700BFBC0D07208C01072056
:1021300080B582B000AF0346FB71404B1B78002B8B
:1021400004D03E4B00221A703D4B9847FB79013B6F
:102150000F2B69D801A252F823F000BF9D2108007F
:102160002922080029220800292208002922080023
:1021700029220800DD210800292208002922080060
:10218000292208002922080029220800BD21080070
:1021900029220800292208001B220800294B1A7A4C
:1021A000284B9B7A9A4241D9264B1B7A013BDAB2E3
:1021B000244B1A722448254B984737E0214B1A7A52
:1021C000204BDB7A9A4233D21E4B1B7A0133DAB2B0
:1021D0001C4B1A721C481D4B984729E0194B1B7A5F
:1021E000022B0BD0032B10D0012B00D014E0184B86
:1021F00004221A70114B01221A700DE0144B0722B1
:102200001A700E4B01221A7006E0114B05221A704B
:102210000A4B01221A7000BF0BE00D4B00221A700E
:10222000064B01221A7004E000BF02E000BF00E08C
:1022300000BF00BF0837BD4680BD00BF8C0107202E
:102240003D2408009001072098010720A5240800DC
:10225000BC0D072080B582B000AF0346FB71354B43
:102260001B78002B43D0344B9847344A022102207C
:10227000334B984700216A20324B98470021662053
:10228000304B9847002167202E4B9847002168204B
:102290002C4B9847002169202A4B98472A4B984796
:1022A00000210120274B984700BF0820274B984763
:1022B0000346002BF9D141F64C50254B984700209E
:1022C000244B98471C4B98476420214B9847082083
:1022D000204B9847184B984764201D4B9847002087
:1022E0001C4B9847144B9847174B9847FCE71A4BE1
:1022F0001B78002B09D0184B00221A700E4B984700
:10230000164A012102200E4B9847FB79072B02D079
:10231000102B04D00AE0074B01221A7006E0104B84
:1023200000221A700C4B01221A7000BF00BF083740
:10233000BD4680BDBE0D0720E11508005895080078
:10234000011608009D1A0800F52E0800071B08005A
:10235000C92E0800C11508008C0107206C950800E3
:10236000BC0D072090B585B000AF144B3C460FCB99
:1023700084E80F00124B98473B681A460021012061
:10238000104B98477B681A46002102200D4B984756
:10239000BB681A46002103200A4B9847FB681A467F
:1023A00000210420074B98470748084B9847012015
:1023B000074B984700BF1437BD4690BDB095080045
:1023C000E11508000116080090010720A524080067
:1023D0003D2F080090B585B000AF134B3C460FCBA6
:1023E00084E80F00114B98473B681A4600210120F2
:1023F0000F4B98477B681A46002102200C4B9847E8
:10240000BB681A4600210320094B9847FB681A460F
:1024100000210420064B98470648074B984700BF09
:102420001437BD4690BD00BFE0950800E1150800D7
:102430000116080094010720A524080090B585B076
:1024400000AF134B3C460FCB84E80F00114B98476D
:102450003B681A46002101200F4B98477B681A46BB
:10246000002102200C4B9847BB681A46002103202C
:10247000094B9847FB681A4600210420064B9847F1
:102480000648074B984700BF1437BD4690BD00BFB4
:10249000F0950800E11508000116080098010720D2
:1024A000A524080080B582B000AF78607B685B78B7
:1024B000094A00211846094B98477B681B78084A4F
:1024C00000211846054B98477B681A787B685A703C
:1024D00000BF0837BD4680BDDC9508000116080026
:1024E0000096080080B582B000AF0023FB71754BE9
:1024F00098470246744B1B681E339A42C0F0DD8039
:10250000704B98470246704B1A6060206F4B98479B
:1025100003461A466E4B1A7061206C4B984703466F
:102520001A466C4B1A706220684B984703461A464D
:10253000694B1A706320654B984703461A46674BF0
:102540001A706420614B984703461A46644B1A7010
:1025500065205E4B984703461A46624B1A705C4BE7
:102560001A78614B1B789A4206D0594B1B78002B86
:1025700002D10123FB710BE0554B1A785A4B1B78A3
:102580009A4205D0524B1B78012B01D10323FB71DA
:10259000504B1A78554B1B789A4206D04D4B1B78FE
:1025A000002B02D10423FB710BE04A4B1A784F4BEE
:1025B0001B789A4205D0474B1B78012B01D106238B
:1025C000FB71454B1A784A4B1B789A4206D0424B16
:1025D0001B78002B02D10723FB710BE03E4B1A78CE
:1025E000434B1B789A4205D03B4B1B78012B01D102
:1025F0000923FB71394B1A783E4B1B789A4206D05F
:10260000364B1B78002B02D10A23FB710BE0334BB6
:102610001A78384B1B789A4205D0304B1B78012B27
:1026200001D10C23FB712E4B1A78334B1B789A4245
:1026300006D02B4B1B78002B02D10D23FB710BE036
:10264000274B1A782C4B1B789A4205D0244B1B78C9
:10265000012B01D10F23FB71224B1A78274B1B78DA
:102660009A4206D01F4B1B78002B02D11023FB711E
:102670000BE01C4B1A78214B1B789A4205D0194B62
:102680001B78012B01D11223FB71114B1A78164BC9
:102690001A70104B1A78154B1A700F4B1A78144B8E
:1026A0001A700E4B1A78134B1A700D4B1A78124B86
:1026B0001A700C4B1A78114B1A70FB7918460837B0
:1026C000BD4680BDB52E0800200E0720071B080060
:1026D000490E0720300E0720480E07204A0E07201B
:1026E0002C0E0720280E07202D0E07202B0E07206A
:1026F000290E07202E0E07202A0E07202F0E072056
:1027000080B483B000AF0346FB71084997F90730E6
:102710005B09FA7902F01F02012000FA02F241F887
:10272000232000BF0C37BD4680BC704700E100E0AD
:1027300080B483B000AF0346FB71094997F90730B5
:102740005B09FA7902F01F02012000FA02F220333D
:1027500041F8232000BF0C37BD4680BC704700BF46
:1027600000E100E080B483B000AF0346FB7109498B
:1027700097F907305B09FA7902F01F02012000FA8D
:1027800002F2603341F8232000BF0C37BD4680BC05
:10279000704700BF00E100E080B483B000AF0346A3
:1027A0003960FB7197F90730002B0BDA0D49FB7983
:1027B00003F00F03043B3A68D2B21201D2B20B44C9
:1027C0001A7609E0084997F907303A68D2B212013F
:1027D000D2B20B4483F8002300BF0C37BD4680BC47
:1027E000704700BF00ED00E000E100E080B582B07E
:1027F00000AF78607868034B984700BF0837BD4644
:1028000080BD00BF7538080080B48BB000AF786021
:102810000B46FB707B687B62FB7887F823307B6A12
:10282000FB61FB69BB61BB695B097B617B6903F58C
:10283000001303F207735B023B6197F82330002B10
:1028400009D07B6AFB60FB6803F01F0301229A40FA
:102850003B691A6308E07B6ABB60BB6803F01F0337
:1028600001229A403B695A6300BF2C37BD4680BCA9
:10287000704780B487B000AF786039607B687B6157
:102880003B683B617B69FB60FB6803F5001303F267
:1028900007735B02DA6B3B69134000BF18461C37B5
:1028A000BD4680BC70470000B0B500AF5E4B002253
:1028B0001A815D4B00229A725B4B0B225A605A4B75
:1028C0004FF47A721A61584B4FF4FA72DA60564B31
:1028D00000221A6054495548554B9847554B0022E1
:1028E0001A81544B00229A72524B0B225A60514B60
:1028F0004FF47A721A614F4B4FF4FA72DA604D4B13
:1029000001221A604B494948494B98474A4B0022DB
:102910001A81494B00229A72474B0B225A60464B50
:102920004FF47A721A61444B4FF4FA72DA60424BF8
:1029300002221A6040493D483D4B984700213B48E0
:102940003E4B9847012139483C4B98470221374874
:102950003A4B98473A4B00221A81394B00229A721F
:10296000374B0B225A60364B4FF4A5721A61344B29
:10297000A522DA60324B04221A6031492B482C4BD5
:102980009847042129482F4B98471C202E4B9847E5
:1029900044F2030201212D482D4B984741F2814218
:1029A00001212A482B4B98471C202B4B98471C2071
:1029B0002A4B984700211C20294B98471C20294B63
:1029C0009847102201212148274B984701211F4891
:1029D000264B9847264B274A1A60254B264A5A60B1
:1029E000234B4FF07E529A60214B244ADA60204BF1
:1029F000234A9A611E4B234A5A61234A1C4B1446B0
:102A00001D460FCD0FC40FCD0FC42B6823601F4A86
:102A1000174B14461D460FCD0FC40FCD0FC42B68A6
:102A2000236000BFB0BD00BF640E07200040094016
:102A300069030800340F0720DC0E07201506080084
:102A40008C0E0720F3050800ED2708000000084061
:102A5000370608008F0608003127080065270800A0
:102A60009927080001270800B30608006F06080030
:102A70005C0F072000007041000020410000A040D2
:102A80000000FAC30000FA43B40E0720040F072029
:102A900080B500AF00210D480D4B984701210B4830
:102AA0000B4B984702210948094B984700212020E9
:102AB000084B984701212020064B984710220121FE
:102AC0000548064B984700BF80BD00BF0040094045
:102AD000F30508000928080000000840B3060800B4
:102AE00080B584B000AF03460A46FB711346BB8035
:102AF000B7F90430B3F5FA7F02DD4FF4FA73BB8007
:102B0000B7F9043013F5FA7F02DA4FF60C63BB8095
:102B1000BB8803F5FA73FB81FB89092B01D80A23D3
:102B2000FB81FB8940F2DE32934202D940F2DE3370
:102B3000FB81FB79012B0BD0022B10D0002B00D096
:102B400014E0FB891A460B490B480C4B98470DE0E3
:102B5000FB891A460A490848084B984706E0FB8952
:102B60001A4608490448054B984700BF00BF103774
:102B7000BD4680BD640E072000400940AF05080037
:102B8000340F0720DC0E072090B585B000AF01217F
:102B90006920504B984701214F48504B98470346B6
:102BA00003F01003102B40F08C8004214C484D4B57
:102BB00098474FF0FF3102204B4B9847F8600021B7
:102BC0002020444B984701212020424B9847042164
:102BD0004348464B9847FB681B0E03F07F03BB60DE
:102BE000BB6803F04003002B02D0BB68803B00E0D1
:102BF000BB68BB60FB685B0C03F06002FB681B0CEE
:102C000003F01F0313437B607B6803F04003002B3A
:102C100002D07B68803B00E07B687B60FB685B0ADE
:102C200003F07E02FB685B0803F0010313433B6083
:102C30003B6803F04003002B02D03B68803B00E080
:102C40003B683B602A4B1C682A4BB8689847034690
:102C50001A4621462848294B98470246284B1046D9
:102C6000984703461BB219460020264B9847264B2F
:102C70001C68204B7868984703461A46214623482B
:102C80001E4B984702461E4B1046984703461BB200
:102C9000194601201B4B98471D4B1C68154B386883
:102CA000984703461A4621461A48144B984702464D
:102CB000134B1046984703461BB219460220114B8E
:102CC000984700216920034B984700BF1437BD4641
:102CD00090BD00BF0928080000000840D906080080
:102CE000004009401506080073280800F305080095
:102CF0002C0F0720514F08005C0F0720192D0800EA
:102D000085530800E12A0800D80E0720B40E0720DA
:102D1000B40F0720040F072090B58BB000AFF86008
:102D2000B9607A603C4B7968B868984703463B6263
:102D3000FB681A68394B396A104698470346FB61AD
:102D4000FB681C69FB685A68344B396A104698471F
:102D500003461A46324B11462046984703461C4606
:102D6000FB689A68FB68D9692C4B10469847034664
:102D70001A462B4B11462046984703461A46FB68D5
:102D80001A61FB68DC68FB681A6A234B1146386AD3
:102D9000984703461A46214B11462046984703465A
:102DA000BB61FB681A691E4BF969104698470346D8
:102DB0001A461B4BB9691046984703467B61FB686E
:102DC0005A69184B7969104698470346002B03D07F
:102DD000FB685B697B620EE0FB689A69124B79695C
:102DE000104698470346002B03D0FB689B697B6223
:102DF00001E07B697B62084B7969786A98470346F2
:102E00001A46FB68DA61FB683A6A1A627B6A1846FE
:102E10002C37BD4690BD00BFE54D0800F94F0800B6
:102E2000E94D0800355308007153080080B48BB099
:102E300000AF78600B46FB707B687B62FB7887F89D
:102E400023307B6AFB61FB69BB61BB695B097B610A
:102E50007B6903F5001303F207735B023B6197F88C
:102E60002330002B09D07B6AFB60FB6803F01F0353
:102E700001229A403B691A6308E07B6ABB60BB6829
:102E800003F01F0301229A403B695A6300BF2C37AD
:102E9000BD4680BC7047000080B400AF044B1B6887
:102EA0000133034A136000BFBD4680BC704700BFBA
:102EB000C40D072080B400AF024B1B681846BD4606
:102EC00080BC7047C40D072080B485B000AF786027
:102ED000074B1B68FB6000BF054B1A68FB68D21AE2
:102EE0007B689A42F8D300BF1437BD4680BC704758
:102EF000C40D072080B500AF0B4B984702460B4B23
:102F00001B68D31A052B0DD9074B98470246074B70
:102F10001A60074B1B681A46064B1A6003210548C6
:102F2000054B984700BF80BDB52E0800180E07203E
:102F30000C0E0720080E0720150B080080B584B082
:102F400000AF0346FB71204B9A78204B1A70FB7937
:102F5000002B05D11E4B1A781C4B1B789A422FD0A0
:102F60001A4B1B78632B09D9184B1B781A4607F1AB
:102F7000080318491846184B984716E0134B1B785E
:102F8000092B09D9114B1B781A4607F1080313497D
:102F90001846114B984708E00C4B1B781A4607F16E
:102FA00008030F4918460C4B984707F108031A46C7
:102FB000102101200B4B9847044B1A78044B1A70D0
:102FC00000BF1037BD4680BD100E0720B80F072088
:102FD000C80D072004960800BD5408000C96080090
:102FE000149608000116080080B500AF204B1B782E
:102FF000002B1DD01F4B984702461F4B1B686433A4
:103000009A4233D31B4B984702461B4B1A60002150
:103010006A201A4B984700216720184B9847184A96
:1030200013786FF300031370114B00221A701DE028
:10303000104B98470246104B1B6803F561739A4288
:1030400014D30C4B984702460B4B1A6001216A209F
:103050000A4B984701216720084B9847084A137884
:1030600043F001031370024B01221A7000BF80BDB0
:10307000140E0720B52E0800240E07202D2E080060
:103080000C0E072080B582B000AF78607B68072BFC
:1030900031D801A252F823F0F5300800B930080009
:1030A000C1300800C9300800D1300800D93008000C
:1030B000E1300800EB3008000020114B98471AE07F
:1030C00001200F4B984716E000200E4B984712E066
:1030D00010200C4B98470EE020200A4B98470AE03E
:1030E0003E210020084B984705E03E210120064B79
:1030F000984700E000BF00BF0837BD4680BD00BF55
:10310000C13608002D3708009D37080080B582B011
:1031100000AF78607B68072B26D801A252F823F015
:103120004131080045310800453108005731080099
:10313000573108005731080057310800573108004F
:10314000012312E00B4B98470346002B14BF0123C9
:103150000023DBB209E0084B98470346002B14BF5D
:1031600001230023DBB200E0002318460837BD46E8
:1031700080BD00BFF93608001538080080B483B060
:1031800000AF78607B68072B25D801A252F823F0A6
:10319000B1310800B7310800BD310800C331080063
:1031A000C7310800CB310800CF310800D331080007
:1031B0004FF4FA4310E04FF400430DE04FF40043A6
:1031C0000AE0084B08E0084B06E0084B04E0074B18
:1031D00002E0064B00E0002318460C37BD4680BCD9
:1031E000704700BF00093D0000127A00001BB700C5
:1031F00080B582B000AF0346FB7100BFFB79184673
:10320000054B9847034683F00103DBB2002BF5D151
:1032100000BF0837BD4680BD0D31080080B586B0BF
:1032200000AFF8607A603B600B46FB727B68002B56
:1032300007D13B68002B04D1FB684FF470021A6081
:1032400019E0FB7A18460E4B984702467B68B2FBA2
:10325000F3F37B617B693A6802FB03F37B613B68B4
:10326000013B1A04074B13407A68D2B2134343F46C
:103270007C52FB681A6000BF1837BD4680BD00BF96
:103280007D3108000000FF0780B582B000AF786094
:1032900039603B68002B08D1094B9847094A7B6885
:1032A0001B6843F00053936205E0064A7B681B6885
:1032B00043F48033D36100BF0837BD4680BD00BFF3
:1032C0002D38080000060E4080B582B000AF78604F
:1032D0007B68002B03D1054B9847034602E0044B63
:1032E0009847034618460837BD4680BD4538080054
:1032F0005D38080080B582B000AF0346FB71FB79F2
:10330000033B042B08D8FB791846064B9847FB79FA
:103310001846054B984700E000BF00BF0837BD4680
:1033200080BD00BF85300800F131080080B582B053
:1033300000AF786000BF7868044B98470346002BC5
:10334000F9D0002318460837BD4680BDC9320800B1
:1033500080B500AF0620044B984702461346DB00B9
:103360009B1A5B00184680BD7D31080080B500AF18
:10337000024B984703465B08184680BD513308004E
:1033800090B583B000AF1148114B98470620114B00
:103390009847381D0E23012206210F4CA0473B1DE4
:1033A000002118460D4B984700200D4B98471020E0
:1033B0000C4B98470C4B98470C4B984703461846C4
:1033C000034B984700BF0C37BD4690BD00BD0105BB
:1033D000D1000720F53208001D32080089320800AC
:1033E0002D33080041360800D13F08006D33080036
:1033F00080B582B000AF78607868034B984700BF13
:103400000837BD4680BD00BF4B34080080B483B090
:1034100000AF78600B46FB707B681B6823F01002DE
:10342000FB781A437B681A6000BF0C37BD4680BC2E
:10343000704780B483B000AF78607B6801225A6027
:1034400000BF0C37BD4680BC704780B483B000AF6E
:1034500078607B685B6823F001027B685A6000BF7C
:103460000C37BD4680BC704780B483B000AF786035
:1034700039607B683A689A6100BF0C37BD4680BCF2
:10348000704780B483B000AF78607B685B6A184691
:103490000C37BD4680BC704780B483B000AF786005
:1034A000396001223B689A407B689A6200BF0C3702
:1034B000BD4680BC704780B483B000AF786039608F
:1034C00001223B689A407B68DA6200BF0C37BD4638
:1034D00080BC704780B485B000AFF860B9607A6096
:1034E000F968BA6813469B001344DB000B443C3375
:1034F0007A681A6000BF1437BD4680BC704780B43C
:1035000085B000AFF860B9607A60F968BA681346B0
:103510009B001344DB000B4440337A681A6000BF01
:103520001437BD4680BC704780B485B000AFF860EA
:10353000B9607A60F968BA6813469B001344DB00EF
:103540000B4444337A681A6000BF1437BD4680BC10
:10355000704780B485B000AFF860B9607A60F968F0
:10356000BA6813469B001344DB000B4448337A6867
:103570001A6000BF1437BD4680BC704780B485B068
:1035800000AFF860B9607A60F968BA6813469B00CA
:103590001344DB000B444C337A681A6000BF1437C5
:1035A000BD4680BC704780B485B000AFF860B9609C
:1035B0007A60F968BA6813469B001344DB000B4439
:1035C00050337A681A6000BF1437BD4680BC70471C
:1035D00080B584B000AFF860B9607A60FB685B6A60
:1035E0007B681B681A46B968F868104B98477B6877
:1035F0005B681A46B968F8680D4B98470022B968AD
:10360000F8680C4B98477B689B681A46B968F8685D
:10361000094B98477B68DB681A46B968F868074B1E
:10362000984700BF1037BD4680BD00BFD5340800A5
:10363000FF34080029350800533508007D3508009F
:1036400080B485B000AF78601C491C4B1B6B23F025
:1036500070027B6813430B634FF40063FB6007E069
:10366000FB68002B01D1012323E0FB68013BFB60D9
:10367000124B9B6E03F00803002BF1D00F4A0F4B47
:103680001B6B23F0030343F0020313634FF4006347
:10369000FB6007E0FB68002B01D1012309E0FB6818
:1036A000013BFB60054B9B6E03F00803002BF1D040
:1036B000002318461437BD4680BC704700060E40F4
:1036C00080B483B000AF78607B68012B07D1084AD3
:1036D000074B9B6843F0254343F480139360044BEE
:1036E000044A1A6000BF0C37BD4680BC704700BF5B
:1036F000101A0E40080000A580B400AF094B5B69AA
:1037000003F08003002B07D0074B9B6E03F0800370
:10371000002B01D0012300E000231846BD4680BCE9
:10372000704700BF101A0E4000060E4080B483B0F0
:1037300000AF7860184A184B1B6A43F45C1343F0DF
:103740000803136200BF144B9B6E03F40033002B7D
:10375000F9D01149104B1B6A23F45C1323F070035A
:103760007A68134343F45C130B6200BF0A4B9B6EF1
:1037700003F40033002BF9D0074A074B1B6A23F0F0
:103780009B7323F4803343F45C13136200BF0C3744
:10379000BD4680BC704700BF00060E4080B483B0B9
:1037A00000AF786039607B68002B08D01649164B53
:1037B0001B6A164A1A40164B13430B621EE012494D
:1037C000114B1B6A23F45C1323F003033A681202C3
:1037D00092B2134343F45C1343F001030B6200BF46
:1037E000094B9B6E03F00103002BF9D0064A064BF0
:1037F0001B6A43F09B7343F48033136200BF0C37A2
:10380000BD4680BC704700BF00060E40FCFFC8FEEE
:103810000200370180B400AF034B9B6E03F480338A
:103820001846BD4680BC704700060E4080B400AF0D
:10383000034B4FF000529A6200BFBD4680BC7047F8
:1038400000060E4080B400AF034B9B6E03F00203F2
:103850001846BD4680BC704700060E4080B400AFDD
:10386000034B9B6E03F040031846BD4680BC704777
:1038700000060E4080B483B000AF78607B682C2BCC
:1038800001D901232FE07B681F2B13D8184B9A69AD
:1038900001217B6801FA03F31A4001217B6801FAD8
:1038A00003F39A421ED0124A01217B6801FA03F306
:1038B000136117E07B68203B7B600D4BD3F8082138
:1038C00001217B6801FA03F31A4001217B6801FAA8
:1038D00003F39A4206D0064A01217B6801FA03F3FA
:1038E000C2F80031002318460C37BD4680BC704733
:1038F00000060E4080B483B000AF78607B68072B71
:1039000025D801A252F823F0293908002F390800E0
:10391000353908003B3908003F39080043390800B1
:10392000473908004B3908004FF4FA4310E04FF4D0
:1039300000430DE04FF400430AE0084B08E0084B59
:1039400006E0084B04E0074B02E0064B00E00023D2
:1039500018460C37BD4680BC704700BF00093D00CB
:1039600000127A00001BB70080B500AF0620044BA0
:10397000984702461346DB009B1A5B00184680BD41
:10398000F538080080B500AF024B984703465B0846
:10399000184680BD6939080080B582B000AF7860F4
:1039A0007868034B984700BF0837BD4680BD00BF0D
:1039B0007538080080B500AF0B20064B98470C20E7
:1039C000044B98470D20034B98470E20014B984716
:1039D00000BF80BD9939080080B489B000AF78601D
:1039E0007B68FB61FB69BB61BB695A09FB697B6151
:1039F0007B6903F01F03012101FA03F33A61FB60C5
:103A00003B69BB60BB6803F5001303F207735B02FD
:103A10001A46FB68536000BF2437BD4680BC704720
:103A200080B48DB000AF786039607B68FB623B6822
:103A3000BB62FB6A7B627B6A5A09FB6A3B623B6A38
:103A400003F01F03012101FA03F3FA61BB61BB6AB2
:103A50007B61FB693B613B6903F5001303F207736C
:103A60005B02FB607B6903F00803002B03D0FB685B
:103A7000BA695A6602E0FB68BA691A667B6903F0A4
:103A80002003002B03D0FB68BA691A6502E0FB68CB
:103A9000BA695A657B6903F0C003002B03D0FB6849
:103AA000BA691A6202E0FB68BA695A627B6903F07C
:103AB0008003002B04D0FB68BA69C3F8842003E0BC
:103AC000FB68BA69C3F880207B6903F00103002B0F
:103AD00006D0FB681A6FBB691A43FB681A6706E0D9
:103AE000FB681A6FBB69DB431A40FB681A6700BFAB
:103AF0003437BD4680BC704780B48DB000AF78606D
:103B00000B46FB707B68FB62FB7887F82B30FB6A07
:103B10007B627B6A3B623B6A5B09FB61FB6903F585
:103B2000001303F207735B02BB6197F82B30012B84
:103B300009D1FB6A7B617B6903F01F0301229A4074
:103B4000BB691A610CE097F82B30002B08D1FB6A97
:103B50003B613B6903F01F0301229A40BB695A6134
:103B6000FB6AFB60FB6803F01F0301229A40BB69FC
:103B7000C3F8A02000BF3437BD4680BC704780B476
:103B80008BB000AF78600B46FB707B687B62FB7884
:103B900087F823307B6AFB61FB69BB61BB695B090A
:103BA0007B617B6903F5001303F207735B023B61E2
:103BB00097F82330002B09D07B6AFB60FB6803F089
:103BC0001F0301229A403B691A6308E07B6ABB60CD
:103BD000BB6803F01F0301229A403B695A6300BF90
:103BE0002C37BD4680BC704780B584B000AFA64B73
:103BF0004FF400425A60A54B984701216A20A44B1C
:103C0000984700216A20A34B984701216720A04BC9
:103C10009847002167209F4B9847012168209C4BC3
:103C20009847002168209B4B984701216920984BB9
:103C3000984700216920974B984701216620944BB3
:103C4000984700216620934B984700216020904BB5
:103C5000984788216020904B9847002161208C4B29
:103C60009847882161208C4B984700216220884B1F
:103C7000984788216220884B984700216320844B15
:103C8000984788216320844B984700216420804B0B
:103C9000984788216420804B9847002165207C4B01
:103CA0009847882165207C4B9847012142207A4B18
:103CB00098474220794B984701214320764B9847FB
:103CC0004320764B984701214420734B984744206A
:103CD000724B9847012145206F4B984745206F4B09
:103CE0009847012146206C4B984746206B4B9847DC
:103CF00001214720684B98474720684B984701218E
:103D00005520654B98475520644B9847012120204A
:103D10005F4B9847012120205E4B98470021582097
:103D20005B4B984700215920594B984700215A2056
:103D3000574B984700215B20554B984700215C204A
:103D4000534B984700215D20514B984700215E203E
:103D50004F4B9847002150204D4B98470021512050
:103D60004B4B984700215220494B98470021532044
:103D7000474B984700215420454B98470021562037
:103D8000434B984700215720414B98470021412041
:103D90003F4B984700214A203D4B984700214B203C
:103DA0003B4B984700214C20394B984700214D2030
:103DB000374B984700214E20354B984700214F2024
:103DC000334B984701210120314B984701210120B5
:103DD000304B9847002108202D4B9847002109209F
:103DE0002B4B984700210720294B9847002105209D
:103DF000274B984700210020254B98470021112090
:103E0000254B98471120254B984700211220224B23
:103E100098471220214B984700210C201E4B9847B1
:103E20000C201E4B984700210D201B4B98470D205E
:103E30001A4B984700211020174B98471020174B1A
:103E4000984700210E20144B98470E20134B98479B
:103E500000211420104B98471420104B9847002144
:103E600013200D4B984713200C4B98470021152029
:103E7000094B98471520094B984700211620064BFF
:103E8000984716200CE000BF501A0E40B5390800C4
:103E9000F93A08007F3B0800213A0800D9390800A8
:103EA000174B984700211720164B98471720144BA3
:103EB000984700211820134B98471820104B98471B
:103EC0002420114B984700211048114B984701219D
:103ED0000E480F4B984702210C480D4B98470D4B4D
:103EE0007B600023BB600C4B98470346FB603B1D87
:103EF00019460648094B984700BF1037BD4680BD9C
:103F0000D9390800213A08007538080000400940F6
:103F100015060800002D310185390800E902080066
:103F200080B400AFFEE7000080B582B000AF1E4B4A
:103F30007B601E4B3B607A683B689A420CD007E07E
:103F40003B681A1D3A607A68111D796012681A6020
:103F50003B68174A9342F3D3164B3B6004E03B683F
:103F60001A1D3A6000221A603B68134A9342F6D346
:103F7000124B7B60124A7B6823F0604323F07F037F
:103F800093607B68B3F1005F09D37B680D4A93426D
:103F900005D80B4A0A4B9B6843F0005393600A4BC9
:103FA00098470A4B9847FEE7E4980800000007206E
:103FB000500B0720500B0720F40F072000000800CB
:103FC00000ED00E0FFFF0F20D1530800A1430800DF
:103FD00080B400AF574B1B6B03F00303032B00F2BD
:103FE0008A8001A252F823F0F93F08001940080026
:103FF00069400800694008004F4B5B6903F080038B
:10400000002B04D04D4B4FF400421A6073E04B4B31
:104010004FF4FA421A606EE0464B1B6A03F080735D
:10402000002B03D0454B464A1A6064E0434B454A97
:104030001A60404B1B6A03F07003102B04D0202B36
:1040400008D0002B0ED00EE03C4B1B685B003B4AB7
:10405000136008E0394B1A6813465B001344374A73
:10406000136000E000BF46E0324B1B6A03F0807330
:10407000002B03D0314B324A1A601CE02F4B314ADF
:104080001A602C4B1B6A03F07003102B04D0202BFA
:1040900008D0002B0ED00EE0284B1B685B00274A8F
:1040A000136008E0254B1A6813465B001344234A4B
:1040B000136000E000BF1F4B1B6B03F00303022BD8
:1040C00015D11C4B9B6A1B0CC3F30A0301331B4A1B
:1040D000126802FB03F3194A1360164B9B6ADBB2AA
:1040E000164A1268B2FBF3F3144A136002E0134B52
:1040F000154A1A6000BF0F4B1B6B03F07003702B47
:1041000008D10E4B1B68114AA2FB03235B080B4A24
:1041100013600AE0074B1B6B1B0903F00703074AF8
:10412000126822FA03F3054A136000BFBD4680BC43
:10413000704700BF00060E40101A0E409C01072079
:10414000001BB70000093D00001C4E0EABAAAAAA36
:1041500080B485B000AF7860104BFB60104B1B68DB
:10416000002B02D10E4B0F4A1A600D4B1B68BB602F
:10417000BA687B681A44FB689A4202DD4FF0FF334D
:1041800006E0074B1A687B681344054A1360BB6856
:1041900018461437BD4680BC704700BFFC7F08201E
:1041A000CC0D0720F82F072080B483B000AF034662
:1041B0003960FB7197F90730002B0BDA0D49FB7959
:1041C00003F00F03043B3A68D2B21201D2B20B449F
:1041D0001A7609E0084997F907303A68D2B2120115
:1041E000D2B20B4483F8002300BF0C37BD4680BC1D
:1041F000704700BF00ED00E000E100E080B582B054
:1042000000AF78607B68013BB3F1807F01D301236D
:104210000FE00A4A7B68013B53600F214FF0FF30EB
:10422000074B9847054B00229A60044B07221A60FF
:10423000002318460837BD4680BD00BF10E000E0EF
:10424000A941080080B483B000AF78607B68072B79
:1042500025D801A252F823F0794208007F420800D5
:10426000854208008B4208008F42080093420800F4
:10427000974208009B4208004FF4FA4310E04FF4C5
:1042800000430DE04FF400430AE0084B08E0084B00
:1042900006E0084B04E0074B02E0064B00E0002379
:1042A00018460C37BD4680BC704700BF00093D0072
:1042B00000127A00001BB70080B500AF0620044B47
:1042C000984702461346DB009B1A5B00184680BDE8
:1042D0004542080080B500AF024B984703465B0893
:1042E000184680BDB942080080B48BB000AF78603A
:1042F0000B46FB707B687B62FB7887F823307B6A18
:10430000FB61FB69BB61BB695B097B617B6903F591
:10431000001303F207735B023B6197F82330002B15
:1043200009D07B6AFB60FB6803F01F0301229A40FF
:104330003B691A6308E07B6ABB60BB6803F01F033C
:1043400001229A403B695A6300BF2C37BD4680BCAE
:10435000704780B489B000AF78607B68FB61FB690F
:10436000BB61BB697B617B695B093B613B6903F5B1
:10437000001303F207735B02DA6BFB69FB60FB68F7
:1043800003F01F03012101FA03F31340002B14BFB4
:1043900001230023DBB218462437BD4680BC70479A
:1043A00080B582B000AF1A4B98471A4B98471A4B0A
:1043B00098470246194BA3FB02239B091846184B4A
:1043C0009847184B9847184B9847184B9847184BE5
:1043D0009847184B9847184B9847184B9847184BD5
:1043E0001B7803F00103DBB2002B04D0012168200D
:1043F000144B984703E000216820124B9847124B5A
:1044000098470346FB71FB791846104B9847E2E743
:1044100081330800E93B0800D5420800D34D621003
:10442000FD410800A92808008D0A080011150800A0
:1044300051440800912A0800F52E0800E92F0800D1
:10444000100E072005460800E5240800551B08004B
:1044500080B582B000AF72E05E4B984702465E4B7B
:104460001B6803F548739A421AD35A4B9847024681
:10447000594B1A60594B1B78002B03D0574B002225
:104480001A7002E0554B01221A70544B1B78002B16
:1044900014BF01230023DBB219466620504B984716
:1044A0004C4B984702464F4B1B6803F5FA739A42F0
:1044B00015D3484B984702464A4B1A604A4B1B7823
:1044C000022B06D8484B1B780133DAB2464B1A70E0
:1044D00002E0454B00221A70444B01221A70434BF4
:1044E0001B78002B2BD0414B00221A703E4B1B78BF
:1044F000032B23D801A252F823F000BF0D4508007A
:10450000194508002545080031450800384A0221B0
:104510000220384B984712E0374A0E210220354BD3
:1045200098470CE0344A0F210220324B984706E0AE
:10453000314A102102202F4B984700E000BF08208D
:104540002E4B9847034683F00103DBB2002B06D0C5
:1045500062202A4B98470346002B7FF47DAF00234F
:104560007B6030E001216A201D4B984701216620C5
:104570001B4B984701216720194B98470121682060
:10458000174B984701216920154B984764201C4B15
:10459000984700216A20124B984700216620104B53
:1045A0009847002167200E4B9847002168200C4B4C
:1045B0009847002169200A4B98476420104B984780
:1045C0007B6801337B607B68022BCBDD00BF083743
:1045D000BD4680BDB52E0800C40F0720C00F0720C0
:1045E000E9420800C80F0720D00D0720A0010720CE
:1045F0001C960800011608002C960800534308007A
:10460000C92E080080B582B000AF78600B46FB7001
:104610000B4B1B78002B0AD0FB78002B14BF012317
:104620000023DBB219467868064B984703E0002167
:104630007868044B984700BF0837BD4680BD00BF6F
:104640008D010720E942080081F0004102E000BF2F
:1046500083F0004330B54FEA41044FEA430594EA42
:10466000050F08BF90EA020F1FBF54EA000C55EA7D
:10467000020C7FEA645C7FEA655C00F0E2804FEA4E
:104680005454D4EB5555B8BF6D420CDD2C4480EA30
:10469000020281EA030382EA000083EA010180EA60
:1046A000020281EA0303362D88BF30BD11F0004FAE
:1046B0004FEA01314FF4801C4CEA113102D04042E4
:1046C00061EB410113F0004F4FEA03334CEA13331F
:1046D00002D0524263EB430394EA050F00F0A78037
:1046E000A4F10104D5F1200E0DDB02FA0EFC22FA32
:1046F00005F2801841F1000103FA0EF2801843FA26
:1047000005F359410EE0A5F120050EF1200E012A16
:1047100003FA0EFC28BF4CF0020C43FA05F3C01854
:1047200051EBE37101F0004507D54FF0000EDCF1CD
:10473000000C7EEB00006EEB0101B1F5801F1BD376
:10474000B1F5001F0CD349085FEA30004FEA3C0C7A
:1047500004F101044FEA445212F5800F80F09A8070
:10476000BCF1004F08BF5FEA500C50F1000041EB74
:10477000045141EA050130BD5FEA4C0C404141EB78
:10478000010111F4801FA4F10104E9D191F0000F9F
:1047900004BF01460020B1FA81F308BF2033A3F122
:1047A0000B03B3F120020CDA0C3208DD02F1140C19
:1047B000C2F10C0201FA0CF021FA02F10CE002F154
:1047C0001402D8BFC2F1200C01FA02F120FA0CFC4D
:1047D000DCBF41EA0C019040E41AA2BF01EB045196
:1047E000294330BD6FEA04041F3C1CDA0C340EDC94
:1047F00004F11404C4F1200220FA04F001FA02F3D7
:1048000040EA030021FA04F345EA030130BDC4F194
:104810000C04C4F1200220FA02F001FA04F340EA89
:104820000300294630BD21FA04F0294630BD94F03A
:10483000000F83F4801306BF81F480110134013D21
:104840004EE77FEA645C18BF7FEA655C29D094EA92
:10485000050F08BF90EA020F05D054EA000C04BF10
:104860001946104630BD91EA030F1EBF00210020FB
:1048700030BD5FEA545C05D14000494128BF41F09A
:10488000004130BD14F580043CBF01F5801130BDFE
:1048900001F0004545F0FE4141F470014FF0000089
:1048A00030BD7FEA645C1ABF194610467FEA655C3A
:1048B0001CBF0B46024650EA013406BF52EA0335DC
:1048C00091EA030F41F4002130BD00BF90F0000FCA
:1048D00004BF0021704730B54FF4806404F1320406
:1048E0004FF000054FF0000150E700BF90F0000FBF
:1048F00004BF0021704730B54FF4806404F13204E6
:1049000010F0004548BF40424FF000013EE700BFB5
:1049100042004FEAE2014FEA31014FEA02701FBF45
:1049200012F07F4393F07F4F81F06051704792F017
:10493000000F14BF93F07F4F704730B54FF4607491
:1049400001F0004521F0004120E700BF50EA0102DC
:1049500008BF704730B54FF000050AE050EA010289
:1049600008BF704730B511F0004502D5404261EBF9
:1049700041014FF4806404F132045FEA915C3FF43A
:10498000DCAE4FF003025FEADC0C18BF03325FEAD3
:10499000DC0C18BF033202EBDC02C2F1200300FA88
:1049A00003FC20FA02F001FA03FE40EA0E0021FAAD
:1049B00002F11444C1E600BF70B54FF0FF0C4CF497
:1049C000E06C1CEA11541DBF1CEA135594EA0C0F4D
:1049D00095EA0C0F00F0DEF82C4481EA030621EA88
:1049E0004C5123EA4C5350EA013518BF52EA0335C3
:1049F00041F4801143F4801338D0A0FB02CE4FF075
:104A00000005E1FB02E506F00042E0FB03E54FF0A4
:104A10000006E1FB03569CF0000F18BF4EF0010E9C
:104A2000A4F1FF04B6F5007F64F5407404D25FEA98
:104A30004E0E6D4146EB060642EAC62141EA55514B
:104A40004FEAC52040EA5E504FEACE2EB4F1FD0C8D
:104A500088BFBCF5E06F1ED8BEF1004F08BF5FEA0B
:104A6000500E50F1000041EB045170BD06F00046BD
:104A700046EA010140EA020081EA0301B4EB5C046A
:104A8000C2BFD4EB0C0541EA045170BD41F4801162
:104A90004FF0000E013C00F3AB8014F1360FDEBF87
:104AA000002001F0004170BDC4F10004203C35DA63
:104AB0000C341BDC04F11404C4F1200500FA05F3E6
:104AC00020FA04F001FA05F240EA020001F0004287
:104AD00021F0004110EBD37021FA04F642EB0601FD
:104AE0005EEA430E08BF20EAD37070BDC4F10C0427
:104AF000C4F1200500FA04F320FA05F001FA04F2EB
:104B000040EA020001F0004110EBD37041F10001D6
:104B10005EEA430E08BF20EAD37070BDC4F12005E1
:104B200000FA05F24EEA020E20FA04F301FA05F249
:104B300043EA020321FA04F001F0004121FA04F2F1
:104B400020EA020000EBD3705EEA430E08BF20EAC1
:104B5000D37070BD94F0000F0FD101F000464000FB
:104B600041EB010111F4801F08BF013CF7D041EA7D
:104B7000060195F0000F18BF704703F00046520081
:104B800043EB030313F4801F08BF013DF7D043EA52
:104B90000603704794EA0C0F0CEA135518BF95EA08
:104BA0000C0F0CD050EA410618BF52EA4306D1D18F
:104BB00081EA030101F000414FF0000070BD50EAAE
:104BC000410606BF1046194652EA430619D094EA38
:104BD0000C0F02D150EA013613D195EA0C0F05D122
:104BE00052EA03361CBF104619460AD181EA030176
:104BF00001F0004141F0FE4141F470014FF000002E
:104C000070BD41F0FE4141F4780170BD70B54FF0C8
:104C1000FF0C4CF4E06C1CEA11541DBF1CEA135548
:104C200094EA0C0F95EA0C0F00F0A7F8A4EB05042A
:104C300081EA030E52EA03354FEA013100F0888021
:104C40004FEA03334FF0805545EA131343EA1263EA
:104C50004FEA022245EA111545EA10654FEA00269F
:104C60000EF000419D4208BF964244F1FD0404F558
:104C7000407402D25B084FEA3202B61A65EB0305B4
:104C80005B084FEA32024FF480104FF4002CB6EB71
:104C9000020E75EB030E22BFB61A754640EA0C00F1
:104CA0005B084FEA3202B6EB020E75EB030E22BF31
:104CB000B61A754640EA5C005B084FEA3202B6EB72
:104CC000020E75EB030E22BFB61A754640EA9C0031
:104CD0005B084FEA3202B6EB020E75EB030E22BF01
:104CE000B61A754640EADC0055EA060E18D04FEABF
:104CF000051545EA16754FEA06164FEAC30343EA5F
:104D000052734FEAC2025FEA1C1CC0D111F4801F2B
:104D10000BD141EA00014FF000004FF0004CB6E724
:104D200011F4801F04BF01430020B4F1FD0C88BFC3
:104D3000BCF5E06F3FF6AFAEB5EB030C04BFB6EBCE
:104D4000020C5FEA500C50F1000041EB045170BDC1
:104D50000EF0004E4EEA113114EB5C04C2BFD4EBEE
:104D60000C0541EA045170BD41F480114FF0000E72
:104D7000013C90E645EA060E8DE60CEA135594EAEE
:104D80000C0F08BF95EA0C0F3FF43BAF94EA0C0FF1
:104D90000AD150EA01347FF434AF95EA0C0F7FF466
:104DA00025AF104619462CE795EA0C0F06D152EABA
:104DB00003353FF4FDAE1046194622E750EA41069E
:104DC00018BF52EA43067FF4C5AE50EA41047FF4AF
:104DD0000DAF52EA43057FF4EBAE12E780F00040DE
:104DE00002E000BF81F0004142001FBF5FEA4103C3
:104DF00092EA030F7FEA226C7FEA236C6AD04FEAC3
:104E00001262D2EB1363C1BFD21841404840414007
:104E1000B8BF5B42192B88BF704710F0004F40F4B9
:104E2000000020F07F4018BF404211F0004F41F4D5
:104E3000000121F07F4118BF494292EA030F3FD0A1
:104E4000A2F1010241FA03FC10EB0C00C3F12003B4
:104E500001FA03F100F0004302D5494260EB400043
:104E6000B0F5000F13D3B0F1807F06D340084FEAAE
:104E7000310102F10102FE2A51D2B1F1004F40EBA3
:104E8000C25008BF20F0010040EA0300704749000B
:104E900040EB000010F4000FA2F10102EDD1B0FAD6
:104EA00080FCACF1080CB2EB0C0200FA0CF0AABFCB
:104EB00000EBC25052421843BCBFD0401843704769
:104EC00092F0000F81F4000106BF80F4000001326F
:104ED000013BB5E74FEA41037FEA226C18BF7FEA46
:104EE000236C21D092EA030F04D092F0000F08BF88
:104EF0000846704790EA010F1CBF0020704712F06F
:104F00007F4F04D1400028BF40F00040704712F1AD
:104F100000723CBF00F50000704700F0004343F012
:104F2000FE4040F4000070477FEA226216BF084648
:104F30007FEA23630146420206BF5FEA412390EA0B
:104F4000010F40F4800070474FF0000304E000BF01
:104F500010F0004348BF40425FEA000C08BF7047B2
:104F600043F0964301464FF000001CE050EA010276
:104F700008BF70474FF000030AE000BF50EA01028B
:104F800008BF704711F0004302D5404261EB410178
:104F90005FEA010C02BF84460146002043F0B6439D
:104FA00008BFA3F18053A3F50003BCFA8CF2083AC2
:104FB000A3EBC25310DB01FA02FC634400FA02FCCB
:104FC000C2F12002BCF1004F20FA02F243EB0200D2
:104FD00008BF20F00100704702F1200201FA02FC34
:104FE000C2F1200250EA4C0021FA02F243EB020027
:104FF00008BF20EADC7070474FF0FF0C1CEAD0526B
:105000001EBF1CEAD15392EA0C0F93EA0C0F6FD02B
:105010001A4480EA010C400218BF5FEA41211ED009
:105020004FF0006343EA501043EA5111A0FB0131F5
:105030000CF00040B1F5000F3EBF490041EAD371CA
:105040005B0040EA010062F17F02FD2A1DD8B3F146
:10505000004F40EBC25008BF20F00100704790F0B5
:10506000000F0CF0004C08BF49024CEA502040EA07
:1050700051207F3AC2BFD2F1FF0340EAC2507047CD
:1050800040F400004FF00003013A5DDC12F1190F0B
:10509000DCBF00F000407047C2F10002410021FA7D
:1050A00002F1C2F1200200FA02FC5FEA310040F195
:1050B000000053EA4C0308BF20EADC70704792F00E
:1050C000000F00F0004C02BF400010F4000F013A46
:1050D000F9D040EA0C0093F0000F01F0004C02BF41
:1050E000490011F4000F013BF9D041EA0C018FE7B0
:1050F0000CEAD15392EA0C0F18BF93EA0C0F0AD0B6
:1051000030F0004C18BF31F0004CD8D180EA0100DB
:1051100000F00040704790F0000F17BF90F0004F74
:10512000084691F0000F91F0004F14D092EA0C0F56
:1051300001D142020FD193EA0C0F03D14B0218BFE9
:10514000084608D180EA010000F0004040F0FE402F
:1051500040F40000704740F0FE4040F440007047CB
:105160004FF0FF0C1CEAD0521EBF1CEAD15392EA4A
:105170000C0F93EA0C0F69D0A2EB030280EA010C3A
:1051800049024FEA402037D04FF0805343EA1111D3
:1051900043EA10130CF000408B4238BF5B0042F131
:1051A0007D024FF4000C8B4224BF5B1A40EA0C00D6
:1051B000B3EB510F24BFA3EB510340EA5C00B3EB08
:1051C000910F24BFA3EB910340EA9C00B3EBD10FF6
:1051D00024BFA3EBD10340EADC001B0118BF5FEA48
:1051E0001C1CE0D1FD2A3FF650AF8B4240EBC25071
:1051F00008BF20F0010070470CF0004C4CEA502032
:105200007F32C2BFD2F1FF0340EAC250704740F480
:1052100000004FF00003013A37E792F0000F00F072
:10522000004C02BF400010F4000F013AF9D040EAF0
:105230000C0093F0000F01F0004C02BF490011F484
:10524000000F013BF9D041EA0C0195E70CEAD1537C
:1052500092EA0C0F08D142027FF47DAF93EA0C0F63
:105260007FF470AF084676E793EA0C0F04D14B0247
:105270003FF44CAF08466EE730F0004C18BF31F0F9
:10528000004CCAD130F000427FF45CAF31F00043F3
:105290007FF43CAF5FE700BF4FF0FF3C06E000BF8C
:1052A0004FF0010C02E000BF4FF0010C4DF804CDAF
:1052B0004FEA40024FEA41037FEA226C18BF7FEABF
:1052C000236C11D001B052EA530C18BF90EA010FC1
:1052D00058BFB2EB030088BFC81738BF6FEAE17050
:1052E00018BF40F0010070477FEA226C02D15FEAEC
:1052F000402C05D17FEA236CE4D15FEA412CE1D058
:105300005DF8040B704700BF844608466146FFE71E
:105310000FB5FFF7C9FF002848BF10F1000F0FBD00
:105320004DF808EDFFF7F4FF0CBF012000205DF8F9
:1053300008FB00BF4DF808EDFFF7EAFF34BF01207E
:1053400000205DF808FB00BF4DF808EDFFF7E0FF17
:1053500094BF012000205DF808FB00BF4DF808ED68
:10536000FFF7D2FF94BF012000205DF808FB00BFCB
:105370004DF808EDFFF7C8FF34BF012000205DF8AD
:1053800008FB00BF4FEA4002B2F1FE4F0FD34FF0CF
:105390009E03B3EB12620DD94FEA002343F00043A2
:1053A00010F0004F23FA02F018BF404270474FF050
:1053B0000000704712F1610F01D1420205D110F0D7
:1053C000004008BF6FF0004070474FF0000070478A
:1053D00070B50F4E0F4D761BB61018BF002405D0C8
:1053E000013455F8043B9847A642F9D10A4E0B4DBB
:1053F00004F062FA761BB61018BF002406D0013400
:1054000055F8043B9847A642F9D170BD70BD00BF66
:10541000C4980800C4980800CC980800C4980800F4
:1054200070B4860746D0541E002A41D0CAB2034643
:1054300002E014F1FF343BD303F8012B9D07F8D1B0
:10544000032C2ED9CDB245EA05250F2C45EA05459A
:1054500019D9264603F11002103E0F2E42F8105CB7
:1054600042F80C5C42F8085C42F8045C02F110025D
:10547000F2D8A4F1100222F00F0204F00F0410324F
:10548000032C13440DD91E462246043A032A46F83B
:10549000045BFAD8221F22F003020432134404F002
:1054A00003042CB1C9B21C4403F8011B9C42FBD17C
:1054B00070BC704714460346C2E700BF0EB40146F5
:1054C000F0B56FF000454FF402774FF6FF769CB0D1
:1054D00021AC54F8042B0B4B02910691186802A9D9
:1054E00023460194ADF8147004950795ADF8166045
:1054F00000F038F80022029B1A701CB0BDE8F040A2
:1055000003B07047A401072020F0030110F003004E
:10551000C0F1000051F8043B00F1040C4FEACC0C40
:105520006FF000021CBF22FA0CF213434FF0010C83
:105530004CEA0C2C4CEA0C4CA3EB0C0222EA0302C2
:1055400012EACC1204BF51F8043B0430F4D0C2F18B
:10555000000102EA0102B2FA82F2C2F11F0200EB7C
:10556000D20070472DE9F04FC3B00C460B91924624
:105570000F930C9002F058FA036818461A93FFF73D
:10558000C3FFA3891990190603D52369002B01F0E5
:10559000358000230DF1C809C84615931393149361
:1055A00018931B9309931693179327932693CDF87B
:1055B00094909AF800305446EBB1252B02D11AE0B2
:1055C000252B03D014F8013F002BF9D1A4EB0A05D9
:1055D0008DB1269B279A01332A44072BC8F800A0D7
:1055E000C8F804502792269300F38A8008F108082F
:1055F000099B2B4409932378002B00F0898000231A
:105600004FF0FF301A468DF8773019460D939B46C0
:10561000637804F1010A0A900AF1010AA3F120005B
:10562000582800F2B783DFE810F04C03B503B50348
:105630005403B503B503B503B503B503B50359006A
:105640005903B50366001402B5032F02A503A50391
:10565000A503A503A503A503A503A503A503B503FA
:10566000B503B503B503B503B503B503B503B5037A
:10567000B5038B02D302B503D302B503B503B5035B
:10568000B5031B03B503B5032003B503B503B50389
:10569000B503B5033402B503B5034B02B503B50337
:1056A000B503B503B503B503B503B503B503B5033A
:1056B00076029E03D302D302D30263039E03B50393
:1056C000B5036803B5037503DD018C035E03B50301
:1056D000F201B5038700B503B50332030F9C2368BD
:1056E00018460D932346002803F104030F9304DAB0
:1056F0000D9B5B420D934BF0040B9AF800308BE747
:1057000025AA0B990C9803F019F840B9C8466FE721
:10571000279B23B10C9825AA0B9903F00FF80B9B3C
:105720009B8913F0400F099B18BF4FF0FF3309937B
:10573000099843B0BDE8F08F1BF0200F119340F0A3
:10574000AF810F9A1BF0100F134640F09A851BF0A3
:10575000400F00F0968500250123148804320F9233
:10576000002217468DF877200A994A1C00F0108213
:105770002BF08002079254EA050240F00F820029C4
:1057800040F03184002B40F039851BF001030E936B
:1057900000F06286302342AE06F8413D0A9B0E9A25
:1057A0009342B8BF134608930023129317B1089B86
:1057B00001330893079B13F00203109302D0089B58
:1057C00002330893079B13F0840540F010830D9B70
:1057D000089AA3EB020BBBF1000F40F30883BBF167
:1057E000100F40F3B287279C43462146A846102756
:1057F000269A0C9C0B9D06E0ABF1100BBBF1100F31
:1058000003F1080318DD0132AB481031072A279154
:10581000269283E88100EFDD25AA2946204602F082
:105820008DFF00287FF47BAFABF1100BBBF1100FA5
:105830004B462799269AE6DC45460C4698460132A7
:105840009D4B5C44072A2794269288E8080800F3B9
:10585000C3829DF8777008F1080887B10121269B63
:105860000C440B440DF17702072B27942693C8F8BC
:105870000410C8F8002000F3CD8308F10808109B3D
:105880007BB10221269B0C4401331EAA072B2794CF
:105890002693C8F80410C8F8002000F3118408F11A
:1058A0000808802D00F004830A9B0E9A9F1A002F8F
:1058B00037DD102F40F37986804D42462146B046B1
:1058C0004FF0100B2E46269B0C9C0B9D04E0103FC6
:1058D000102F02F1080215DD01331031072B27913B
:1058E000269382E84008F2DD25AA2946204602F0E8
:1058F00025FF00287FF413AF103F102F4A46279949
:10590000269BE9DC35460C464646904601333C442E
:10591000072B2794269388E8A00000F3708308F1F2
:105920000808079BDF0500F16482269B0E9901336E
:105930000C44072B2794C8F80060C8F8041026937D
:1059400000F3B38308F10808079B5B073BD50D9B69
:10595000089A9D1A002D36DD102D40F32187102660
:10596000269B0C9FDDF82CB004E0103D102D08F1B3
:10597000080816DD0133504A1034072B279426936C
:1059800088E84400F1DD25AA5946384602F0D6FEE3
:1059900000287FF4C4AE103D102DC846279C269BDE
:1059A000E8DC0133444A2C44072B2794269388E8EB
:1059B000240008DD25AA0B990C9802F0BFFE0028F0
:1059C0007FF4ADAE279C099B0D9A08998A42ACBF23
:1059D0009B185B180993002C40F0FB820023C846FB
:1059E0002693E6E511931BF0200340F045811BF060
:1059F000100240F066841BF0400300F062840F99AF
:105A000013460A4604320C8800250F92A8E60025AA
:105A10000F9A119316688DF87750141D002E00F020
:105A2000CD860A9A531C00F01B862946304602F0A8
:105A3000AFFA002800F00D87831B0A950E930F9490
:105A4000CDF81CB023EAE373089312959DF87770A4
:105A5000ACE69AF800300AF101042A2B00F0C28764
:105A6000A3F130000928A24600F2188700231C4643
:105A70001AF8013B04EB840400EB4404A3F130006A
:105A80000928F5D90A94C9E54BF0800B9AF8003043
:105A9000C2E54BF0100B1BF0200F11933FF451AEF9
:105AA0000F9C073424F0070303F10802D3E90045F3
:105AB0000F92012354E600BF7896080088960800EC
:105AC0001193002A40F0AD87BE4B1BF0200F1893B6
:105AD00040F0E7800F9A1BF0100F134640F0D88378
