S019000053656E736F7220436F6E74726F6C6C65722E737265634D
S21408000018260720D1110800C9110800C9110800D0
S214080010C9110800C9110800C9110800000000002D
S214080020000000000000000000000000C9110800E1
S214080030C911080000000000C9110800B502080030
S214080040C9110800C9110800C9110800C91108001B
S214080050C9110800C9110800C9110800C91108000B
S214080060C9110800C911080000000000C9110800DD
S214080070C9110800C9110800C911080000000000CD
S21408008000000000C9110800C9110800C9110800BD
S214080090C9110800C9110800C9110800C9110800CB
S2140800A0C911080000000000C9110800C91108009D
S2140800B0C9110800C9110800C9110800C9110800AB
S2140800C0C9110800C9110800C9110800C91108009B
S2140800D0C9110800C9110800C91108009D160800B2
S2140800E0C9110800C9110800C9110800C91108007B
S2140800F0C911080010B5054C237833B9044B13B161
S2140801000448AFF300800123237010BDBC05072008
S21408011000000000901B08000C4B43B10C4810B5BB
S2140801200C49AFF300800C48036823B910BD0A4891
S214080130036833B97047094B002BF7D0BDE8104069
S2140801401847064B002BF5D0184700BF00000000E4
S214080150901B0800C0050720901B08000000000040
S21408016080B487B000AFF860B9607A603B60FB681F
S21408017001221A60FB6800225A60FB6840F20222DD
S214080180C3F82021FB680022C3F80421FB6800227C
S214080190C3F814217B685B00BA68B2FBF3F3013B33
S2140801A07B61FB685A687B691B0299B23B680B4304
S2140801B01A43FB685A60002318461C37BD4680BCA5
S2140801C0704780B483B000AF78600B46FB70134668
S2140801D0BB707B685A68F978BB78DB01DBB20B43E7
S2140801E01A437B685A6000BF0C37BD4680BC704710
S2140801F080B485B000AFF8607A601A460B46FB728A
S2140802001346BB72FB685A68BB7A1B0703F040515B
S2140802107B681943FB7A1B0603F070630B431A438B
S214080220FB685A6000BF1437BD4680BC704780B470
S21408023083B000AF78607B6802221A6000BF0C3774
S214080240BD4680BC704780B483B000AF78600B466C
S214080250FB70FB78012202FA03F31A467B681A61E0
S21408026000BF0C37BD4680BC704780B485B000AF71
S21408027078600B46FB700023FB60FB780F2B07D8D3
S2140802807B6803F15002FB789B0013441B68FB60F5
S214080290FB6818461437BD4680BC704780B483B0E8
S2140802A000AF78607B681B6B18460C37BD4680BC71
S2140802B07047000080B400AF044B1B680133034A44
S2140802C0136000BFBD4680BC704700BFD805072036
S2140802D080B400AF024B1B681846BD4680BC70470A
S2140802E0D805072080B485B000AF7860074B1B6838
S2140802F0FB6000BF054B1A68FB68D21A7B689A42F7
S214080300F8D300BF1437BD4680BC7047D805072011
S21408031080B500AF144B98470246144B1B68D31A97
S214080320B3F5FA7F1DD9104B984702460F4B1A6053
S21408033000BF0F480F4B9847034603F08073B3F18E
S214080340807FF6D101210A480B4B984702460B4B93
S214080350A3FB02239B08DAB2094B5A700448094BE0
S214080360984700BF80BD00BFD1020800DC05072003
S21408037000000C409D0208006B020800398EE33826
S214080380F00507202F02080080B483B000AF78601D
S21408039039607B685B6823F470227B685A607B68E8
S2140803A05A683B681B0403F470231A437B685A6038
S2140803B000BF0C37BD4680BC704780B485B000AF20
S2140803C0F860B9607A607B68002B0CD0FB68BA6866
S2140803D00C3253F8223043F00101FB68BA680C323D
S2140803E043F822100BE0FB68BA680C3253F8223048
S2140803F023F00101FB68BA680C3243F8221000BFEC
S2140804001437BD4680BC704780B485B000AFF8602E
S214080410B9607A607B68002B0CD0FB68BA680C322F
S21408042053F8223043F00201FB68BA680C3243F8EE
S21408043022100BE0FB68BA680C3253F8223023F01F
S2140804400201FB68BA680C3243F8221000BF143762
S214080450BD4680BC704780B485B000AFF860B96010
S2140804607A60FB68BA680C3253F8223023F0F00141
S214080470FB68BA680C3243F82210FB68BA680C327C
S21408048053F822207B6842EA0301FB68BA680C32FC
S21408049043F8221000BF1437BD4680BC70470000E2
S2140804A080B582B000AF78607868034B984700BF85
S2140804B00837BD4680BD00BFFB04080080B483B083
S2140804C000AF78600B46FB707B681B6823F0100251
S2140804D0FB781A437B681A6000BF0C37BD4680BCA1
S2140804E0704780B483B000AF78607B6801225A609A
S2140804F000BF0C37BD4680BC704780B483B000AFE1
S21408050078607B685B6823F001027B685A6000BFEE
S2140805100C37BD4680BC704780B483B000AF7860A7
S21408052039607B683A689A6100BF0C37BD4680BC64
S214080530704780B483B000AF78607B685B6A184603
S2140805400C37BD4680BC704780B483B000AF786077
S214080550396001223B689A407B689A6200BF0C3774
S214080560BD4680BC704780B483B000AF7860396001
S21408057001223B689A407B68DA6200BF0C37BD46AA
S21408058080BC704780B485B000AFF860B9607A6008
S214080590F968BA6813469B001344DB000B443C33E7
S2140805A07A681A6000BF1437BD4680BC704780B4AE
S2140805B085B000AFF860B9607A60F968BA68134623
S2140805C09B001344DB000B4440337A681A6000BF74
S2140805D01437BD4680BC704780B485B000AFF8605D
S2140805E0B9607A60F968BA6813469B001344DB0062
S2140805F00B4444337A681A6000BF1437BD4680BC83
S214080600704780B485B000AFF860B9607A60F96862
S214080610BA6813469B001344DB000B4448337A68D9
S2140806201A6000BF1437BD4680BC704780B485B0DA
S21408063000AFF860B9607A60F968BA6813469B003C
S2140806401344DB000B444C337A681A6000BF143737
S214080650BD4680BC704780B485B000AFF860B9600E
S2140806607A60F968BA6813469B001344DB000B44AB
S21408067050337A681A6000BF1437BD4680BC70478E
S21408068080B584B000AFF860B9607A60FB685B6AD2
S2140806907B681B681A46B968F868104B98477B68E9
S2140806A05B681A46B968F8680D4B98470022B9681F
S2140806B0F8680C4B98477B689B681A46B968F868D0
S2140806C0094B98477B68DB681A46B968F868074B91
S2140806D0984700BF1037BD4680BD00BF8505080097
S2140806E0AF050800D9050800030608002D0608000F
S2140806F080B582B000AF78607B68072B31D801A23E
S21408070052F823F061070800250708002D0708009F
S214080710350708003D070800450708004D0708008C
S214080720570708000020114B98471AE001200F4B86
S214080730984716E000200E4B984712E010200C4B06
S21408074098470EE020200A4B98470AE03E210020F2
S214080750084B984705E03E210120064B984700E0E5
S21408076000BF00BF0837BD4680BD00BFDD0A0800D1
S214080770490B0800B90B080080B582B000AF786056
S2140807807B68072B26D801A252F823F0AD0708008D
S214080790B1070800B1070800C3070800C307080028
S2140807A0C3070800C3070800C3070800012312E0B0
S2140807B00B4B98470346002B14BF01230023DBB2DC
S2140807C009E0084B98470346002B14BF0123002373
S2140807D0DBB200E0002318460837BD4680BD00BFE0
S2140807E0150B0800310C080080B483B000AF7860A1
S2140807F07B68072B25D801A252F823F01D080800AD
S21408080023080800290808002F08080033080800ED
S214080810370808003B0808003F0808004FF4FA436A
S21408082010E04FF400430DE04FF400430AE0084B95
S21408083008E0084B06E0084B04E0074B02E0064BCE
S21408084000E0002318460C37BD4680BC704700BF42
S21408085000093D0000127A00001BB70080B582B080
S21408086000AF0346FB7100BFFB791846054B984757
S214080870034683F00103DBB2002BF5D100BF08372F
S214080880BD4680BD7907080080B586B000AFF86021
S2140808907A603B600B46FB727B68002B07D13B688F
S2140808A0002B04D1FB684FF470021A6019E0FB7A3B
S2140808B018460E4B984702467B68B2FBF3F37B61FB
S2140808C07B693A6802FB03F37B613B68013B1A04C9
S2140808D0074B13407A68D2B2134343F47C52FB6842
S2140808E01A6000BF1837BD4680BD00BFE90708007C
S2140808F00000FF0780B582B000AF786039603B68BB
S214080900002B08D1094B9847094A7B681B6843F0B7
S2140809100053936205E0064A7B681B6843F48033FD
S214080920D36100BF0837BD4680BD00BF490C08002C
S21408093000060E4080B582B000AF78607B68002B5A
S21408094003D1054B9847034602E0044B98470346F5
S21408095018460837BD4680BD610C0800790C0800AB
S21408096080B582B000AF0346FB71FB79033B042BCE
S21408097008D8FB791846064B9847FB791846054B66
S214080980984700E000BF00BF0837BD4680BD00BFDF
S214080990F10608005D08080080B582B000AF7860F0
S2140809A000BF7868044B98470346002BF9D000230D
S2140809B018460837BD4680BD3509080080B500AF23
S2140809C00620044B984702461346DB009B1A5B003A
S2140809D0184680BDE907080080B500AF024B984767
S2140809E003465B08184680BDBD09080090B583B06D
S2140809F000AF1148114B98470620114B9847381DF1
S214080A000E23012206210F4CA0473B1D0021184645
S214080A100D4B984700200D4B984710200C4B9847D5
S214080A200C4B98470C4B984703461846034B984779
S214080A3000BF0C37BD4690BD00BD0105D10007209C
S214080A406109080089080800F508080099090800DF
S214080A505D0A080079120800D909080080B485B034
S214080A6000AF78601C491C4B1B6B23F070027B6838
S214080A7013430B634FF40063FB6007E0FB68002B2F
S214080A8001D1012323E0FB68013BFB60124B9B6E00
S214080A9003F00803002BF1D00F4A0F4B1B6B23F013
S214080AA0030343F0020313634FF40063FB6007E09D
S214080AB0FB68002B01D1012309E0FB68013BFB60C2
S214080AC0054B9B6E03F00803002BF1D00023184655
S214080AD01437BD4680BC704700060E4080B483B00D
S214080AE000AF78607B68012B07D1084A074B9B68E4
S214080AF043F0254343F480139360044B044A1A607A
S214080B0000BF0C37BD4680BC704700BF101A0E40A9
S214080B10080000A580B400AF094B5B6903F08003AA
S214080B20002B07D0074B9B6E03F08003002B01D0E9
S214080B30012300E000231846BD4680BC704700BF6E
S214080B40101A0E4000060E4080B483B000AF7860DE
S214080B50184A184B1B6A43F45C1343F008031362E5
S214080B6000BF144B9B6E03F40033002BF9D01149D9
S214080B70104B1B6A23F45C1323F070037A68134344
S214080B8043F45C130B6200BF0A4B9B6E03F40033FE
S214080B90002BF9D0074A074B1B6A23F09B7323F4F4
S214080BA0803343F45C13136200BF0C37BD4680BC29
S214080BB0704700BF00060E4080B483B000AF786070
S214080BC039607B68002B08D01649164B1B6A164AF4
S214080BD01A40164B13430B621EE01249114B1B6A50
S214080BE023F45C1323F003033A68120292B2134309
S214080BF043F45C1343F001030B6200BF094B9B6E82
S214080C0003F00103002BF9D0064A064B1B6A43F093
S214080C109B7343F48033136200BF0C37BD4680BC19
S214080C20704700BF00060E40FCFFC8FE02003701F2
S214080C3080B400AF034B9B6E03F480331846BD4662
S214080C4080BC704700060E4080B400AF034B4FF0E0
S214080C5000529A6200BFBD4680BC704700060E4030
S214080C6080B400AF034B9B6E03F002031846BD46E4
S214080C7080BC704700060E4080B400AF034B9B6EE6
S214080C8003F040031846BD4680BC704700060E4079
S214080C9080B483B000AF78607B682C2B01D9012321
S214080CA02FE07B681F2B13D8184B9A6901217B68A5
S214080CB001FA03F31A4001217B6801FA03F39A420A
S214080CC01ED0124A01217B6801FA03F3136117E06C
S214080CD07B68203B7B600D4BD3F8082101217B689D
S214080CE001FA03F31A4001217B6801FA03F39A42DA
S214080CF006D0064A01217B6801FA03F3C2F80031E0
S214080D00002318460C37BD4680BC704700060E40C8
S214080D1080B483B000AF78607B68072B25D801A223
S214080D2052F823F0450D08004B0D0800510D080039
S214080D30570D08005B0D08005F0D0800630D0800DE
S214080D40670D08004FF4FA4310E04FF400430DE037
S214080D504FF400430AE0084B08E0084B06E0084B4F
S214080D6004E0074B02E0064B00E0002318460C3769
S214080D70BD4680BC704700BF00093D0000127A00DF
S214080D80001BB70080B500AF0620044B9847024604
S214080D901346DB009B1A5B00184680BD110D080041
S214080DA080B500AF024B984703465B08184680BDDF
S214080DB0850D080080B582B000AF78607868034B70
S214080DC0984700BF0837BD4680BD00BF910C080095
S214080DD080B500AF0B20064B98470C20044B98476D
S214080DE00D20034B98470E20014B984700BF80BD47
S214080DF0B50D080080B489B000AF78607B68FB61E9
S214080E00FB69BB61BB695A09FB697B617B6903F0B7
S214080E101F03012101FA03F33A61FB603B69BB60DB
S214080E20BB6803F5001303F207735B021A46FB68F8
S214080E30536000BF2437BD4680BC704780B48DB071
S214080E4000AF786039607B68FB623B68BB62FB6A10
S214080E507B627B6A5A09FB6A3B623B6A03F01F03A4
S214080E60012101FA03F3FA61BB61BB6A7B61FB6986
S214080E703B613B6903F5001303F207735B02FB60F3
S214080E807B6903F00803002B03D0FB68BA695A662F
S214080E9002E0FB68BA691A667B6903F02003002B38
S214080EA003D0FB68BA691A6502E0FB68BA695A6536
S214080EB07B6903F0C003002B03D0FB68BA691A628B
S214080EC002E0FB68BA695A627B6903F08003002B6C
S214080ED004D0FB68BA69C3F8842003E0FB68BA69E3
S214080EE0C3F880207B6903F00103002B06D0FB685B
S214080EF01A6FBB691A43FB681A6706E0FB681A6F25
S214080F00BB69DB431A40FB681A6700BF3437BD4627
S214080F1080BC704780B48DB000AF78600B46FB701D
S214080F207B68FB62FB7887F82B30FB6A7B627B6A00
S214080F303B623B6A5B09FB61FB6903F5001303F23E
S214080F4007735B02BB6197F82B30012B09D1FB6A4C
S214080F507B617B6903F01F0301229A40BB691A6113
S214080F600CE097F82B30002B08D1FB6A3B613B69F5
S214080F7003F01F0301229A40BB695A61FB6AFB60B3
S214080F80FB6803F01F0301229A40BB69C3F8A02040
S214080F9000BF3437BD4680BC704780B48BB000AF06
S214080FA078600B46FB707B687B62FB7887F823309B
S214080FB07B6AFB61FB69BB61BB695B097B617B691B
S214080FC003F5001303F207735B023B6197F82330BF
S214080FD0002B09D07B6AFB60FB6803F01F03012225
S214080FE09A403B691A6308E07B6ABB60BB6803F0FB
S214080FF01F0301229A403B695A6300BF2C37BD463F
S21408100080BC704798B500AF614B4FF400425A60F9
S214081010604B9847012163205F4B98470021632067
S2140810205E4B9847012162205B4B9847002162205F
S2140810305A4B984701216120574B98470021612059
S214081040564B984701216020534B98470021602053
S214081050524B984700211920514B98471920514B5D
S214081060984700211A204E4B98471A204D4B984710
S21408107000211B204A4B98471B204A4B98470021C3
S2140810801C20474B98471C20464B9847082152205F
S214081090434B984708215D20414B984708214A2032
S2140810A03F4B9847082155203D4B98470821572025
S2140810B03B4B984708215A20394B9847082141202E
S2140810C0374B984708214520354B98470821492033
S2140810D0334B984708214C20314B984708214E201F
S2140810E02F4B9847082150202D4B98470821512010
S2140810F02B4B984708215320294B984708215E20F8
S214081100274B984708215420254B984708215620F6
S214081110234B984708215820214B984708215B20E5
S2140811201F4B9847082143201D4B98470821472006
S2140811301B4B984708214B20194B984708214D20F0
S214081140174B984708214F20154B98472520164BD4
S2140811509847164B984701464FF48023144A15487B
S214081160154CA04701234FF4401201211148134C97
S214081170A04701210F48124B984702210D48104BF3
S2140811809847002200210B480E4B984700BF98BD91
S214081190501A0E40D10D0800150F08009B0F0800C6
S2140811A03D0E0800F50D0800910C0800A10D08007A
S2140811B000A8610000000C4061010800F101080069
S2140811C047020800C301080080B400AFFEE700002D
S2140811D080B582B000AF1E4B7B601E4B3B607A68C2
S2140811E03B689A420CD007E03B681A1D3A607A685A
S2140811F0111D796012681A603B68174A9342F3D348
S214081200164B3B6004E03B681A1D3A6000221A60E1
S2140812103B68134A9342F6D3124B7B60124A7B68AC
S21408122023F0604323F07F0393607B68B3F1005F8D
S21408123009D37B680D4A934205D80B4A0A4B9B682C
S21408124043F0005393600A4B98470A4B9847FEE7CB
S214081250901B080000000720BC050720BC050720D7
S214081260180607200000080000ED00E0FFFF0F202A
S214081270F9190800C918080080B400AF574B1B6B53
S21408128003F00303032B00F28A8001A252F823F02E
S214081290A1120800C1120800111308001113080053
S2140812A04F4B5B6903F08003002B04D04D4B4FF483
S2140812B000421A6073E04B4B4FF4FA421A606EE035
S2140812C0464B1B6A03F08073002B03D0454B464AF7
S2140812D01A6064E0434B454A1A60404B1B6A03F0A9
S2140812E07003102B04D0202B08D0002B0ED00EE055
S2140812F03C4B1B685B003B4A136008E0394B1A6896
S21408130013465B001344374A136000E000BF46E00C
S214081310324B1B6A03F08073002B03D0314B324AE2
S2140813201A601CE02F4B314A1A602C4B1B6A03F0DC
S2140813307003102B04D0202B08D0002B0ED00EE004
S214081340284B1B685B00274A136008E0254B1A6881
S21408135013465B001344234A136000E000BF1F4B8C
S2140813601B6B03F00303022B15D11C4B9B6A1B0C4B
S214081370C3F30A0301331B4A126802FB03F3194A34
S2140813801360164B9B6ADBB2164A1268B2FBF3F37D
S214081390144A136002E0134B154A1A6000BF0F4B3D
S2140813A01B6B03F07003702B08D10E4B1B68114A99
S2140813B0A2FB03235B080B4A13600AE0074B1B6B70
S2140813C01B0903F00703074A126822FA03F3054AC3
S2140813D0136000BFBD4680BC704700BF00060E40C5
S2140813E0101A0E408C010720001BB70000093D00AC
S2140813F0001C4E0EABAAAAAA80B483B000AF034660
S214081400FB71084997F907305B09FA7902F01F0261
S214081410012000FA02F241F8232000BF0C37BD462F
S21408142080BC704700E100E080B483B000AF78600D
S2140814307B6880221A6000BF0C37BD4680BC7047A8
S21408144080B483B000AF78607B6801221A6000BF62
S2140814500C37BD4680BC704780B483B000AF786058
S2140814607B6802221A6000BF0C37BD4680BC7047F6
S21408147080B483B000AF78607B685B6823F00102B5
S2140814807B685A6000BF0C37BD4680BC704780B486
S21408149083B000AF78607B685B6843F010027B68B7
S2140814A05A6000BF0C37BD4680BC704780B500AF99
S2140814B0024B9847024B984700BF80BD111608009C
S2140814C05D15080080B588B000AF786039600121E6
S2140814D01A481B4B98477B68FB601A4B3B613B6876
S2140814E07B61194BBB610023FB6107F10C031A46AD
S2140814F001211248154B984701211048144B98476C
S21408150000210E480E4B9847124BFB607B683B61E8
S2140815103B687B61104BBB610023FB6107F10C0342
S2140815201A4600210548094B984700210348084BEE
S214081530984700BF2037BD4680BD00BF00400C401E
S214081540670508000C80004000003120810608006E
S21408155049050800088000400000510280B500AF29
S21408156001211B481B4B984700211948194B9847DF
S2140815701820194B98471948194B98471748194B7C
S21408158098471648184B98471448184B98470E2102
S2140815901248174B9847002200211048154B9847C9
S2140815A0012200210D48144B9847002200210B48C1
S2140815B0124B98470948124B9847124B1B889BB208
S2140815C0114A138002211048104B984700BF80BD6F
S2140815D000400C4067050800910C08000080004099
S2140815E05914080029140800711408008F140800FC
S2140815F089030800BB03080009040800570408000C
S21408160041140800F0050720E8050720C51408005F
S21408161080B582B000AF2720184B98471848194B5A
S214081620984710211648184B98471548174B98475F
S21408163000237B607B6843F4813343F002037B60BE
S2140816407A6800210E48124B984700237B607B6817
S21408165043F4903343F010037B607A68012108480E
S2140816600B4B984727200B4B9847012104480A4BF9
S214081670984700BF0837BD4680BD00BF910C0800DC
S21408168000400C40A1040800BD040800E30408005C
S21408169057060800F91308001905080080B500AFBA
S2140816A00A480B4B984702460A4B1A60094B1B68B8
S2140816B003F00103002B07D0074B1B889BB2074A91
S2140816C01380074B01221A7000BF80BD00400C40F3
S2140816D033050800E4050720E8050720EC05072081
S2140816E0E005072080B500AF084B1B78002B0BD011
S2140816F0064B00221A70064B1B889BB2054A1380BD
S21408170002210448044B984700BF80BDE005072027
S214081710F0050720E8050720C514080080B483B044
S21408172000AF03463960FB7197F90730002B0BDAD8
S2140817300D49FB7903F00F03043B3A68D2B2120155
S214081740D2B20B441A7609E0084997F907303A6886
S214081750D2B21201D2B20B4483F8002300BF0C3772
S214081760BD4680BC704700BF00ED00E000E100E029
S21408177080B582B000AF78607B68013BB3F1807FAC
S21408178001D301230FE00A4A7B68013B53600F210F
S2140817904FF0FF30074B9847054B00229A60044BE2
S2140817A007221A60002318460837BD4680BD00BFCA
S2140817B010E000E01D17080080B483B000AF786022
S2140817C07B68072B25D801A252F823F0ED170800EE
S2140817D0F3170800F9170800FF1708000318080091
S2140817E0071808000B1808000F1808004FF4FA43EB
S2140817F010E04FF400430DE04FF400430AE0084BB6
S21408180008E0084B06E0084B04E0074B02E0064BEE
S21408181000E0002318460C37BD4680BC704700BF62
S21408182000093D0000127A00001BB70080B500AF23
S2140818300620044B984702461346DB009B1A5B00BB
S214081840184680BDB917080080B500AF024B984708
S21408185003465B08184680BD2D18080080B48BB078
S21408186000AF78600B46FB707B687B62FB7887F876
S21408187023307B6AFB61FB69BB61BB695B097B61E3
S2140818807B6903F5001303F207735B023B6197F865
S2140818902330002B09D07B6AFB60FB6803F01F032C
S2140818A001229A403B691A6308E07B6ABB60BB6802
S2140818B003F01F0301229A403B695A6300BF2C3786
S2140818C0BD4680BC7047000080B582B000AF3C4B78
S2140818D098473C4B98473C4B984702463B4BA3FBE4
S2140818E002239B0918463A4B98473A4B98473A487A
S2140818F03A4B984700237B6028E001216320384B49
S214081900984701216220364B984701216120344BC5
S214081910984701216020324B98476420314B9847FE
S214081920002163202E4B9847002162202C4B9847B5
S214081930002161202A4B984700216020284B9847B1
S2140819406420284B98477B6801337B607B68022BB2
S214081950D3DD254B9847254B1B7803F00103DBB2F4
S214081960002B0DD0012163201D4B984701216220D2
S2140819701B4B98471E4A137843F0010313700CE07C
S21408198000216320164B984700216220144B984785
S214081990174A13786FF300031370144B1B7803F081
S2140819A00203DBB2002B04D0012161200C4B9847C0
S2140819B003E0002161200A4B98470E4B9847C8E77A
S2140819C0ED0908000510080049180800D34D6210F4
S2140819D071170800AD14080000000C402F0208001C
S2140819E05D180800E502080011030800EC0507204A
S2140819F0F0050720E516080070B50F4E0F4D761B4C
S214081A00B61018BF002405D0013455F8043B984793
S214081A10A642F9D10A4E0B4D00F0A8F8761BB61070
S214081A2018BF002406D0013455F8043B9847A64250
S214081A30F9D170BD70BD00BF781B0800781B080080
S214081A40801B0800781B0800024B13B1024800F000
S214081A5005B8704700000000691A08000023014610
S214081A601A46184600F01EB838B50A4C0A4D641BCC
S214081A70A4100AD004F18043013B05EB8305013C22
S214081A8055F804399847002CF9D1BDE8384000F0DD
S214081A9077B800BF901B08008C1B0800704700BF73
S214081AA0704700BF2DE9F8432C4D0646286898462F
S214081AB00F469146FFF7F2FF294B1C68D4F84831C9
S214081AC0002B3ED05A681F2A1CDC02F1010E76B1A4
S214081AD0012103EB8204C4F88890D3F8880191406A
S214081AE00843022EC3F88801C4F8088123D00232BE
S214081AF0C3F804E0286843F82270FFF7D1FF0020F7
S214081B00BDE8F883174B0BB34FF4C870AFF30080EB
S214081B100346D8B10020D4F848114FF0010E58609B
S214081B2019600246C4F84831C3F88801C3F88C0126
S214081B30002EDCD0CCE7D3F88C010143C3F88C1117
S214081B40D5E704F5A673C4F84831BBE72868FFF75D
S214081B50A7FF4FF0FF30BDE8F88300BFB8050720A1
S214081B60681B08000000000090010720F8B500BFB9
S214081B70F8BC08BC9E467047491A080019010800B8
S214081B80F8B500BFF8BC08BC9E467047F5000800CC
S214081B9080B400AF2A4B4FF480621A60294B4FF48A
S214081BA080621A60284B1B6A03F08073002B09D1E9
S214081BB0254B264A1A6200BF234B9B6E03F001038F
S214081BC0002BF9D0204B224A1A6200BF1E4B9B6E90
S214081BD003F48033002BF9D01B4A1B4B1B6B23F0F6
S214081BE0030343F00103136300BF174B9B6E03F018
S214081BF00803002BF9D0144B164A9A6200BF124B02
S214081C009B6E03F00203002BF9D00F4B11221A63C8
S214081C1000BF0D4B9B6E03F00803002BF9D00A4B50
S214081C2012221A6300BF084B9B6E03F00803002BB2
S214081C30F9D0094B094A1A6000BFBD4680BC7047F8
S214081C40000A0E40000C0E4000060E400908370039
S214081C5009083701013F0D208C01072000BD01054A
S214081C6080B483B000AF78607B68254A934206D874
S214081C70244B00221A60244B00221A603BE07B6843
S214081C80224A934208D81F4B4FF480721A601E4BA4
S214081C904FF480721A602EE07B681D4A934208D87B
S214081CA0184B4FF400721A60174B4FF400721A6004
S214081CB021E07B68174A934208D8124B4FF44072CB
S214081CC01A60114B4FF440721A6014E07B68124A8F
S214081CD0934208D80B4B4FF480621A600A4B4FF4B5
S214081CE080621A6007E0074B4FF4A0621A60064B42
S214081CF04FF4A0621A6000BF0C37BD4680BC704720
S214081D00BFEA2101000A0E40000C0E407FF0FA02DE
S214081D10FF8FD003FFB3C4047F4A5D0500093D006A
S214081D20000000007C040720E40407204C05072078
S214081D300000000000000000000000000000000096
S214081D400000000000000000000000000000000086
S214081D500000000000000000000000000000000076
S214081D600000000000000000000000000000000066
S214081D700000000000000000000000000000000056
S214081D800000000000000000000000000000000046
S214081D900000000000000000000000000000000036
S214081DA00000000000000000000000000000000026
S214081DB00000000000000000000000000000000016
S214081DC00000000000000000010000000000000005
S214081DD00E33CDAB34126DE6ECDE05000B000000CA
S214081DE000000000000000000000000000000000E6
S214081DF000000000000000000000000000000000D6
S214081E0000000000000000000000000000000000C5
S214081E1000000000000000000000000000000000B5
S2100821400000000000000000F405072066
S8040811D111
