S019000053656E736F7220436F6E74726F6C6C65722E737265634D
S21408000028260720B9130800B1130800B113080002
S214080010B1130800B1130800B1130800000000006F
S214080020000000000000000000000000B1130800F7
S214080030B113080000000000B11308001D030800F3
S214080040B1130800B1130800B1130800B113080073
S214080050B1130800B1130800B1130800B113080063
S214080060B1130800B113080000000000B11308001F
S214080070B1130800B1130800B1130800000000000F
S21408008000000000B1130800B1130800B1130800FF
S214080090B1130800B1130800B1130800B113080023
S2140800A0B113080000000000B1130800B1130800DF
S2140800B0B1130800B1130800B1130800B113080003
S2140800C0B1130800B1130800B1130800B1130800F3
S2140800D0B1130800B1130800B11308008918080006
S2140800E0B1130800B1130800B1130800B1130800D3
S2140800F0B113080010B5054C237833B9044B13B177
S2140801000448AFF300800123237010BDC405072000
S21408011000000000202A08000C4B43B10C4810B51C
S2140801200C49AFF300800C48036823B910BD0A4891
S214080130036833B97047094B002BF7D0BDE8104069
S2140801401847064B002BF5D0184700BF00000000E4
S214080150202A0800C8050720202A080000000000FA
S21408016080B487B000AFF860B9607A603B60FB681F
S21408017001221A60FB6800225A60FB6840F20222DD
S214080180C3F82021FB680022C3F80421FB6800227C
S214080190C3F814217B685B00BA68B2FBF3F3013B33
S2140801A07B61FB685A687B691B0299B23B680B4304
S2140801B01A43FB685A60002318461C37BD4680BCA5
S2140801C0704780B483B000AF78600B46FB70134668
S2140801D0BB707B685A68F978BB78DB01DBB20B43E7
S2140801E01A437B685A6000BF0C37BD4680BC704710
S2140801F080B485B000AFF8607A601A460B46FB728A
S2140802001346BB72FB685A68BB7A1B0703F040515B
S2140802107B681943FB7A1B0603F070630B431A438B
S214080220FB685A6000BF1437BD4680BC704780B470
S21408023083B000AF78607B6802221A6000BF0C3774
S214080240BD4680BC704780B483B000AF78600B466C
S214080250FB70FB78012202FA03F31A467B681A61E0
S21408026000BF0C37BD4680BC704780B485B000AF71
S21408027078600B46FB700023FB60FB780F2B07D8D3
S2140802807B6803F15002FB789B0013441B68FB60F5
S214080290FB6818461437BD4680BC704780B483B0E8
S2140802A000AF78607B681B6B18460C37BD4680BC71
S2140802B0704780B48BB000AF78600B46FB707B68E5
S2140802C07B62FB7887F823307B6AFB61FB69BB613E
S2140802D0BB695B097B617B6903F5001303F207734F
S2140802E05B023B6197F82330002B09D07B6AFB60E2
S2140802F0FB6803F01F0301229A403B691A6308E073
S2140803007B6ABB60BB6803F01F0301229A403B6907
S2140803105A6300BF2C37BD4680BC704780B400AF18
S214080320044B1B680133034A136000BFBD4680BCFC
S214080330704700BFE005072080B400AF024B1B687B
S2140803401846BD4680BC7047E005072080B485B0D7
S21408035000AF7860074B1B68FB6000BF054B1A6848
S214080360FB68D21A7B689A42F8D300BF1437BD469A
S21408037080BC7047E005072090B583B000AF524BAD
S21408038098470246514B1B68D31AB3F5FA7FC0F05C
S21408039091804D4B984702464C4B1A6000BF4C481C
S2140803A04C4B9847034603F08073B3F1807FF6D131
S2140803B001214748484B98477860484B78689847E3
S2140803C00246474B1A60464B1A68464B10469847F3
S2140803D0454C3BA3D3E90023A04703460C461946E1
S2140803E02246424B08461146984703463B60404B18
S2140803F039683868984703461C463D4B3D49386877
S214080400984703461A463C4B1146204698470346EB
S2140804101A463A4B3A4910469847034683F0004234
S214080420384B39491046984703461A46334B3749DE
S2140804301046984703461A46354B104698470346D3
S214080440DAB2344B1A70334B1B781A46324B1046C6
S2140804509847324C4FF00002314BA04703460C46F3
S21408046018462146204C4FF000022E4BA047034664
S2140804700C46194622462C4B084611469847034612
S214080480DAB2244B1A70294B1B781A4613465B00BF
S2140804901344204A12781344002B00DA03339B10C7
S2140804A0DAB2224B1A70214B1A78214B9A700848F8
S2140804B0204B984700BF0C37BD4690BDAFF3008071
S2140804C04707E7FDC6716C3F39030800E4050720B7
S2140804D000000C409D0208006B020800F924080082
S2140804E0F0050720E11D0800891E0800ED22080017
S2140804F0A92508009A99C941952308009923080058
S2140805008FC21E43112708000AD7233D0000C842A1
S214080510492808008C010720BD1D0800211B08007B
S214080520000034400000F43FAD2208008D0107208B
S214080530FC0507202F02080080B500AF114B1B787A
S21408054003F00103DBB2002B0DD0012163200E4B14
S2140805509847012162200C4B98470C4A137843F0C1
S214080560010313700CE000216320074B9847002115
S2140805706220054B9847054A13786FF300031370FB
S21408058000BF80BDF805072091050800FC05072078
S21408059080B582B000AF78600B46FB700C4B1B78BA
S2140805A003F00403DBB2002B0AD1FB78002B14BF40
S2140805B001230023DBB219467868064B984703E008
S2140805C000217868034B984700BF0837BD4680BDB2
S2140805D0F8050720B302080080B483B000AF78603F
S2140805E039607B685B6823F470227B685A607B6896
S2140805F05A683B681B0403F470231A437B685A60E6
S21408060000BF0C37BD4680BC704780B485B000AFCD
S214080610F860B9607A607B68002B0CD0FB68BA6813
S2140806200C3253F8223043F00101FB68BA680C32EA
S21408063043F822100BE0FB68BA680C3253F82230F5
S21408064023F00101FB68BA680C3243F8221000BF99
S2140806501437BD4680BC704780B485B000AFF860DC
S214080660B9607A607B68002B0CD0FB68BA680C32DD
S21408067053F8223043F00201FB68BA680C3243F89C
S21408068022100BE0FB68BA680C3253F8223023F0CD
S2140806900201FB68BA680C3243F8221000BF143710
S2140806A0BD4680BC704780B485B000AFF860B960BE
S2140806B07A60FB68BA680C3253F8223023F0F001EF
S2140806C0FB68BA680C3243F82210FB68BA680C322A
S2140806D053F822207B6842EA0301FB68BA680C32AA
S2140806E043F8221000BF1437BD4680BC7047000090
S2140806F080B582B000AF78607868034B984700BF33
S2140807000837BD4680BD00BF4B07080080B483B0DD
S21408071000AF78600B46FB707B681B6823F01002FE
S214080720FB781A437B681A6000BF0C37BD4680BC4E
S214080730704780B483B000AF78607B6801225A6047
S21408074000BF0C37BD4680BC704780B483B000AF8E
S21408075078607B685B6823F001027B685A6000BF9C
S2140807600C37BD4680BC704780B483B000AF786055
S21408077039607B683A689A6100BF0C37BD4680BC12
S214080780704780B483B000AF78607B685B6A1846B1
S2140807900C37BD4680BC704780B483B000AF786025
S2140807A0396001223B689A407B689A6200BF0C3722
S2140807B0BD4680BC704780B483B000AF78603960AF
S2140807C001223B689A407B68DA6200BF0C37BD4658
S2140807D080BC704780B485B000AFF860B9607A60B6
S2140807E0F968BA6813469B001344DB000B443C3395
S2140807F07A681A6000BF1437BD4680BC704780B45C
S21408080085B000AFF860B9607A60F968BA681346D0
S2140808109B001344DB000B4440337A681A6000BF21
S2140808201437BD4680BC704780B485B000AFF8600A
S214080830B9607A60F968BA6813469B001344DB000F
S2140808400B4444337A681A6000BF1437BD4680BC30
S214080850704780B485B000AFF860B9607A60F96810
S214080860BA6813469B001344DB000B4448337A6887
S2140808701A6000BF1437BD4680BC704780B485B088
S21408088000AFF860B9607A60F968BA6813469B00EA
S2140808901344DB000B444C337A681A6000BF1437E5
S2140808A0BD4680BC704780B485B000AFF860B960BC
S2140808B07A60F968BA6813469B001344DB000B4459
S2140808C050337A681A6000BF1437BD4680BC70473C
S2140808D080B584B000AFF860B9607A60FB685B6A80
S2140808E07B681B681A46B968F868104B98477B6897
S2140808F05B681A46B968F8680D4B98470022B968CD
S214080900F8680C4B98477B689B681A46B968F8687D
S214080910094B98477B68DB681A46B968F868074B3E
S214080920984700BF1037BD4680BD00BFD5070800F2
S214080930FF07080029080800530808007D08080073
S21408094080B582B000AF78607B68072B31D801A2EB
S21408095052F823F0B1090800750908007D09080057
S214080960850908008D090800950908009D090800F2
S214080970A70908000020114B98471AE001200F4BE2
S214080980984716E000200E4B984712E010200C4BB4
S21408099098470EE020200A4B98470AE03E210020A0
S2140809A0084B984705E03E210120064B984700E093
S2140809B000BF00BF0837BD4680BD00BF2D0D08002C
S2140809C0990D0800090E080080B582B000AF78605F
S2140809D07B68072B26D801A252F823F0FD090800E9
S2140809E0010A0800010A0800130A0800130A08008A
S2140809F0130A0800130A0800130A0800012312E065
S214080A000B4B98470346002B14BF01230023DBB289
S214080A1009E0084B98470346002B14BF0123002320
S214080A20DBB200E0002318460837BD4680BD00BF8D
S214080A30650D0800810E080080B483B000AF7860AA
S214080A407B68072B25D801A252F823F06D0A080008
S214080A50730A0800790A08007F0A0800830A080053
S214080A60870A08008B0A08008F0A08004FF4FA4322
S214080A7010E04FF400430DE04FF400430AE0084B43
S214080A8008E0084B06E0084B04E0074B02E0064B7C
S214080A9000E0002318460C37BD4680BC704700BFF0
S214080AA000093D0000127A00001BB70080B582B02E
S214080AB000AF0346FB7100BFFB791846054B984705
S214080AC0034683F00103DBB2002BF5D100BF0837DD
S214080AD0BD4680BDC909080080B586B000AFF8607D
S214080AE07A603B600B46FB727B68002B07D13B683D
S214080AF0002B04D1FB684FF470021A6019E0FB7AE9
S214080B0018460E4B984702467B68B2FBF3F37B61A8
S214080B107B693A6802FB03F37B613B68013B1A0476
S214080B20074B13407A68D2B2134343F47C52FB68EF
S214080B301A6000BF1837BD4680BD00BF390A0800D6
S214080B400000FF0780B582B000AF786039603B6868
S214080B50002B08D1094B9847094A7B681B6843F065
S214080B600053936205E0064A7B681B6843F48033AB
S214080B70D36100BF0837BD4680BD00BF990E080088
S214080B8000060E4080B582B000AF78607B68002B08
S214080B9003D1054B9847034602E0044B98470346A3
S214080BA018460837BD4680BDB10E0800C90E0800B5
S214080BB080B582B000AF0346FB71FB79033B042B7C
S214080BC008D8FB791846064B9847FB791846054B14
S214080BD0984700E000BF00BF0837BD4680BD00BF8D
S214080BE041090800AD0A080080B582B000AF7860F9
S214080BF000BF7868044B98470346002BF9D00023BB
S214080C0018460837BD4680BD850B080080B500AF7E
S214080C100620044B984702461346DB009B1A5B00E7
S214080C20184680BD390A080080B500AF024B9847C1
S214080C3003465B08184680BD0D0C080090B583B0C7
S214080C4000AF1148114B98470620114B9847381D9E
S214080C500E23012206210F4CA0473B1D00211846F3
S214080C600D4B984700200D4B984710200C4B984783
S214080C700C4B98470C4B984703461846034B984727
S214080C8000BF0C37BD4690BD00BD0105D10007204A
S214080C90B10B0800D90A0800450B0800E90B080044
S214080CA0AD0C080061140800290C080080B485B053
S214080CB000AF78601C491C4B1B6B23F070027B68E6
S214080CC013430B634FF40063FB6007E0FB68002BDD
S214080CD001D1012323E0FB68013BFB60124B9B6EAE
S214080CE003F00803002BF1D00F4A0F4B1B6B23F0C1
S214080CF0030343F0020313634FF40063FB6007E04B
S214080D00FB68002B01D1012309E0FB68013BFB606F
S214080D10054B9B6E03F00803002BF1D00023184602
S214080D201437BD4680BC704700060E4080B483B0BA
S214080D3000AF78607B68012B07D1084A074B9B6891
S214080D4043F0254343F480139360044B044A1A6027
S214080D5000BF0C37BD4680BC704700BF101A0E4057
S214080D60080000A580B400AF094B5B6903F0800358
S214080D70002B07D0074B9B6E03F08003002B01D097
S214080D80012300E000231846BD4680BC704700BF1C
S214080D90101A0E4000060E4080B483B000AF78608C
S214080DA0184A184B1B6A43F45C1343F00803136293
S214080DB000BF144B9B6E03F40033002BF9D0114987
S214080DC0104B1B6A23F45C1323F070037A681343F2
S214080DD043F45C130B6200BF0A4B9B6E03F40033AC
S214080DE0002BF9D0074A074B1B6A23F09B7323F4A2
S214080DF0803343F45C13136200BF0C37BD4680BCD7
S214080E00704700BF00060E4080B483B000AF78601D
S214080E1039607B68002B08D01649164B1B6A164AA1
S214080E201A40164B13430B621EE01249114B1B6AFD
S214080E3023F45C1323F003033A68120292B21343B6
S214080E4043F45C1343F001030B6200BF094B9B6E2F
S214080E5003F00103002BF9D0064A064B1B6A43F041
S214080E609B7343F48033136200BF0C37BD4680BCC7
S214080E70704700BF00060E40FCFFC8FE02003701A0
S214080E8080B400AF034B9B6E03F480331846BD4610
S214080E9080BC704700060E4080B400AF034B4FF08E
S214080EA000529A6200BFBD4680BC704700060E40DE
S214080EB080B400AF034B9B6E03F002031846BD4692
S214080EC080BC704700060E4080B400AF034B9B6E94
S214080ED003F040031846BD4680BC704700060E4027
S214080EE080B483B000AF78607B682C2B01D90123CF
S214080EF02FE07B681F2B13D8184B9A6901217B6853
S214080F0001FA03F31A4001217B6801FA03F39A42B7
S214080F101ED0124A01217B6801FA03F3136117E019
S214080F207B68203B7B600D4BD3F8082101217B684A
S214080F3001FA03F31A4001217B6801FA03F39A4287
S214080F4006D0064A01217B6801FA03F3C2F800318D
S214080F50002318460C37BD4680BC704700060E4076
S214080F6080B483B000AF78607B68072B25D801A2D1
S214080F7052F823F0950F08009B0F0800A10F0800F1
S214080F80A70F0800AB0F0800AF0F0800B30F080044
S214080F90B70F08004FF4FA4310E04FF400430DE093
S214080FA04FF400430AE0084B08E0084B06E0084BFD
S214080FB004E0074B02E0064B00E0002318460C3717
S214080FC0BD4680BC704700BF00093D0000127A008D
S214080FD0001BB70080B500AF0620044B98470246B2
S214080FE01346DB009B1A5B00184680BD610F08009D
S214080FF080B500AF024B984703465B08184680BD8D
S214081000D50F080080B582B000AF78607868034BCB
S214081010984700BF0837BD4680BD00BFE10E0800F0
S21408102080B500AF0B20064B98470C20044B98471A
S2140810300D20034B98470E20014B984700BF80BDF4
S2140810400510080080B489B000AF78607B68FB6143
S214081050FB69BB61BB695A09FB697B617B6903F065
S2140810601F03012101FA03F33A61FB603B69BB6089
S214081070BB6803F5001303F207735B021A46FB68A6
S214081080536000BF2437BD4680BC704780B48DB01F
S21408109000AF786039607B68FB623B68BB62FB6ABE
S2140810A07B627B6A5A09FB6A3B623B6A03F01F0352
S2140810B0012101FA03F3FA61BB61BB6A7B61FB6934
S2140810C03B613B6903F5001303F207735B02FB60A1
S2140810D07B6903F00803002B03D0FB68BA695A66DD
S2140810E002E0FB68BA691A667B6903F02003002BE6
S2140810F003D0FB68BA691A6502E0FB68BA695A65E4
S2140811007B6903F0C003002B03D0FB68BA691A6238
S21408111002E0FB68BA695A627B6903F08003002B19
S21408112004D0FB68BA69C3F8842003E0FB68BA6990
S214081130C3F880207B6903F00103002B06D0FB6808
S2140811401A6FBB691A43FB681A6706E0FB681A6FD2
S214081150BB69DB431A40FB681A6700BF3437BD46D5
S21408116080BC704780B48DB000AF78600B46FB70CB
S2140811707B68FB62FB7887F82B30FB6A7B627B6AAE
S2140811803B623B6A5B09FB61FB6903F5001303F2EC
S21408119007735B02BB6197F82B30012B09D1FB6AFA
S2140811A07B617B6903F01F0301229A40BB691A61C1
S2140811B00CE097F82B30002B08D1FB6A3B613B69A3
S2140811C003F01F0301229A40BB695A61FB6AFB6061
S2140811D0FB6803F01F0301229A40BB69C3F8A020EE
S2140811E000BF3437BD4680BC704780B48BB000AFB4
S2140811F078600B46FB707B687B62FB7887F8233049
S2140812007B6AFB61FB69BB61BB695B097B617B69C8
S21408121003F5001303F207735B023B6197F823306C
S214081220002B09D07B6AFB60FB6803F01F030122D2
S2140812309A403B691A6308E07B6ABB60BB6803F0A8
S2140812401F0301229A403B695A6300BF2C37BD46EC
S21408125080BC704798B500AF474B4FF400425A60C1
S214081260464B984701216320454B98470021632049
S214081270444B984701216220414B98470021622041
S214081280404B9847012161203D4B9847002161203B
S2140812903C4B984701216020394B98470021602035
S2140812A0384B984700211920374B98471920374B59
S2140812B0984700211A20344B98471A20334B9847F2
S2140812C000211B20304B98471B20304B98470021A5
S2140812D01C202D4B98471C202C4B984725202C4B20
S2140812E098472C4B984701464FF480232A4A2B48A8
S2140812F02B4CA04701234FF4401201212748294CC4
S214081300A04701212548284B98470022002123485A
S214081310264B9847082151201B4B984708215320F5
S214081320194B984708215E20174B984708215420E8
S214081330154B984708215620134B984708215820E4
S214081340114B984708215B200F4B984708214320EC
S2140813500D4B9847082147200B4B984708214B20F0
S214081360094B984708214D20074B984708214F20DE
S214081370054B984700BF98BD501A0E40211008002C
S21408138065110800EB1108008D10080045100800CC
S214081390E10E0800F10F080000A8610000000C40EC
S2140813A061010800F101080047020800C3010800AF
S2140813B080B400AFFEE7000080B582B000AF1E4BD9
S2140813C07B601E4B3B607A683B689A420CD007E00D
S2140813D03B681A1D3A607A68111D796012681A60AF
S2140813E03B68174A9342F3D3164B3B6004E03B68CE
S2140813F01A1D3A6000221A603B68134A9342F6D3D5
S214081400124B7B60124A7B6823F0604323F07F030D
S21408141093607B68B3F1005F09D37B680D4A9342FB
S21408142005D80B4A0A4B9B6843F0005393600A4B57
S21408143098470A4B9847FEE7202A0800000007202E
S214081440C4050720C4050720240607200000080056
S21408145000ED00E0FFFF0F20892808004D1A08005D
S21408146080B400AF574B1B6B03F00303032B00F24B
S2140814708A8001A252F823F089140800A9140800EB
S214081480F9140800F91408004F4B5B6903F0800351
S214081490002B04D04D4B4FF400421A6073E04B4BC0
S2140814A04FF4FA421A606EE0464B1B6A03F08073EC
S2140814B0002B03D0454B464A1A6064E0434B454A26
S2140814C01A60404B1B6A03F07003102B04D0202BC5
S2140814D008D0002B0ED00EE03C4B1B685B003B4A46
S2140814E0136008E0394B1A6813465B001344374A02
S2140814F0136000E000BF46E0324B1B6A03F08073BF
S214081500002B03D0314B324A1A601CE02F4B314A6D
S2140815101A602C4B1B6A03F07003102B04D0202B88
S21408152008D0002B0ED00EE0284B1B685B00274A1D
S214081530136008E0254B1A6813465B001344234AD9
S214081540136000E000BF1F4B1B6B03F00303022B66
S21408155015D11C4B9B6A1B0CC3F30A0301331B4AA9
S214081560126802FB03F3194A1360164B9B6ADBB238
S214081570164A1268B2FBF3F3144A136002E0134BE0
S214081580154A1A6000BF0F4B1B6B03F07003702BD5
S21408159008D10E4B1B68114AA2FB03235B080B4AB3
S2140815A013600AE0074B1B6B1B0903F00703074A87
S2140815B0126822FA03F3054A136000BFBD4680BCD2
S2140815C0704700BF00060E40101A0E409001072014
S2140815D0001BB70000093D00001C4E0EABAAAAAAC5
S2140815E080B483B000AF0346FB71084997F907300B
S2140815F05B09FA7902F01F02012000FA02F241F8AC
S214081600232000BF0C37BD4680BC704700E100E0D1
S21408161080B483B000AF78607B6880221A6000BF11
S2140816200C37BD4680BC704780B483B000AF786086
S2140816307B6801221A6000BF0C37BD4680BC704725
S21408164080B483B000AF78607B6802221A6000BF5F
S2140816500C37BD4680BC704780B483B000AF786056
S2140816607B685B6823F001027B685A6000BF0C3712
S214081670BD4680BC704780B483B000AF78607B6896
S2140816805B6843F010027B685A6000BF0C37BD46A3
S21408169080BC704780B500AF024B9847024B98470E
S2140816A000BF80BDFD1708004517080080B588B044
S2140816B000AF7860396001211A481B4B98477B6851
S2140816C0FB601A4B3B613B687B61194BBB6100238F
S2140816D0FB6107F10C031A4601211248154B98477F
S2140816E001211048144B984700210E480E4B984786
S2140816F0124BFB607B683B613B687B61104BBB61B0
S2140817000023FB6107F10C031A4600210548094B24
S214081710984700210348084B984700BF2037BD4626
S21408172080BD00BF00400C40B70708000C80004092
S21408173000003120D10808009907080008800040FA
S2140817400000510280B500AF01211C481C4B984789
S21408175000211A481A4B984718201A4B98471A48D7
S2140817601A4B984718481A4B98471748194B9847E2
S2140817701548194B98470E211348184B98470022CE
S21408178000211148164B9847012200210E48154B98
S2140817909847002200210C48134B98470A48134BD9
S2140817A09847134B134A1188927819809A70032128
S2140817B00F48114B984700BF80BD00BF00400C4043
S2140817C0B7070800E10E0800008000404116080030
S2140817D0111608005916080077160800D9050800DB
S2140817E00B06080059060800A70608002916080070
S2140817F0F4050720FC050720AD16080080B582B062
S21408180000AF2720184B98471848194B98471021BF
S2140818101648184B98471548174B984700237B607F
S2140818207B6843F4813343F002037B607A680021C7
S2140818300E48124B984700237B607B6843F490332E
S21408184043F010037B607A68012108480B4B9847E1
S21408185027200B4B9847012104480A4B984700BF9E
S2140818600837BD4680BD00BFE10E080000400C40AA
S214081870F10608000D07080033070800A708080047
S214081880E11508006907080080B500AF0A480B4B49
S214081890984702460A4B1A60094B1B6803F0010377
S2140818A0002B07D0074B1B681A46074B1A60074BD6
S2140818B001221A7000BF80BD00400C408307080054
S2140818C0EC050720F4050720F8050720E80507209B
S2140818D080B500AF094B1B78002B0CD0074B0022B5
S2140818E01A70074B074A1188927819809A70032154
S2140818F00348054B984700BF80BD00BFE805072092
S214081900F4050720FC050720AD16080080B483B050
S21408191000AF03463960FB7197F90730002B0BDAE6
S2140819200D49FB7903F00F03043B3A68D2B2120163
S214081930D2B20B441A7609E0084997F907303A6894
S214081940D2B21201D2B20B4483F8002300BF0C3780
S214081950BD4680BC704700BF00ED00E000E100E037
S21408196080B582B000AF78607B68013BB3F1807FBA
S21408197001D301230FE00A4A7B68013B53600F211D
S2140819804FF0FF30074B9847054B00229A60044BF0
S21408199007221A60002318460837BD4680BD00BFD8
S2140819A010E000E00D19080080B483B000AF78603E
S2140819B07B68072B25D801A252F823F0DD1908000A
S2140819C0E3190800E9190800EF190800F3190800D8
S2140819D0F7190800FB190800FF1908004FF4FA4326
S2140819E010E04FF400430DE04FF400430AE0084BC4
S2140819F008E0084B06E0084B04E0074B02E0064BFD
S214081A0000E0002318460C37BD4680BC704700BF70
S214081A1000093D0000127A00001BB70080B500AF31
S214081A200620044B984702461346DB009B1A5B00C9
S214081A30184680BDA919080080B500AF024B984724
S214081A4003465B08184680BD1D1A080080B582B09C
S214081A5000AF244B9847244B9847244B9847024698
S214081A60234BA3FB02239B091846224B9847224B7D
S214081A7098472248224B984700237B6028E001219C
S214081A806320204B9847012162201E4B984701216E
S214081A9061201C4B9847012160201A4B9847642008
S214081AA0194B984700216320164B9847002162205F
S214081AB0144B984700216120124B9847002160205C
S214081AC0104B98476420104B98477B6801337B601F
S214081AD07B68022BD3DD0D4B98470D4B98470D4B73
S214081AE09847F8E73D0C080055120800391A080010
S214081AF0D34D6210611908009516080000000C40C6
S214081B002F020800910508004D0308007903080015
S214081B1039050800D118080081F0004102E000BF2E
S214081B2083F0004330B54FEA41044FEA430594EA90
S214081B30050F08BF90EA020F1FBF54EA000C55EACB
S214081B40020C7FEA645C7FEA655C00F0E2804FEA9C
S214081B505454D4EB5555B8BF6D420CDD2C4480EA7E
S214081B60020281EA030382EA000083EA010180EAAE
S214081B70020281EA0303362D88BF30BD11F0004FFC
S214081B804FEA01314FF4801C4CEA113102D0404232
S214081B9061EB410113F0004F4FEA03334CEA13336D
S214081BA002D0524263EB430394EA050F00F0A78085
S214081BB0A4F10104D5F1200E0DDB02FA0EFC22FA80
S214081BC005F2801841F1000103FA0EF2801843FA74
S214081BD005F359410EE0A5F120050EF1200E012A65
S214081BE003FA0EFC28BF4CF0020C43FA05F3C018A3
S214081BF051EBE37101F0004507D54FF0000EDCF11C
S214081C00000C7EEB00006EEB0101B1F5801F1BD3C4
S214081C10B1F5001F0CD349085FEA30004FEA3C0CC8
S214081C2004F101044FEA445212F5800F80F09A80BE
S214081C30BCF1004F08BF5FEA500C50F1000041EBC2
S214081C40045141EA050130BD5FEA4C0C404141EBC6
S214081C50010111F4801FA4F10104E9D191F0000FED
S214081C6004BF01460020B1FA81F308BF2033A3F170
S214081C700B03B3F120020CDA0C3208DD02F1140C67
S214081C80C2F10C0201FA0CF021FA02F10CE002F1A2
S214081C901402D8BFC2F1200C01FA02F120FA0CFC9B
S214081CA0DCBF41EA0C019040E41AA2BF01EB0451E4
S214081CB0294330BD6FEA04041F3C1CDA0C340EDCE2
S214081CC004F11404C4F1200220FA04F001FA02F325
S214081CD040EA030021FA04F345EA030130BDC4F1E3
S214081CE00C04C4F1200220FA02F001FA04F340EAD8
S214081CF00300294630BD21FA04F0294630BD94F089
S214081D00000F83F4801306BF81F480110134013D6F
S214081D104EE77FEA645C18BF7FEA655C29D094EAE0
S214081D20050F08BF90EA020F05D054EA000C04BF5E
S214081D301946104630BD91EA030F1EBF0021002049
S214081D4030BD5FEA545C05D14000494128BF41F0E8
S214081D50004130BD14F580043CBF01F5801130BD4C
S214081D6001F0004545F0FE4141F470014FF00000D7
S214081D7030BD7FEA645C1ABF194610467FEA655C88
S214081D801CBF0B46024650EA013406BF52EA03352A
S214081D9091EA030F41F4002130BD00BF90F0000F18
S214081DA004BF0021704730B54FF4806404F1320454
S214081DB04FF000054FF0000150E700BF90F0000F0D
S214081DC004BF0021704730B54FF4806404F1320434
S214081DD010F0004548BF40424FF000013EE700BF04
S214081DE042004FEAE2014FEA31014FEA02701FBF94
S214081DF012F07F4393F07F4F81F06051704792F066
S214081E00000F14BF93F07F4F704730B54FF46074DF
S214081E1001F0004521F0004120E700BF50EA01022A
S214081E2008BF704730B54FF000050AE050EA0102D7
S214081E3008BF704730B511F0004502D5404261EB47
S214081E4041014FF4806404F132045FEA915C3FF488
S214081E50DCAE4FF003025FEADC0C18BF03325FEA21
S214081E60DC0C18BF033202EBDC02C2F1200300FAD6
S214081E7003FC20FA02F001FA03FE40EA0E0021FAFB
S214081E8002F11444C1E600BF70B54FF0FF0C4CF4E5
S214081E90E06C1CEA11541DBF1CEA135594EA0C0F9B
S214081EA095EA0C0F00F0DEF82C4481EA030621EAD6
S214081EB04C5123EA4C5350EA013518BF52EA033511
S214081EC041F4801143F4801338D0A0FB02CE4FF0C3
S214081ED00005E1FB02E506F00042E0FB03E54FF0F3
S214081EE00006E1FB03569CF0000F18BF4EF0010EEB
S214081EF0A4F1FF04B6F5007F64F5407404D25FEAE7
S214081F004E0E6D4146EB060642EAC62141EA555199
S214081F104FEAC52040EA5E504FEACE2EB4F1FD0CDB
S214081F2088BFBCF5E06F1ED8BEF1004F08BF5FEA59
S214081F30500E50F1000041EB045170BD06F000460B
S214081F4046EA010140EA020081EA0301B4EB5C04B8
S214081F50C2BFD4EB0C0541EA045170BD41F48011B0
S214081F604FF0000E013C00F3AB8014F1360FDEBFD5
S214081F70002001F0004170BDC4F10004203C35DAB1
S214081F800C341BDC04F11404C4F1200500FA05F334
S214081F9020FA04F001FA05F240EA020001F00042D5
S214081FA021F0004110EBD37021FA04F642EB06014B
S214081FB05EEA430E08BF20EAD37070BDC4F10C0475
S214081FC0C4F1200500FA04F320FA05F001FA04F239
S214081FD040EA020001F0004110EBD37041F1000125
S214081FE05EEA430E08BF20EAD37070BDC4F1200530
S214081FF000FA05F24EEA020E20FA04F301FA05F298
S21408200043EA020321FA04F001F0004121FA04F23F
S21408201020EA020000EBD3705EEA430E08BF20EA0F
S214082020D37070BD94F0000F0FD101F00046400049
S21408203041EB010111F4801F08BF013CF7D041EACB
S214082040060195F0000F18BF704703F000465200CF
S21408205043EB030313F4801F08BF013DF7D043EAA0
S2140820600603704794EA0C0F0CEA135518BF95EA56
S2140820700C0F0CD050EA410618BF52EA4306D1D1DD
S21408208081EA030101F000414FF0000070BD50EAFC
S214082090410606BF1046194652EA430619D094EA86
S2140820A00C0F02D150EA013613D195EA0C0F05D170
S2140820B052EA03361CBF104619460AD181EA0301C4
S2140820C001F0004141F0FE4141F470014FF000007C
S2140820D070BD41F0FE4141F4780170BD70B54FF017
S2140820E0FF0C4CF4E06C1CEA11541DBF1CEA135597
S2140820F094EA0C0F95EA0C0F00F0A7F8A4EB050479
S21408210081EA030E52EA03354FEA013100F088806F
S2140821104FEA03334FF0805545EA131343EA126338
S2140821204FEA022245EA111545EA10654FEA0026ED
S2140821300EF000419D4208BF964244F1FD0404F5A6
S214082140407402D25B084FEA3202B61A65EB030502
S2140821505B084FEA32024FF480104FF4002CB6EBBF
S214082160020E75EB030E22BFB61A754640EA0C003F
S2140821705B084FEA3202B6EB020E75EB030E22BF7F
S214082180B61A754640EA5C005B084FEA3202B6EBC0
S214082190020E75EB030E22BFB61A754640EA9C007F
S2140821A05B084FEA3202B6EB020E75EB030E22BF4F
S2140821B0B61A754640EADC0055EA060E18D04FEA0D
S2140821C0051545EA16754FEA06164FEAC30343EAAD
S2140821D052734FEAC2025FEA1C1CC0D111F4801F7A
S2140821E00BD141EA00014FF000004FF0004CB6E773
S2140821F011F4801F04BF01430020B4F1FD0C88BF12
S214082200BCF5E06F3FF6AFAEB5EB030C04BFB6EB1C
S214082210020C5FEA500C50F1000041EB045170BD0F
S2140822200EF0004E4EEA113114EB5C04C2BFD4EB3C
S2140822300C0541EA045170BD41F480114FF0000EC0
S214082240013C90E645EA060E8DE60CEA135594EA3C
S2140822500C0F08BF95EA0C0F3FF43BAF94EA0C0F3F
S2140822600AD150EA01347FF434AF95EA0C0F7FF4B4
S21408227025AF104619462CE795EA0C0F06D152EA08
S21408228003353FF4FDAE1046194622E750EA4106EC
S21408229018BF52EA43067FF4C5AE50EA41047FF4FD
S2140822A00DAF52EA43057FF4EBAE12E74A0011D2AF
S2140822B012F5001211D20DD56FF47873B3EB625293
S2140822C00ED44FEAC12343F0004343EA505323FA9F
S2140822D002F070474FF00000704750EA013002D114
S2140822E04FF0FF3070474FF0000070474FEA41024A
S2140822F0B2F1E04324BFB3F5001CDCF1FE5C0DD957
S21408230001F0004C4FEAC0024CEA5070B2F1004FA0
S21408231040EB830008BF20F00100704711F0804FA3
S21408232021D113F13872BCBF01F00040704741F468
S21408233080114FEA5252C2F11802C2F1200C10FA6C
S2140823400CF320FA02F018BF40F001004FEAC12350
S2140823504FEAD32303FA0CFC40EA0C0023FA02F3F4
S2140823604FEA4303CCE77FEA625307D150EA0133CA
S2140823701EBF4FF0FE4040F44000704701F000409A
S21408238040F0FE4040F40000704700BF80F0004078
S21408239002E000BF81F0004142001FBF5FEA410330
S2140823A092EA030F7FEA226C7FEA236C6AD04FEA30
S2140823B01262D2EB1363C1BFD21841404840414075
S2140823C0B8BF5B42192B88BF704710F0004F40F427
S2140823D0000020F07F4018BF404211F0004F41F443
S2140823E0000121F07F4118BF494292EA030F3FD00F
S2140823F0A2F1010241FA03FC10EB0C00C3F1200322
S21408240001FA03F100F0004302D5494260EB4000B0
S214082410B0F5000F13D3B0F1807F06D340084FEA1B
S214082420310102F10102FE2A51D2B1F1004F40EB10
S214082430C25008BF20F0010040EA03007047490078
S21408244040EB000010F4000FA2F10102EDD1B0FA43
S21408245080FCACF1080CB2EB0C0200FA0CF0AABF38
S21408246000EBC25052421843BCBFD04018437047D6
S21408247092F0000F81F4000106BF80F400000132DC
S214082480013BB5E74FEA41037FEA226C18BF7FEAB3
S214082490236C21D092EA030F04D092F0000F08BFF5
S2140824A00846704790EA010F1CBF0020704712F0DC
S2140824B07F4F04D1400028BF40F00040704712F11B
S2140824C000723CBF00F50000704700F0004343F080
S2140824D0FE4040F4000070477FEA226216BF0846B6
S2140824E07FEA23630146420206BF5FEA412390EA79
S2140824F0010F40F4800070474FF0000304E000BF6F
S21408250010F0004348BF40425FEA000C08BF70471F
S21408251043F0964301464FF000001CE050EA0102E3
S21408252008BF70474FF000030AE000BF50EA0102F8
S21408253008BF704711F0004302D5404261EB4101E5
S2140825405FEA010C02BF84460146002043F0B6430A
S21408255008BFA3F18053A3F50003BCFA8CF2083A2F
S214082560A3EBC25310DB01FA02FC634400FA02FC38
S214082570C2F12002BCF1004F20FA02F243EB02003F
S21408258008BF20F00100704702F1200201FA02FCA1
S214082590C2F1200250EA4C0021FA02F243EB020094
S2140825A008BF20EADC7070474FF0FF0C1CEAD052D8
S2140825B01EBF1CEAD15392EA0C0F93EA0C0F6FD099
S2140825C01A4480EA010C400218BF5FEA41211ED077
S2140825D04FF0006343EA501043EA5111A0FB013163
S2140825E00CF00040B1F5000F3EBF490041EAD37138
S2140825F05B0040EA010062F17F02FD2A1DD8B3F1B4
S214082600004F40EBC25008BF20F00100704790F022
S214082610000F0CF0004C08BF49024CEA502040EA74
S21408262051207F3AC2BFD2F1FF0340EAC25070473A
S21408263040F400004FF00003013A5DDC12F1190F78
S214082640DCBF00F000407047C2F10002410021FAEA
S21408265002F1C2F1200200FA02FC5FEA310040F102
S214082660000053EA4C0308BF20EADC70704792F07B
S214082670000F00F0004C02BF400010F4000F013AB3
S214082680F9D040EA0C0093F0000F01F0004C02BFAE
S214082690490011F4000F013BF9D041EA0C018FE71D
S2140826A00CEAD15392EA0C0F18BF93EA0C0F0AD023
S2140826B030F0004C18BF31F0004CD8D180EA010049
S2140826C000F00040704790F0000F17BF90F0004FE2
S2140826D0084691F0000F91F0004F14D092EA0C0FC4
S2140826E001D142020FD193EA0C0F03D14B0218BF57
S2140826F0084608D180EA010000F0004040F0FE409D
S21408270040F40000704740F0FE4040F44000704738
S2140827104FF0FF0C1CEAD0521EBF1CEAD15392EAB7
S2140827200C0F93EA0C0F69D0A2EB030280EA010CA7
S21408273049024FEA402037D04FF0805343EA111140
S21408274043EA10130CF000408B4238BF5B0042F19E
S2140827507D024FF4000C8B4224BF5B1A40EA0C0043
S214082760B3EB510F24BFA3EB510340EA5C00B3EB75
S214082770910F24BFA3EB910340EA9C00B3EBD10F63
S21408278024BFA3EBD10340EADC001B0118BF5FEAB5
S2140827901C1CE0D1FD2A3FF650AF8B4240EBC250DE
S2140827A008BF20F0010070470CF0004C4CEA50209F
S2140827B07F32C2BFD2F1FF0340EAC250704740F4EE
S2140827C000004FF00003013A37E792F0000F00F0E0
S2140827D0004C02BF400010F4000F013AF9D040EA5E
S2140827E00C0093F0000F01F0004C02BF490011F4F2
S2140827F0000F013BF9D041EA0C0195E70CEAD153EA
S21408280092EA0C0F08D142027FF47DAF93EA0C0FD0
S2140828107FF470AF084676E793EA0C0F04D14B02B4
S2140828203FF44CAF08466EE730F0004C18BF31F066
S214082830004CCAD130F000427FF45CAF31F0004360
S2140828407FF43CAF5FE700BF42000ED2B2F1FE4F06
S2140828500BD34FF09E03B3EB126209D44FEA002362
S21408286043F0004323FA02F070474FF00000704729
S21408287012F1610F01D1420202D14FF0FF307047CA
S2140828804FF00000704700BF70B50F4E0F4D761B17
S214082890B61018BF002405D0013455F8043B9847F5
S2140828A0A642F9D10A4E0B4D00F0A8F8761BB610D2
S2140828B018BF002406D0013455F8043B9847A642B2
S2140828C0F9D170BD70BD00BF082A0800082A0800A4
S2140828D0102A0800082A0800024B13B1024800F024
S2140828E005B8704700000000F928080000230146D4
S2140828F01A46184600F01EB838B50A4C0A4D641B2E
S214082900A4100AD004F18043013B05EB8305013C83
S21408291055F804399847002CF9D1BDE8384000F03E
S21408292077B800BF202A08001C2A0800704700BF96
S214082930704700BF2DE9F8432C4D06462868984690
S2140829400F469146FFF7F2FF294B1C68D4F848312A
S214082950002B3ED05A681F2A1CDC02F1010E76B105
S214082960012103EB8204C4F88890D3F888019140CB
S2140829700843022EC3F88801C4F8088123D002321F
S214082980C3F804E0286843F82270FFF7D1FF002058
S214082990BDE8F883174B0BB34FF4C870AFF300804D
S2140829A00346D8B10020D4F848114FF0010E5860FD
S2140829B019600246C4F84831C3F88801C3F88C0188
S2140829C0002EDCD0CCE7D3F88C010143C3F88C1179
S2140829D0D5E704F5A673C4F84831BBE72868FFF7BF
S2140829E0A7FF4FF0FF30BDE8F88300BFC0050720FB
S2140829F0F82908000000000098010720F8B500BF75
S214082A00F8BC08BC9E467047D9280800190108007B
S214082A10F8B500BFF8BC08BC9E467047F50008002D
S214082A2080B400AF2A4B4FF480621A60294B4FF4EB
S214082A3080621A60284B1B6A03F08073002B09D14A
S214082A40254B264A1A6200BF234B9B6E03F00103F0
S214082A50002BF9D0204B224A1A6200BF1E4B9B6EF1
S214082A6003F48033002BF9D01B4A1B4B1B6B23F057
S214082A70030343F00103136300BF174B9B6E03F079
S214082A800803002BF9D0144B164A9A6200BF124B63
S214082A909B6E03F00203002BF9D00F4B11221A632A
S214082AA000BF0D4B9B6E03F00803002BF9D00A4BB2
S214082AB012221A6300BF084B9B6E03F00803002B14
S214082AC0F9D0094B094A1A6000BFBD4680BC70475A
S214082AD0000A0E40000C0E4000060E40090837009B
S214082AE009083701013F0D209001072000BD0105A8
S214082AF080B483B000AF78607B68254A934206D8D6
S214082B00244B00221A60244B00221A603BE07B68A4
S214082B10224A934208D81F4B4FF480721A601E4B05
S214082B204FF480721A602EE07B681D4A934208D8DC
S214082B30184B4FF400721A60174B4FF400721A6065
S214082B4021E07B68174A934208D8124B4FF440722C
S214082B501A60114B4FF440721A6014E07B68124AF0
S214082B60934208D80B4B4FF480621A600A4B4FF416
S214082B7080621A6007E0074B4FF4A0621A60064BA3
S214082B804FF4A0621A6000BF0C37BD4680BC704781
S214082B90BFEA2101000A0E40000C0E407FF0FA0240
S214082BA0FF8FD003FFB3C4047F4A5D05646400004A
S214082BB000093D0000000000000000008404072013
S214082BC0EC04072054050720000000000000000061
S214082BD000000000000000000000000000000000E8
S214082BE000000000000000000000000000000000D8
S214082BF000000000000000000000000000000000C8
S214082C0000000000000000000000000000000000B7
S214082C1000000000000000000000000000000000A7
S214082C200000000000000000000000000000000097
S214082C300000000000000000000000000000000087
S214082C400000000000000000000000000000000077
S214082C500000000000000000000000000000000067
S214082C6001000000000000000E33CDAB34126DE604
S214082C70ECDE05000B00000000000000000000006D
S214082C800000000000000000000000000000000037
S214082C900000000000000000000000000000000027
S214082CA00000000000000000000000000000000017
S214082CB00000000000000000000000000000000007
S208082FE000060720B3
S8040813B927
